:100000000C9416060C945D060C945D060C945D062B
:100010000C945D060C945D060C945D060C945D06D4
:100020000C945D060C945D060C94A02E0C94722F1B
:100030000C94BA240C945D060C945D060C945D0639
:100040000C945D060C945D060C945D060C945D06A4
:100050000C94FC070C9422250C945D060C945D0610
:100060000C945D060C945D060C945D060C945D0684
:100070000C945D060C945D060C945D060C945D0674
:100080000C945D060C945D060C945D060C945D0664
:100090000C945D060C945D060C945D060C945D0654
:1000A0000C945D060C945D060C945D060009020933
:1000B0000D090409060908090A090C090F091109A3
:1000C00013091E091509170919091B091D0920091A
:1000D000661A661A981A981AD61AF61A7F1C7F1C86
:1000E000381B7F1CD91BD91B4B1C541C7F1C781C34
:1000F000E61BE61BE61BE61BE61BE61BE61BE61BF8
:10010000E61BE61BE61BE61BE61BE61BE61BE61BE7
:10011000F71B051C0C1C131C1D1C0E1D0E1D201D89
:10012000201D171D201D201D201D0E1D0E1D1C1D18
:10013000201D201D1C1DDF2F0630F8300630F83042
:1001400052307530F830CB30DA3035421E001F00A7
:100150002000210022002300240025002600270083
:100160002D002E000000314302542B6500001400C6
:100170001A00090013000A000D000F0018001C00EF
:1001800033002F0030002A004C00296D00000400CD
:1001900015001600170007000B00110008000C00E6
:1001A00012003400280000006900E10000001D007A
:1001B0001B000600190005000E0010003600370075
:1001C00038000000E50052006900E000E200000095
:1001D000E300000000002C00000000000000E70029
:1001E000E6000000500051004F0001000100010036
:1001F00001000100010001000100010001000100F7
:1002000001000100000001000100010000000100E8
:1002100001000100010001000100010001000100D6
:1002200001000100010001000100010000000100C7
:1002300001000100010001000100010001000100B6
:1002400001000100010000000100010000000100A8
:100250000100010001000100010001000100010096
:100260000100000001000100010001000100000088
:10027000010000000000010000000000000001007B
:100280000100010001000100010000003A003B00F4
:100290003C003D003E003F00400041004200430062
:1002A00044004500000000000100000000000000C4
:1002B0000000080500001705000018050C050000E7
:1002C000000000000000000000000000000000002E
:1002D0000000070509050A0500000D050E050000D0
:1002E00000000000280500000000000000000000E1
:1002F00000000605000052054F0500000000000048
:10030000000000000000000000000100500D00008F
:1003100050050000000051050000000000004F05DE
:100320004F0D0000500D00004F0D000000000000B8
:1003300000000000000000000000000000000000BD
:1003400000000000000000000000000000000000AD
:1003500000000000005C0000000000000000000041
:10036000000000000000000000000000000000008D
:10037000000000000000000000000000000000007D
:10038000000000000000000000000000000000006D
:10039000000000000000000000000000000000005D
:1003A000000000000000000000000100000000004C
:1003B0000000000000002C0D000000000000000004
:1003C0000100000000000000000044454255473A8B
:1003D0002064697361626C65642E0A00444542556D
:1003E000473A20656E61626C65642E0A0000000069
:1003F00000000000000000000101020304050608DF
:100400000A0C0F1114181C2024292E33393F464C96
:10041000535B626A7179818A929AA2AAB2B9C1C801
:10042000CFD5DCE1E7EBF0F4F7FAFCFDFEFFFEFDD3
:10043000FCFAF7F4F0EBE7E1DCD5CFC8C1B9B2AA1A
:10044000A29A928A8179716A625B534C463F393332
:100450002E2924201C1814110F0C0A080605040369
:10046000020101000000000000000000000A002559
:1004700030313662003A200025303258000A722F9F
:1004800063203031323334353637383941424344D2
:1004900045460A007267626C696768742074696D0A
:1004A00065722064697361626C652E0A007267620E
:1004B0006C696768742074696D657220656E61622D
:1004C0006C65642E0A007267626C696768742073D9
:1004D000657420687376205B4E4F454550524F4DF2
:1004E0005D3A2025752C25752C25750A00726762EA
:1004F0006C696768742073657420687376205B4547
:100500004550524F4D5D3A2025752C25752C25758B
:100510000A007267626C69676874207261696E6252
:100520006F7720736574206873763A2025642C25D4
:10053000642C25642C25750A007267626C696768F3
:10054000742064697361626C65205B454550524F4D
:100550004D5D3A207267626C696768745F636F6EA5
:100560006669672E656E61626C65203D2025750A9F
:10057000007267626C6967687420656E61626C65A1
:10058000205B454550524F4D5D3A207267626C6961
:100590006768745F636F6E6669672E656E61626C13
:1005A00065203D2025750A007267626C6967687472
:1005B00020746F67676C65205B454550524F4D5DF9
:1005C0003A207267626C696768745F636F6E666910
:1005D000672E656E61626C65203D2025750A00728C
:1005E00067626C69676874206D6F6465205B4E4F4D
:1005F000454550524F4D5D3A2025750A007267629D
:100600006C69676874206D6F6465205B4545505266
:100610004F4D5D3A2025750A007267626C69676804
:10062000745F696E6974207267626C696768745F71
:10063000636F6E6669672E6D6F6465203D20302E96
:100640002057726974652064656661756C742076E4
:10065000616C75657320746F20454550524F4D2E67
:100660000A007267626C696768745F696E697420FA
:100670006565636F6E666967206973206E6F7420AD
:10068000656E61626C65642E0A007267626C6967F0
:1006900068745F696E6974207374617274210A00F2
:1006A0007267626C696768745F696E697420636100
:1006B0006C6C65642E0A007267626C696768745FAF
:1006C000636F6E6669672E7370656564203D2025D3
:1006D000640A007267626C696768745F636F6E6654
:1006E00069672E76616C203D2025640A007267627E
:1006F0006C696768745F636F6E6669672E73617497
:10070000203D2025640A007267626C696768745F27
:10071000636F6E6669672E687565203D2025640AE3
:10072000007267686C696768745F636F6E6669679B
:100730002E6D6F6465203D2025640A007267626C2F
:10074000696768745F636F6E6669672E656E616264
:100750006C65203D2025640A007267626C696768D9
:10076000745F636F6E666967206570726F6D0A00F3
:1007700000047F3F1F643214643214783C1E1E1440
:100780000A052223252628292A2C2D2F30323335FD
:1007900036383A3B3D3E4042434547494A4C4E502D
:1007A00051535557595A5C5E6062646668696B6D57
:1007B0006F71737577797B7D7F81838587898A8C5B
:1007C0008E90929496989A9C9E9FA1A3A5A7A8AA62
:1007D000ACAEAFB1B3B4B6B8B9BBBCBEBFC1C2C397
:1007E000C5C6C7C9CACBCCCDCED0D1D2D2D3D4D531
:1007F000D6D7D7D8D9D9DADADBDBDBDCDCDCDCDC5A
:10080000DDDDDDDDDCDCDCDCDCDBDBDBDADAD9D931
:10081000D8D7D7D6D5D4D3D2D2D1D0CECDCCCBCABF
:10082000C9C7C6C5C3C2C1BFBEBCBBB9B8B6B4B3E5
:10083000B1AFAEACAAA8A7A5A3A19F9E9C9A98967B
:100840009492908E8C8A89878583817F7D7B79774E
:100850007573716F6D6B6968666462605E5C5A592E
:1008600057555351504E4C4A4947454342403E3DEF
:100870003B3A3836353332302F2D2C2A292826257D
:100880002322FFAA7F554000000000000000000066
:100890000001010101010101010102020202020243
:1008A0000202030303030303030404040404050511
:1008B00005050506060606060707070708080808CF
:1008C0000909090A0A0A0B0B0B0C0C0C0D0D0D0E75
:1008D0000E0E0F0F10101011111212131314141505
:1008E0001516161717181819191A1A1B1C1C1D1D76
:1008F0001E1F1F20212122232324252526272828C7
:10090000292A2B2C2C2D2E2F3031313233343536F1
:100910003738393A3B3C3D3E3F40414243444546EF
:100920004748494B4C4D4E4F5052535455575859C8
:100930005A5C5D5E606163646567686A6B6C6E6F6C
:100940007172747677797A7C7D7F818284868789DB
:100950008B8D8E9092949597999B9D9FA1A2A4A612
:10096000A8AAACAEB0B2B4B6B9BBBDBFC1C3C5C80E
:10097000CACCCED0D3D5D7DADCDEE1E3E6E8EAEDC7
:10098000EFF2F4F7F9FCFF0A002530325820006B33
:100990006579626F6172645F7265706F72743A201C
:1009A000000A0025303258006B6579626F6172640D
:1009B0005F7365745F6C65643A2000290A002575D1
:1009C000002F002575005D280025640020002564A7
:1009D00000200025640020002564007C00253032C2
:1009E00058006D6F7573656B6579205B62746E7C02
:1009F000782079207620685D287265702F61636C9D
:100A0000293A205B006261636B6C696768742073CC
:100A10007465703A2025750A006261636B6C6967C2
:100A200068742064697361626C650A006261636B5B
:100A30006C6967687420656E61626C650A0062614A
:100A4000636B6C6967687420746F67676C653A20C4
:100A500025750A006261636B6C6967687420646560
:100A60006372656173653A2025750A006261636B84
:100A70006C6967687420696E6372656173653A209A
:100A800025750A005B735D004B6579626F61726466
:100A90002073746172742E0A005B575D005B535DB6
:100AA000005B525D005B445D005B435D000403300E
:100AB0000000000C036B0062006400360037000089
:100AC0000010036B0062006400660061006E00733A
:100AD0000000000403090409025B00030100A0FAFE
:100AE0000904000001030101000921110100012294
:100AF00040000705810308000A0904010001030002
:100B00000000092111010001228500070582032050
:100B1000000A09040200020300000009211101007B
:100B2000012222000705830320000107050303209B
:100B300000011201100100000008EDFE000001009C
:100B4000010203010631FF0974A101097515002690
:100B5000FF009520750881020976150026FF009593
:100B60002075089102C005010902A1018502090151
:100B7000A100050919012905150025019505750133
:100B80008102950175038101050109300931158143
:100B9000257F95027508810609381581257F950105
:100BA00075088106050C0A38021581257F950175A7
:100BB000088106C0C005010980A101850316010056
:100BC0002603001A81002A8300751095018100C058
:100BD000050C0901A1018504160100269C021A01D9
:100BE000002A9C02751095018100C005010906A12B
:100BF00001050719E029E715002501950875018110
:100C000002950175088101050819012905950575E9
:100C10000191029501750391010507190029FF153E
:100C20000026FF00950675088100C00011241FBE34
:100C3000CFEFDAE0DEBFCDBF04B603FE27C0809160
:100C40009E0290919F02A091A002B091A1028730D4
:100C5000904BA740B04BD1F410929E0210929F028D
:100C60001092A0021092A10214BE84B7877F84BFA5
:100C70000FB6F894A8958091600088618093600019
:100C8000109260000FBEE0E0F8E3099511E0A0E0EB
:100C9000B1E0E0E1F4E602C005900D92AE36B10796
:100CA000D9F722E0AEE6B1E001C01D92AE39B2073D
:100CB000E1F70E94B92B0C9406320C940000FF93CC
:100CC000EF93E0916E01F0916F01309709F0099573
:100CD000EF91FF910895FC018591803011F0EFDFD5
:100CE000FBCF0895FF27E0E230E247FF0CC04195BB
:100CF00097FF09C0EDE26095709580959095611D14
:100D0000711D811D911D27FF02C0219530E350E226
:100D1000AA27660F771F881F991FAA1FA41710F014
:100D2000A41B63955A95A9F7AA3008F0A95FA05DA6
:100D3000AF93F395611571058105910541F7ED328A
:100D400011F4EF93F395F21718F43F93F395FBCF5B
:100D50008F91B5DFFA95E1F70895E991F9918591C1
:100D6000803021F0853219F0AADFF9CF089520E014
:100D7000E89455915532C1F3503311F4689455916C
:100D80005A3348F4505390F3220F022E220F220FB1
:100D9000200D250FF4CF0EF42195899199915336AA
:100DA00019F3533729F1533559F1BC018827992795
:100DB000E8945C3621F48991999168945591543660
:100DC00039F446EF7EF077FF0DC08FEF9FEF0AC03A
:100DD00055374AE039F0583540E121F0523642E0CB
:100DE00009F00895FF93EF937DDFEF91FF91B7CF67
:100DF000FF93EF93FC0181918030B9F360DFFBCF6B
:100E0000FF93EF9368DFF1CFDF93CF93CDB7DEB7DA
:100E10002596A3DFCF91DF9108950C944C0D0C948F
:100E20004D0D0C94590781FF02C0229A01C02298EF
:100E30002A980C948908CF92DF92EF92FF928C3718
:100E400024E1920728F469E070E00E94473129C04C
:100E5000A0E0B0E08A50974DAF4FBF4F6627782F84
:100E6000892F9A2F25EF38E241E050E00E946F3140
:100E700069017A01CA01B9010E942B319B01AC01C1
:100E8000C701B6010E942B31BB27A92F982F872FAE
:100E9000009721E0A207B10511F0BC0102C06FEF7D
:100EA0007FEFCB01FF90EF90DF90CF90089581E02E
:100EB000089581E008951F93CF93DF9300D000D071
:100EC0001F92CDB7DEB749835A832091AD01898146
:100ED0009A81211112C0662349F00E943322182FF3
:100EE000682F89819A810E94D82103C00E9407221D
:100EF000182F69817A81812F04C00E943322698171
:100F00007A810F900F900F900F900F90DF91CF91FB
:100F10001F910C949C0AFC01408151816281738174
:100F200084810C945B070E94E80D8FE39CE9019794
:100F3000F1F700C000000E94E80D80E00E944E0D15
:100F400080FF04C00E9498230C94482508950C94B7
:100F50000F07E82FE295EF70F0E032A1282F2F70F5
:100F600081E090E001C0880F2A95EAF780958323FD
:100F700082A30895843030F4811105C090918000DF
:100F80009F7D04C083E090918000906290938000E8
:100F9000282F30E0AFEFBFEF0E94973123E030E021
:100FA00040E050E00E946F31C9010E941B079093FE
:100FB0008B0080938A00089580916F00817008955E
:100FC000109271011092700110927201EFE6F0E040
:100FD0008081816080830895EFE6F0E080818E7FDC
:100FE00080830E944C290C94BA070E94DC0781116F
:100FF0000C94EC070C94E0071F920F920FB60F921F
:1010000011242F933F934F935F936F937F938F930D
:101010009F93AF93BF93CF93EF93FF9320910001E2
:101020008091700190917101019644EF249F90018D
:101030001124B9010E94473190937101809370018E
:10104000B901660F672F661F770B71950E944731B4
:101050006F7780917201823019F4603451F404C0CA
:10106000813039F46F3729F480916F008E7F80933F
:101070006F00E62FF0E0E351FC4FC4910E944C2931
:10108000282F41E051E0C49FC001C59F900D11245D
:1010900063E070E00E944731269FC001279F900DBA
:1010A00011240E941B0790938B0080938A00FF916C
:1010B000EF91CF91BF91AF919F918F917F916F9160
:1010C0005F914F913F912F910F900FBE0F901F9006
:1010D0001895269A86E30E94A90782E280938000F1
:1010E00089E1809381008FEF9FEF90938700809339
:1010F00086000E9428280C94E0070E9493070E9413
:101100009E23811102C00E9421240E9469080C9430
:101110000D0708950C94130708950E94FE1C0E9469
:101120008C082FEF84E39CE0215080409040E1F751
:1011300000C000000C9448250F931F93CF93DF93BA
:10114000EC010E948B078C01BE010E9411078823CD
:1011500031F1BE01C8010E947816882301F10A3CD2
:101160008CE51807F1F008F01CC1023C8CE518076B
:10117000F9F008F0CDC005318CE5180708F093C0F0
:1011800002308CE51807D8F401158CE5180709F032
:1011900067C0CA81CC2309F4C5C10E948D08C0E094
:1011A000C1C1CA81CC2309F4BDC10E943F12F7CF4F
:1011B000CA81CC2309F4B6C10E942515F0CF8A81DB
:1011C000882309F450C00E949E23811102C00E940E
:1011D00021240E94B12390E090938F0280938E028D
:1011E000F801E350FC45E231F10530F4EA5AFF4FD3
:1011F00080918E020C94913180918E02816027C083
:10120000826025C0846023C0806121C080621FC0CD
:1012100080641DC080681BC08460886018C08E7F99
:1012200016C08D7F14C08B7F12C08F7E10C08F7D43
:101230000EC08F7B0CC08F770AC08B7F877F07C063
:1012400087FB222720F991E0922790FB87F9809372
:101250008E0280918E020E94B5230E94FE1C9FCFB9
:1012600001301C4539F0CE01DF91CF911F910F91D4
:101270000C945707CA81CC2309F454C180912D02E4
:10128000C82FC095C170C0FB80F980932D02CC237C
:1012900029F08CED93E00E946B0681CF8AEC93E0FD
:1012A0000E946B063FC106318CE5180731F50E949C
:1012B000B322282F8A814091110150911201882375
:1012C00079F02A7A91E009F490E0909373019111FA
:1012D00002C069E201C065E3CA010E9455240AC048
:1012E00080917301811102C069E201C065E3CA0106
:1012F0000E9457240E94FF2252CF013C1C4509F056
:10130000B2CFCA81CC2309F40DC10E94F50747CFA3
:10131000CA81063C8CE5180731F4CC2309F402C1DC
:101320000E9403123CCF073C8CE5180708F5043CEB
:101330008CE5180751F4CC2309F4F4C00E94B322C1
:10134000827269F40E9472142ACF053C1C4550F445
:10135000CC2309F4E7C00E94B322827299F70E945D
:1013600065141DCFCC2309F4DDC00E94F61117CF00
:10137000083C8CE5180731F4CC2309F4D3C00E9453
:1013800021120DCF093C1C4530F4CC2309F4CAC00E
:101390000E94121204CFCC2309F4C4C00E94301260
:1013A000FECE013D8CE5180771F4CA81CC2309F407
:1013B000B9C00E942C108F3020F00E942C10843174
:1013C00070F28FE00EC0023D8CE5180708F058C09F
:1013D0000D3C8CE5180741F4CA81CC2309F4A2C066
:1013E00081E00E947514DBCE0E3C8CE51807B0F44A
:1013F0000B3C8CE5180739F4CA81CC2309F492C060
:101400000E943410CCCE0C3C1C4509F02CCFCA8174
:10141000CC2309F487C00E944510C1CECA810F3C7D
:101420008CE5180771F4CC2309F47CC00E942C10C1
:10143000863028F00E942C10883008F490CF86E087
:10144000D0CF003D1C4570F4CC2309F46BC00E9442
:101450002C10823028F00E942C10853008F47FCFA9
:1014600082E0BFCFCC2309F45DC00E942C108930EC
:1014700028F00E942C108E3008F471CF89E0B1CF93
:10148000053D8CE5180731F4CA81CC2309F44AC024
:1014900083E2A7CF063D8CE5180730F5CA81033DEE
:1014A0008CE5180721F4CC23E9F188E19ACF043DBB
:1014B0001C4568F4CC23B1F10E942C10853128F032
:1014C0000E942C10873108F44ACF85E18ACFCC23C3
:1014D00049F10E942C10893128F00E942C10823290
:1014E00008F43DCF89E17DCF0D3D8CE5180739F437
:1014F000CA81CC23B9F082E00E94632C50CE0E3D0D
:101500008CE5180731F4CA81CC2361F00E942124B4
:1015100046CE0C3D1C4509F0A6CECA81CC2311F065
:1015200080E0EACF8C2FDF91CF911F910F9108952A
:1015300080E090E008950895E72FF0E095E0899F1E
:10154000E00DF11D112484E0EE0FFF1F8A95E1F7F5
:10155000E60FF11DEE0FFF1FE65BFE4F85919491A4
:101560000895880F991FFC01E359FB4F85919491D1
:101570000895CF93DF930E949C0A0E94AC0CEC016B
:10158000811521E5920708F042C0811560E59607B4
:1015900008F031C1883E910500F5803E910508F0C4
:1015A000D7C1883A910570F4853A910508F0A6C034
:1015B0008130910509F4CCC108F47DC1049708F08D
:1015C000C7C179C18F3B910508F4A3C0803C910548
:1015D00008F471C1805C9109FDC0C11580E3D80792
:1015E00080F4C11590E2D90708F0F2C0C03FD105E0
:1015F00008F461C1CF3FD10511F008F0A9C1D06551
:10160000A7C1C11520E4D20708F0F2C0E7C08115D8
:1016100069E5960760F5C11588E5D80708F037C178
:10162000C11594E5D90778F4C11523E5D20708F070
:1016300013C1C11562E5D60708F0F8C0DC2FCC272E
:10164000C16FD06A85C1C11585E5D80708F41AC1F4
:10165000C11596E5D90708F02EC18C2F0E94290DDF
:101660008F71C82FD0E0DC2FCC27D06271C18D3BA9
:101670002CE5920709F416C1F0F4CB3B8CE5D807B2
:1016800009F40AC108F00BC1C1152AE5D20708F018
:1016900012C18C2F8F700E94290D94E0D695C795AA
:1016A0009A95E1F7CF70D0E0DC2FCC27D06A8F700D
:1016B000806EC82B4DC1803C9C4509F4F9C0C13CEB
:1016C0008CE5D80760F4CE3B9CE5D90709F4EDC062
:1016D000CF3BDC4509F0EFC0C0E0D2ED39C1CE010F
:1016E00090568115904208F0E6C08D2F8F710E94B0
:1016F000290DDD27D0628F71D82B2AC1853A91053B
:1017000009F4DCC0863A910509F0DBC0C2E8D0E4F8
:101710001FC1883A910509F4D7C0893A910509F4A7
:10172000D6C08A3A910509F4D5C08B3A910509F4DF
:10173000D4C08C3A910509F4D3C08B3B910509F4D0
:10174000D2C08C3B910509F4D1C08D3A910509F4C2
:10175000D0C0803B910509F4CFC08E3A910509F4C1
:10176000CEC08F3A910509F4CDC0813B910509F4B3
:10177000CCC0823B910509F4CBC0833B910509F4B1
:10178000CAC0843B910509F4C9C0853B910509F4A1
:10179000C8C0863B910509F4C7C0873B910509F491
:1017A000C6C0883B910509F4C5C0893B910509F481
:1017B000C4C08D3B910509F4C3C08E3B910509F46B
:1017C000C2C08A3B910509F4C1C0C0E0D4E4C0C0E6
:1017D000CE019F700E94B10AEC01BAC0CE019927D8
:1017E000D3FF03C0EC01D86CB3C0EC01D06CB0C027
:1017F000DF70D06AADC0837021E030E002C0220FFC
:10180000331F8A95E2F73C68CE0174E09695879580
:101810007A95E1F78370382BCF70C695C69580E234
:10182000C89FE0011124C22BD32B92C04C2F4695A8
:10183000469590E2499FA0011124C370DD2721E065
:1018400030E0C90102C0880F991FCA95E2F7EC0188
:10185000C42BD52BDC687CC04C2F4695469580E286
:10186000489FA0011124C370DD2721E030E0C901A9
:1018700002C0880F991FCA95E2F7EC01C42BD52B43
:10188000DA6866C0DC2FCC27C46FD06A61C0DC2F59
:10189000CC27C06FD06A5CC0C0E0D4ED59C0C0E0B6
:1018A000D5ED56C0C0E0D1ED53C0C0E0D0ED50C082
:1018B000C0E0D3ED4DC0C0E0D0E04AC0C1E8D0E404
:1018C00047C0C3E8D0E444C0C2EED4E441C0C9EE8E
:1018D000D4E43EC0CAEED4E43BC0C5EBD4E438C087
:1018E000C6EBD4E435C0C3EBD4E432C0C4EBD4E4DB
:1018F0002FC0C7EBD4E42CC0CCECD4E429C0CDEC91
:10190000D4E426C0C3E8D5E423C0CAE8D5E420C0A7
:10191000C2E9D5E41DC0C4E9D5E41AC0C1E2D6E4E9
:1019200017C0C3E2D6E414C0C4E2D6E411C0C5E2D5
:10193000D6E40EC0C6E2D6E40BC0C7E2D6E408C0C7
:10194000CFE6D4E405C0C0E7D4E402C0CAE2D6E4DE
:10195000CE01DF91CF9108958238910549F1B0F41D
:101960008133910509F458C048F48932910509F48E
:101970004EC08A32910509F454C00895853391050B
:1019800009F440C08933910599F00895833E91058B
:1019900029F138F4803E910591F0823E9105A1F045
:1019A0000895863E9105F9F0873E910531F108953D
:1019B00020918E0220FD3AC021FD38C0089580910B
:1019C0008E0280FD35C032C080918E0282FF32C00F
:1019D00080918E0284FD30C083EE39C080918E02EA
:1019E00082FD28C0F5CF80918E0283FF27C08091B1
:1019F0008E0284FD21C087EE2AC080918E0283FD75
:101A00001DC0F5CF80918E0285FD1AC01BC080914C
:101A10008E0285FD17C014C080918E0286FD14C011
:101A200015C080918E0286FD11C00EC080EE0FC0E1
:101A300089E30DC082EE0BC080E009C086EE07C0CE
:101A400089E205C085E303C08AE201C081E390E03A
:101A5000089590918E0292FF0DC0282F2871283092
:101A600019F4877F846006C0282F2471243011F474
:101A70008B7F886093FF0DC0282F2871283119F4BF
:101A8000877E846106C0282F2471243111F48B7E57
:101A9000886194FD877E089508950895E82FF0E009
:101AA000EE0FFF1FEC58FE4F808191810895CF9279
:101AB000DF92EF92FF920F931F93CF93DF938DE707
:101AC00094E00E946B0684E7E82E81E0F82EC0E0E7
:101AD000D0E098E7C92E94E0D92E0FE614E0DF930A
:101AE000CF93DF92CF920E94040785E794E00E9493
:101AF0006B06F701819191917F010E947E239F9354
:101B00008F931F930F930E9404078DE694E00E9429
:101B10006B0621968DB79EB708960FB6F8949EBFB8
:101B20000FBE8DBFC530D105D1F6DF91CF911F918A
:101B30000F91FF90EF90DF90CF900895E4E3F1E0F4
:101B400041E050E025E02E0F9191A92FA295AF70B2
:101B5000B0E091963C9191979F70BA0102C0660FD8
:101B6000771F9A95E2F7CB018095832391968C930A
:101B70002E13EACFA4E2B1E041E050E020E12A0FC9
:101B80008D91E82FE295EF70F0E031A18F70BA01EE
:101B900002C0660F771F8A95E2F7CB01962F9095CA
:101BA000932391A392A1892B82A32A13E9CFEEE775
:101BB000F1E0A4E7B1E0119211921D921D9271E043
:101BC000E838F707C1F785E00E947F0E0C947D0886
:101BD0005F926F927F928F929F92AF92BF92CF92BD
:101BE000DF92EF92FF920F931F93CF93DF9304E363
:101BF00011E0AEE7B1E0612CEE24E394F12C5D013D
:101C00008D909C90119711961C921E92E8018991DB
:101C10008E01E82FE295EF70F0E091A18F70A7019F
:101C200001C0440F8A95EAF7892F842B81A382A1F2
:101C3000542E5094852182A3D0EADA95F1F784E2FC
:101C4000C82E81E0D82E80E090E0E60179906E0108
:101C5000272D22952F7030E0E90168A12D913C914C
:101C6000119770E0D72DDF7002C075956795DA95F2
:101C7000E2F760FD08C0B701082E02C0660F771FAB
:101C80000A94E2F702C060E070E0262B372B119631
:101C90003C932E93019680319105B9F681A1D52D03
:101CA000D823D1A382A1482B42A3129681E0F5014B
:101CB000208131818216930609F480E0682AF1E0E0
:101CC000A838BF0709F09BCF262D45E064E771E0F7
:101CD0008EE791E00E94800E0E94A707862DDF917B
:101CE000CF911F910F91FF90EF90DF90CF90BF9019
:101CF000AF909F908F907F906F905F900895089520
:101D0000FF920F931F93CF93DF93F82E092F162F77
:101D1000D72FC42F222349F081E080938A010E94AB
:101D2000EC24909389018093880180918A01882313
:101D3000D9F080918801909189010E94F82406973A
:101D400098F0EF2DF02FA12FBD2F80E090E04C2FC9
:101D500050E08417950734F4219131912D933D93F0
:101D60000196F7CF10928A01DF91CF911F910F91C9
:101D7000FF900895CF92DF92EF92FF920F931F93FF
:101D8000CF93DF937B01282F382FE82FF0E0F1105D
:101D900006C0E957F74F6491762F862F7BC00F2D31
:101DA00010E046E0649FC0011124CFEFD0E0BE01F7
:101DB0000E944731AB016BEA6403C001659F900D3F
:101DC00011248E0D911D8E0D911D982F990F890F45
:101DD000BE01601B710B6E9FD0016F9FB00D7E9F87
:101DE000B00D11249B2F8F9DB0011124672F7727F1
:101DF0007E01E61AF70AEE9EB001EF9E700DFE9E80
:101E0000700D11246E01C81AD108C09E7001C19EC8
:101E1000F00CD09EF00C11240F2D1127C01BD10BFC
:101E2000CE9F8001CF9F100DDE9F100D1124812FBA
:101E30004230510591F04CF441155105E1F041302B
:101E40005105B9F4822F272F16C04430510569F08F
:101E500044F04630510579F00CC0822F2B2F912F82
:101E60000AC02B2F932F872F06C08B2F922F212F45
:101E700002C08B2F972FE22FF0E0E957F74F7491B4
:101E8000E82FF0E0E957F74F6491E92FF0E0E957C8
:101E9000F74F8491DF91CF911F910F91FF90EF90B9
:101EA000DF90CF9008950895CF93DF93762FE901C7
:101EB000682F842F0E94BA0E798368838A83DF910A
:101EC000CF910895453B08F044EB0C94540F80915A
:101ED0004702282F269530E02115310519F481702D
:101EE000826005C02532310524F0817088648093BA
:101EF000470280914A02853B18F084EB80934A02A6
:101F0000089588E090E00C94C631CF93DF9300D021
:101F100000D0CDB7DEB7AB01BC0149835A836B83D8
:101F20007C830E94670F49815A816B817C8188E0A4
:101F300090E00F900F900F900F90DF91CF910C9445
:101F4000E431E7E4F2E083E0808311828FEF828363
:101F500084EB8383148260817181828193810C94EC
:101F6000850F80912D0280FF08C089E597E09F933F
:101F70008F930E9404070F900F9080912D0280FF95
:101F80000FC08091470281701F928F938CE397E07E
:101F90009F938F930E9404070F900F900F900F90C4
:101FA00080912D0280FF0FC08091470286951F927D
:101FB0008F9381E297E09F938F930E9404070F9085
:101FC0000F900F900F9080912D0280FF0EC0809196
:101FD00048021F928F9387E097E09F938F930E9410
:101FE00004070F900F900F900F9080912D0280FFAB
:101FF0000EC0809149021F928F938DEE96E09F93C1
:102000008F930E9404070F900F900F900F90809174
:102010002D0280FF0EC080914A021F928F9383EDA4
:1020200096E09F938F930E9404070F900F900F905C
:102030000F9080912D0280FF0EC080914B021F9265
:102040008F9387EB96E09F938F930E9404070F90E6
:102050000F900F900F9008958091470280FF02C06B
:102060008695089580E0089580914B02833018F49E
:102070008F5F80934B02609147027091480280917C
:10208000490290914A020C94850F80914B0288235B
:1020900019F0815080934B02609147027091480281
:1020A0008091490290914A020C94850F609105013C
:1020B00070E08091470280FF0AC080918F0123E089
:1020C000829FC0011124845B9D4F0C94081680915F
:1020D0008E0190910401891780F7E82FF0E09F01AD
:1020E000220F331FE20FF31FE45BFD4F11821082BA
:1020F00012828F5FF0CF9091470290FF16C09091AF
:102100008E0120910401921770F4E92FF0E0DF01B5
:10211000AA0FBB1FEA0FFB1FE45BFD4F81836083A7
:1021200042839F5FF0CF0C9456100895CF93DF93B6
:1021300000D01F92CDB7DEB79091470290FF0AC042
:102140009E012F5F3F4F0E94620F4B8169818A8100
:102150000E947B100F900F900F90DF91CF91089508
:10216000CF93DF93EC01EC81F0E0EE57F84F449110
:10217000E7E4F2E0628181810E9496108C818F5F9A
:102180008C83DF91CF910895CF93DF93EC01E7E447
:10219000F2E0438162818C810E9496108C818F5F76
:1021A0008C83DF91CF9108950F931F93CF93DF938B
:1021B00000D01F92CDB7DEB78C0180918B018111C9
:1021C0000AC09E012F5F3F4F44EB6FEF0E94620FEA
:1021D0008A8180938B01F8018481813051F028F04D
:1021E000823061F440918B010AC080918B0140E004
:1021F00007C060918B0140E080E003C040E080E0D8
:1022000060E00E947B10F801248130E0C901019652
:1022100063E070E00E945B3184830F900F900F9019
:10222000DF91CF911F910F9108956F927F928F92BE
:102230009F92AF92BF92CF92DF92EF92FF920F9355
:102240001F93CF93DF9300D000D0CDB7DEB7182F08
:10225000D62E042FB22E9091470290FFAAC0E92FEC
:10226000E695AE2FB0E0A75CBE4F8C9180939701AE
:102270009E7F923061F49E012F5F3F4F812F0E941D
:10228000620F4B8169818A810E947B1060C082301D
:1022900019F400914A025BC0863019F4109148028B
:1022A00056C08930D9F3893109F051C0E9518E2FD8
:1022B00080958170C82EE695F0E0EE57F74FE590D7
:1022C000F490A12CFF2422E1822E25E0922E609131
:1022D0000301A616D0F56A2C712C6E9CC0016F9C70
:1022E000900D7E9C900D112470E00E944731812F4B
:1022F000CC2011F0860F01C0861B90912D0290FF1B
:1023000013C0FF92EF921F92CF921F928F931F9252
:10231000AF929F928F928C830E9404070FB6F8941D
:10232000DEBF0FBECDBF8C8190918E01690E711CF6
:102330009301220F331F260D371D245B3D4F402F85
:102340006D2D0E94620FA394C2CF0E94561010936D
:102350004802D092490200934A02BB20C9F0609122
:102360004702709148028091490290914A020E946E
:10237000850F80914A021F928F93809149021F928C
:102380008F93809148021F928F938DEE94E008C046
:102390001F920F931F92DF921F921F9386EC94E07F
:1023A0009F938F930E9404070FB6F894DEBF0FBE71
:1023B000CDBF0F900F900F900F90DF91CF911F9195
:1023C0000F91FF90EF90DF90CF90BF90AF909F90D4
:1023D0008F907F906F900895E7E4F2E09181282F2D
:1023E0004381628188E0890F0C94151181E00C947F
:1023F000EC11E7E4F2E09181282F4381628188EFBC
:10240000890F0C94151181E00C94F911E7E4F2E0C6
:10241000628128E0620F08F46FEF282F43818181E9
:102420000C94151181E00C940612E7E4F2E062814D
:1024300028E0621B08F460E0282F438181810C941E
:10244000151181E00C941512E7E4F2E0438128E0D5
:10245000420F08F44FEF282F628181810C941511EF
:1024600081E00C942412E7E4F2E0438128E0421B6F
:1024700008F440E0282F628181810C94151181E0DD
:102480000C94331220E00C941511FF920F931F93BC
:10249000CF93DF93EC01F12C0FEF10E0609103017B
:1024A000F616E8F420918E0130E02F0D311DC901A0
:1024B000880F991F280F391F245B3D4F70E0C8011A
:1024C0000E945B31962F8C8140914A0260914902B3
:1024D000F99E800D11240E94620FF394DFCF0E94B9
:1024E00056109A818C8190FF02C08F5F01C081508D
:1024F0008C83DF91CF911F910F91FF900895BF9230
:10250000CF92DF92EF92FF920F931F93CF93DF93BF
:10251000FC01828180FF02C00FEF01C001E010E0EA
:10252000809103011817E0F5C12ED12C80918E0106
:10253000E601C80FD11DCE01880F991FC80FD91F02
:10254000C45BDD4F198218821A8234E0E32EF12C2D
:10255000B12C80918D018B0D87FF03C090910301F9
:10256000890F082E000C990BC816D90691F480919A
:102570004A028E9DA0018F9D500D112455954795BF
:10258000559547959E0160914902809148020E94AD
:10259000620FB00EF1E0EF1AF108D9F61F5FC0CF5D
:1025A0000E94561080918D01013031F4811102C0DA
:1025B00080910301815007C090E001966091030172
:1025C00070E00E945B3180938D01DF91CF911F916C
:1025D0000F91FF90EF90DF90CF90BF900895CF9331
:1025E00080918E0190910401891770F4E82FF0E03A
:1025F0009F01220F331FE20FF31FE45BFD4F118297
:10260000108212828F5FF0CFC0E060910301C61785
:10261000B8F5EC2FF0E070E0CF010E945B31409103
:102620008E01480F80918C01082E000C990B50E010
:10263000E817F907C4F020910201022E000C330BB9
:102640002E173F0784F09A01220F331F240F351FE6
:10265000245B3D4F40914A026091490280914802BB
:102660000E94620F0BC0FA01EE0FFF1F4E0F5F1F9B
:10267000FA01E45BFD4F118210821282CF5FC5CF59
:102680000E9456102091010180918C01820F80934D
:102690008C0190910201920F9093020119165CF443
:1026A000082E000C990B4091030150E04150510954
:1026B000841795071CF0219520930101CF9108956F
:1026C0000F931F93CF93DF938C01FC01848195813D
:1026D00001968170992795838483C0E0D5E5809128
:1026E0000301C817F8F420918E0130E02C0F311D42
:1026F000C901880F991F280F391F245B3D4F4C2FAC
:102700004695F80184819581840F911D81704091D7
:102710004A02609149028D9F802D11240E94620F10
:10272000CF5FDDCFDF91CF911F910F910C945610A9
:102730000F931F93CF93DF93EC0100E010E08091A3
:102740000301282F30E00217130724F590918E0122
:102750009801290F311DA901440F551F240F351F62
:10276000245B3D4F869590E04C81081719071CF4B7
:10277000442331F002C0411103C040914A0201C01C
:1027800040E060914902809148020E94620F0F5F11
:102790001F4FD5CF0E9456102C8130E02F5F3F4F46
:1027A000217033272C83DF91CF911F910F910895D2
:1027B00060914702669570E04BE050E086E091E062
:1027C0000E94B131892B19F481E0809398010E9415
:1027D000EC24909391018093900180912D0280FFD1
:1027E00008C08DEA94E09F938F930E9404070F9096
:1027F0000F9008951092980180912D0280FF08C0DB
:1028000084E994E09F938F930E9404070F900F90A8
:1028100008959091470290FF4CC09170811102C0C1
:10282000926006C0853210F0986402C0880F982B21
:1028300090934702662391F060914702709148029D
:102840008091490290914A020E94850F809147022F
:1028500086951F928F938DEF95E007C08091470278
:1028600086951F928F938FED95E09F938F930E9493
:1028700004070F900F900F900F906091470266959C
:1028800070E04BE050E086E091E00E94B131892B8E
:1028900019F00E94FA1302C00E94D81381E08093BD
:1028A000930140914A0260914902809148020C9440
:1028B00042120895682F90914702969581E0890F02
:1028C000853208F081E00C94091481E00C945A14CC
:1028D000682F9091470296958FEF890F09F484E253
:1028E0000C94091481E00C94681461E00C940914B0
:1028F000CF93DF93C7E4D2E08881816088831F9201
:1029000081E08F9381E795E09F938F930E94040766
:102910000F900F900F900F9088818695DF91CF9147
:102920000C94751460E00C94091480919601811147
:1029300061C080912D02816080932D0280EA96E033
:102940009F938F930E94040780912D020F900F9008
:1029500080FF08C08AE896E09F938F930E94040747
:102960000F900F900E949E23811110C080912D0224
:1029700080FF08C082E696E09F938F930E94040731
:102980000F900F900E9421240E94A10F0E94810F9E
:1029900060934702709348028093490290934A02E1
:1029A0006E7FC1F480912D0280FF08C089E196E01E
:1029B0009F938F930E9404070F900F900E94A10F86
:1029C0000E94810F609347027093480280934902EE
:1029D00090934A020E94670F0E94B10F10929801D3
:1029E0008091470280FF03C086950E94921481E087
:1029F000809396010895CF93DF93C7E4D2E0888156
:102A00008E7F8883688179818A819B810E94850F6E
:102A1000888181701F928F9389E395E09F938F93B4
:102A20000E9404070E94FA132FEF80E792E02150E2
:102A300080409040E1F700C000000F900F900F9091
:102A40000F90DF91CF910C945610809147028095A2
:102A500081701F928F9388EA95E09F938F930E94D5
:102A60000407809147020F900F900F900F9080FD08
:102A70000C94FB140C9478140F931F93CF93DF9353
:102A800080919801882309F48CC080919701E0918E
:102A90004702E695E81BE0939201823049F4F0E0AA
:102AA000E258F84FE491CE2FD0E000EB10E149C09E
:102AB000863049F4F0E0E558F84FE491CE2FD0E0AD
:102AC00004EC10E13EC0893051F4E695F0E0E8589E
:102AD000F84FE491CE2FD0E005E412E132C08F3000
:102AE00051F4E695F0E0EB58F84FE491CE2FD0E0AA
:102AF0000FE712E126C0853149F4F0E0EE58F84FB7
:102B0000E491CE2FD0E00FEE12E11BC0883181F0AE
:102B1000833239F4E0E7F7E0C591D49104ED10E198
:102B200010C0843251F4C4EFD1E008E913E109C0C8
:102B3000C8EED3E000E613E104C0C0EDD7E003E542
:102B40001FE080919301882389F0109293010E94E5
:102B5000EC249E0120953095820F931F9093910154
:102B600080939001109295011092940180919001B0
:102B7000909191010E94F8248C179D0790F0E091AC
:102B80009001F0919101CE0FDF1FD0939101C0937E
:102B9000900180E991E0F801DF91CF911F910F91B1
:102BA0000994DF91CF911F910F9108952EB1342F89
:102BB000309523233EB1432B3FB7F894FC01680FB7
:102BC000791FE617F70789F0819198E04EB9000068
:102BD00000C087FF2EB9880F000000C000C000C0F1
:102BE0002EB900C09A9591F7ECCF3FBF08952DB153
:102BF000242B2DB99B01220F331F620F731F0E94DC
:102C0000D61587EC90E00197F1F700C00000089519
:102C100044E00C94F7150F931F93CF93DF93C62FC7
:102C2000D42F022FFC0182818823C9F060939B017D
:102C30000E94EC2490939A018093990180E28C0F7A
:102C4000883008F050C0C77081E001C0880FCA9575
:102C5000EAF7DF91CF911F910F910C94221A1091F6
:102C60009B01161330C08091990190919A010E94A6
:102C7000F824883C910538F5C0E2CD0F1D17B9F056
:102C800080E2810F883040F4177081E001C0880F26
:102C90001A95EAF70E94291AC83048F481E09D2F5E
:102CA000977001C0880F9A95EAF70E94221A802F28
:102CB0000E940F1AC830B8F4D77081E001C0880FA5
:102CC000DA95EAF70AC080E28C0F883060F4C770AA
:102CD00081E001C0880FCA95EAF7DF91CF911F917B
:102CE0000F910C94291ADF91CF911F910F910895A4
:102CF0009C01CB01203F4CE53407F9F078F4283DE6
:102D0000FCE53F07B9F0293D4CE5340711F1273DBB
:102D10003C4531F526E241EE61EE1EC0223FFCE566
:102D20003F0799F070F0233F3C45D1F427E245EE90
:102D300066EE12C027E245EE0EC026E241EE60EEDE
:102D40000BC027E245EE64EE07C026E241EE62EEDC
:102D500003C028E241E065EE0E940B1680E0089572
:102D6000FC018281882319F010929B01089581E073
:102D700008959093A1018093A0010895E091A0018E
:102D8000F091A101309721F00190F081E02D09949C
:102D900080E00895EF92FF920F931F93CF93DF93FC
:102DA000E091A001F091A1013097B1F18C01028076
:102DB000F381E02D099580912D0282FF2DC080FFC7
:102DC00004C08FE899E00E946B06E80118E089E8EA
:102DD000E82E89E0F82E80912D0280FF0BC08881BB
:102DE0001F928F93FF92EF920E9404070F900F9013
:102DF0000F900F90115021961111EDCF80912D025F
:102E000080FF0AC087E899E0DF91CF911F910F9171
:102E1000FF90EF900C946B06DF91CF911F910F9173
:102E2000FF90EF900895E091A001F091A1013097FB
:102E300039F022E0DC012C930480F581E02D099427
:102E4000089520919E0130919F018217930771F0A0
:102E500090939F0180939E01E091A001F091A101C8
:102E6000309721F00680F781E02D09940895209194
:102E70009C0130919D018217930771F090939D0101
:102E800080939C01E091A001F091A101309721F085
:102E90000084F185E02D0994089585B7806885BF89
:102EA00085B7806885BF0895089508950C945517D7
:102EB00008950C9458170E944D170E9454170C94B3
:102EC000561781E008950E94E3240E949E0D0E94FF
:102ED0006C250E9428280E9495140C945917CF93B2
:102EE000C82F80912D0282FF1EC080FF04C088EA97
:102EF00099E00E946B0680912D0280FF0CC01F920A
:102F0000CF9383EA99E09F938F930E9404070F90D9
:102F10000F900F900F9080912D0280FF04C081EAE6
:102F200099E00E946B068C2FCF910C948A084F92E7
:102F30005F927F928F929F92AF92BF92CF92DF92D9
:102F4000EF92FF920F931F93CF93DF93CDB7DEB72E
:102F50002A970FB6F894DEBF0FBECDBF0E94E80DD2
:102F60000E946117811111C08FEF89838A831B82B0
:102F70000E94EC248160782F9D838C8349815A8143
:102F80006B818D810E94551857C093EAC92E91E03C
:102F9000D92E00E010E0AA24A394B12C702E802F2B
:102FA0000E944E0D4C01F601419051906F01482650
:102FB00059264114510431F40F5F1F4F053011059C
:102FC00069F7D2CF80912D0281FD0E94570D20E03C
:102FD00030E07501022E02C0EE0CFF1C0A94E2F7ED
:102FE000C70184219521892B09F12E837F828E20B0
:102FF0009F2091E0892809F490E098870E94EC24B2
:103000008160782F9A8789874E815F8168858A855C
:103010000E945518000F111FF801ED55FE4F8081D9
:103020009181E826F926F182E08206C02F5F3F4FAA
:103030002031310571F6C0CF0E9481271091A20185
:103040000E94BE161817D9F00E94BE168093A201E6
:103050002A960FB6F894DEBF0FBECDBFDF91CF9199
:103060001F910F91FF90EF90DF90CF90BF90AF90A6
:103070009F908F907F905F904F900C946F172A963F
:103080000FB6F894DEBF0FBECDBFDF91CF911F9179
:103090000F91FF90EF90DF90CF90BF90AF909F90F7
:1030A0008F907F905F904F900895CF93DF93CDB72F
:1030B000DEB72B970FB6F894DEBF0FBECDBF4F83A0
:1030C000588769877A878B87DE01119686E0FD0134
:1030D00011928A95E9F785E0FE01379601900D92ED
:1030E0008A95E1F749815A816B817C818D819E812E
:1030F0000E94A81F2B960FB6F894DEBF0FBECDBF5F
:10310000DF91CF910895FC01808191810E9474220A
:103110000895882309F41AC18238C1F40E94BE16AA
:1031200081FD14C169E380911101909112010E9407
:1031300055240E94FF222FEF81EE94E02150804021
:103140009040E1F700C0000069E319C08338F9F44A
:103150000E94BE1680FDFAC063E580911101909136
:1031600012010E9455240E94FF222FEF81EE94E06D
:10317000215080409040E1F700C0000063E580915D
:103180001101909112010E9457240C94FF2284385F
:10319000C1F40E94BE1682FDD9C067E4809111017E
:1031A000909112010E9455240E94FF222FEF81EE80
:1031B00094E0215080409040E1F700C0000067E4B7
:1031C000DECF9CEF980F913A40F4682F8091110167
:1031D000909112010E945524D8CF90E2980F983018
:1031E00050F4877091E001C0990F8A95EAF7892F12
:1031F0000E94B622CACF9BE5980F933070F4853AAF
:1032000029F0863A31F083E890E005C081E890E04B
:1032100002C082E890E00C94211798E5980F97314E
:1032200008F08EC0883A09F445C0893A09F445C0CF
:103230008A3A09F445C08B3A09F445C08C3A09F43E
:1032400045C08B3B09F445C08C3B09F445C08D3A21
:1032500009F445C0803B09F445C08E3A09F445C0E5
:103260008F3A09F445C0813B09F445C0823B09F41B
:1032700045C0833B09F445C0843B09F445C0853B08
:1032800009F445C0863B09F445C0873B09F445C0B5
:10329000883B09F445C0893B09F445C08D3B09F4DE
:1032A00045C08E3B09F445C08A3B09F445C080E027
:1032B00090E044C082EE90E041C089EE90E03EC0D4
:1032C0008AEE90E03BC085EB90E038C086EB90E062
:1032D00035C083EB90E032C084EB90E02FC087EBE9
:1032E00090E02CC08CEC90E029C08DEC90E026C0E2
:1032F00083E891E023C08AE891E020C082E991E070
:103300001DC084E991E01AC081E292E017C083E217
:1033100092E014C084E292E011C085E292E00EC017
:1033200086E292E00BC087E292E008C08FE690E070
:1033300005C080E790E002C08AE292E00C94371763
:10334000803F20F00E9407260C94F42608958823DD
:1033500009F464C0823879F40E94BE1681FF5EC011
:1033600069E380911101909112010E9455240E94FD
:10337000FF2269E310C08338B1F40E94BE1680FFBB
:103380004DC063E580911101909112010E94552476
:103390000E94FF2263E580911101909112010E9429
:1033A00057240C94FF22843879F40E94BE1682FFC1
:1033B00035C067E480911101909112010E9455245B
:1033C0000E94FF2267E4E7CF9CEF980F913A10F438
:1033D000682FE1CF90E2980F983050F4877091E019
:1033E00001C0990F8A95EAF7892F0E94BC22D9CF94
:1033F0009BE5980F933020F480E090E00C94211727
:1034000098E5980F973120F480E090E00C943717FE
:10341000803F20F00E946F260C94F4260895CF93ED
:10342000C82F0E948918C93349F42FEF83EC99E023
:10343000215080409040E1F700C000008C2FCF91D8
:103440000C94A719882321F00E94B6220C94FF2225
:103450000895882321F00E94BC220C94FF22089535
:103460004F925F926F927F92BF92CF92DF92EF92D4
:10347000FF920F931F93CF93DF937C01062FC72FEB
:10348000FC01158112951F70D281D1110E94D322A7
:103490000E94AC22882379F0DD2369F080E2800F5E
:1034A000883048F082E00E944A230E94AC2291E0DA
:1034B000B82EB92601C0B12CCC2EC2948FE0C82200
:1034C000D12CF601E859FF4F0C9491318C2F807F5D
:1034D000CF70882311F0C295C07FDD2399F0CC23F3
:1034E00009F4C4C180E2800F883010F0011104C0DB
:1034F0008C2F0E94B62203C08C2F0E94C6220E94ED
:10350000FF22B4C1802F0E94A719CC2309F4F7C170
:1035100080E2800F883010F0011104C08C2F0E94CF
:10352000BC2203C08C2F0E94CC220E94FF22E7C144
:103530008C2F807FCF70803211F0C295C07F002326
:1035400019F00130C9F022C0DD2371F0112341F0E0
:10355000113031F40E94E6228C2B0E94EC22CFC164
:103560000E94E6228C2B3AC1112319F0113009F484
:10357000C6C10E94F52218C0DD2321F0163008F0E4
:10358000BEC10EC0153008F0BAC10EC0DD2351F027
:10359000112331F0F701858180FF68C18F70858329
:1035A0008C2F1CC1111173C18C2F1EC18C2F8695BD
:1035B0008695837090E0009719F0019761F09FC1A4
:1035C000DD2321F0802F9C2F937002C080E090E0DB
:1035D0000E942117A4C1DD2321F0802F9C2F93701E
:1035E00002C080E090E00E94371799C1DD23F9F016
:1035F000053F51F0063F71F0043FA9F48091880225
:103600009091890281600BC080918802909189021B
:10361000826005C0809188029091890284609093B5
:10362000890280938802802F0E9407261EC0053FD2
:1036300051F0063F71F0043FA9F480918802909107
:1036400089028E7F0BC080918802909189028D7FC4
:1036500005C080918802909189028B7F90938902A6
:1036600080938802802F0E946F260E94F42657C103
:103670008C2F837009F04BC0D1114DC1202F2295A2
:1036800026952770220F220F602F6F70862F90E0F3
:10369000A0E0B0E02C013D01022E04C0440C551CFA
:1036A000661C771C0A94D2F704FF10C08FE090E0EC
:1036B000A0E0B0E004C0880F991FAA1FBB1F2A9585
:1036C000D2F780959095A095B09503C080E090E0EA
:1036D000DC01C695C695C370D0E0BC01CD0164295C
:1036E000752986299729C230D10559F0C330D105F3
:1036F00059F0219719F00E94ED200DC10E94DB20A6
:103700000AC10E94FF2007C10E94D92004C1DD2305
:1037100019F08C2F817001C08695882309F4FBC0B5
:10372000202F229526952770220F220F602F6F7071
:10373000862F90E0A0E0B0E02C013D01022E04C0F5
:10374000440C551C661C771C0A94D2F704FF10C069
:103750008FE090E0A0E0B0E004C0880F991FAA1F9E
:10376000BB1F2A95D2F780959095A095B09503C080
:1037700080E090E0DC01C695C695C370D0E0BC0146
:10378000CD016429752986299729C230D10559F0C0
:10379000C330D10559F0219719F00E94B321BBC065
:1037A0000E94A121B8C00E94C521B5C00E94142169
:1037B000B2C0802F90E0FC01E05EF109E531F10537
:1037C00008F050C0E858FF4F0C9491310F708C2FC7
:1037D0008F71DD2331F00E943A21802F0E94221A3E
:1037E0008EC00E945B21802F0E94291A88C0DD2391
:1037F00041F0153008F083C08C2F8F710E9480211A
:103800007EC0163008F07BC0F7CFDD2339F08C2F57
:103810008F710E943A2173C0DD23C9F38C2F8F7101
:103820000E945B216CC0DD2329F08C2F8F710E94D8
:10383000252165C00E94202162C0DD2349F0CF719F
:103840008C2F0E943A2163E08C2F0E94352357C0B1
:1038500081E00E944A23123008F451C082E00E94A5
:103860004A234DC0DD2331F0112389F2802F0E94BD
:10387000891845C0112391F2093349F4FFEF23EC75
:1038800089E0F15020408040E1F700C00000802F27
:103890000E94A71934C04C2F4F70602FC7010E949F
:1038A000980A0E944C203BC0D11139C0CF70D0E0A3
:1038B000C230D10599F03CF4209769F02197F9F4D2
:1038C0000E9475282CC0C430D10571F054F02597A2
:1038D000B1F480E00AC00E94452821C00E94DF2880
:1038E0001EC00E94FB281BC083E00E94312917C024
:1038F0004C2F4F70602FC7010E949B0A10C098E0A8
:10390000C916D10441F05CF0FAE0CF1AD10822E0E8
:10391000C216D10420F40E94BE160E948A08BB2061
:10392000F1F00E94A82280FD1AC0F70112820E94C5
:10393000A2220E943A21C7010E94BD1C0E94A2221D
:10394000DF91CF911F910F91FF90EF90DF90CF907B
:10395000BF907F906F905F904F900C945B21DF91B0
:10396000CF911F910F91FF90EF90DF90CF90BF907C
:103970007F906F905F904F9008950F931F93CF9318
:10398000DF93EC01888199812B813C81232BB9F055
:103990009F3F11F48F3F99F0CE010E949C0888232D
:1039A00071F0688179818A810E947F228C010E9456
:1039B000D7210E94D820B801CE010E94301ADF9191
:1039C000CF911F910F9108950E94D3220E94E3226C
:1039D0000E94FF220E941C280E94F42680E090E0B2
:1039E0000E94211780E090E00C943717809111011C
:1039F000909112010E9459240C94E41C0E94C3224D
:103A00000C94F61CE92FE295EF70F0E03297EE305F
:103A1000F105B0F4E357FF4F0C949131803F91F0E2
:103A200018F4803E68F40EC0843F51F40BC0803E11
:103A300048F0813F29F406C093FB882780F9089558
:103A400080E0089581E008950E9474220E94021D82
:103A50000895CF93DF9300D000D01F92CDB7DEB78B
:103A60000F900F900F900F900F90DF91CF910895CE
:103A7000CF93DF9300D000D000D0CDB7DEB726962D
:103A80000FB6F894DEBF0FBECDBFDF91CF91089582
:103A90001F93CF93DF93C091AE0116E08091AF01E9
:103AA000C81799F0D0E01C9FF0011D9FF00D112464
:103AB000E055FE4F408151816281738184819581FF
:103AC0000E94381D2196C770E9CFDF91CF911F91D9
:103AD00008954091E0015091E1016091E2017091FF
:103AE000E3018091E4019091E5010C94381D8091EF
:103AF000E50182958F7009F054C08091E20188231E
:103B000009F44FC08091AE01A091AF016091E00136
:103B10007091E1014091E3015091E401B6E08A1710
:103B200009F43FC090E041155105C1F17F3F11F408
:103B30006F3FA1F1B89FF001B99FF00D1124E0553E
:103B4000FE4F218172132AC02081621327C0228177
:103B5000211124C0238134812417350710F421500A
:103B60003109241B350B283C3105C0F42091E501B7
:103B70002F7020612093E50126E0289FF001299F06
:103B8000F00D1124EB54FE4F80818F708061808393
:103B900080EE91E00E94BD1C0C94481D0196877038
:103BA000BECF0895CF92DF92EF92FF920F931F93B3
:103BB000CF93DF93CDB7DEB762970FB6F894DEBF31
:103BC0000FBECDBF8C0185E0F801DE011D9601908E
:103BD0000D928A95E1F7D8014C9111965C9111975D
:103BE00012966C9112971396CD90DC9014973091A9
:103BF000E0017091E1018091E3019091E40100976F
:103C000009F46BC17F3F19F43F3F09F466C1E090AE
:103C1000E201EE2009F4C0C02091E501C816D906E2
:103C200028F0F601E81BF90BCF0104C080959095B0
:103C30008C0D9D1DFF24F394883C910578F0F12CA8
:103C4000207F09F0C6C07C2DD98AC88A89890E9444
:103C5000291D80EE91E00E94BD1CB1C0822F807FA3
:103C600009F046C0751314C0341312C0611110C09E
:103C70002F7020612093E5010E94691D80EE91E084
:103C80000E94BD1C8091E501D80115968C932EC031
:103C9000CD2819F15F3F11F44F3FF9F0F62E611175
:103CA0001CC08091AE012091AF0136E0821709F46B
:103CB0005AC090E0389FF001399FF00D1124E05573
:103CC000FE4F7181571306C07081471303C0728184
:103CD000711103C001968770E9CFF62E662309F4AF
:103CE00027C18091E50181608093E501F12C20C11D
:103CF000751308C0341306C0611104C08091E5013A
:103D0000D801C3C04D875E878D859E856A8B0E94D2
:103D1000241D6A898823E1F16623D1F12091E50110
:103D2000822F82958F7090E0029774F08091E0016D
:103D30009091E10198878F831986DB86CA862C874C
:103D4000CE0107960E94BD1C86E0F801A0EEB1E00E
:103D500001900D928A95E1F70E94771D0E94691DDE
:103D6000FF24F394E5C04D875E878D859E850E9474
:103D70007422292F22952F7030E0223031050CF06B
:103D8000CBC09F7009F0C5C0805E883008F4D0C0F9
:103D9000C8010E94BD1CE4CFC816D90608F453C060
:103DA000F601E81BF90BCF01883C910508F450C0DF
:103DB000F12C7C2DD98AC88A89890E94291DE0EEC0
:103DC000F1E086E0DF011D928A95E9F70E94691D06
:103DD000AFC0751314C0341312C0611110C08091AC
:103DE000E501F8018583C8010E94BD1C86E0E0EE74
:103DF000F1E0DF011D928A95E9F7FE2C99C04D870D
:103E00005E878D859E856A8B0E94241D6A89882322
:103E100009F4BECF662309F4BBCF2091E501822FC0
:103E200082958F7090E002970CF48ECF8091E00124
:103E30009091E1019A8389831B82DD82CC822E835B
:103E4000CE0101967FCF809590958C0D9D1DACCFB6
:103E5000F62E662309F49CCF75132EC034132CC0A4
:103E60002091E50120FD1FC0822F82958F70D9F02F
:103E7000D80115962C9315978F3049F08F5F982FA6
:103E80009295907F822F8F70892B15968C93C80105
:103E90000E94BD1C86E0F801A0EEB1E001900D92F9
:103EA0008A95E1F793CF86E0F801A0EEB1E00190AA
:103EB0000D928A95E1F73CC04D875E878D859E8582
:103EC0000E94241D811140CF8091E5018160809383
:103ED000E501C8010E94BD1C2BC0662309F458CF20
:103EE0004D875E878D859E850E94241DF82E882330
:103EF00009F44ECF86E0F801A0EEB1E001900D92FA
:103F00008A95E1F780EE91E00E9483180E94771D68
:103F10005DCF811139CF0CC0243031050CF038CF82
:103F20009F7009F431CFF8019581907F09F02CCF73
:103F30008F2D62960FB6F894DEBF0FBECDBFDF9116
:103F4000CF911F910F91FF90EF90DF90CF90089548
:103F50001F93CF93DF93CDB7DEB72C970FB6F894AE
:103F6000DEBF0FBECDBF4F83588769877A878B87A7
:103F70009C87CE0107960E94D21D882369F08F810D
:103F800098852A853B85232BF1F19F3F09F063C07B
:103F90008F3F09F060C037C086E0FE013796DE0132
:103FA000119601900D928A95E1F76F817885EA85E7
:103FB000FB85309741F17F3F11F46F3F21F1209154
:103FC000AF0130E0C9010196877099274091AE0199
:103FD00050E08417950709F447C069837A83FD830D
:103FE000EC8396E0929FD001939FB00D1124A055D1
:103FF000BE4FFE01319601900D929A95E1F78093A4
:10400000AF010E94481D16E08091AE019091AF0172
:104010008917C1F1189FC001112480559E4F0E943D
:10402000D21D882379F1E091AE011E9FF001112489
:10403000E055FE4F40815181628173818481958179
:104040000E94381D8091AE0190E0019687709927FB
:104050008093AE01D9CF4F81588569857A858B854C
:104060009C850E94381DCFCF0E94FE1C1092AF018C
:104070001092AE01E0EEF1E086E0DF011D928A953C
:10408000E9F7C1CF2C960FB6F894DEBF0FBECDBFB7
:10409000DF91CF911F910895EF92FF920F931F939D
:1040A000CF93DF938C01892B09F46CC0F12CEE24A3
:1040B000E394E8012196F8018491843740F4843038
:1040C00008F051C0813081F0823019F15BC0853732
:1040D00009F444C0A8F19CE7980F903708F052C04B
:1040E0008F770E94A71941C00E5F1F4FFE01C49138
:1040F00080E28C0F883048F4C7708E2D01C0880F85
:10410000CA95EAF70E94D62214C08C2F0E94891803
:104110002DC00E5F1F4FFE01C49180E28C0F8830CE
:1041200058F4C7708E2D01C0880FCA95EAF70E9417
:10413000DC220E94FF221AC08C2F0E94A71916C0F1
:104140000E5F1F4FFE01C491CC2381F08FE99FE0E9
:104150000197F1F700C00000C150F6CF0E5F1F4F6E
:10416000FE01F49003C00E9489188E018F2D8823D0
:1041700009F49FCFEFE9FFE03197F1F700C00000AD
:104180008150F5CFDF91CF911F910F91FF90EF906C
:10419000089508950C94C9200E94CA2060931C02BF
:1041A00070931D0280931E0290931F020C94E41CD6
:1041B00008950C94CC200F931F9300911C02109132
:1041C0001D0220911E0230911F02602B712B822B49
:1041D000932B1F910F910C94CC200F931F93009160
:1041E0001C0210911D0220911E0230911F026023BB
:1041F0007123822393231F910F910C94CC200F9352
:104200001F9300911C0210911D0220911E023091FB
:104210001F0260277127822793271F910F910C940B
:10422000CC2008950C9411210E9412216093180251
:104230007093190280931A0290931B020C94E41C51
:1042400060E070E0CB010C9414210F931F9341E0C8
:1042500050E060E070E08A019B0104C0000F111F74
:10426000221F331F8A95D2F7C901B8011F910F9100
:104270000C9414210F931F9341E050E060E070E034
:1042800004C0440F551F661F771F8A95D2F780918F
:10429000180290911902A0911A02B0911B028A0192
:1042A0009B01082B192B2A2B3B2BC901B8011F910D
:1042B0000F910C9414210F931F9341E050E060E0A4
:1042C00070E004C0440F551F661F771F8A95D2F710
:1042D00040955095609570958091180290911902C3
:1042E000A0911A02B0911B028A019B010823192395
:1042F0002A233B23C901B8011F910F910C9414216B
:104300000F931F9341E050E060E070E004C0440F61
:10431000551F661F771F8A95D2F7809118029091DA
:104320001902A0911A02B0911B028A019B01082771
:1043300019272A273B27C901B8011F910F910C9417
:1043400014210F931F9300911802109119022091CC
:104350001A0230911B02602B712B822B932B1F9121
:104360000F910C9414210F931F9300911802109138
:10437000190220911A0230911B02602371238223BB
:1043800093231F910F910C9414210F931F9300916D
:1043900018021091190220911A0230911B02602715
:1043A0007127822793271F910F910C941421089550
:1043B00020E1929F800D1124A82FA695A695A69581
:1043C000877051E001C0550F8A95EAF785E0A89FF4
:1043D000D001112420E030E070E0F901EA0FFB1F6A
:1043E000EA51FE4F4081CB01022E02C0969587957F
:1043F0000A94E2F781709927819584278523842781
:1044000080832F5F3F4F2530310539F7089520E134
:10441000929F800D1124682F669566956695982F5A
:10442000977085E0689FB001112440E050E080E083
:10443000FA01E60FF71FEA51FE4F208130E0092E06
:1044400002C0369527950A94E2F721703327042E8F
:1044500001C0220F0A94EAF7822B4F5F5F4F45306D
:10446000510531F70895BF92CF92DF92EF92FF92FC
:104470000F931F93CF93DF938C01C0901C02D090B9
:104480001D02E0901E02F0901F0280911802909190
:104490001902A0911A02B0911B02C82AD92AEA2A4D
:1044A000FB2ACFE1D0E0D701C6010C2E04C0B6959F
:1044B000A795979587950A94D2F780FF07C0BC2EE1
:1044C000B8018C2F0E94B90A019719F4219758F767
:1044D000B12C8B2DDF91CF911F910F91FF90EF9019
:1044E000DF90CF90BF900895CF93DF93EC010E94AF
:1044F0003322BE010E94B90ADF91CF9108951F9324
:10450000CF93DF93EB019091AD01992321F0CB0183
:104510000E94742213C0882349F0CB010E943322E9
:10452000182F682FCE010E94D82104C0CB010E9411
:104530000722182FBE01812F0E94B90ADF91CF9167
:104540001F91089580912002859585958595089500
:10455000809120028770089590912002977081E0E9
:1045600009F480E0089580912C02089590912C0226
:10457000892B80932C020895809590912C02892399
:1045800080932C02089510922C02089590912B0292
:10459000892B80932B020895809590912B0289237B
:1045A00080932B02089510922B02089590912A0275
:1045B000892B80932A020895809590912A0289235D
:1045C00080932A02089510922A0208958091210270
:1045D000089508950C94E92290912102981721F0F2
:1045E000809321020C94EA2208958091210288236D
:1045F00029F01092210280E00C94EA220895E091C3
:104600001101F091120180912C028083E09111013F
:10461000F0911201908180912B02892B8083E0918F
:104620001101F0911201908180912A02892B8083DF
:1046300080912102882381F0E0911101F091120113
:104640009081892B808380911101909112010E94A9
:10465000232481110E94F522809111019091120171
:104660000C94CA1608950C94322398E0899F900107
:104670001124262B209320020E943A2180912002AF
:104680008595859585950C9433231092200280E0C2
:104690000C94332320912002809582238093200262
:1046A000982F977079F430E0482F082E000C550BA6
:1046B0002417350739F08595859585950E945B21EE
:1046C0000C944523089590936F0180936E01089593
:1046D0008295982F9C7C392F36953695282F2373F9
:1046E00044E0249FC0011124932F982B292F2A7A6C
:1046F0002695892F8575880F822B08951F93CF9358
:10470000DF931F92CDB7DEB799830E946823182FDD
:104710009981892F0E946823212F30E0322F222790
:10472000A901482BCA010F90DF91CF911F910895E5
:104730006FEF7FEF80E090E00C94F03180E090E04C
:104740000E94CC3121E08D3E9E4F09F020E0822F67
:10475000089582E090E00C94BE3183E090E00C94E8
:10476000BE3184E090E00C94BE31682F84E090E08C
:104770000C94D23186E090E00C94BE31682F86E034
:1047800090E00C94D231AB01BC018FE090E00C942E
:10479000E431AB01BC0183E190E00C94E43160E0D2
:1047A00070E0CB010C94C92360E070E0CB010E9463
:1047B000C3230C94CF236DEE7EEF80E090E00E9447
:1047C000F03160E082E090E00E94D23160E083E06E
:1047D00090E00E94D23110921C0210921D021092A1
:1047E0001E0210921F0260E084E090E00E94D2312D
:1047F00060E085E090E00E94D23160E086E090E0E9
:104800000E94D2316FEF87E090E00E94D23140E009
:1048100050E0BA0188E090E00E94E43160E08DE071
:1048200090E00E94D23140E050E0BA0188E190E08F
:104830000E94E43160E087E190E00E94D2310C9464
:10484000D4230C94DB23FC01329697E080E0915056
:1048500029F021912223D9F38F5FF9CF08959C018C
:10486000FC0132969FEF80E04191461789F09F3F0F
:1048700019F4411101C0982F8F5F8630A9F79F3F2F
:1048800039F0F901E90FF11D97FDFA95628308955A
:104890000895FC01329608962081261301C01082EB
:1048A0003196E817F907C1F708950C942F240C945A
:1048B0004924029626E0FC0111922A95E9F7089511
:1048C00008950C9460240E946124809195028430A4
:1048D00061F110922E0220E488E190E00FB6F89486
:1048E000A895809360000FBE2093600080E00E9436
:1048F000BA0780E00E948A080E94612483B7817F02
:10490000846083BF83B7816083BF7894889583B7C1
:104910008E7F83BF0FB6F894A89580916000886160
:1049200080936000109260000FBE0895089508956E
:10493000CF930E9496240E94E80D0E949724C0E025
:104940008C2F0E944E0D892B29F4CF5FC530C1F703
:1049500080E001C081E0CF91089508950C94AD24CA
:104960000E94FE1C0E9428280E94BE160E948A08EF
:104970000C94AE241F920F920FB60F9211248F93B6
:104980009F93AF93BF9380912E02811113C08091AA
:104990008A0290918B02A0918C02B0918D02419677
:1049A000A11DB11D80938A0290938B02A0938C026B
:1049B000B0938D02BF91AF919F918F910F900FBED9
:1049C0000F901F90189582E084BD93E095BD9AEFFB
:1049D00097BD80936E0008952FB7F89480918A0256
:1049E00090918B02A0918C02B0918D022FBF0895FF
:1049F000CF92DF92EF92FF920F931F932FB7F8940D
:104A000040918A0250918B0260918C0270918D02CC
:104A10002FBF6A017B01EE24FF248C0120E030E0EF
:104A2000C016D106E206F30610F4415051099A016E
:104A3000281B390BC9011F910F91FF90EF90DF9058
:104A4000CF90089578941F920F920FB60F92112471
:104A50008F939F93AF93BF9380918A0290918B0223
:104A6000A0918C02B0918D020196A11DB11D809381
:104A70008A0290938B02A0938C02B0938D02BF9117
:104A8000AF919F918F910F900FBE0F901F9018952F
:104A900081E08093E00080E28093D8001092C9000A
:104AA0008FE19EE40197F1F700C0000087E090EBF2
:104AB000DC0180939E0290939F02A093A002B0938A
:104AC000A1029CE088E10FB6F894A895809360005D
:104AD0000FBE90936000FFCF0E949E23811102C001
:104AE0000E9421240E94A92380932D020E94B123B9
:104AF00090E090938F0280938E020E94AD23682FE6
:104B000070E080E090E00C94D9208091320280FF28
:104B10000BC06091160185E0689FB0011124759566
:104B20006795759567952BC081FF09C06091160147
:104B300085E0689FB00111247595679520C082FFBC
:104B400007C06091160185E0689FB001112417C06D
:104B5000909131029923D1F060911501961788F751
:104B60002091160185E0289F90011124929FA001B9
:104B7000939F500D112470E0CA010E945B31603890
:104B8000710540F46115710539F002C065E070E00F
:104B9000862F08958FE7089581E00895809132026D
:104BA00080FF08C06091140170E075956795759558
:104BB000679521C081FF06C06091140170E0759572
:104BC000679519C082FF04C06091140170E010C0A5
:104BD000909131029923C1F0609113019617A0F7CB
:104BE00080911401899FC001112470E00E945B3103
:104BF0006038710528F46115710521F0862F08953C
:104C00008FE7089581E0089561E070E0F4CF803F80
:104C100021F40E948525819504C0813F29F40E94DA
:104C20008525809336020895823F21F40E948525D0
:104C3000819504C0833F29F40E9485258093350225
:104C40000895893F19F40E94CE2505C08A3F31F4AA
:104C50000E94CE2581958093370208958B3F21F4E1
:104C60000E94CE25819504C08C3F29F40E94CE2558
:104C7000809338020895843F21F48091340281604A
:104C800017C0853F21F480913402826011C0863FB5
:104C900021F48091340284600BC0873F21F480911D
:104CA0003402886005C0883F31F48091340280610D
:104CB0008093340208958D3F21F480913202816007
:104CC0000BC08E3F21F480913202826005C08F3F7D
:104CD00029F4809132028460809332020895803FEB
:104CE00039F48091360287FF6CC01092360269C099
:104CF000813F29F4809136021816BCF362C090916E
:104D00003502823F29F497FF5CC01092350259C0EA
:104D1000833F19F41916CCF354C0893F41F48091B4
:104D2000370218160CF04DC0109237024AC08A3F65
:104D300029F48091370287FF44C0F6CF8B3F39F4C6
:104D40008091380287FF3DC0109238023AC08C3FF4
:104D500029F4809138021816BCF333C0843F21F443
:104D6000809134028E7F17C0853F21F480913402F8
:104D70008D7F11C0863F21F4809134028B7F0BC060
:104D8000873F21F480913402877F05C0883F31F44A
:104D9000809134028F7E8093340213C08D3F21F4C2
:104DA000809132028E7F0BC08E3F21F480913202BF
:104DB0008D7F05C08F3F29F4809132028B7F8093D5
:104DC00032028091350281110EC08091360281112C
:104DD0000AC080913702811106C08091380281118A
:104DE00002C010923102089580912D0283FF7EC08F
:104DF00082EE99E00E946B06809134021F928F939D
:104E00008DED99E09F938F930E9404078BED99E0BD
:104E10000E946B0680913502282F082E000C330B60
:104E20003F938F9388ED99E09F938F930E9404079F
:104E300086ED99E00E946B0680913602282F082E9D
:104E4000000C330B3F938F9383ED99E09F938F93E7
:104E50000E94040781ED99E00E946B068091370261
:104E6000282F082E000C330B3F938F938EEC99E084
:104E70009F938F930E9404078CEC99E00E946B062D
:104E800080913802282F082E000C330B3F938F930C
:104E900089EC99E09F938F930E94040786EC99E038
:104EA0000E946B06809131021F928F9383EC99E0F0
:104EB0009F938F930E94040781EC99E00E946B06F8
:104EC000809132021F928F938EEB99E09F938F9384
:104ED0000E9404078BEB99E00E946B068DB79EB78A
:104EE0004C960FB6F8949EBF0FBE8DBF83E392E041
:104EF0000E9413170E94EC249093300280932F029B
:104F000008951F93CF93DF9380912F0290913002E9
:104F10000E94F824AC0190913102992321F0209154
:104F2000170130E006C0209118018AE0289F900107
:104F300011244217530708F47BC080913502C091B9
:104F40003602D091370210913802811107C0C11189
:104F50006BC0D11169C0111167C06AC09F3F19F0C1
:104F60009F5F90933102181624F40E948525809348
:104F700035028091350287FF05C00E948525819505
:104F8000809335021C1624F40E94852580933602F6
:104F90008091360287FF05C00E9485258195809308
:104FA0003602309135023323E1F02091360222237C
:104FB000C1F045EB3403C0011124892F990F990BDF
:104FC000009709F481E08093350235EB2303C0019B
:104FD0001124892F990F990B009709F481E0809390
:104FE00036021D1624F40E94CE258093370280914C
:104FF000370287FF05C00E94CE2581958093370236
:10500000111624F40E94CE25809338028091380234
:1050100087FF05C00E94CE25819580933802DF91DD
:10502000CF911F910C94F4269F3F09F099CFA1CF07
:10503000DF91CF911F910895E3E3F2E086E0DF0175
:105040001D928A95E9F7109231021092320208956A
:105050000E949E23811102C00E9421240E94BA2333
:1050600080939002282F269530E02430310524F0DB
:1050700081708660809390028091900280FF02C0D0
:10508000869501C080E00C94BA0720919002822F8F
:105090008695482F50E04330510544F48F5F982F98
:1050A000990F822F8170892B8093900280919002BA
:1050B0008160809390020E94BE2380912D0280FF28
:1050C0000FC08091900286951F928F938CE69AE094
:1050D0009F938F930E9404070F900F900F900F9053
:1050E0008091900286950C94BA0780919002982F37
:1050F000969591F09158990F8170892B8093900229
:105100008E7F91E009F490E08091900290FB80F90D
:10511000809390020E94BE2380912D0280FF0FC0D9
:105120008091900286951F928F9384E59AE09F93D9
:105130008F930E9404070F900F900F900F90809113
:10514000900286950C94BA078091900280FD1DC054
:10515000816080939002813019F483E08093900203
:10516000809190020E94BE2380912D0280FF08C092
:105170008CE29AE09F938F930E9404070F900F9008
:105180008091900286950C94BA07089580919002C0
:1051900080FF14C08E7F809390020E94BE23809176
:1051A0002D0280FF08C089E19AE09F938F930E94AF
:1051B00004070F900F9080E00C94BA070895CF93E6
:1051C000C0919002C17080912D0280FF0CC01F928F
:1051D000CF938EE39AE09F938F930E9404070F90E2
:1051E0000F900F900F90CC2319F0CF910C94C628FC
:1051F000CF910C94A42890919002892F86958F5F6F
:105200008F779170843028F4880F892B80939002D7
:1052100002C090939002809190028E7F91E009F4F9
:1052200090E08091900290FB80F9809390020E9420
:10523000BE2380912D0280FF0FC080919002869541
:105240001F928F9385E09AE09F938F930E940407AB
:105250000F900F900F900F908091900286950C9474
:10526000BA07843008F083E0880F90919002917023
:10527000892B809390028E7F91E009F490E08091D9
:10528000900290FB80F9809390020E94BE2380914F
:10529000900286950C94BA078091900286950895A5
:1052A0008091440208959FB7F89410923B029FBFEB
:1052B00090919502943009F057C09091E9009F7049
:1052C0003091EC00232F217030FD20E8922B23E059
:1052D0002093E9002091EB0020FF43C02091EE00D5
:1052E00027FF3FC020913902222321F02091E800BE
:1052F00025FF37C01092390226E03091E80035FDD5
:1053000015C030919502343061F53091EB0035FDD8
:1053100028C0215021F481E08093390222C0EFE9B6
:10532000FFE03197F1F700C00000E7CF8093F10074
:105330008091E80085FD0AC08091E80080FFFCCFE5
:105340008091E8008E778093E80006C08FB7F894CC
:1053500021E020933B028FBF9F709093E90080E093
:1053600008959F709093E9008FEF08950F931F9316
:10537000CF93DF9300D01F92CDB7DEB78C010E9490
:10538000732C823011F0843021F584E089831B83F3
:105390000A8382E08093E9008FEF9091E8008150CA
:1053A00095FD06C095ED9A95F1F700008111F5CFB6
:1053B0008091E80085FF0DC040E050E063E070E0C0
:1053C000CE0101960E94902C8091E8008E77809308
:1053D000E8000F900F900F90DF91CF911F910F91E8
:1053E0000895CF93DF9300D01F92CDB7DEB7209101
:1053F0009502243031F523E02983805891099B835D
:105400008A8382E08093E9008FEF9091E8008150D9
:1054100095FD06C095ED9A95F1F700008111F5CF45
:105420008091E80085FF0DC040E050E063E070E04F
:10543000CE0101960E94902C8091E8008E77809397
:10544000E8000F900F900F90DF91CF910895CF93C8
:10545000DF93EC010E94732C823011F08430F9F458
:1054600082E08093E9009FEF8091E800915085FDF4
:1054700006C085ED8A95F1F700009111F5CF809176
:10548000E80085FF0CC040E050E066E070E0CE012F
:105490000E94902C8091E8008E778093E800DF9145
:1054A000CF910895CF93DF93EC010E94732C82304B
:1054B00011F0843039F581E08093E9008FEF90910D
:1054C000E800815095FD06C095ED9A95F1F7000032
:1054D0008111F5CF8091E80085FF14C040E050E0D5
:1054E00068E070E0CE010E94902C8091E8008E77F9
:1054F0008093E80088E0FE01ACE3B2E001900D92F9
:105500008A95E1F7DF91CF91089589EA9AE00E94A8
:105510006B0680919402811109C00E94252E0E9481
:10552000822E8091E20084608093E200089585EAF3
:105530009AE00E946B0610929402089581EA9AE024
:105540000C946B068DE99AE00C946B0689E99AE05D
:105550000E946B060C94B02420913A022F5F822F98
:1055600062E30E943B31992319F020933A02089597
:1055700010923A0280913B02882371F1809195024A
:10558000843041F58091E9008F702091EC00922FDA
:10559000917020FD90E8892B93E09093E900909121
:1055A000EB0090FF14C09091EE0097FF10C0909117
:1055B000E80095FF03C01092F100F9CF9091E80048
:1055C00090FF05C09091E8009E779093E8008F705F
:1055D0008093E90010923B02089542E061EC81E083
:1055E0000E949F2D42E261EC82E00E949F2D42E2E8
:1055F00061EC83E00C949F2D80919702833009F435
:1056000060C030F4813071F0823009F499C008959F
:105610008A3009F485C08B3009F46BC0893009F0F9
:10562000A7C020C080919602813A09F0A1C0809164
:10563000E800877F8093E80080919A0290919B0216
:10564000892B21F468E08CE392E003C060E080E005
:1056500090E070E00E94DB2C8091E8008B778093D3
:10566000E800089580919602813209F081C080910E
:105670009A0290919B02029708F07AC08091E8000C
:10568000877F8093E8008091E80082FD05C08091CB
:1056900095028111F8CF6CC02091F3008091F20047
:1056A00090E0922B029729F48091F1008B7F81305A
:1056B00021F48091F100809344028091E8008B777F
:1056C00053C080919602813A09F052C080919A02AB
:1056D00090919B02892B09F04BC08091E800877F55
:1056E0008093E8008091E80080FFFCCF8091230147
:1056F00036C0809196028132D9F580919A029091BC
:105700009B02892BA9F58091E800877F8093E800B0
:105710000E94D42D80919802809323010C94FE1C4A
:1057200080919602813221F58091E800877F8093F5
:10573000E8000E94D42D809199028093450208953B
:1057400080919602813AA1F48091E800877F80934E
:10575000E8008091E80080FFFCCF809145028093B3
:10576000F1008091E8008E778093E8000C94D42DAE
:10577000089584B7877F84BF0FB6F894A895809169
:105780006000886180936000109260000FBE80E826
:1057900080936100109261000E945B170E94252E89
:1057A0000E94822E8091E20084608093E20083E573
:1057B00099E20E94632378940E9410310E9463173B
:1057C00089E191E00E94B91688E89AE00E946B0690
:1057D00080919502853089F484E89AE00E946B06F6
:1057E0000E94632480919302882391F30E9498245D
:1057F000882371F30E947A2CEBCF0E9497170E94A6
:105800003C15E6CF0C94042C292F33272330310587
:10581000C9F064F42130310581F02230310509F0FE
:1058200049C08BE590E027ED3AE048C021323105D0
:1058300021F12232310571F13DC082E190E022E395
:105840003BE03CC099278130910571F02CF4892B05
:1058500089F5E3EDFAE00DC08230910541F0039740
:1058600049F5EDEAFAE005C0E1ECFAE002C0E3EB4D
:10587000FAE0849190E09F0121C063307105D0F47B
:10588000660F771FFB01E959FE4F2081318189E0C6
:1058900090E014C06330710568F4FB01EE0FFF1F48
:1058A000EF59FE4F20813181FB01E25AFE4F80818A
:1058B00090E004C080E090E020E030E0FA01318325
:1058C000208308950895CF93C82F0E94622CC0931F
:1058D0004602CF91089580919502843011F081E0C5
:1058E000089582E0089580914602811102C00C94CF
:1058F0006B2C089580E189BD82E189BD09B400FE69
:10590000FDCF8091D8008F7D8093D8008091E000FA
:1059100082608093E0008091E00081FDFCCF0895DB
:10592000CF92DF92EF92FF920F931F93CF93DF936B
:10593000EC018B016A010E94F32D811133C0C11467
:10594000D10439F0F60180819181081B190BC80F31
:10595000D91FE12CF12C0115110519F18091E800F6
:1059600085FD16C08091E8008E778093E800C11411
:10597000D10449F0F60180819181E80EF91EF1828F
:10598000E08285E00FC00E94F32D882321F30AC036
:1059900089918093F10001501109FFEFEF1AFF0A7E
:1059A000DACF80E0DF91CF911F910F91FF90EF90C0
:1059B000DF90CF90089520919C0230919D02261790
:1059C000370748F06115710539F42091E8002E770A
:1059D0002093E80001C0B90140E061157105A9F10B
:1059E00020919502222309F443C0253009F442C0D6
:1059F0002091E80023FD40C02091E80022FD32C044
:105A00002091E80020FFE9CF4091F3002091F200BF
:105A100030E0342BFC01CF016115710559F02830BD
:105A2000310540F481918093F100615071092F5F3D
:105A30003F4FF1CF41E02830310509F040E020919F
:105A4000E8002E772093E800C8CF4111C9CF0AC0E3
:105A500080919502882361F0853061F08091E800A3
:105A600083FD0AC08091E80082FFF2CF80E00895B4
:105A700082E0089583E0089581E0089520919C02DA
:105A800030919D022617370748F06115710539F4EA
:105A90002091E8002E772093E80001C0B901FC01B5
:105AA00020E06115710591F180919502882309F438
:105AB00040C0853009F43FC08091E80083FD3DC0BF
:105AC0008091E80082FD2FC08091E80080FFE9CF3F
:105AD0002091F3008091F20090E0922B6115710506
