:100000000C94C7050C940E060C940E060C940E0668
:100010000C940E060C940E060C940E060C940E0610
:100020000C940E060C940E060C949A2E0C946D2FC4
:100030000C94CC240C940E060C940E060C940E0614
:100040000C940E060C940E060C940E060C940E06E0
:100050000C94AF070C9434250C940E060C940E06E9
:100060000C940E060C940E060C940E060C940E06C0
:100070000C940E060C940E060C940E060C940E06B0
:100080000C940E060C940E060C940E060C940E06A0
:100090000C940E060C940E060C940E060C940E0690
:1000A0000C940E060C940E060C940E0635001E00E1
:1000B0001F0020002100220023002400250026002C
:1000C00027002D002E000000310003542B000000FB
:1000D00014001A000800150017001C0018000C007E
:1000E000120013002F0030002A004C0029000000ED
:1000F00004001600070009000A000B000D000E00A6
:100100000F0033003400280000006900E100000007
:100110001D001B000600190005001100100036002C
:10012000370038000000E500520001540254E2009C
:100130000000E300000000002C610000000000004F
:10014000E700E6000000500051004F0000001E0DC7
:100150001F0D200D210D220D230D240D250D260D23
:10016000270D2D0D2E0D0000310C000000000000A9
:10017000140D1A0D080D150D170D1C0D180D0C0D75
:10018000120D130D00000000000000000000000030
:10019000040D160D070D090D0A0D0B0D0D0D0E0D9D
:1001A0000F0D00000000280D0000010000000000FD
:1001B0001D0D1B0D060D190D050D110D100D000067
:1001C000000000000000000000000100000000002E
:1001D000000000000000000000000000000000001F
:1001E000000001000000000000000000000000000E
:1001F00000000000000000000000000000000000FF
:1002000000000000000000000000000000000000EE
:1002100000000000080500001705000018050C0587
:1002200000000000000000000000000000000000CE
:1002300000000000070509050A0500000D050E0570
:100240000000000000002805000000000000000081
:10025000000000000605500552054F050000000093
:10026000000000000000000000000000010000008D
:100270000000000000000000510500000000000028
:10028000000000000000500D00004F0D00003A007B
:100290003B003C003D003E003F004000410042006A
:1002A000430044004500000000006A000000000018
:1002B000000000000000005C0000000000000000E2
:1002C000000000000000000000000000000000002E
:1002D0008000AA007F000000000000000000000075
:1002E000000000000000000000000000000000000E
:1002F00000000000000000000000000000000000FE
:1003000000000000000000000000000000000000ED
:1003100000000000000000002C0D000000000000A4
:1003200000000100000000000000000044454255AC
:10033000473A2064697361626C65642E0A00444523
:100340004255473A20656E61626C65642E0A000072
:10035000000000000000000000000101020304058D
:1003600006080A0C0F1114181C2024292E33393FBB
:10037000464C535B626A7179818A929AA2AAB2B999
:10038000C1C8CFD5DCE1E7EBF0F4F7FAFCFDFEFFE6
:10039000FEFDFCFAF7F4F0EBE7E1DCD5CFC8C1B91C
:1003A000B2AAA29A928A8179716A625B534C463FE3
:1003B00039332E2924201C1814110F0C0A080605A5
:1003C0000403020101000000000000000000000A18
:1003D000002530313662003A200025303258000ABC
:1003E000722F632030313233343536373839414259
:1003F000434445460A007267626C696768742074FA
:10040000696D65722064697361626C652E0A0072A1
:1004100067626C696768742074696D657220656EC7
:1004200061626C65642E0A007267626C6967687449
:100430002073657420687376205B4E4F454550529B
:100440004F4D5D3A2025752C25752C25750A0072B7
:1004500067626C69676874207365742068737620BE
:100460005B454550524F4D5D3A2025752C25752C26
:1004700025750A007267626C696768742072616929
:100480006E626F7720736574206873763A202564F6
:100490002C25642C25642C25750A007267626C6912
:1004A0006768742064697361626C65205B454550C0
:1004B000524F4D5D3A207267626C696768745F6382
:1004C0006F6E6669672E656E61626C65203D2025E2
:1004D000750A007267626C6967687420656E616294
:1004E0006C65205B454550524F4D5D3A2072676206
:1004F0006C696768745F636F6E6669672E656E61AD
:10050000626C65203D2025750A007267626C696720
:10051000687420746F67676C65205B454550524F67
:100520004D5D3A207267626C696768745F636F6ED5
:100530006669672E656E61626C65203D2025750ACF
:10054000007267626C69676874206D6F6465205B18
:100550004E4F454550524F4D5D3A2025750A007269
:1005600067626C69676874206D6F6465205B4545E0
:1005700050524F4D5D3A2025750A007267626C69D2
:100580006768745F696E6974207267626C69676816
:10059000745F636F6E6669672E6D6F6465203D20C2
:1005A000302E2057726974652064656661756C74BD
:1005B0002076616C75657320746F20454550524FED
:1005C0004D2E0A007267626C696768745F696E69B4
:1005D00074206565636F6E666967206973206E6F4E
:1005E0007420656E61626C65642E0A007267626CCD
:1005F000696768745F696E697420737461727421CD
:100600000A007267626C696768745F696E6974205A
:1006100063616C6C65642E0A007267626C6967685E
:10062000745F636F6E6669672E7370656564203DE5
:100630002025640A007267626C696768745F636F83
:100640006E6669672E76616C203D2025640A007213
:1006500067626C696768745F636F6E6669672E7343
:100660006174203D2025640A007267626C696768C6
:10067000745F636F6E6669672E687565203D20251F
:10068000640A007267686C696768745F636F6E669E
:1006900069672E6D6F6465203D2025640A007267CE
:1006A000626C696768745F636F6E6669672E656EFA
:1006B00061626C65203D2025640A007267626C6986
:1006C0006768745F636F6E666967206570726F6DCF
:1006D0000A0000047F3F1F643214643214783C1E09
:1006E0001E140A052223252628292A2C2D2F3032D4
:1006F000333536383A3B3D3E4042434547494A4C04
:100700004E5051535557595A5C5E60626466686931
:100710006B6D6F71737577797B7D7F818385878939
:100720008A8C8E90929496989A9C9E9FA1A3A5A73E
:10073000A8AAACAEAFB1B3B4B6B8B9BBBCBEBFC16A
:10074000C2C3C5C6C7C9CACBCCCDCED0D1D2D2D3F5
:10075000D4D5D6D7D7D8D9D9DADADBDBDBDCDCDC09
:10076000DCDCDDDDDDDDDCDCDCDCDCDBDBDBDADACC
:10077000D9D9D8D7D7D6D5D4D3D2D2D1D0CECDCC43
:10078000CBCAC9C7C6C5C3C2C1BFBEBCBBB9B8B658
:10079000B4B3B1AFAEACAAA8A7A5A3A19F9E9C9AE3
:1007A00098969492908E8C8A89878583817F7D7BB1
:1007B00079777573716F6D6B6968666462605E5C92
:1007C0005A5957555351504E4C4A49474543424058
:1007D0003E3D3B3A3836353332302F2D2C2A2928EE
:1007E00026252322FFAA7F554000000000000000BC
:1007F00000000001010101010101010102020202E8
:1008000002020202030303030303030404040404B7
:100810000505050505060606060607070707080875
:1008200008080909090A0A0A0B0B0B0C0C0C0D0D20
:100830000D0E0E0E0F0F10101011111212131314B3
:1008400014151516161717181819191A1A1B1C1C27
:100850001D1D1E1F1F20212122232324252526277D
:100860002828292A2B2C2C2D2E2F303131323334AD
:1008700035363738393A3B3C3D3E3F4041424344B0
:1008800045464748494B4C4D4E4F5052535455578F
:1008900058595A5C5D5E606163646567686A6B6C39
:1008A0006E6F7172747677797A7C7D7F81828486AF
:1008B00087898B8D8E9092949597999B9D9FA1A2ED
:1008C000A4A6A8AAACAEB0B2B4B6B9BBBDBFC1C3F2
:1008D000C5C8CACCCED0D3D5D7DADCDEE1E3E6E8B2
:1008E000EAEDEFF2F4F7F9FCFF0A00253032582068
:1008F000006B6579626F6172645F7265706F7274AC
:100900003A20000A0025303258006B6579626F6129
:1009100072645F7365745F6C65643A2000290A0035
:100920002575002F002575005D2800256400200036
:10093000256400200025640020002564007C00253B
:10094000303258006D6F7573656B6579205B62742A
:100950006E7C782079207620685D287265702F6122
:10096000636C293A205B006261636B6C6967687431
:1009700020737465703A2025750A006261636B6CA0
:10098000696768742064697361626C650A006261FA
:10099000636B6C6967687420656E61626C650A00E0
:1009A0006261636B6C6967687420746F67676C65FC
:1009B0003A2025750A006261636B6C696768742070
:1009C00064656372656173653A2025750A0062612A
:1009D000636B6C6967687420696E637265617365C7
:1009E0003A2025750A005B735D004B6579626F6183
:1009F00072642073746172742E0A005B575D005B31
:100A0000535D005B525D005B445D005B435D000431
:100A100003300000000C036B0062006400360037F6
:100A200000000010036B0062006400660061006E4D
:100A300000730000000403090409025B00030100C5
:100A4000A0FA0904000001030101000921110100BD
:100A5000012240000705810308000A090401000182
:100A60000300000009211101000122850007058211
:100A70000320000A090402000203000000092111FA
:100A8000010001222200070583032000010705035E
:100A9000032000011201100100000008EDFE00001B
:100AA0000100010203010631FF0974A10109751556
:100AB0000026FF009520750881020976150026FFA3
:100AC00000952075089102C005010902A101850267
:100AD0000901A10005091901290515002501950540
:100AE0007501810295017503810105010930093104
:100AF0001581257F95027508810609381581257FA6
:100B0000950175088106050C0A38021581257F9527
:100B10000175088106C0C005010980A10185031681
:100B200001002603001A81002A83007510950181B7
:100B300000C0050C0901A1018504160100269C02D4
:100B40001A01002A9C02751095018100C005010957
:100B500006A101050719E029E7150025019508758B
:100B60000181029501750881010508190129059582
:100B70000575019102950175039101050719002979
:100B8000FF150026FF00950675088100C00011249E
:100B90001FBECFEFDAE0DEBFCDBF04B603FE27C035
:100BA00080919E0290919F02A091A002B091A1021B
:100BB0008730904BA740B04BD1F410929E02109218
:100BC0009F021092A0021092A10214BE84B7877FE8
:100BD00084BF0FB6F894A8958091600088618093D7
:100BE0006000109260000FBEE0E0F8E3099511E0AC
:100BF000A0E0B1E0EAEFF3E602C005900D92AE3658
:100C0000B107D9F722E0AEE6B1E001C01D92AE39DE
:100C1000B207E1F70E94BB2B0C94FB310C9400004F
:100C2000FF93EF93E0916E01F0916F01309709F01F
:100C30000995EF91FF910895FC018591803011F0A5
:100C4000EFDFFBCF0895FF27E0E230E247FF0CC063
:100C5000419597FF09C0EDE260957095809590955C
:100C6000611D711D811D911D27FF02C0219530E37B
:100C700050E2AA27660F771F881F991FAA1FA41783
:100C800010F0A41B63955A95A9F7AA3008F0A95F44
:100C9000A05DAF93F395611571058105910541F74D
:100CA000ED3211F4EF93F395F21718F43F93F395A7
:100CB000FBCF8F91B5DFFA95E1F70895E991F991AE
:100CC0008591803021F0853219F0AADFF9CF08959F
:100CD00020E0E89455915532C1F3503311F46894F3
:100CE00055915A3348F4505390F3220F022E220F9D
:100CF000220F200D250FF4CF0EF4219589919991A3
:100D0000533619F3533729F1533559F1BC0188276C
:100D10009927E8945C3621F48991999168945591CA
:100D2000543639F446EF7EF077FF0DC08FEF9FEF1A
:100D30000AC055374AE039F0583540E121F05236C3
:100D400042E009F00895FF93EF937DDFEF91FF916B
:100D5000B7CFFF93EF93FC0181918030B9F360DF4F
:100D6000FBCFFF93EF9368DFF1CFDF93CF93CDB746
:100D7000DEB72596A3DFCF91DF9108950C942F0D58
:100D80000C94300D0C940B0781FF04C0229A2A9812
:100D90000C943C082298FBCFCF92DF92EF92FF9207
:100DA0008C3724E1920750F469E070E00E943C31F6
:100DB000CB01FF90EF90DF90CF900895B0E0A0E0DE
:100DC000BC01CD016A50774D8F4F9F4F982F872FD1
:100DD000762F662725EF38E241E050E00E9464312B
:100DE00069017A01CA01B9010E9420319B01AC015D
:100DF000C701B6010E942031672F782F892F9927CC
:100E00006115710521E08207910591F66FEF7FEF83
:100E1000CFCF81E0089581E008951F93CF93DF93B2
:100E200000D000D01F92CDB7DEB749835A836B83C1
:100E30002091AD0189819A8121111BC06623A9F0FF
:100E40000E943822182F682F89819A810E94E02100
:100E500069817A81812F0F900F900F900F900F90E2
:100E6000DF91CF911F910C94810A0E940E22182FBE
:100E7000EFCF0E94382269817A81EDCFFC01408159
:100E800051816281738184810C940D070E94E70D6A
:100E90008FE39CE90197F1F700C000000E94E70D85
:100EA00080E00E94310D80FF04C00E94A9230C94B1
:100EB0005A2508950C94C006E82FE295EF70F0E0F3
:100EC00032A1282F2F7081E090E001C0880F2A9571
:100ED000EAF78095832382A308958430D8F48111A2
:100EE0001AC0909180009F7D90938000282F30E061
:100EF000AFEFBFEF0E948C3123E030E040E050E0E4
:100F00000E946431C9010E94CC0690938B008093AB
:100F10008A00089583E0909180009062E5CF8091EF
:100F20006F008170089510927101109270011092FB
:100F30007201EFE6F0E08081816080830895EFE642
:100F4000F0E080818E7F80830E9450290C946D0791
:100F50000E948F0781110C949F070C9493071F9296
:100F60000F920FB60F9211242F933F934F935F93DD
:100F70006F937F938F939F93AF93BF93CF93EF9391
:100F8000FF93209100018091700190917101019671
:100F900044EF249F90011124B9010E943C319093A9
:100FA000710180937001B901660F672F661F770B7F
:100FB00071950E943C316F7780917201823041F4CB
:100FC000603451F480916F008E7F80936F0004C075
:100FD000813011F46F37B1F3E62FF0E0E15BFC4FA5
:100FE000C4910E945029282F41E051E0C49FC001C4
:100FF000C59F900D112463E070E00E943C31269F54
:10100000C001279F900D11240E94CC0690938B0065
:1010100080938A00FF91EF91CF91BF91AF919F9103
:101020008F917F916F915F914F913F912F910F9091
:101030000FBE0F901F901895269A86E30E945C07BA
:1010400082E28093800089E1809381008FEF9FEF9F
:1010500090938700809386000E9437280C94930712
:101060000E9446070E94AF23811102C00E943224D1
:101070000E941C080C94BE0608950C94C4060895A2
:101080000E94EF1C0E943F082FEF84E39CE0215058
:1010900080409040E1F700C000000C945A250F9367
:1010A0001F93CF93DF938C010E943E07EC01B801A0
:1010B0000E94C206882309F4C9C0B801CE010E946B
:1010C0007416882309F4C2C0CA3C8CE5D80709F419
:1010D0000BC108F051C0C23CECE5DE0709F4D9C0F1
:1010E00048F5C5318CE5D807A8F4C2309CE5D9078E
:1010F00008F05FC1C115ECE5DE0709F4A2C0C130FC
:10110000DC4509F4A9C0C801DF91CF911F910F916F
:101110000C940907C6318CE5D80709F4CEC1C13C4F
:10112000DC4589F7F8018281882309F48FC00E9489
:10113000A8078CC0F8018281C63CFCE5DF0709F4F2
:10114000C1C068F4C43CECE5DE0709F4B2C008F4A1
:10115000A7C0882309F47AC00E94E41177C0C83C74
:101160009CE5D90709F4BAC008F4B2C0882309F491
:101170006DC00E941E126AC0C13DFCE5DF0709F484
:10118000E7C070F5CD3C9CE5D90709F4BDC088F4F3
:10119000CB3CFCE5DF0709F4AFC0CC3CDC4509F0F3
:1011A000B2CFF8018281882309F450C00E94321026
:1011B0004DC0F8018281CF3CFCE5DF0709F4BAC0DD
:1011C00008F4ABC0882309F441C00E94191089308B
:1011D00028F00E9419108E3008F471C089E09AC07E
:1011E000C53DECE5DE0709F4D6C0B0F4F801828114
:1011F000C33DFCE5DF0709F4C9C008F4B9C0882382
:1012000029F10E941910893128F00E9419108232A8
:1012100008F455C089E17EC0CD3DECE5DE0709F458
:10122000C1C0CE3DFCE5DF0769F1CC3DDC4509F0EE
:101230006ACFF8018281882349F080E00E94622C05
:1012400005C0F801828181110E94400880E0DF9191
:10125000CF911F910F910895F80182818823B1F3F6
:1012600090912D02892F8E7F90FF816080932D02B7
:1012700080FF05C08EE393E00E941C06E7CF8CE25E
:1012800093E0FACFF8018281882301F30E9432248F
:10129000DDCFF80182818823C9F20E941915D6CFCB
:1012A0008823A1F20E94CD22827249F00E94641428
:1012B000CDCF882359F20E94CD228272B9F30E94C9
:1012C0005714C4CF882309F4C1CF0E94F111BECFB7
:1012D000882309F4BBCF0E940012B8CF882309F4F9
:1012E000B5CF0E940F12B2CFF8018281882309F492
:1012F000ADCF0E942D12AACFF8018281882309F474
:10130000A5CF0E942110A2CFF8018281882309F481
:101310009DCF81E00E94671499CF882309F496CF6E
:101320000E941910823020F00E941910853038F286
:1013300082E0F0CF882309F489CF0E94191086300B
:1013400028F00E941910883008F4B9CF86E0E2CF67
:10135000F8018281882309F479CF0E9419108F3017
:1013600028F00E941910843108F4A9CF8FE0D2CF61
:10137000882309F46BCF0E941910853128F00E9450
:101380001910873108F49BCF85E1C4CF882309F475
:101390005DCF88E1BFCFF8018281882309F456CF61
:1013A00083E2B8CFF8018281882309F44FCF82E02D
:1013B00045CFF8018281882309F4A5CE0E94AF238E
:1013C000811102C00E9432240E94C22390E09093B7
:1013D0008F0280938E02FE01E350FC4580918E02C5
:1013E0008160E231F105C8F4E850F64F0C94863183
:1013F0000A0A160A1A0A1E0A220A260A2A0A2E0AA5
:10140000320A360A3A0A3E0A420A460A4A0A4E0A8C
:10141000520A560A80918E02826080938E028091D9
:101420008E020E94C6230E94EF1C10CF80918E0274
:101430008460F3CF80918E028860EFCF80918E021E
:101440008061EBCF80918E028062E7CF80918E0227
:101450008064E3CF80918E028068DFCF80918E021E
:101460008460EACF80918E028E7FD7CF80918E02EA
:101470008D7FD3CF80918E028B7FCFCF80918E02D4
:10148000877FCBCF80918E028F7EC7CF80918E02D7
:101490008F7DC3CF80918E028F7BBFCF80918E02D4
:1014A0008F77BBCF80918E028B7FEACF90918E0297
:1014B000892F97FB87F98058B0CF0E94CD22F80181
:1014C0009281992381F08A7A91E009F490E09093D7
:1014D0007301811106C089E20E94A8220E941C2388
:1014E000B5CE85E3F9CF80917301811104C089E203
:1014F0000E94AF22F3CF85E3FBCF90E080E0089518
:101500000895E72FF0E095E0899FE00DF11D11248B
:1015100084E0EE0FFF1F8A95E1F7E60FF11DEE0F55
:10152000FF1FE455FF4F859194910895FC01EE0F44
:10153000FF1FE153FC4F859194910895CF93DF9362
:101540000E94810A0E948C0CEC018115914508F0E3
:101550004BC0C11580E5D80708F036C1C83ED1059B
:1015600010F5C03ED10580F5C83AD10570F4C53AF2
:10157000D10508F0B4C0C130D10531F118F0C43044
:10158000D10510F5D0E0C0E01FC0CF3BD10508F475
:10159000B1C0CE01805C9109C03CD10598F30E9496
:1015A000960AEC0111C0C11520E3D20788F4C115D9
:1015B00080E2D80708F0FFC0C03FD10518F3CF3F45
:1015C000D10509F008F4F5C0CE01DF91CF9108955F
:1015D000C11520E4D20708F0F4C0CE019927D3FF4B
:1015E000EDC0EC01D86CF0CFC11589E5D80768F5DE
:1015F000C11528E5D20708F030C1C11584E5D80728
:1016000078F4C11523E5D20708F00EC1C11582E5B3
:10161000D80708F0F5C0DC2FCC27C16FD06AD4CF33
:10162000C11525E5D20708F413C1C11586E5D80711
:1016300008F0A8CF8C2F0E940C0DC82FD0E0DC2F13
:10164000CC27CC27DF71D062BFCFCD3B2CE5D207B2
:1016500009F40EC1F0F4CB3B2CE5D20709F402C12A
:1016600008F003C1C1152AE5D20708F08BCF8C2FF3
:101670008F700E940C0D34E0D695C7953A95E1F72E
:10168000CF70D0E0DC2FCC27D06A8F70806EC82B53
:101690009BCFC03C8CE5D80709F4F0C060F4CE3B8A
:1016A0008CE5D80709F4E7C0CF3BDC4509F06ACFE9
:1016B000C0E0D2ED89CFCE0190568115904208F05E
:1016C00061CF8D2F8F710E940C0DDD27D06290E0CD
:1016D000982F882788279F71C82BD92B75CFC53A9B
:1016E000D10509F4CEC0C63AD10509F4CDC0C3E88E
:1016F000D0E46ACFC83AD10509F4C9C0C93AD105C6
:1017000009F4C8C0CA3AD10509F4C7C0CB3AD1051B
:1017100009F4C6C0CC3AD10509F4C5C0CB3BD1050C
:1017200009F4C4C0CC3BD10509F4C3C0CD3AD105FE
:1017300009F4C2C0C03BD10509F4C1C0CE3AD105FD
:1017400009F4C0C0CF3AD10509F4BFC0C13BD105EF
:1017500009F4BEC0C23BD10509F4BDC0C33BD105ED
:1017600009F4BCC0C43BD10509F4BBC0C53BD105DD
:1017700009F4BAC0C63BD10509F4B9C0C73BD105CD
:1017800009F4B8C0C83BD10509F4B7C0C93BD105BD
:1017900009F4B6C0CD3BD10509F4B5C0CE3BD105A7
:1017A00009F4B4C0CA3BD10509F0B3C0CAE2D6E41B
:1017B0000BCFD06509CFCE019F70F1CEEC01D06C7C
:1017C00003CFDF70D06A00CFCE01F4E09695879505
:1017D000FA95E1F783709C2F937021E030E002C00E
:1017E000220F331F9A95E2F73C68382BC695C695B1
:1017F000C37080E2C89FE0011124C22BD32BE4CE3A
:10180000CE018370992721E030E002C0220F331F00
:101810008A95E2F7C695C69580E2C89FE00111243B
:10182000C22BD32BDC68D0CECE018370992721E068
:1018300030E002C0220F331F8A95E2F7C695C695A5
:1018400080E2C89FE0011124C22BD32BDA68BCCE02
:10185000DC2FCC27C46FD06AB7CEDC2FCC27C06F6B
:10186000D06AB2CEC0E0D4EDAFCEC0E0D5EDACCE04
:10187000C0E0D1EDA9CEC0E0D0EDA6CEC0E0D3ED62
:10188000A3CEC1E8D0E4A0CEC2E8D0E49DCEC2EEA3
:10189000D4E49ACEC9EED4E497CECAEED4E494CE82
:1018A000C5EBD4E491CEC6EBD4E48ECEC3EBD4E446
:1018B0008BCEC4EBD4E488CEC7EBD4E485CECCEC9D
:1018C000D4E482CECDECD4E47FCEC3E8D5E47CCEA4
:1018D000CAE8D5E479CEC2E9D5E476CEC4E9D5E448
:1018E00073CEC1E2D6E470CEC3E2D6E46DCEC4E2DC
:1018F000D6E46ACEC5E2D6E467CEC6E2D6E464CECC
:10190000C7E2D6E461CECFE6D4E45ECEC0E7D4E44D
:101910005BCEC0E0D4E458CE8238910549F1B0F4F2
:101920008133910509F45CC048F48932910509F4CA
:1019300052C08A32910509F458C008958533910543
:1019400009F444C08933910599F00895833E9105C7
:1019500031F138F4803E910591F0823E9105B1F06D
:101960000895863E910511F1873E910541F1089554
:1019700020918E022370C9F080EE90E008952091AE
:101980008E0220FF12C089E390E0089520918E021C
:1019900022FF0BC024FF2EC090E080E0089520912C
:1019A0008E0222FD2AC024FDF7CF089520918E02D9
:1019B00023FFFBCF24FDF0CF87EE90E00895209128
:1019C0008E0223FFF0CF86EE90E0089520918E02E4
:1019D00025FD16C0089520918E0225FD14C008959E
:1019E00020918E0226FD12C0089520918E0226FDC0
:1019F00010C0089583EE90E0089582EE90E008957F
:101A000089E290E0089585E390E008958AE290E00D
:101A1000089581E390E0C9CF90918E0292FF06C0B5
:101A2000282F2871283069F4877F846093FF06C0CF
:101A3000282F2871283161F4877E846194FD877E88
:101A40000895282F2471243089F78B7F8860EECF8A
:101A5000282F2471243191F78B7E8861EFCF089570
:101A60000895E82FF0E0EE0FFF1FEC58FE4F808145
:101A700091810895CF92DF92EF92FF920F931F937F
:101A8000CF93DF938FED93E00E941C0684E7E82E4E
:101A900081E0F82ED0E0C0E09AEDC92E93E0D92E77
:101AA00001ED13E0DF93CF93DF92CF920E94B50652
:101AB00087ED93E00E941C06F701819191917F01CF
:101AC0000E949C239F938F931F930F930E94B506B0
:101AD0008FEC93E00E941C0621968DB79EB7089666
:101AE0000FB6F8949EBF0FBE8DBFC530D105D1F69D
:101AF000DF91CF911F910F91FF90EF90DF90CF90EA
:101B00000895CF93DF93A4E3B1E029E331E061E0EE
:101B100070E09D91E92FE295EF70F0E041A19F7098
:101B2000EB0102C0CC0FDD1F9A95E2F7CE01809544
:101B3000842381A32A173B0761F7A4E2B1E061E0A7
:101B400070E08D91E82FE295EF70F0E041A18F7089
:101B50009B0101C0220F8A95EAF7922F909594235A
:101B600091A382A1822B82A3D1E0A433BD0749F7C0
:101B700010927F0110927E011092750110927401F3
:101B800010928101109280011092770110927601DB
:101B900010928301109282011092790110927801C3
:101BA000109285011092840110927B0110927A01AB
:101BB000109287011092860110927D0110927C0193
:101BC00085E00E947A0EDF91CF910C9430086F92DD
:101BD0007F929F92AF92BF92CF92DF92EF92FF924D
:101BE0000F931F93CF93DF93AEE7B1E094E3692E99
:101BF00091E0792E20E0EE24E394F12CAD90BC909E
:101C0000119711961C921E92E30189913E01E82FD3
:101C1000E295EF70F0E091A18F70B70101C0660FFF
:101C20008A95EAF7892F862B81A382A1962E90941C
:101C3000892182A3D0EADA95F1F784E2C82E81E007
:101C4000D82E50E040E0E60139916E01032F029555
:101C50000F7010E0E80188A10D911C91119790E0A0
:101C60003F7002C0959587953A95E2F780FD3FC099
:101C7000C701042E02C0880F991F0A94E2F7082BAF
:101C8000192B11961C930E934F5F5F4F40315105F6
:101C9000D1F681A1892181A382A1682B62A381E071
:101CA0004D915C9111974A155B0509F480E0282B52
:101CB0001296D9E36D16D1E07D0609F09FCF45E07D
:101CC00064E771E08EE791E00E947B0E0E945A0764
:101CD00081E0DF91CF911F910F91FF90EF90DF9006
:101CE000CF90BF90AF909F907F906F90089590E0BD
:101CF00080E0C5CF0895FF920F931F93CF93DF939A
:101D0000F82E092F162FD72FC42F222349F081E058
:101D100080938A010E94FE24909389018093880118
:101D200080918A018823A1F0809188019091890196
:101D30000E940A25069760F0EF2DF02FA12FBD2FEE
:101D400090E080E0D0E08C179D0744F010928A016B
:101D5000DF91CF911F910F91FF90089521913191C3
:101D60002D933D930196EFCFCF92DF92EF92FF92AA
:101D70000F931F93CF93DF93462FF72E382F282FE3
:101D8000E82FF0E071110EC0E751F84F6491762F03
:101D9000862FDF91CF911F910F91FF90EF90DF90F1
:101DA000CF900895072F10E056E0659FC0011124E1
:101DB000CFEFD0E0BE010E943C31842F90E0880F2D
:101DC000991FA5E5A69FA001A79F500D1124841B74
:101DD000950BE82EEE0CE80ECE01801B910B8E9F2A
:101DE000A0018F9F500D9E9F500D1124952FEF9CA9
:101DF000D0011124AB2FBB276E01CA1ADB0ACE9E7D
:101E0000D001CF9EB00DDE9EB00D11248B2F6E0140
:101E1000CE18D108C09E7001C19EF00CD09EF00C6F
:101E20001124EF2CFF24CE19DF09CE9F8001CF9F14
:101E3000100DDE9F100D11246230710521F150F458
:101E40006115710571F06130710569F0832F252FDF
:101E50009B2F09C064307105E9F0C0F06630710550
:101E6000A9F7832F212FE82FF0E0E751F84F649175
:101E7000E22FF0E0E751F84F7491E92FF0E0E751DD
:101E8000F84F849186CF852F912FEDCF852F932FFB
:101E90002B2FE9CF252F932F812FE5CF0895CF93B7
:101EA000DF93762FE901682F842F0E94B40E698397
:101EB00078838A83DF91CF910895453B08F044EB06
:101EC0000C944F0F80914702982F9E7F61F4817090
:101ED00082608093470280914A02853B18F084EB30
:101EE00080934A0208958A34B0F381708864F1CFF8
:101EF00088E090E00C94BB31CF92DF92EF92FF929A
:101F00006B017C010E94620FB701A60188E090E09E
:101F1000FF90EF90DF90CF900C94D931E7E4F2E09E
:101F200083E0808311828FEF828384EB838314822A
:101F300060817181828193810C947C0F80912D024C
:101F400080FF08C08BEB96E09F938F930E94B506AD
:101F50000F900F9080912D0280FF0FC0809147025B
:101F600081701F928F938EE996E09F938F930E94CA
:101F7000B5060F900F900F900F9080912D0280FF6B
:101F80000FC08091470286951F928F9383E896E059
:101F90009F938F930E94B5060F900F900F900F9014
:101FA00080912D0280FF0EC0809148021F928F9376
:101FB00089E696E09F938F930E94B5060F900F904D
:101FC0000F900F9080912D0280FF0EC080914902EA
:101FD0001F928F938FE496E09F938F930E94B50694
:101FE0000F900F900F900F9080912D0280FF0EC0E8
:101FF00080914A021F928F9385E396E09F938F937F
:102000000E94B5060F900F900F900F9080912D02B7
:1020100080FF0EC080914B021F928F9389E196E062
:102020009F938F930E94B5060F900F900F900F9083
:1020300008958091470280FF02C08695089580E050
:10204000089580914B02833018F48F5F80934B0288
:1020500060914702709148028091490290914A0232
:102060000C947C0F80914B02882319F0815080934F
:102070004B02609147027091480280914902909111
:102080004A020C947C0F6091050170E08091470238
:1020900080FF0AC080918F0123E0829FC00111243C
:1020A000845B9D4F0C94FD1580918E0190910401ED
:1020B00023E0829FF0011124E45BFD4F891750F764
:1020C0001182108212828F5F3396F8CF909147026F
:1020D00090FF14C090918E012091040133E0939FF2
:1020E000F0011124E45BFD4F921710F00C944310A3
:1020F0008183608342839F5F3396F6CF0895CF93A9
:10210000DF9300D01F92CDB7DEB79091470290FFCA
:102110000AC09E012F5F3F4F0E945D0F4B81698176
:102120008A810E9466100F900F900F90DF91CF91DF
:102130000895CF93DF93EC01EC81F0E0EC51F94F7F
:102140004491E7E4F2E0628181810E947F108C81FA
:102150008F5F8C83DF91CF910895CF93DF93EC0154
:10216000E7E4F2E0438162818C810E947F108C81E0
:102170008F5F8C83DF91CF9108950F931F93CF933F
:10218000DF9300D01F92CDB7DEB78C0180918B0119
:1021900081110AC09E012F5F3F4F44EB6FEF0E94F9
:1021A0005D0F8A8180938B01F8018481813069F011
:1021B00038F040918B01823009F040E080E003C0AC
:1021C00080918B0140E060E004C060918B0140E0B1
:1021D00080E00E946610F801848190E0019663E03F
:1021E00070E00E94503184830F900F900F90DF9128
:1021F000CF911F910F9108954F925F926F927F92AE
:102200008F929F92AF92BF92CF92DF92EF92FF9206
:102210000F931F93CF93DF9300D01F92CDB7DEB7FC
:10222000182FD62E042F722E9091470290FF42C095
:10223000E92FE695AE2FB0E0A75CBE4F8C9180935E
:1022400097019E7F923009F049C09E012F5F3F4F5A
:10225000812F0E945D0F4B8169818A810E946610E7
:1022600010934802D092490200934A02772009F461
:1022700098C0609147027091480280914902909104
:102280004A020E947C0F80914A021F928F93809194
:1022900049021F928F93809148021F928F938FE47F
:1022A00094E09F938F930E94B5060FB6F894DEBF1B
:1022B0000FBECDBF0F900F900F90DF91CF911F9168
:1022C0000F91FF90EF90DF90CF90BF90AF909F90D5
:1022D0008F907F906F905F904F900895823019F4A7
:1022E00000914A02BDCF863019F410914802B8CF50
:1022F0008930D9F3893109F0B3CFE9518E2F81703C
:10230000682E8E2F80958170C82EE695F0E0EC51F6
:10231000F84FE590F490412CFF2494E7A92E94E027
:10232000B92E60910301461618F00E94431098CF11
:10233000842C912C8E9CC0018F9C900D9E9C900DA6
:10234000112470E00E943C31512E611028C0560EBD
:1023500080912D0280FF11C0FF92EF921F92CF92C9
:102360001F925F921F924F92BF92AF920E94B5064A
:102370000FB6F894DEBF0FBECDBF20918E01820E46
:10238000911C9401220F331F280D391D245B3D4FF2
:10239000402F6D2D852D0E945D0F4394C2CF561A9C
:1023A000D7CF1F920F931F92DF921F921F9388E245
:1023B00094E077CFE7E4F2E09181282F43816281B6
:1023C00088E0890F0C94FC1081E00C94DA11E7E4AA
:1023D000F2E09181282F4381628188EF890F0C946C
:1023E000FC1081E00C94E711E7E4F2E0628128E060
:1023F000620F08F46FEF282F438181810C94FC1049
:1024000081E00C94F411E7E4F2E0628128E0621BC1
:1024100008F460E0282F438181810C94FC1081E056
:102420000C940312E7E4F2E0438128E0420F08F441
:102430004FEF282F628181810C94FC1081E00C9475
:102440001212E7E4F2E0438128E0421B08F440E086
:10245000282F628181810C94FC1081E00C94211260
:1024600020E00C94FC10EF92FF921F93CF93DF9328
:10247000EC0110E0EE24EA94F12C609103011617B0
:1024800070F00E9443109A818C8190FF27C08F5F6B
:102490008C83DF91CF911F91FF90EF900895209151
:1024A0008E01422F410F5527551FCA019A01220F55
:1024B000331F280F391F245B3D4F70E0C7010E9476
:1024C0005031962F8C8140914A0260914902199FA8
:1024D000800D11240E945D0F1F5FCFCF8150D8CF98
:1024E000BF92CF92DF92EF92FF920F931F93CF9301
:1024F000DF93FC0182810FEF80FF01E010E080910B
:1025000003011817C0F00E94431080918D01013023
:1025100009F04DC0811102C0809103018150809368
:102520008D01DF91CF911F910F91FF90EF90DF9080
:10253000CF90BF900895C0918E01C12ED12CCC0DAB
:10254000DD2DD11DCE01880F991FC80FD91FC45B87
:10255000DD4F198218821A8234E0E32EF12CB12C5F
:1025600080918D018B0D87FF03C090910301890F2E
:10257000082E000C990BC816D90691F480914A02D6
:102580008E9DA0018F9D500D112455954795559511
:1025900047959E0160914902809148020E945D0F1B
:1025A000B00EF1E0EF1AF108D9F61F5FA8CF90E066
:1025B00001966091030170E00E945031B0CF0F93FB
:1025C0001F93CF93DF9380918E019091040123E0BC
:1025D000829FF0011124E45BFD4F891740F1C0E0B8
:1025E000D3E060910301C61740F10E94431020918F
:1025F000010180918C01820F80938C0190910201E6
:10260000920F90930201191654F4082E000C990BA6
:10261000409103014150550B841795071CF02195FB
:1026200020930101DF91CF911F910F9108951182A5
:10263000108212828F5F3396D0CF0C2F10E070E0A3
:10264000C8010E94503120918E01820F482F50E026
:1026500020918C01022E000C330B02171307BCF0E3
:1026600020910201022E000C330B201731077CF061
:102670008D9F90011124245B3D4F40914A0260914F
:102680004902809148020E945D0FCF5FAACFFA01F4
:10269000EE0FFF1FE40FF51FE45BFD4F1182108268
:1026A0001282F3CF0F931F93CF93DF938C01FC0122
:1026B0008481958101968170992795838483C0E0F8
:1026C000D5E580910301C81730F0DF91CF911F91BC
:1026D0000F910C94431020918E01422F4C0F5527DF
:1026E000551FCA019A01220F331F280F391F245B7F
:1026F0003D4F8C2F8695F80144815581840F952F8D
:10270000911D817040914A02609149028D9F802DF8
:1027100011240E945D0FCF5FD4CF0F931F93CF93EF
:10272000DF93EC0110E000E0909103019017110697
:1027300009F06CF40E9443108C8190E00196817046
:1027400099278C83DF91CF911F910F91089520914C
:102750008E01A801420F511D9A01220F331F240F31
:10276000351F245B3D4F4C816091490280914802A6
:1027700096959017110651F04CF0442349F0409182
:102780004A020E945D0F0F5F1F4FCECF4423B9F363
:1027900040E0F7CF60914702669570E04BE050E073
:1027A00086E091E00E94A631892B19F481E08093A4
:1027B00098010E94FE249093910180939001809152
:1027C0002D0280FF08C08FE094E09F938F930E94BA
:1027D000B5060F900F9008951092980180912D02E8
:1027E00080FF08C086EF93E09F938F930E94B50609
:1027F0000F900F9008959091470290FF4CC09170F8
:10280000811137C09260909347026623C9F16091AD
:102810004702709148028091490290914A020E94B9
:102820007C0F8091470286951F928F938FE595E0EC
:102830009F938F930E94B5060F900F900F900F906B
:1028400060914702669570E04BE050E086E091E0D1
:102850000E94A631892BE1F00E94EC1381E0809365
:10286000930140914A0260914902809148020C9480
:102870003012853210F09864C6CF880F982BC3CFE2
:102880008091470286951F928F9381E495E0D0CF87
:102890000E94CA13E3CF0895682F9091470296953E
:1028A00081E0890F853208F081E00C94FB1381E010
:1028B0000C944C14682F9091470296958FEF890FD6
:1028C00009F484E20C94FB1381E00C945A1461E047
:1028D0000C94FB13CF93DF93C7E4D2E0888181602F
:1028E00088831F9281E08F9383ED94E09F938F9371
:1028F0000E94B5060F900F900F900F9088818695DB
:10290000DF91CF910C94671460E00C94FB138091DD
:102910009601811163C080912D02816080932D0208
:1029200080FF08C082E096E09F938F930E94B506D7
:102930000F900F9080912D0280FF08C08CEE95E0E3
:102940009F938F930E94B5060F900F900E94AF2324
:10295000811110C080912D0280FF08C084EC95E0A9
:102960009F938F930E94B5060F900F900E94322480
:102970000E948E0F0E94780F609347027093480266
:102980008093490290934A026E7FC1F480912D0298
:1029900080FF08C08BE795E09F938F930E94B50658
:1029A0000F900F900E948E0F0E94780F6093470245
:1029B000709348028093490290934A020E94620FEA
:1029C0000E949E0F109298018091470280FF03C0E1
:1029D00086950E94841481E0809396010895CF9398
:1029E000DF93C7E4D2E088818E7F88836881798114
:1029F0008A819B810E947C0F888181701F928F93B6
:102A00008BE994E09F938F930E94B5060E94EC138C
:102A10002FEF80E792E0215080409040E1F700C026
:102A200000000F900F900F900F90DF91CF910C94BA
:102A3000431080914702809581701F928F938AE0A6
:102A400095E09F938F930E94B506809147020F9067
:102A50000F900F900F9080FD0C94EF140C946A145B
:102A60000F931F93CF93DF9380919801882309F4EC
:102A70008DC080919701E0914702E695E81BE093B5
:102A800092018230C9F5F0E0E052F94FE491CE2F87
:102A9000D0E009E910E180919301882389F0109238
:102AA00093010E94FE249E0120953095820F931F72
:102AB000909391018093900110929501109294014E
:102AC00080919001909191010E940A258C179D0799
:102AD00008F45CC0E0919001F0919101CE0FDF1FEE
:102AE000D0939101C093900180E991E0F801DF91CA
:102AF000CF911F910F910994863049F4F0E0E35291
:102B0000F94FE491CE2FD0E00DEA10E1C4CF893027
:102B100051F4E695F0E0E652F94FE491CE2FD0E083
:102B200003E312E1B8CF8F3051F4E695F0E0E952BB
:102B3000F94FE491CE2FD0E000E712E1ACCF853120
:102B400049F4F0E0EC52F94FE491CE2FD0E00FEDD4
:102B500012E1A1CFC8EED3E002E513E1883109F418
:102B60009ACF833239F4E2EDF6E0C591D4910DEBC2
:102B700010E191CFC4EFD1E00DE813E1843209F404
:102B80008ACFC0EDD7E00EE41FE085CFDF91CF9173
:102B90001F910F9108953EB1242F209523233EB11C
:102BA000432B3FB7F894FC01680F791FE617F7072E
:102BB00011F43FBF0895819198E04EB9000000C024
:102BC00087FF2EB9880F000000C000C000C02EB9DA
:102BD00000C09A9591F7EACF2DB1242B2DB99B0116
:102BE000220F331F620F731F0E94CB1587EC90E0FA
:102BF0000197F1F700C00000089544E00C94EC1533
:102C00000F931F93CF93DF93C62FD42F022FFC0176
:102C100082818823C9F060939B010E94FE249093D7
:102C20009A018093990180E28C0F883008F057C098
:102C3000C77081E001C0880FCA95EAF7DF91CF9194
:102C40001F910F910C94F61910919B01161335C02A
:102C50008091990190919A010E940A25883C9105E2
:102C600060F5C0E2CD0F1D17B9F080E2810F88300A
:102C700040F4177081E001C0880F1A95EAF70E94AE
:102C8000FD19C83028F581E09D2F977001C0880F8D
:102C90009A95EAF70E94F619802F0E94E319C8302E
:102CA000F0F4D77081E001C0880FDA95EAF7DF9180
:102CB000CF911F910F910C94FD1980E28C0F8830F9
:102CC00070F4C77081E001C0880FCA95EAF7EFCFB2
:102CD000802FDF91CF911F910F910C94E319DF9119
:102CE000CF911F910F9108959C01CB01203F4CE59E
:102CF000340731F190F4283DFCE53F07E9F0293D28
:102D00004CE5340769F1273D3C4579F426E241EE74
:102D100061EE0E94001680E00895223FFCE53F0727
:102D2000B9F090F0233F3C45B9F0FC018281882343
:102D3000D1F010929B01089527E245EE65EEE9CFB0
:102D400026E241EE60EEE5CF27E245EE64EEE1CF0C
:102D500026E241EE62EEDDCF27E245EE66EED9CF08
:102D600028E241E0EBCF81E008959093A1018093A8
:102D7000A0010895E091A001F091A101309721F008
:102D80000190F081E02D099480E00895EF92FF9288
:102D90000F931F93CF93DF938C01E091A001F091EB
:102DA000A1013097C1F10280F381E02D0995809156
:102DB0002D0282FF30C080FF04C081EF98E00E94A6
:102DC0001C06D0E0C0E08BEEE82E88E0F82E809163
:102DD0002D0280FF0EC0F801EC0FFD1F80811F92B5
:102DE0008F93FF92EF920E94B5060F900F900F9075
:102DF0000F902196C830D10551F780912D0280FFA8
:102E00000AC089EE98E0DF91CF911F910F91FF905A
:102E1000EF900C941C06DF91CF911F910F91FF90C2
:102E2000EF900895E091A001F091A101309739F061
:102E300022E0DC012C930480F581E02D09940895B3
:102E400020919E0130919F012817390771F09093CE
:102E50009F0180939E01E091A001F091A101309724
:102E600021F00680F781E02D0994089520919C01BE
:102E700030919D012817390771F090939D0180933F
:102E80009C01E091A001F091A101309721F0008414
:102E9000F185E02D0994089585B7806885BF85B7D1
:102EA000806885BF0895089508950C945317089578
:102EB0000C9457170E944C170E9454170C945517E6
:102EC00081E008950E94F5240E94810D0E947E25D4
:102ED0000E9437280E9487140C945817CF93C82F4C
:102EE00080912D0282FF1EC080FF04C08AE099E01D
:102EF0000E941C0680912D0280FF0CC01F92CF9370
:102F000085E099E09F938F930E94B5060F900F90F4
:102F10000F900F9080912D0280FF04C083E099E014
:102F20000E941C068C2FCF910C943D085F926F92EB
:102F30007F928F929F92AF92BF92CF92DF92EF9249
:102F4000FF920F931F93CF93DF93CDB7DEB72A97EE
:102F50000FB6F894DEBF0FBECDBF0E94E70D0E94F2
:102F60006017882309F47AC093EAA92E91E0B92E5C
:102F700010E000E088248394912C502E802F0E9432
:102F8000310D7C01F501C190D1905F01C816D906C1
:102F900009F45EC080912D0281FD0E943A0D90E0FF
:102FA00080E0CE24DF243401082E02C0660C771C9A
:102FB0000A94E2F7960126213721232B09F443C016
:102FC0008E835F82E620F72081E0EF2809F480E01D
:102FD00088870E94FE248160782F9A8789874E8196
:102FE0005F8168858A850E945518000F111FF801BE
:102FF000ED55FE4F8081918168267926718260822D
:103000000E9493270E94BA169091A2018917B9F1E4
:103010000E94BA168093A2012A960FB6F894DEBFDA
:103020000FBECDBFDF91CF911F910F91FF90EF9019
:10303000DF90CF90BF90AF909F908F907F906F90D8
:103040005F900C946E1701968031910509F0ABCF1B
:103050000F5F1F4F0530110509F08FCF8FEF898368
:103060008A831B820E94FE248160782F9D838C833B
:1030700049815A816B818D810E945518C1CF2A9652
:103080000FB6F894DEBF0FBECDBFDF91CF911F9179
:103090000F91FF90EF90DF90CF90BF90AF909F90F7
:1030A0008F907F906F905F900895CF93DF93CDB70F
:1030B000DEB72B970FB6F894DEBF0FBECDBF4F83A0
:1030C000588769877A878B871E821D8285E0FE017B
:1030D0003796DE01119601900D928A95E1F74981AC
:1030E0005A816B817C818D819E812B960FB6F894DD
:1030F000DEBF0FBECDBFDF91CF910C94B11FFC019D
:10310000808191810C947A22882309F405C1823848
:10311000B9F40E94BA1681FDFFC089E30E94A8227B
:103120000E941C232FEF81EE94E0215080409040BC
:10313000E1F700C0000089E30E94AF220C941C2339
:103140008338A1F40E94BA1680FDE6C083E50E9490
:10315000A8220E941C232FEF81EE94E02150804092
:103160009040E1F700C0000083E5E6CF8438A1F489
:103170000E94BA1682FDD0C087E40E94A8220E9455
:103180001C232FEF81EE94E0215080409040E1F726
:1031900000C0000087E4D0CF9CEF980F913A18F45C
:1031A0000E94A822CBCF90E2980F983050F48770FD
:1031B00091E001C0990F8A95EAF7892F0E94D022E9
:1031C000BDCF9BE5980F933070F4853A31F0863A85
:1031D00039F083E890E00C94201781E890E0FBCF71
:1031E00082E890E0F8CF98E5980F973108F08EC00C
:1031F000883A09F446C0893A09F446C08A3A09F483
:1032000046C08B3A09F446C08C3A09F446C08B3B61
:1032100009F446C08C3B09F446C08D3A09F446C017
:10322000803B09F446C08E3A09F446C08F3A09F44F
:1032300046C0813B09F446C0823B09F446C0833B4B
:1032400009F446C0843B09F446C0853B09F446C0F6
:10325000863B09F446C0873B09F446C0883B09F425
:1032600046C0893B09F446C08D3B09F446C08E3BFD
:1032700009F446C08A3B09F446C090E080E00C9413
:10328000361782EE90E0FBCF89EE90E0F8CF8AEE21
:1032900090E0F5CF85EB90E0F2CF86EB90E0EFCFBA
:1032A00083EB90E0ECCF84EB90E0E9CF87EB90E00C
:1032B000E6CF8CEC90E0E3CF8DEC90E0E0CF83E8BC
:1032C00091E0DDCF8AE891E0DACF82E991E0D7CFD3
:1032D00084E991E0D4CF81E292E0D1CF83E292E021
:1032E000CECF84E292E0CBCF85E292E0C8CF86E2F7
:1032F00092E0C5CF87E292E0C2CF8FE690E0BFCFE9
:1033000080E790E0BCCF8AE292E0B9CF803F20F026
:103310000E941A260C9406270895882309F452C0A7
:10332000823871F40E94BA1681FF4CC089E30E9472
:10333000A8220E941C2389E30E94AF220C941C2324
:10334000833859F40E94BA1680FF3CC083E50E947E
:10335000A8220E941C2383E5EFCF843859F40E94F1
:10336000BA1682FF2FC087E40E94A8220E941C2365
:1033700087E4E2CF9CEF980F913AF0F290E2980F39
:10338000983050F4877091E001C0990F8A95EAF760
:10339000892F0E94D622D2CF9BE5980F933020F43C
:1033A00090E080E00C94201798E5980F973120F476
:1033B00090E080E00C943617803F20F00E94822637
:1033C0000C9406270895CF93C82F0E948418C93300
:1033D00049F42FEF83EC99E0215080409040E1F7D1
:1033E00000C000008C2FCF910C948D19882321F000
:1033F0000E94D0220C941C230895882321F00E945F
:10340000D6220C941C2308958F929F92AF92BF9264
:10341000DF92EF92FF920F931F93CF93DF937C0184
:10342000D62FC72FFC01058102950F701281111153
:103430000E94EF220E94C622D82E882371F0112309
:1034400031F180E28D0F883010F182E00E94672315
:103450000E94C62291E0D82ED926BC2EB2949FE0BD
:10346000B922EB2DF0E0E95CF54E0C948631491A57
:10347000491A991A991ADA1A021BE11AE11A441B1D
:10348000E11ADF1BDF1B691C721CE11A951CD12C91
:10349000E4CF0C2F0F70C07F11F00295007F112335
:1034A000A9F0002359F080E28D0F883010F0D1117F
:1034B00009C0802F0E94D0220E941C238D2F0E94C1
:1034C000841814C0802F0E94E122F6CF8D2F0E9415
:1034D0008D19002359F080E28D0F883010F0D11142
:1034E00024C0802F0E94D6220E941C23DD2009F4D4
:1034F00023C20E94C22280FD1FC2F70112820E94D5
:10350000BC220E944421C7010E94A81C0E94BC2228
:10351000DF91CF911F910F91FF90EF90DF90BF90BF
:10352000AF909F908F900C946521802F0E94E7228E
:10353000DBCFFC2FFF70BF2EC07FC03219F0B294DA
:1035400080EFB822DD2339F0D13019F1112361F178
:10355000002321F1B3CF112381F0011106C00E9495
:1035600003238B290E94F619C1CF0130C1F70E94B5
:1035700003238B290E940923B9CF011106C00E94A1
:1035800012238B2D0E94FD19B1CF013009F4AECF6B
:10359000F6CF112329F0063008F0A8CF8B2DE2CF0B
:1035A000053008F0A3CFEDCF002359F38D2F0E94F3
:1035B0008D199CCF8C2F86958695837079F08130FC
:1035C000B9F0E8E0BE1609F49BC0BE1608F48ECF31
:1035D00086EF8B0D823008F493C088CF8D2F9C2FFF
:1035E0009370111102C090E080E00E9420177ECFFE
:1035F0008D2F9C2F9370111102C090E080E00E94EB
:10360000361774CF112309F1D53F99F0D63FB9F0A1
:10361000D43F49F48091880290918902816090930F
:103620008902809388028D2F0E941A260E94062705
:103630005DCF80918802909189028260F0CF809165
:103640008802909189028460EACFD53F89F0D63F05
:10365000A9F0D43F49F480918802909189028E7F2D
:1036600090938902809388028D2F0E948226DECF5C
:1036700080918802909189028D7FF2CF809188029B
:10368000909189028B7FECCF8C2F837009F04BC017
:10369000111136C02D2F229526952770220F220F4B
:1036A0006D2F6F70862E912CB12CA12C022E04C090
:1036B000880C991CAA1CBB1C0A94D2F760E070E02D
:1036C000CB01D4FF0FC06FE070E080E090E004C059
:1036D000660F771F881F991F2A95D2F760957095FE
:1036E00080959095C695C695C370C23071F0A0F4D0
:1036F000682979298A299B29C13091F00E94F620F6
:103700000E94BA160E943D08F1CE682979298A29BB
:103710009B290E940821F4CF0E94F620C501B40124
:103720000E94E420EDCF8695112311F08C2F81703B
:10373000882331F32D2F229526952770220F220FF3
:103740006D2F6F70862E912CB12CA12C022E04C0EF
:10375000880C991CAA1CBB1C0A94D2F760E070E08C
:10376000CB01D4FF0FC06FE070E080E090E004C0B8
:10377000660F771F881F991F2A95D2F7609570955D
:1037800080959095C695C695C370C23051F080F46F
:10379000682979298A299B29C13071F00E94BB21AF
:1037A000AFCF682979298A299B290E94CD21A8CFEA
:1037B0000E94BB21C501B4010E94A921A1CFE0E272
:1037C000ED0FE53108F066C0F0E0E751F44E0C94DF
:1037D0008631FE1BFE1BFE1BFE1BFE1BFE1BFE1B83
:1037E000FE1BFE1BFE1BFE1BFE1BFE1BFE1BFE1B11
:1037F000FE1B0F1C1D1C241C2B1C351CDF708C2F6A
:103800008F71112331F00E9444218D2F0E94F619EF
:10381000D8CE0E9465218D2F0E94FD19D2CE112392
:1038200041F0053008F0CDCE8C2F8F710E94882199
:10383000C8CE063008F0C5CEF7CF8C2F8F7111237C
:1038400039F00E944421BDCE8C2F8F711123C9F312
:103850000E946521B6CE112329F08C2F8F710E9412
:103860002F21AFCE0E942A21ACCE112349F0CF7177
:103870008C2F0E94442163E08C2F0E945223A1CE02
:1038800081E00E946723023008F49BCE82E00E9410
:10389000672397CE112349F0002321F08D2F0E943A
:1038A00084188FCE8C2F8F71CCCF002379F0D93331
:1038B00049F42FEF83EC99E0215080409040E1F7EC
:1038C00000C000008D2F0E948D197BCE8C2F8F7130
:1038D000BFCF4C2F4F706D2FC7010E947D0A0E94F1
:1038E0005A2004CE111102CECF70C230B1F040F494
:1038F000CC2381F0C13009F064CE0E947B28F6CD44
:10390000C43089F068F080E0C53009F05ACE0E94DA
:103910003429ECCD0E945028E9CD0E94E228E6CD62
:103920000E94FE28E3CD83E0F2CF4C2F4F706D2F25
:10393000C7010E94800ADACDDF91CF911F910F91CC
:10394000FF90EF90DF90BF90AF909F908F90089581
:103950000F931F93CF93DF93EC01988189812B8183
:103960003C81232B39F08F3F19F481E09F3F19F000
:1039700080E001C081E080FD17C0CE010E944F08A9
:10398000882391F0688179818A810E9484228C0148
:103990000E94DF210E94E120B801CE01DF91CF918A
:1039A0001F910F910C94041ADF91CF911F910F91E9
:1039B00008950E94EF220E9400230E941C230E946F
:1039C0002B280E94062790E080E00E94201790E0BC
:1039D00080E00C9436170E94B6220C94D91C0E94E9
:1039E000DE220C94EB1CE92FE295EF70E250EE30F2
:1039F000E0F4F0E0E250F34E0C9486310C1D0C1D07
:103A0000151D151D171D151D151D151D0C1D0C1D36
:103A10001C1D151D151D1C1D803F19F020F4803E36
:103A200020F481E00895843FE1F380E00895803E32
:103A3000C0F3813FD1F7F5CF93FB882780F9089534
:103A40000E947A220C94F31CCF93DF9300D000D015
:103A50001F92CDB7DEB70F900F900F900F900F9081
:103A6000DF91CF910895CF93DF9300D000D000D0A5
:103A7000CDB7DEB726960FB6F894DEBF0FBECDBF2A
:103A8000DF91CF9108951F93CF93DF93C091AE0143
:103A900016E08091AF018C1304C0DF91CF911F918C
:103AA0000895D0E01C9FF0011D9FF00D1124E055FA
:103AB000FE4F4081518162817381848195810E9492
:103AC000331D2196C770E5CF4091E0015091E1018F
:103AD0006091E2017091E3018091E4019091E50130
:103AE0000C94331D1F93CF93DF938091E501807F6A
:103AF000D1F48091E2018823B1F08091AE01D091A0
:103B0000AF01B091E001C091E1014091E30150911A
:103B1000E401A1E0BF3F09F0A0E0BA016095709513
:103B200016E0D81304C0DF91CF911F91089521E0D2
:103B30004115510521F02A2FCF3F09F020E090E0F8
:103B400020FD38C0189FF001199FF00D1124E05599
:103B5000FE4F21812C132EC020812B132BC02281DC
:103B6000211128C0238134812417350700F1241B3B
:103B7000350B283C3105F0F42091E5012F702061D0
:103B80002093E50126E0289FF001299FF00D1124E4
:103B9000EB54FE4F80818F708061808380EE91E0D6
:103BA0000E94A81CDF91CF911F910C94431D260FFA
:103BB000371FDFCF01968770B4CFAF92BF92CF92FD
:103BC000DF92EF92FF920F931F93CF93DF93CDB7C6
:103BD000DEB761970FB6F894DEBF0FBECDBF8C0184
:103BE00085E0F801DE011D9601900D928A95E1F7BE
:103BF000D8014C9111965C9111971296EC903091EE
:103C0000E0016091E1018091E3019091E40121E004
:103C1000009731F06F3F19F421E03F3F09F020E0B9
:103C2000B22FB170BB2E20FD80C1F801C380D480BB
:103C3000A090E201AA2009F427C1C816D906D0F144
:103C4000D601A81BB90BCD01FF24F394883C910544
:103C500008F0F12C8091E501982F907FFF2009F466
:103C6000CEC0911187C0FE2C651329C0341327C024
:103C7000E11025C08F7080618093E5010E94641D72
:103C800080EE91E00E94A81C8091E501F8018583F7
:103C90008F2D61960FB6F894DEBF0FBECDBFDF91BA
:103CA000CF911F910F91FF90EF90DF90CF90BF9039
:103CB000AF900895809590958C0D9D1DC5CF81E0A6
:103CC000CD2831F05F3F19F481E04F3F09F080E0EB
:103CD00080FD24C081E08E25F82FF170DF2E80FF5B
:103CE0003FC08091AE012091AF0136E0821318C031
:103CF0004D875E878D859E850E947A22292F229589
:103D00002F70223008F1243030F59F7009F1D8016E
:103D100015969C91907FE1F4FB2CBACF80E0DCCF2C
:103D200090E0389FF001399FF00D1124E055FE4FCF
:103D30006181561306C06081461303C062816E1113
:103D40000FC001968770D2CF9F7011F0882321F3A6
:103D5000805E883008F3C8010E94A81CBD2CDCCF0F
:103D6000EE2009F495CF8091E50181608093E50113
:103D7000F12C8ECF651314C0341312C0E11010C0A3
:103D8000F8018583C8010E94A81C86E0F801A0EE16
:103D9000B1E001900D928A95E1F70E94641D78CF01
:103DA0004D875E878D859E850E94201D882319F191
:103DB000EE2009F18091E501803270F02091E00160
:103DC0003091E10138872F831986DB86CA868C877C
:103DD000CE0107960E94A81C86E0F801A0EEB1E093
:103DE00001900D928A95E1F70E94721D0E94641D58
:103DF000FF24F3944DCFC8010E94A81CF9CF911164
:103E000013C07C2DD98AC88A6E2D89890E94241DF1
:103E100080EE91E00E94A81C86E0E0EEF1E0DF0178
:103E20001D928A95E9F7B9CF651312C0341310C0FB
:103E3000E1100EC0F8018583C8010E94A81CE0EEC5
:103E4000F1E086E0DF011D928A95E9F7FA2C20CF98
:103E50004D875E878D859E850E94201D882359F29F
:103E6000EE2049F28091E501803208F4B5CF20912F
:103E7000E0013091E1013A8329831B82DD82CC820B
:103E80008E83CE010196A6CFC816D90638F1F60169
:103E9000E81BF90BCF01F12C883C910508F03DC0DF
:103EA000FE2CEE2009F4A7CF651326C0341324C0DE
:103EB0008091E50180FD17C0982F907FA1F0D80177
:103EC00015968C931597903F09F45CCF982F907FAF
:103ED000905F8F70892B15968C9354CF8095909519
:103EE0008C0D9D1DD8CF86E0F801A0EEB1E00190C9
:103EF0000D928A95E1F7CCCE4D875E878D859E85A4
:103F00000E94201D811168CF8091E501816080931E
:103F1000E501C8010E94A81CBBCE7C2DD98AC88AA5
:103F20006E2D89890E94241D77CFEE2009F463CF7E
:103F30004D875E878D859E850E94201DF82E8823E3
:103F400009F459CF86E0F801A0EEB1E001900D929E
:103F50008A95E1F780EE91E00E947F180E94721D21
:103F60001CCF1F93CF93DF93CDB7DEB72C970FB63F
:103F7000F894DEBF0FBECDBF4F83588769877A871D
:103F80008B879C87CE0107960E94DD1D882309F44C
:103F900042C09F8188852A853B85232B39F08F3F3E
:103FA00019F481E09F3F19F080E001C081E080FDBD
:103FB00008C04F81588569857A858B859C850E94CC
:103FC000331D16E08091AE019091AF01891709F47D
:103FD00067C0819FC001112480559E4F0E94DD1D46
:103FE000882309F45DC0E091AE011E9FF001112409
:103FF000E055FE4F408151816281738184819581BA
:104000000E94331D8091AE0190E001968770992740
:104010008093AE01D7CF86E0FE013796DE01119680
:1040200001900D928A95E1F79F8188852A853B85CD
:10403000232B39F08F3F19F481E09F3F19F080E086
:1040400001C081E080FDBDCF2091AF0130E0C9010A
:104050000196877099274091AE014817190699F08B
:1040600096E0929FD001939FB00D1124A055BE4FB2
:10407000FE01319601900D929A95E1F78093AF0180
:104080000E94431D9ECF0E94EF1C1092AF01109220
:10409000AE0186E0E0EEF1E0DF011D928A95E9F7DE
:1040A0002C960FB6F894DEBF0FBECDBFDF91CF9137
:1040B0001F910895EF92FF920F931F93CF93DF9379
:1040C0008C01892B81F0F12CEE24E394E8012196F8
:1040D000F8018491843770F4843008F05FC0813037
:1040E000B1F08230A1F1DF91CF911F910F91FF903C
:1040F000EF900895853709F44CC008F43DC09CE763
:10410000980F903780F78F770E948D1949C00E5F06
:104110001F4FFE01849190E2980F983060F48770F1
:10412000FE2D01C0FF0F8A95EAF78F2F0E94F22221
:104130000E941C2302C00E9484188F2D815030F2EF
:10414000EFE9FFE03197F1F700C00000F7CF0E5F15
:104150001F4FFE01849190E2980F983050F48770C1
:10416000FE2D01C0FF0F8A95EAF78F2F0E94F822DB
:10417000DFCF0E948D19E1CF0E5F1F4FFE01C4916A
:10418000C150D8F28FE99FE00197F1F700C000001D
:10419000F7CF0E5F1F4FFE01F490CFCF0E9484181F
:1041A0008E01CBCF08950C94D2200E94D32060932F
:1041B0001C0270931D0280931E0290931F020C94A8
:1041C000D91C08950C94D5200F931F9300911C02C5
:1041D00010911D0220911E0230911F02602B712B45
:1041E000822B932B1F910F910C94D5200F931F932B
:1041F00000911C0210911D0220911E0230911F029D
:1042000060237123822393231F910F910C94D52057
:104210000F931F9300911C0210911D0220911E020A
:1042200030911F0260277127822793271F910F91DA
:104230000C94D5200C94D2200C941A210E941C219D
:10424000609318027093190280931A0290931B02D4
:104250000C94D91C60E070E0CB010C941E210F93EC
:104260001F9341E050E060E070E08A019B0104C0D0
:10427000000F111F221F331F8A95D2F7C901B80101
:104280001F910F910C941E210F931F9341E050E05A
:1042900060E070E004C0440F551F661F771F8A95C9
:1042A000D2F78091180290911902A0911A02B09150
:1042B0001B028A019B01082B192B2A2B3B2BC901BE
:1042C000B8011F910F910C941E210F931F9341E091
:1042D00050E060E070E004C0440F551F661F771F78
:1042E0008A95D2F7CB01BA0160957095809590952B
:1042F000009118021091190220911A0230911B02AC
:1043000060237123822393231F910F910C941E210C
:104310000F931F9341E050E060E070E004C0440F51
:10432000551F661F771F8A95D2F7809118029091CA
:104330001902A0911A02B0911B028A019B01082761
:1043400019272A273B27C901B8011F910F910C9407
:104350001E210F931F9300911802109119022091B2
:104360001A0230911B02602B712B822B932B1F9111
:104370000F910C941E210F931F930091180210911E
:10438000190220911A0230911B02602371238223AB
:1043900093231F910F910C941E210F931F93009153
:1043A00018021091190220911A0230911B02602705
:1043B0007127822793271F910F910C941E21089536
:1043C0009295907F890F982F977071E001C0770FB9
:1043D0009A95EAF786958695869525E0829FC00195
:1043E000112450E040E0A62FB0E0FC01E40FF51FDF
:1043F000EA51FE4F60819D01042E02C0369527953B
:104400000A94E2F721702195262727232627208367
:104410004F5F5F4F4530510541F708959295907F6A
:10442000890F982F977086958695869525E0829FAF
:10443000A001112470E060E080E0FA01E60FF71FB0
:10444000EA51FE4F208130E0092E02C036952795B3
:104450000A94E2F721703327062E01C0220F0A9436
:10446000EAF7822B6F5F7F4F6530710531F7089552
:10447000BF92CF92DF92EF92FF920F931F93CF9351
:10448000DF938C01C0901802D0901902E0901A02BC
:10449000F0901B0280911C0290911D02A0911E02BF
:1044A000B0911F02C82AD92AEA2AFB2ACFE1D0E01C
:1044B000BC2ED701C6010C2E04C0B695A7959795C2
:1044C00087950A94D2F780FD0EC0219788F7B12C0A
:1044D0008B2DDF91CF911F910F91FF90EF90DF9087
:1044E000CF90BF900895B8018C2F0E949E0A01972B
:1044F00061F3EECFCF93DF93EC010E943822BE012F
:10450000DF91CF910C949E0A1F93CF93DF93EB0121
:104510009091AD01992331F0CB01DF91CF911F91A3
:104520000C947A22882379F0CB010E943822182F2C
:10453000682FCE010E94E021BE01812FDF91CF9133
:104540001F910C949E0ACB010E940E22182FF4CFCB
:10455000682F80911101909112010C946724682FAB
:1045600080911101909112010C94692480911101A4
:10457000909112010C946B24809120028595859571
:10458000859508958091200287700895909120026A
:10459000977081E009F480E0089580912C020895DD
:1045A00090912C02892B80932C020895982F90953E
:1045B00080912C02892380932C02089510922C0262
:1045C000089590912B02892B80932B020895982FA8
:1045D000909580912B02892380932B02089510924D
:1045E0002B02089590912A02892B80932A02089524
:1045F000982F909580912A02892380932A0208950A
:1046000010922A02089580912102089508950C9431
:10461000062390912102981721F0809321020C9497
:104620000723089580912102882329F01092210206
:1046300080E00C9407230895E0911101F09112019C
:1046400080912C028083E0911101F0911201808110
:1046500090912B02892B8083E0911101F09112013E
:10466000808190912A02892B808390912102992345
:1046700081F0E0911101F09112018081892B8083FA
:1046800080911101909112010E94342481110E94A5
:10469000122380911101909112010C94C616089575
:1046A0000C944F2398E0899F90011124622B609312
:1046B00020020E9444218091200285958595859550
:1046C0000C9450231092200280E00C94502390917F
:1046D00020028095892380932002282F277071F46F
:1046E000282F082E000C330B9217130639F08595EE
:1046F000859585950E9465210C9462230895909379
:104700006F0180936E010895829590E09C01220FC5
:10471000331F220F331F2C7C959587959595879590
:104720008373282B30E0C901880F991F8A7A359549
:1047300027952575822B0895CF93DF93D92F0E945B
:104740008423C82F8D2F0E9484239C2FDF91CF912B
:1047500008956FEF7FEF90E080E00C94E53190E0FA
:1047600080E00E94C13121E08D3E9E4F09F020E0A3
:10477000822F089582E090E00C94B33183E090E0C2
:104780000C94B33184E090E00C94B331682F84E052
:1047900090E00C94C73186E090E00C94B331682F20
:1047A00086E090E00C94C731AB01BC018FE090E053
:1047B0000C94D931AB01BC0183E190E00C94D93168
:1047C00060E070E0CB010C94DA2360E070E0CB0194
:1047D0000E94D4230C94E0236DEE7EEF90E080E005
:1047E0000E94E53160E082E090E00E94C73160E025
:1047F00083E090E00E94C73110921C0210921D02CB
:1048000010921E0210921F0260E084E090E00E946D
:10481000C73160E085E090E00E94C73160E086E04B
:1048200090E00E94C7316FEF87E090E00E94C731AF
:1048300040E050E0BA0188E090E00E94D93160E0A9
:104840008DE090E00E94C73140E050E0BA0188E17D
:1048500090E00E94D93160E087E190E00E94C7318A
:104860000C94E5230C94EC23FC01329697E080E055
:10487000915009F4089521912223D1F38F5FF8CF4D
:104880009C01FC0132969FEF80E04191461751F068
:104890009F3F19F4411101C0982F8F5F8630A9F70F
:1048A0009F3F09F40895290F311D97FD3A95F901AD
:1048B00062830895FC01329608962191261303C065
:1048C000DF0111971C92E817F907B9F708950C94C6
:1048D00040240C945A24029626E0FC0111922A9559
:1048E000E9F70895089508950C9473240E947424A0
:1048F00080919502843061F110922E0288E190E05F
:1049000020E40FB6F894A895809360000FBE209322
:10491000600080E00E946D0780E00E943D080E94D8
:10492000742483B7817F846083BF83B7816083BF32
:104930007894889583B78E7F83BF0FB6F894A89537
:1049400080916000886180936000109260000FBECB
:1049500008950895CF930E9472240E94E70D0E944B
:10496000A924C0E08C2F0E94310D892B31F4CF5F38
:10497000C530C1F780E0CF91089581E0FCCF089564
:104980000C94BF240E94EF1C0E9437280E94BA1684
:104990000E943D080C94C0241F920F920FB60F92F4
:1049A00011248F939F93AF93BF9380912E02811117
:1049B00013C080918A0290918B02A0918C02B091D9
:1049C0008D024196A11DB11D80938A0290938B02A6
:1049D000A0938C02B0938D02BF91AF919F918F9164
:1049E0000F900FBE0F901F90189582E084BD93E04A
:1049F00095BD9AEF97BD80936E0008952FB7F894F8
:104A000080918A0290918B02A0918C02B0918D02CC
:104A10002FBF0895CF92DF92EF92FF920F931F93D3
:104A20002FB7F89440918A0250918B0260918C02CA
:104A300070918D022FBF6A017B01EE24FF248C014F
:104A400030E020E0C016D106E206F30650F0481B25
:104A5000590BCA011F910F91FF90EF90DF90CF90FB
:104A6000089541505109F3CF78941F920F920FB6D9
:104A70000F9211248F939F93AF93BF9380918A02DB
:104A800090918B02A0918C02B0918D020196A11D94
:104A9000B11D80938A0290938B02A0938C02B093F5
:104AA0008D02BF91AF919F918F910F900FBE0F908C
:104AB0001F90189581E08093E00080E28093D800F9
:104AC0001092C9008FE19EE40197F1F700C0000049
:104AD00087E090EBDC0180939E0290939F02A0936D
:104AE000A002B093A10288E19CE00FB6F894A895CB
:104AF000809360000FBE90936000FFCF0E94AF23B1
:104B0000811102C00E9432240E94BA2380932D0298
:104B10000E94C22390E090938F0280938E020E94A5
:104B2000BE23682F70E090E080E00C94E22080913A
:104B3000320280FF12C06091160185E0689FB001CB
:104B40001124759567957595679560387105A8F579
:104B500061157105A1F1862F089581FF09C060914B
:104B6000160185E0689FB001112475956795EDCF1A
:104B700082FF07C06091160185E0689FB001112493
:104B8000E4CF209131022223A9F090911501609188
:104B9000160185E0689FB00111242917B0F6269F01
:104BA000A001279F500D1124692F70E0CA010E94B7
:104BB0005031CBCF65E070E0CECF8FE7089581E034
:104BC00008958091320280FF0CC06091140170E062
:104BD00075956795759567956115710549F1862FEE
:104BE000089581FF06C06091140170E07595679586
:104BF000F3CF6091140182FD0BC090913102992393
:104C0000A1F06091130180911401961738F0682F7C
:104C100070E06038710500F38FE70895899FC00147
:104C2000112470E00E945031F4CF61E070E0D7CFE2
:104C300081E00895803F31F40E949725819580930B
:104C400036020895813F19F40E949725F8CF823FDC
:104C500031F40E9497258195809335020895833F12
:104C600019F40E949725F8CF893F29F40E94E12585
:104C70008093370208958A3F21F40E94E1258195AF
:104C8000F7CF8B3F31F40E94E12581958093380264
:104C900008958C3F19F40E94E125F8CF843F31F448
:104CA000809134028160809334020895853F21F41D
:104CB000809134028260F7CF863F21F480913402E4
:104CC0008460F1CF873F21F4809134028860EBCF7C
:104CD000883F21F4809134028061E5CF8D3F31F42B
:104CE0008091320281608093320208958E3F21F4D8
:104CF000809132028260F7CF8F3FB9F78091320204
:104D00008460F1CF803FC1F48091360287FD10921C
:104D100036028091350281110EC0809136028111D8
:104D20000AC080913702811106C08091380281113A
:104D300002C0109231020895813F29F48091360219
:104D400018162CF3E6CF90913502823F29F497FF95
:104D5000E0CF10923502DDCF833F19F41916CCF362
:104D6000D8CF893F39F480913702181694F6109203
:104D70003702CFCF8A3F29F48091370287FFC9CF0E
:104D8000F6CF8B3F39F48091380287FFC2CF109263
:104D90003802BFCF8C3F29F4809138021816BCF33B
:104DA000B8CF843F31F4809134028E7F80933402F7
:104DB000B0CF853F21F4809134028D7FF7CF863FBD
:104DC00021F4809134028B7FF1CF873F21F48091D1
:104DD0003402877FEBCF883F21F4809134028F7EAD
:104DE000E5CF8D3F31F4809132028E7F8093320285
:104DF00090CF8E3F21F4809132028D7FF7CF8F3F8D
:104E000009F087CF809132028B7FF0CF80912D0205
:104E100083FF7EC084E499E00E941C0680913402E6
:104E20001F928F938FE399E09F938F930E94B50613
:104E30008DE399E00E941C0680913502282F082EF0
:104E4000000C330B3F938F938AE399E09F938F93EA
:104E50000E94B50688E399E00E941C068091360204
:104E6000282F082E000C330B3F938F9385E399E096
:104E70009F938F930E94B50683E399E00E941C06DE
:104E800080913702282F082E000C330B3F938F930D
:104E900080E399E09F938F930E94B5068EE299E09C
:104EA0000E941C0680913802282F082E000C330B1C
:104EB0003F938F938BE299E09F938F930E94B50667
:104EC00088E299E00E941C06809131021F928F9324
:104ED00085E299E09F938F930E94B50683E299E063
:104EE0000E941C06809132021F928F9380E299E00B
:104EF0009F938F930E94B5068DE199E00E941C0656
:104F00008DB79EB74C960FB6F8949EBF0FBE8DBF5F
:104F100083E392E00E9412170E94FE2490933002D5
:104F200080932F0208951F93CF93DF9380912F02D8
:104F3000909130020E940A25AC019091310220919B
:104F4000170130E0911106C0209118018AE0289FD6
:104F5000900111244217530780F08091350210917F
:104F60003602D0913702C091380281110AC0111166
:104F70006EC0D1116CC0C1116AC0DF91CF911F9179
:104F800008959F3F19F09F5F90933102181624F403
:104F90000E949725809335028091350287FF05C0D6
:104FA0000E949725819580933502111624F40E9462
:104FB0009725809336028091360287FF05C00E94B4
:104FC0009725819580933602309135023323A1F0E5
:104FD00020913602222381F045EB3403C0011124D5
:104FE000992369F19093350245EB24039001112434
:104FF000332349F1309336021D1624F40E94E12533
:10500000809337028091370287FF05C00E94E12517
:105010008195809337021C1624F40E94E125809329
:1050200038028091380287FF05C00E94E1258195F2
:1050300080933802DF91CF911F910C94062781E075
:1050400080933502D1CF81E080933602D5CF9F3F48
:1050500009F099CFAACF86E0E3E3F2E0DF011D92E9
:105060008A95E9F7109231021092320208950E9457
:10507000AF23811102C00E9432240E94CB2380936F
:105080009002883020F08170866080939002809139
:10509000900280FF03C086950C946D0780E0FCCFE2
:1050A00080919002982F9695933030F49F5F990FDE
:1050B0008170892B8093900280919002816080930F
:1050C00090020E94CF2380912D0280FF0FC080911B
:1050D000900286951F928F938EEC99E09F938F9309
:1050E0000E94B5060F900F900F900F908091900244
:1050F00086950C946D0780919002982F9E7F79F091
:105100008250809390028E7F91E009F490E080912C
:10511000900290FB80F9809390020E94CF238091AF
:105120002D0280FF0FC08091900286951F928F9371
:1051300086EB99E09F938F930E94B5060F900F9096
:105140000F900F908091900286950C946D0780913E
:10515000900280FD1DC0816080939002813019F41F
:1051600083E080939002809190020E94CF238091EF
:105170002D0280FF08C08EE899E09F938F930E94D4
:10518000B5060F900F908091900286950C946D0754
:1051900008958091900280FF14C08E7F80939002CA
:1051A0000E94CF2380912D0280FF08C08BE799E0F9
:1051B0009F938F930E94B5060F900F9080E00C9400
:1051C0006D070895CF93C0919002C17080912D0218
:1051D00080FF0CC01F92CF9380EA99E09F938F933A
:1051E0000E94B5060F900F900F900F90CC2319F0EE
:1051F000CF910C94C928CF910C94A728909190023C
:10520000892F86958F5F8F779170843050F5880F46
:10521000892B80939002809190028E7F91E009F417
:1052200090E08091900290FB80F9809390020E9420
:10523000CF2380912D0280FF0FC080919002869530
:105240001F928F9387E699E09F938F930E94B506F4
:105250000F900F900F900F908091900286950C9474
:105260006D0790939002D7CF843008F083E0982F99
:10527000990F809190028170892B809390028E7F8C
:1052800091E009F490E08091900290FB80F9809386
:1052900090020E94CF238091900286950C946D0716
:1052A00080919002869508958091440208959FB759
:1052B000F89410923B029FBF90919502943009F0B0
:1052C00049C02091E9002F709091EC0090FD30C012
:1052D00090E0922B23E02093E9002091EB0020FF47
:1052E00036C02091EE0027FF32C0209139022223E0
:1052F00021F02091E80025FF2AC01092390226E013
:105300003091E80035FF16C08093F1008091E800ED
:1053100085FD29C08091E80080FFFCCF8091E800E6
:105320008E778093E8009F709093E90080E0089565
:1053300090E8CFCF30919502343049F43091EB00B2
:1053400035FD05C0215041F481E0809339029F7002
:105350009093E9008FEF0895EFE9FFE03197F1F7BF
:1053600000C00000CDCF8FB7F89421E020933B021E
:105370008FBFD9CF0F931F93CF93DF9300D01F928E
:10538000CDB7DEB78C010E94722C823011F08430D0
:1053900021F584E089831B830A8382E08093E900FE
:1053A0008FEF9091E800815095FD06C095ED9A959C
:1053B000F1F700008111F5CF8091E80085FF0DC065
:1053C00050E040E063E070E0CE0101960E948F2C37
:1053D0008091E8008E778093E8000F900F900F90F7
:1053E000DF91CF911F910F910895CF93DF9300D05C
:1053F0001F92CDB7DEB720919502243031F523E01E
:105400002983805891099B838A8382E08093E900F5
:105410008FEF9091E800815095FD06C095ED9A952B
:10542000F1F700008111F5CF8091E80085FF0DC0F4
:1054300050E040E063E070E0CE0101960E948F2CC6
:105440008091E8008E778093E8000F900F900F9086
:10545000DF91CF910895CF93DF93EC010E94722CDE
:10546000823011F08430F9F482E08093E9008FEF0C
:105470009091E800815095FD06C095ED9A95F1F761
:1054800000008111F5CF8091E80085FF0CC050E04D
:1054900040E066E070E0CE010E948F2C8091E80031
:1054A0008E778093E800DF91CF910895CF93DF93BB
:1054B000EC010E94722C823011F0843039F581E0C9
:1054C0008093E9008FEF9091E800815095FD06C030
:1054D00095ED9A95F1F700008111F5CF8091E800E4
:1054E00085FF14C050E040E068E070E0CE010E940B
:1054F0008F2C8091E8008E778093E80088E0FE0191
:10550000ACE3B2E001900D928A95E1F7DF91CF9183
:1055100008958BE09AE00E941C068091940281110C
:1055200009C00E941F2E0E947C2E8091E2008460A0
:105530008093E200089587E09AE00E941C06109292
:105540009402089583E09AE00C941C068FEF99E092
:105550000C941C068BEF99E00E941C060C94C2244C
:1055600020913A022F5F822F62E30E94303199230B
:1055700019F020933A02089510923A0280913B026A
:105580008823E9F0809195028430B9F49091E90084
:105590009F708091EC0080FD13C080E0892B93E028
:1055A0009093E9009091EB0090FF04C09091EE0081
:1055B00097FD0AC08F708093E90010923B02089516
:1055C00080E8ECCF1092F1009091E80095FDFACFC1
:1055D0009091E80090FFEECF9091E8009E77909335
:1055E000E800E8CF42E061EC81E00E949D2D42E2BC
:1055F00061EC82E00E949D2D42E261EC83E00C941C
:105600009D2D80919702833009F462C030F481307F
:10561000D9F1823009F49EC008958A3009F48AC015
:105620008B3009F470C0893009F051C08091960226
:10563000813209F04CC080919A0290919B020297AE
:1056400008F045C08091E800877F8093E800809152
:10565000E80082FF38C08091F3009091F200892722
:1056600098278927029729F48091F1008B7F813058
:1056700021F48091F100809344028091E8008B77BF
:105680008093E8000C94D12D80919602813AF9F430
:105690008091E800877F8093E80080919A02909142
:1056A0009B02892B61F468E08CE392E070E00E9439
:1056B000DE2C8091E8008B778093E800089560E00D
:1056C00090E080E0F3CF809195028111C0CF0895E2
:1056D00080919602813AD9F780919A0290919B022B
:1056E000892BA9F78091E800877F8093E80080915B
:1056F000E80080FFFCCF809123018093F10080912E
:10570000E8008E77BDCF80919602813201F78091BB
:105710009A0290919B02892BD1F68091E800877FB5
:105720008093E8000E94D12D8091980280932301FC
:105730000C94EF1C80919602813249F68091E8002A
:10574000877F8093E8000E94D12D809199028093F9
:105750004502089580919602813A09F0B8CF809170
:10576000E800877F8093E8008091E80080FFFCCF0D
:1057700080914502C2CF84B7877F84BF0FB6F8946B
:10578000A89580916000886180936000109260000D
:105790000FBE80E880936100109261000E945A174A
:1057A0000E941F2E0E947C2E8091E20084608093D4
:1057B000E20087E599E20E947F2378940E940431F9
:1057C0000E94621789E191E00E94B5168AEE99E085
:1057D0000E941C0680919502853029F00E94961740
:1057E0000E943015F7CF86EE99E00E941C060E94B9
:1057F000762480919302882369F30E94AA24882347
:1058000049F30E94792CE6CF0C94062C292F3327DC
:105810002330310579F158F421303105F1F022308F
:10582000310519F190E080E030E020E01AC021322B
:105830003105C9F122323105A9F76330710590F7BE
:10584000FB01EE0FFF1FEF59FE4F20813181625A9D
:105850007E4FFB01808190E004C082E190E024E96A
:105860003AE0FA013183208308958BE590E029E343
:105870003AE0F7CF99278130910579F040F08230F6
:10588000910571F0039771F6EFE0FAE002C0E5E3ED
:10589000FAE0849190E09F01E4CFE3E2FAE0F9CFEF
:1058A000E5E1FAE0F6CF6330710508F0BBCF660F93
:1058B000771FFB01E959FE4F2081318189E090E09B
:1058C000D0CF0895CF93C82F0E94612CC093460279
:1058D000CF91089580919502843011F081E0089570
:1058E00082E0089580914602811102C00C946A2CD6
:1058F000089580E189BD82E189BD09B400FEFDCF34
:105900008091D8008F7D8093D8008091E0008260E4
:105910008093E0008091E00081FDFCCF0895AF927C
:10592000BF92CF92DF92FF920F931F93CF93DF939B
:105930006C01EB018A010E94F02DF82E811123C029
:105940000115110539F0F80180819181C81BD90B2F
:10595000C80ED91EB12CA12C2097A9F08091E80087
:1059600085FD22C08091E8008E778093E8000115C4
:105970001105A1F0F80180819181A80EB91EB182B4
:10598000A08285E0F82E8F2DDF91CF911F910F918E
:10599000FF90DF90CF90BF90AF9008950E94F02DC0
:1059A0008823D1F2F82EEFCFF60181916F01809319
:1059B000F1002197FFEFAF1ABF0ACECFFC01809113
:1059C0009C0290919D0286179707A0F061157105C2
:1059D00029F49091E8009E779093E80090E061159B
:1059E000710551F4911108C08091E80082FF35C023
:1059F00080E00895BC01F2CF809195028823C9F11F
:105A00008530C9F18091E80083FD31C08091E800C4
:105A100082FDEACF8091E80080FFE1CF2091F30082
:105A20008091F200322F282F6115710519F028306E
:105A3000310558F091E02830310509F090E02091CF
:105A4000E8002E772093E800CACF81918093F1007F
:105A5000615071092F5F3F4FE7CF809195028823F6
:105A600041F0853041F08091E80083FFBDCF81E0B7
:105A7000089582E0089583E00895FC0180919C02DE
:105A800090919D0286179707A0F06115710529F482
:105A90008091E8008E778093E80090E061157105B1
:105AA00051F4911108C08091E80082FF36C080E077
:105AB0000895BC01F2CF809195028823D1F1853001
:105AC000D1F18091E80083FD32C08091E80082FD31
:105AD000EACF8091E80080FFE1CF2091F300809130
