:100000000C9428030C9445030C9445030C9445036D
:100010000C9445030C9445030C9445030C94450340
:100020000C9445030C9445030C9421200C94F3206C
:100030000C94D41A0C9445030C9445030C9445037A
:100040000C9445030C9445030C9445030C94450310
:100050000C9445030C943C1B0C9445030C944503F1
:100060000C9445030C9445030C9445030C944503F0
:100070000C9445030C9445030C9445030C944503E0
:100080000C9445030C9445030C9445030C944503D0
:100090000C9445030C9445030C9445030C944503C0
:1000A0000C9445030C9445030C9445039B039E0359
:1000B000A103A403A703AA03AD036E0673067D067E
:1000C000710676067B06790608080A0815080C08EA
:1000D0000E08100812081408170819081B0826082B
:1000E0001D081F0821082308250828083A103A107F
:1000F0006C106C10A3104812EA114812C310481279
:1001000070117011E1114812481242127D117D11D7
:100110007D117D117D117D117D117D117D117D116F
:100120007D117D117D117D117D117D118E119B1130
:10013000A211A911B311CF12CF12E112E112D812FC
:10014000E112E112E112CF12CF12DD12E112E1123F
:10015000DD1260218721792287217922D321F6219E
:1001600079224C225B226572676F646F785F657AD3
:100170002F65393063353533626232356137643229
:100180003366383361204020302E362E3332352D01
:1001900037302D67306130346130000000F0A13518
:1001A000002B002900E100E00000001E0014000404
:1001B000001D00E20002541F001A0016001B00E39D
:1001C00000690020000800070006002F682C0021AD
:1001D0000015000900190030000100220017000A74
:1001E000000500000001002E002D0000003400007A
:1001F0000001002E002D000000340000000100234B
:10020000001C000B00110000000100240018000D6C
:100210000010005078010025000C000E003600513F
:10022000782C00260012000F003700527469002756
:10023000001300330038004F71015431002A0028A8
:1002400000E50001510000AE004800AB00AC000129
:100250000000001E0D140D040D1D0D010001001FF6
:100260000D1A0D160D1B0D01000100200D080D07C4
:100270000D060D01002C0A210D150D090D190D019A
:10028000000100220D170D0A0D050D000001002EC2
:100290000D260200000100000001002E1D270200B3
:1002A0000001000000005C231D1C1D0B1D111D0022
:1002B000000100241D181D0D1D101D010001002549
:1002C0001D0C1D0E1D361D01002C05611D121D0F7C
:1002D0001D010001000100271D131D010001000187
:1002E0000001006A004C00281D01000100000018F8
:1002F000050C050D050E05010000003A0001000186
:10030000005005010001003B0001005205510501AC
:100310000050053C00080507054F050100500D3D44
:1003200000010009050100010001003E0017050A57
:1003300005010000000100060526020000500D0026
:100340000001000615270200004F1D000001003FBC
:100350000001000100010000000100400018050D2F
:100360000501005005010041000C050E050100517A
:10037000054F0D420001000100010052054F0543E9
:10038000000100010001004F0501000100010028EB
:100390000501000100000000000000000000002A2C
:1003A0002B280000000000000000000000000000FA
:1003B000000029000000002C1E34202122243426B5
:1003C00027252E362D3738271E1F202122232425AE
:1003D000263333362E37381F0405060708090A0B63
:1003E0000C0D0E0F101112131415161718191A1BD5
:1003F0001C1D2F3130232D350405060708090A0B73
:100400000C0D0E0F101112131415161718191A1BB4
:100410001C1D2F3130354C00000000000000000092
:1004200000000000000000000000000000000000CC
:1004300000000000000000000000000000000000BC
:1004400000000000000000000000000000000000AC
:10045000000000000000000000000000000000009C
:10046000000000000000000000000000000000008C
:10047000000000000000000000000000000000007C
:10048000000000000000000000000000000000006C
:10049000000000000000000000000000000000005C
:1004A000000000000000000000000000000000004C
:1004B0000000000000000000010101010101000135
:1004C0000101010000000000000000000000000029
:1004D000000100010001010101010101010101010F
:1004E00001010101010101010101010101010101FC
:1004F00001010000000101000000000000000000F8
:1005000000000000000000000000000000000000EB
:100510000000010101010004033000000016034542
:1005200000720067006F0044006F007800200045F3
:10053000005A00000016034500720067006F004477
:10054000006F007800200045005A000000040309F5
:100550000409023B00020100A0FA090400000103A3
:10056000010100092111010001224000070581035A
:1005700008000A090401000103000000092111011B
:1005800000012271000705820320000A12011001F8
:1005900000000008EDFE0713010001020301050140
:1005A0000980A10185031601002603001A81002A93
:1005B0008300751095018100C0050C0901A101851A
:1005C00004160100269C021A01002A9C027510954F
:1005D000018100C005010906A1018505050719E093
:1005E00029E7150025019508750181020508190103
:1005F000290595057501910295017503910105077E
:10060000190029EF1500250195F075018102C0053B
:10061000010906A101050719E029E7150025019543
:1006200008750181029501750881010508190129E4
:10063000059505750191029501750391010507194D
:100640000029FF150026FF00950675088100C000EF
:1006500011241FBECFEFDAE0DEBFCDBF11E0A0E076
:10066000B1E0E0E7F8E402C005900D92AE3BB107BF
:10067000D9F722E0AEEBB1E001C01D92A93EB2076E
:10068000E1F70E94451D0C9436240C94000080B3C1
:100690008C7080BB81B3836F81BB089584B1807FF0
:1006A00084B985B1807F85B98AB1837F8AB98BB1DE
:1006B000837F8BB93E9846980895CF93E82F873073
:1006C00080F58091060190910701892B09F047C0C0
:1006D000CE2F64E670E080E40E94A50490930701A9
:1006E00080930601892BD1F464E670E082E10E94D8
:1006F000FC049093070180930601892B79F481E033
:1007000090E001C0880FCA95EAF764E670E0809532
:100710000E94FC049093070180930601CF910C94F2
:10072000510590E0FC013797E730F105C0F4EA5A33
:10073000FF4F0C94C122209A289811C0219A299821
:100740000EC0229A2A980BC0239A2B9808C0529A5E
:100750005A9805C0539A5B9802C03E9A4698CF912A
:100760000895CF93873008F03FC0809106019091A3
:100770000701892B09F041C064E670E080E40E9423
:10078000A5049093070180930601892B11F0C0E026
:1007900027C064E670E083E10E94FC0490930701A7
:1007A00080930601892B99F764E670E081E40E944A
:1007B000A5049093070180930601892B41F784E6F5
:1007C00090E00E942C0597FF05C09093070180934D
:1007D0000601DDCFC82FC0951092070110920601C7
:1007E0000E9451058C2F0AC09FB18FB1807F8695E2
:1007F00086959370892B809501C080E0CF910895F4
:10080000089508950C9401040E94C30590E090930C
:100810000701809306010E944E030E944703ADEC3E
:10082000B1E0EFEBF1E08EE08E0F11921D928E138E
:10083000FCCF8EE00E945C0B0C9436070E94C3052F
:1008400090E090930701809306010E944E030E945E
:100850004703EFEBF1E08EE08E0F11928E13FDCF88
:100860000895CF92DF92EF92FF920F931F93CF9351
:10087000DF938091060190910701892B91F080917F
:10088000BE018F5F8093BE0181110BC00E94C30522
:1008900090E09093070180930601892B11F40E9448
:1008A00055059DECE92E91E0F92E04ED11E0C0E034
:1008B000D12C87E0C82ECC0E8C2F0E945D038C2D8E
:1008C0000E945D038C2F0E94B103F701908198175D
:1008D00019F08083D1E001C0D0E08C2D0E94B103DB
:1008E000F8019081981719F0808381E001C080E0C1
:1008F000D82BDD2A0E944E03CF5FFFEFEF1AFF0ACD
:100900000F5F1F4FC730A9F62D2D4EE06FEB71E042
:100910008DEC91E00E94C80B0E94400781E0DF91BE
:10092000CF911F910F91FF90EF90DF90CF9008959E
:10093000E82FF0E0E154FE4F808108950895109271
:10094000B9008CE08093B8000895EF92FF920F9366
:100950001F93CF93DF93182FEB011092BC0084EA12
:100960008093BC000E94061B7C019091BC0097FD07
:100970000EC0CF3F8FEFD807C1F30E94061B8E1920
:100980009F098C179D0788F38EEF9FEF2EC09091E3
:10099000B900987F983041F09091B900987F9031DC
:1009A00019F08FEF9FEF21C01093BB0084E8809374
:1009B000BC000E94061B8C019091BC0097FD0CC0EE
:1009C000CF3F8FEFD807C1F30E94061B801B910B0E
:1009D0008C179D0788F3D8CF8091B900887F883124
:1009E00011F08034F1F680E090E0DF91CF911F911B
:1009F0000F91FF90EF9008950F931F93CF93DF9384
:100A0000EB018093BB0084E88093BC000E94061B2E
:100A10008C019091BC0097FD0EC0CF3F8FEFD8079F
:100A2000C1F30E94061B801B910B8C179D0788F356
:100A30008EEF9FEF0CC02091B900287F81E090E0FD
:100A4000283211F480E090E0919581959109DF9131
:100A5000CF911F910F9108950F931F93CF93DF9321
:100A6000EC0184E88093BC000E94061B8C019091ED
:100A7000BC0097FD0EC0CF3F8FEFD807C1F30E9497
:100A8000061B801B910B8C179D0788F38EEF9FEF41
:100A900003C08091BB0090E0DF91CF911F910F9137
:100AA000089584E98093BC00089556985E9825982F
:100AB0002D9826982E9827982F988FEF90E0909356
:100AC00089008093880090938B0080938A00909394
:100AD0008D0080938C00259A2D9A2FEF80E792E06D
:100AE000215080409040E1F700C00000269A2E9AE5
:100AF0002FEF80E792E0215080409040E1F700C066
:100B00000000279A2F9A2FEF80E792E02150804033
:100B10009040E1F700C0000025982D982FEF80E766
:100B200092E0215080409040E1F700C000002698FC
:100B30002E982FEF80E792E0215080409040E1F71F
:100B400000C0000027982F9856985E9825982D98F9
:100B500026982E9827982F98089589EA80938000E8
:100B600089E08093810024982C983F988AB18F7CEB
:100B70008AB96E98479A8BB180638BB9769A0E9436
:100B800055050C94000480E290E090930701809357
:100B900006018091DB0181110EC00E949F0481E05B
:100BA0008093DB012FEF83ED90E321508040904054
:100BB000E1F700C0000064E670E080E40E94A50454
:100BC0009093070180930601892B09F04EC064E6DB
:100BD00070E080E00E94FC0490930701809306017E
:100BE000892B09F042C064E670E080E00E94FC04BA
:100BF0009093070180930601892BB9F564E670E0B4
:100C00008FE30E94FC049093070180930601892BD7
:100C100061F50E94510564E670E080E40E94A5043D
:100C20009093070180930601892BF9F464E670E044
:100C30008CE00E94FC049093070180930601892BAD
:100C4000A1F464E670E080E00E94FC049093070148
:100C500080930601892B49F464E670E08FE30E94DB
:100C6000FC0490930701809306010E945105809136
:100C700006010895611108C0FC018281882321F0DA
:100C800086E691E00E94330780E090E00895813F7E
:100C90009C4541F4FB018281882329F00E94F219CE
:100CA00080E0089581E00895CF92DF92EF92FF9265
:100CB0006B017C010E94281956985E9825982D9802
:100CC00026982E9827982F9890E0FC013197E730CE
:100CD000F105A8F4E35AFF4F0C94C122259A2D9AEE
:100CE0000EC0259A2D9A269A2E9A09C0259A2D9AD9
:100CF00004C0259A2D9A269A2E9A279A2F9AC701D0
:100D0000B601FF90EF90DF90CF90089581E00895B5
:100D10000C9447061F93CF93DF9300D000D01F920F
:100D2000CDB7DEB749835A8320910A0289819A811F
:100D3000211112C0662349F00E94F517182F682F61
:100D400089819A810E94981703C00E94C817182FA2
:100D500069817A81812F04C00E94F51769817A81A7
:100D60000F900F900F900F900F90DF91CF911F91E8
:100D70000C94DD08FC014081518162817381848182
:100D80000C948A061F93CF93DF93282F30E0F9014C
:100D9000E956FC4F1491F901E956FB4FE491C1E08B
:100DA000E11101C0C0E0F901E95EFB4F2491D1E0FF
:100DB000211101C0D0E0CC2319F081EE0E947A0EFF
:100DC000DD2319F086EE0E947A0E812F0E94F00F2B
:100DD000DD2319F086EE0E94910FCC2331F081EED5
:100DE000DF91CF911F910C94910FDF91CF911F91C3
:100DF00008950F931F93CF93DF93EC01062FFE010D
:100E00008491882359F19E012F5F3F4F813041F437
:100E1000E901F9011491812F0E947A0E812F0DC0F2
:100E2000823031F4E901F90184910E947A0E0AC0FE
:100E3000833031F4E901F90184910E94910F02C0DD
:100E40000E94C2062196802F8823C9F2EFE9FFE0B5
:100E50003197F1F700C000008150F6CFDF91CF91BC
:100E60001F910F91089560E00C94F9060E94781983
:100E7000811102C00E94F2190E94200C0C94AD0551
:100E80000C940204282F2F7041F0822F90E02A301A
:100E900010F44D9608950697089587E290E008951E
:100EA00008950C9450070C94510708950E94BF12A6
:100EB0000E9455072FEF84E39CE021508040904032
:100EC000E1F700C000000C94621B0F931F93CF93B7
:100ED000DF938C010E94BA06EC01B8010E948806DB
:100EE000882309F463C1B801CE010E949F0C8823B6
:100EF00009F45CC1C73DFCE5DF0761F5F8018281BB
:100F0000882351F01092E1010E94061B9093DE01AC
:100F10008093DD0182E03BC00E94751885FF05C00B
:100F200081E08093E1018093E2018091E1018111F0
:100F30000FC08091DD019091DE010E94121B883C60
:100F4000910530F486E20E947A0E86E20E94910FAB
:100F500082E02FC0C83D8CE5D80770F1CC3D8CE510
:100F6000D80709F4D5C008F0DAC0C83DFCE5DF07B2
:100F700009F0F3C0F8018281882361F01092E20148
:100F80000E94061B9093E0018093DF0180E20E94A3
:100F9000F80F0CC10E94751881FF05C081E0809395
:100FA000E1018093E2018091E201882309F4C4C049
:100FB00080E20E94FF0FFAC0C531ECE5DE0708F0C1
:100FC0007DC0C230FCE5DF0708F452C0F801828121
:100FD000882309F459C00E947819811102C00E9427
:100FE000F2190E948B1990E09093D7028093D60259
:100FF000FE01E350FC45E231F10530F4EC59FF4FBE
:101000008091D6020C94C1228091D602816027C0C3
:10101000826025C0846023C0806121C080621FC0BF
:1010200080641DC080681BC08460886018C08E7F8B
:1010300016C08D7F14C08B7F12C08F7E10C08F7D35
:101040000EC08F7B0CC08F770AC08B7F877F07C055
:1010500087FB222720F991E0922790FB87F9809364
:10106000D6028091D6020E948F190E94BF129EC0A4
:10107000C1158CE5D80779F0C130DC45A1F081E0DD
:101080008093E1018093E201C801DF91CF911F912C
:101090000F910C948606F8018281882309F486C09A
:1010A0000E94560783C0F8018281882309F47EC01C
:1010B0008091A90281608093A90278C0C631DC4585
:1010C000F1F60E947518282FF801828140910801DD
:1010D00050910901882379F02A7A91E009F490E08F
:1010E0009093DC01911102C069E201C065E3CA017D
:1010F0000E94591A0AC08091DC01811102C069E284
:1011000001C065E3CA010E94641A0E94C4184EC05F
:10111000F8018281882309F449C080E00AC0CD3DEE
:10112000ECE5DE07D1F5F8018281882309F43EC0A1
:1011300082E00E94E41D3AC08091DF019091E001BD
:101140000E94121B883C910508F032CF87E20E9472
:101150007A0E87E20E94910F2BCFC93DDC4509F042
:101160008ECFF8018281811109CF8091E201811136
:101170001FCF8091DF019091E0010E94121B883CFB
:10118000910508F015CF80E20E94FF0F88E20E94CF
:101190007A0E88E20E94910F09C0CE3DDC4509F02D
:1011A0006ECFF801828181110E94F21980E0DF91F7
:1011B000CF911F910F910895089596E0799FF001C6
:1011C000112494E5899FE00DF11D1124E60FF11D16
:1011D000EE0FFF1FE156FE4F859194910895880F01
:1011E000991FFC01E556FE4F859194910895CF9388
:1011F000DF930E94DD080E94BC0AEC01811520E506
:101200009207F0F5811530E4930708F029C1883E74
:10121000910500F5803E910508F0AAC1883A910534
:1012200070F4853A910508F0A4C08130910509F465
:101230009FC108F450C1049708F09AC14CC18F3B7C
:10124000910508F4A1C0803C910508F444C1805C7C
:101250009109F9C0811540E2940758F4C11581E065
:10126000D80708F085C1C03FD10508F434C1D06566
:101270007FC1811520E3920708F0E9C09F70E3C0A9
:10128000811535E5930708F044C0811544E59407BE
:1012900008F0FDC0C11582E5D80708F5C11521E5A4
:1012A000D20708F0E0C08C2F837021E030E002C04C
:1012B000220F331F8A95E2F73C68CE0174E09695C1
:1012C00087957A95E1F78370382BCF70C695C695D0
:1012D00040E2C49FE0011124C22BD32B49C12C2F23
:1012E00026952695CE0183709927C115D34508F020
:1012F000BFC040E2249F90011124C1E0D0E002C0B1
:10130000CC0FDD1F8A95E2F72C2B3D2BE901DC6821
:101310002FC181154AE59407A0F4C11589E5D807C6
:1013200008F0C4C0C11526E5D20708F4B5C0C11540
:1013300038E5D30708F4CFC0DC2FCC27C06FD06AC4
:1013400017C181159B4508F4C6C0C1158CE5D807A7
:1013500008F4BEC0CE0190568115904208F0BBC083
:101360008D2F8F710E94390BDD27D0628F71D82BA2
:10137000FFC0853A910509F4B1C0863A910509F09C
:10138000B0C0C2E8D0E4F4C0883A910509F4ACC01A
:10139000893A910509F4ABC08A3A910509F4AAC0CB
:1013A0008B3A910509F4A9C08C3A910509F4A8C0BB
:1013B0008B3B910509F4A7C08C3B910509F4A6C0AD
:1013C0008D3A910509F4A5C0803B910509F4A4C0AC
:1013D0008E3A910509F4A3C08F3A910509F4A2C091
:1013E000813B910509F4A1C0823B910509F4A0C09D
:1013F000833B910509F49FC0843B910509F49EC08D
:10140000853B910509F49DC0863B910509F49CC07C
:10141000873B910509F49BC0883B910509F49AC06C
:10142000893B910509F499C08D3B910509F498C059
:101430008E3B910509F497C08A3B910509F496C04B
:10144000C0E0D4E495C00E94EF08EC0191C0992758
:10145000D3FF03C0EC01D86C8BC0EC01D06C88C00A
:10146000DF70D06A85C0DC2FCC27C16FD06A80C006
:1014700040E2249F90011124C1E0D0E002C0CC0FD3
:10148000DD1F8A95E2F7C22BD32BDA6871C0D82F03
:10149000CC27C46FD06A6CC08C2F0E94390B8F711F
:1014A000C82FD0E0DC2FCC27D06262C08C2F8F7089
:1014B0000E94390B94E0D695C7959A95E1F7CF70C5
:1014C000D0E0DC2FCC27D06A8F70806EC82B50C044
:1014D000DD27D0664DC0C0E0D0E04AC0C1E8D0E40E
:1014E00047C0C3E8D0E444C0C2EED4E441C0C9EE72
:1014F000D4E43EC0CAEED4E43BC0C5EBD4E438C06B
:10150000C6EBD4E435C0C3EBD4E432C0C4EBD4E4BE
:101510002FC0C7EBD4E42CC0CCECD4E429C0CDEC74
:10152000D4E426C0C3E8D5E423C0CAE8D5E420C08B
:10153000C2E9D5E41DC0C4E9D5E41AC0C1E2D6E4CD
:1015400017C0C3E2D6E414C0C4E2D6E411C0C5E2B9
:10155000D6E40EC0C6E2D6E40BC0C7E2D6E408C0AB
:10156000CFE6D4E405C0C0E7D4E402C0CAE2D6E4C2
:10157000CE01DF91CF9108958238910549F1B0F401
:101580008133910509F458C048F48932910509F472
:101590004EC08A32910509F454C0089585339105EF
:1015A00009F440C08933910599F00895833E91056F
:1015B00029F138F4803E910591F0823E9105A1F029
:1015C0000895863E9105F9F0873E910531F1089521
:1015D0002091D60220FD3AC021FD38C008958091A7
:1015E000D60280FD35C032C08091D60282FF32C063
:1015F0008091D60284FD30C083EE39C08091D6023E
:1016000082FD28C0F5CF8091D60283FF27C080914C
:10161000D60284FD21C087EE2AC08091D60283FDC8
:101620001DC0F5CF8091D60285FD1AC01BC08091E8
:10163000D60285FD17C014C08091D60286FD14C065
:1016400015C08091D60286FD11C00EC080EE0FC07D
:1016500089E30DC082EE0BC080E009C086EE07C0B2
:1016600089E205C085E303C08AE201C081E390E01E
:1016700008959091D60292FF0DC0282F287128302E
:1016800019F4877F846006C0282F2471243011F458
:101690008B7F886093FF0DC0282F2871283119F4A3
:1016A000877E846106C0282F2471243111F48B7E3B
:1016B000886194FD877E0895CF93C82F90E00E94A3
:1016C000C7228093E4019093E501282FFC019BEF52
:1016D0008E2F821B8C1710F49193FACFCF9108951F
:1016E0000F931F93CF93DF931092E3015091E40186
:1016F000E52FF091E50140E0A62FB0E07BEFCAEFC7
:10170000D0E09E2F951B9817D0F490819B3FA9F0B5
:10171000292F30E0691728F08D01021B130B980167
:1017200006C08E01021B130B98012A0F3B1F2530A8
:10173000310514F0708301C041E03196E2CF40934F
:10174000E301DF91CF911F910F910895CF93DF9324
:101750005091E4013091E301DB01E52FF091E501C7
:101760006E2F651B641778F47C91EC016991CE01B2
:10177000C081CB3F29F4761719F020836C9331E0B8
:1017800031961196EDCF3093E301DF91CF9108951B
:10179000DF92EF92FF920F931F93CF93DF9300D0CE
:1017A000CDB7DEB78C017B01D22E4A830E94061B87
:1017B0006AEF70E00E94AD22282F8091E3014A81F8
:1017C0008823D9F0622F842F29830E94700B2981EE
:1017D0004A81DD2069F0B701C8010F900F90DF91B9
:1017E000CF911F910F91FF90EF90DF900C94A60B7B
:1017F0008091E301882379F302C0D110ECCF0F90E0
:101800000F90DF91CF911F910F91FF90EF90DF909C
:101810000895CF93DF93813020E8920768F0FB01B1
:101820002281222349F0EC010E94360CCE019F77E1
:101830000E94820C0E946B0C81E0DF91CF91089591
:101840008CE090E00E94F42390E0A0E0B0E0809370
:10185000CE029093CF02A093D002B093D10208950C
:101860006091CE028CE090E00C9402240E947518E6
:101870008093E6010E9488188091CE02813071F039
:1018800048F08230D9F08430F9F486EE0E94F00FEF
:1018900088E118C082EE0E947A0E16C080EE0E9487
:1018A0007A0E81EE0E947A0E88E10E94F00F81EE9E
:1018B0000E94910F80EE0E94910F06C082EE0E945E
:1018C0007A0E87E50E94F00F8FE39CE90197F1F70C
:1018D00000C0000008958091CE02813039F040F0C0
:1018E000823031F0843051F488E206C08CE204C0CA
:1018F00082EE0E94910F02C00E94F00F8091E601DB
:101900000C9485180F931F93CF93DF938C01CCE039
:10191000D0E0C8010C2E02C0969587950A94E2F794
:101920008F700E9442070E94F00F2497CC3F8FEFE8
:10193000D80779F7DF91CF911F910F9108950F93F9
:101940001F93CF93DF93EC018B01FB0182818823EE
:1019500019F1C33EFCE5DF07C1F050F4C13EECE5F0
:10196000DE0781F0C23EFCE5DF07B1F481E010C084
:10197000C43E8CE5D80759F0C53EECE5DE0761F4BE
:1019800084E006C01092CE0205C082E001C083E070
:101990008093CE020E94300CB801CE01DF91CF912E
:1019A0001F910F910C94090C9093EC018093EB0123
:1019B0000895E091EB01F091EC01309721F0019056
:1019C000F081E02D099480E00895E091EB01F09121
:1019D000EC01309799F020911401222359F02091C5
:1019E000D60227FF07C0DC012C9111962C9311978A
:1019F00025E02C930280F381E02D09940895209135
:101A0000E9013091EA018217930771F09093EA019E
:101A10008093E901E091EB01F091EC01309721F026
:101A20000680F781E02D099408952091E701309117
:101A3000E8018217930771F09093E8018093E70122
:101A4000E091EB01F091EC01309721F00084F185F9
:101A5000E02D0994089585B7806885BF85B78068B3
:101A600085BF0895089508950C94330D08950C943E
:101A7000360D0E942B0D0E94320D0C94340D81E026
:101A800008950E94FD1A0E9404040E94941B0C9465
:101A9000370DCF92DF92EF92FF920F931F93CF9368
:101AA000DF93CDB7DEB72B970FB6F894DEBF0FBE2E
:101AB000CDBF0E9431040E943F0D811111C08FEFF4
:101AC00089838A831B820E94061B8160782F9D83F5
:101AD0008C8349815A816B818D810E942B0E56C067
:101AE0008EEEC82E81E0D82E00E010E0E02E802F90
:101AF0000E949804F60141916F01F42EF82631F40A
:101B00000F5F1F4F0E30110589F7D9CF9091A902B1
:101B100091FF04C08B870E949E048B8520E030E0FB
:101B20004F2D50E0922FBA01022E02C07595679595
:101B30000A94E2F760FF24C02E83EF8221E030E0B8
:101B4000690102C0CC0CDD1C9A95E2F790E08C2173
:101B50009D21892B09F420E028870E94061B8160C3
:101B6000782F9A8789874E815F8168858A850E9450
:101B70002B0EF801E251FE4F8081C826C08206C0BC
:101B80002F5F3F4F2630310569F6BACF1091ED0136
:101B90000E94D90C1817A1F00E94D90C8093ED0176
:101BA0002B960FB6F894DEBF0FBECDBFDF91CF915D
:101BB0001F910F91FF90EF90DF90CF900C945307FF
:101BC0002B960FB6F894DEBF0FBECDBFDF91CF913D
:101BD0001F910F91FF90EF90DF90CF900895DC015F
:101BE00011962C9111978C91682F70E041E050E094
:101BF00001C0440F8A95EAF712968C91129730E053
:101C0000882329F080910C028823E9F006C0F901AD
:101C1000E450FE4F90819423B1F086E0829FF00162
:101C2000839FF00D1124E60FF71FEE0FFF1FEB5EF1
:101C3000FE4F808191818D939C93F901E450FE4F7A
:101C40008081482B06C0F901E450FE4F4095808109
:101C5000482340830895CF93DF93CDB7DEB72B970A
:101C60000FB6F894DEBF0FBECDBF942F4F83252F44
:101C7000588769877A878B874A855B85452B21F052
:101C80002F3F09F59F3FF9F4DE01119686E0FD0133
:101C900011928A95E9F785E0FE01379601900D9241
:101CA0008A95E1F749815A816B817C818D819E8182
:101CB0000E9469152B960FB6F894DEBF0FBECDBFFC
:101CC000DF91CF910895CE0107960E94EF0DDCCFF2
:101CD000FC01808191810E94361892959F70963008
:101CE00041F480910C0291E0892780930C0290933B
:101CF0000B020895882309F413C1682F8238C1F4B8
:101D00000E94D90C81FD0CC169E38091080190917A
:101D100009010E94591A0E94C4182FEF81EE94E025
:101D2000215080409040E1F700C0000069E319C0F5
:101D30008338F9F40E94D90C80FDF2C063E58091EC
:101D40000801909109010E94591A0E94C4182FEFAE
:101D500081EE94E0215080409040E1F700C0000007
:101D600063E580910801909109010E94641A0C9426
:101D7000C4188438C1F40E94D90C82FDD1C067E434
:101D800080910801909109010E94591A0E94C4187B
:101D90002FEF81EE94E0215080409040E1F700C0A9
:101DA000000067E4DECF8CEF860F813A38F4809133
:101DB0000801909109010E94591AD9CF80E2860F3B
:101DC000883048F4677081E001C0880F6A95EAF7AF
:101DD0000E947818CCCF8BE5860F833070F4653A7B
:101DE00029F0663A31F083E890E005C081E890E0A0
:101DF00002C082E890E00C94FF0C88E5860F8731E2
:101E000008F08EC0683A09F445C0693A09F445C043
:101E10006A3A09F445C06B3A09F445C06C3A09F4D2
:101E200045C06B3B09F445C06C3B09F445C06D3AB5
:101E300009F445C0603B09F445C06E3A09F445C059
:101E40006F3A09F445C0613B09F445C0623B09F4AF
:101E500045C0633B09F445C0643B09F445C0653B9C
:101E600009F445C0663B09F445C0673B09F445C029
:101E7000683B09F445C0693B09F445C06D3B09F472
:101E800045C06E3B09F445C06A3B09F445C080E09B
:101E900090E044C082EE90E041C089EE90E03EC008
:101EA0008AEE90E03BC085EB90E038C086EB90E096
:101EB00035C083EB90E032C084EB90E02FC087EB1D
:101EC00090E02CC08CEC90E029C08DEC90E026C016
:101ED00083E891E023C08AE891E020C082E991E0A4
:101EE0001DC084E991E01AC081E292E017C083E24C
:101EF00092E014C084E292E011C085E292E00EC04C
:101F000086E292E00BC087E292E008C08FE690E0A4
:101F100005C080E790E002C08AE292E00C94150DC3
:101F20000895882309F45BC0682F823879F40E94F1
:101F3000D90C81FF54C069E3809108019091090197
:101F40000E94591A0E94C41869E310C08338B1F482
:101F50000E94D90C80FF43C063E5809108019091F5
:101F600009010E94591A0E94C41863E58091080172
:101F7000909109010E94641A0C94C418843879F471
:101F80000E94D90C82FF2BC067E4809108019091D8
:101F900009010E94591A0E94C41867E4E7CF8CEF28
:101FA000860F813A18F380E2860F883048F4677014
:101FB00081E001C0880F6A95EAF70E947E18DCCFA5
:101FC0008BE5860F833020F480E090E00C94FF0CCA
:101FD000685A673120F480E090E00C94150D089564
:101FE000CF93C82F0E947A0E8C2FCF910C94910F13
:101FF000882321F00E9478180C94C418089588232F
:1020000021F00E947E180C94C41808958F929F921C
:10201000AF92BF92DF92EF92FF920F931F93CF93F5
:10202000DF937C01D62FC72FFC01058102950F702D
:10203000128111110E9498180E946E18882379F05D
:10204000112369F080E28D0F883048F082E00E9411
:102050000F190E946E1891E0D82ED92601C0D12CFC
:10206000AC2EA2948FE0A822B12CF501EA58FF4FC4
:102070000C94C1228C2F807FCF70882311F0C295E1
:10208000C07F112399F0CC2309F486C180E28D0F23
:10209000883010F0D11104C08C2F0E94781803C032
:1020A0008C2F0E948B180E94C41876C18D2F0E941D
:1020B000910FCC2309F4ECC180E28D0F883010F031
:1020C000D11104C08C2F0E947E1803C08C2F0E9457
:1020D00091180E94C418DCC18C2F807FCF70803291
:1020E00011F0C295C07FDD2319F0D130C9F021C0B5
:1020F000112371F0002341F0013031F40E94AB183C
:102100008C2B0E94B118C4C10E94AB188C2BFDC04F
:10211000002319F0013009F4BBC10E94BA1811C0A4
:10212000112321F0023008F0B3C107C00111B0C182
:1021300008C0112321F001112FC18C2FE6C001111D
:102140003CC18C2FE8C08C2F86958695837090E0DB
:10215000009719F0019761F09BC1112321F08D2F99
:102160009C2F937002C080E090E00E94FF0CA0C101
:10217000112321F08D2F9C2F937002C080E090E0FE
:102180000E94150D95C18C2F837009F050C011115C
:102190008BC18D2F829586958770880F880F9D2F14
:1021A0009F70892E912CA12CB12C082E04C0880C74
:1021B000991CAA1CBB1C0A94D2F7D4FF14C00FE0D0
:1021C00010E020E030E0B901A80104C0440F551F21
:1021D000661F771F8A95D2F7CB01BA01609570957B
:1021E0008095909503C060E070E0CB01C695C695E0
:1021F000C370D0E0C230D10561F0C330D10581F0A9
:10220000682979298A299B29219771F00E94AE16A5
:102210004BC1682979298A299B290E94C01644C18B
:102220000E94AE16C501B4010E949C163DC1112347
:1022300019F08C2F817001C08695882309F434C170
:102240008D2F829586958770880F880F9D2F9F70A0
:10225000892E912CA12CB12C082E04C0880C991C1D
:10226000AA1CBB1C0A94D2F7D4FF14C00FE010E0E4
:1022700020E030E0B901A80104C0440F551F661FDB
:10228000771F8A95D2F7CB01BA016095709580953A
:10229000909503C060E070E0CB01C695C695C37011
:1022A0004C2F50E04230510569F04330510589F020
:1022B000682979298A299B294130510571F00E94AA
:1022C0007317F2C0682979298A299B290E948517EA
:1022D000EBC00E947317C501B4010E946117E4C0EE
:1022E0008D2F90E0FC01E05EF109E531F10508F089
:1022F0004FC0EA57FF4F0C94C122DF708C2F8F71B3
:10230000112331F00E94FA168D2F0E94F80FC0C0E1
:102310000E941B178D2F0E94FF0FBAC0112339F0A6
:102320000111B6C08C2F8F710E944017B1C00230CE
:1023300008F0AEC0F7CF112339F08C2F8F710E94B7
:10234000FA16A6C01123C9F38C2F8F710E941B1798
:102350009FC0112329F08C2F8F710E94E51698C021
:102360000E94E01695C0112349F0CF718C2F0E9476
:10237000FA1663E08C2F0E94FA188AC081E00E944E
:102380000F19023008F484C082E00E940F1980C047
:10239000112331F0002389F28D2F0E947A0E78C02C
:1023A000002391F2D93349F45FEF67EE73E05150A7
:1023B00060407040E1F700C000008D2F0E94910F37
:1023C00067C04C2F4F706D2FC7010E943A060E94C4
:1023D0000D166EC0D23FB1F028F4D03F49F0D13F86
:1023E000F9F028C0D43FB9F058F0D53F71F022C0C1
:1023F000112309F447C090910C0281E0892708C09D
:1024000081E0182710930C023DC011113BC081E000
:1024100080930C0237C0111135C010920C0232C0EB
:10242000112329F080910B02882329F329C000236E
:1024300011F328C080910B020023C1F0882341F0E2
:1024400090910C0281E0892780930C0210920B027C
:102450008D2F112319F00E947A0E14C00E94910F43
:1024600086E0F70111928A95E9F70CC0882351F0B4
:10247000111108C090910C0281E0892780930C0211
:1024800010920B024C2F4F706D2FC7010E94DC0879
:10249000F8E0AF16B10441F05CF04AE0A41AB108CC
:1024A00052E0A516B10420F40E94D90C0E945307F3
:1024B000DD20E1F00E946A1880FD18C0F701128249
:1024C0000E9464180E94FA16C7010E9482120E949C
:1024D0006418DF91CF911F910F91FF90EF90DF90E3
:1024E000BF90AF909F908F900C941B17DF91CF916E
:1024F0001F910F91FF90EF90DF90BF90AF909F9052
:102500008F9008950F931F93CF93DF93EC018881F1
:1025100099812B813C81232BB9F09F3F11F48F3F90
:1025200099F0CE010E946507882371F06881798156
:102530008A810E9441188C010E9497170E94991667
:10254000B801CE010E940610DF91CF911F910F912B
:1025500008950E9498180E94A8180E94C41880E04C
:1025600090E00E94FF0C80E090E00C94150D8091AB
:102570000801909109010E946F1A0C94A9120E94FF
:1025800088180C94B712E92FE295EF70F0E03297BB
:10259000EE30F105B0F4E556FF4F0C94C122803FB8
:1025A00091F018F4803E68F40EC0843F51F40BC0E3
:1025B000803E48F0813F29F406C093FB882780F9CC
:1025C000089580E0089581E008950E9436180E94E1
:1025D000C3120895CF93DF9300D000D01F92CDB7E0
:1025E000DEB70F900F900F900F900F90DF91CF916B
:1025F0000895CF93DF9300D000D000D0CDB7DEB7E1
:1026000026960FB6F894DEBF0FBECDBFDF91CF91F7
:1026100008951F93CF93DF93C0910D0216E0809130
:102620000E02C81799F0D0E01C9FF0011D9FF00D1D
:102630001124E15FFD4F408151816281738184816A
:1026400095810E94F9122196C770E9CFDF91CF9151
:102650001F91089540913F025091400260914102C4
:102660007091420280914302909144020C94F912BD
:102670008091440282958F7009F054C0809141028C
:10268000882309F44FC080910D02A0910E02609141
:102690003F02709140024091420250914302B6E0E5
:1026A0008A1709F43FC090E041155105C1F17F3F01
:1026B00011F46F3FA1F1B89FF001B99FF00D112403
:1026C000E15FFD4F218172132AC02081621327C070
:1026D0002281211124C0238134812417350710F46D
:1026E00021503109241B350B283C3105C0F42091C1
:1026F00044022F7020612093440226E0289FF001BD
:10270000299FF00D1124EC5EFD4F80818F70806158
:1027100080838FE392E00E9482120C940913019649
:102720008770BECF0895CF92DF92EF92FF920F9302
:102730001F93CF93DF93CDB7DEB762970FB6F894B0
:10274000DEBF0FBECDBF8C0185E0F801DE011D9616
:1027500001900D928A95E1F7D8014C9111965C9108
:10276000119712966C9112971396CD90DC90149756
:1027700030913F0270914002809142029091430259
:10278000009709F46BC17F3F19F43F3F09F466C11C
:10279000E0904102EE2009F4C0C020914402C81626
:1027A000D90628F0F601E81BF90BCF0104C080958B
:1027B00090958C0D9D1DFF24F394883C910578F035
:1027C000F12C207F09F0C6C07C2DD98AC88A89895E
:1027D0000E94EA128FE392E00E948212B1C0822F1F
:1027E000807F09F046C0751314C0341312C0611104
:1027F00010C02F702061209344020E942A138FE39F
:1028000092E00E94821280914402D80115968C9326
:102810002EC0CD2819F15F3F11F44F3FF9F0F62E8D
:1028200061111CC080910D0220910E0236E08217CA
:1028300009F45AC090E0389FF001399FF00D11243F
:10284000E15FFD4F7181571306C07081471303C0CC
:102850007281711103C001968770E9CFF62E66234D
:1028600009F427C180914402816080934402F12CD5
:1028700020C1751308C0341306C0611104C08091D3
:102880004402D801C3C04D875E878D859E856A8BC3
:102890000E94E5126A898823E1F16623D1F1209133
:1028A0004402822F82958F7090E0029774F080919D
:1028B0003F029091400298878F831986DB86CA86F3
:1028C0002C87CE0107960E94821286E0F801AFE3C2
:1028D000B2E001900D928A95E1F70E9438130E94B0
:1028E0002A13FF24F394E5C04D875E878D859E856E
:1028F0000E943618292F22952F7030E022303105A2
:102900000CF0CBC09F7009F0C5C0805E883008F421
:10291000D0C0C8010E948212E4CFC816D90608F4BC
:1029200053C0F601E81BF90BCF01883C910508F470
:1029300050C0F12C7C2DD98AC88A89890E94EA125C
:10294000EFE3F2E086E0DF011D928A95E9F70E944D
:102950002A13AFC0751314C0341312C0611110C014
:1029600080914402F8018583C8010E94821286E0AA
:10297000EFE3F2E0DF011D928A95E9F7FE2C99C0A2
:102980004D875E878D859E856A8B0E94E5126A89D8
:10299000882309F4BECF662309F4BBCF20914402FB
:1029A000822F82958F7090E002970CF48ECF8091E9
:1029B0003F02909140029A8389831B82DD82CC8200
:1029C0002E83CE0101967FCF809590958C0D9D1D15
:1029D000ACCFF62E662309F49CCF75132EC03413AA
:1029E0002CC02091440220FD1FC0822F82958F7041
:1029F000D9F0D80115962C9315978F3049F08F5F39
:102A0000982F9295907F822F8F70892B15968C939B
:102A1000C8010E94821286E0F801AFE3B2E00190A3
:102A20000D928A95E1F793CF86E0F801AFE3B2E02B
:102A300001900D928A95E1F73CC04D875E878D85A8
:102A40009E850E94E512811140CF809144028160F1
:102A500080934402C8010E9482122BC0662309F4AD
:102A600058CF4D875E878D859E850E94E512F82E92
:102A7000882309F44ECF86E0F801AFE3B2E001907D
:102A80000D928A95E1F78FE392E00E94680E0E9412
:102A900038135DCF811139CF0CC0243031050CF0D3
:102AA00038CF9F7009F431CFF8019581907F09F0FC
:102AB0002CCF8F2D62960FB6F894DEBF0FBECDBF20
:102AC000DF91CF911F910F91FF90EF90DF90CF900A
:102AD00008951F93CF93DF93CDB7DEB72C970FB632
:102AE000F894DEBF0FBECDBF4F83588769877A87C2
:102AF0008B879C87CE0107960E949313882369F0E9
:102B00008F8198852A853B85232BF1F19F3F09F022
:102B100063C08F3F09F060C037C086E0FE01379682
:102B2000DE01119601900D928A95E1F76F8178850B
:102B3000EA85FB85309741F17F3F11F46F3F21F12A
:102B400020910E0230E0C9010196877099274091CB
:102B50000D0250E08417950709F447C069837A8312
:102B6000FD83EC8396E0929FD001939FB00D1124DA
:102B7000A15FBD4FFE01319601900D929A95E1F74C
:102B800080930E020E94091316E080910D0290912D
:102B90000E028917C1F1189FC0011124815F9D4F5A
:102BA0000E949313882379F1E0910D021E9FF0019A
:102BB0001124E15FFD4F40815181628173818481E5
:102BC00095810E94F91280910D0290E00196877024
:102BD000992780930D02D9CF4F81588569857A85D1
:102BE0008B859C850E94F912CFCF0E94BF12109254
:102BF0000E0210920D02EFE3F2E086E0DF011D927B
:102C00008A95E9F7C1CF2C960FB6F894DEBF0FBEB8
:102C1000CDBFDF91CF911F910895EF92FF920F9357
:102C20001F93CF93DF938C01892B09F46CC0F12C97
:102C3000EE24E394E8012196F8018491843740F46E
:102C4000843008F051C0813081F0823019F15BC0CE
:102C5000853709F444C0A8F19CE7980F903708F035
:102C600052C08F770E94910F41C00E5F1F4FFE012F
:102C7000C49180E28C0F883048F4C7708E2D01C05B
:102C8000880FCA95EAF70E949B1814C08C2F0E94E7
:102C90007A0E2DC00E5F1F4FFE01C49180E28C0F93
:102CA000883058F4C7708E2D01C0880FCA95EAF796
:102CB0000E94A1180E94C4181AC08C2F0E94910F64
:102CC00016C00E5F1F4FFE01C491CC2381F08FE927
:102CD0009FE00197F1F700C00000C150F6CF0E5FF2
:102CE0001F4FFE01F49003C00E947A0E8E018F2DBB
:102CF000882309F49FCFEFE9FFE03197F1F700C097
:102D000000008150F5CFDF91CF911F910F91FF907F
:102D1000EF90089508950C948A160E948B16609384
:102D200080027093810280938202909383020C94BC
:102D3000A91208950C948D160F931F930091800291
:102D4000109181022091820230918302602B712BBD
:102D5000822B932B1F910F910C948D160F931F9321
:102D600000918002109181022091820230918302B1
:102D700060237123822393231F910F910C948D164E
:102D80000F931F9300918002109181022091820283
:102D90003091830260277127822793271F910F911B
:102DA0000C948D160C9454060E94D21660937C02EB
:102DB00070937D0280937E0290937F020C94A912FF
:102DC00060E070E0CB010C94D4160F931F9341E0A8
:102DD00050E060E070E08A019B0104C0000F111F09
:102DE000221F331F8A95D2F7C901B8011F910F9195
:102DF0000C94D4160F931F9341E050E060E070E014
:102E000004C0440F551F661F771F8A95D2F7809123
:102E10007C0290917D02A0917E02B0917F028A0196
:102E20009B01082B192B2A2B3B2BC901B8011F91A1
:102E30000F910C94D4160F931F9341E050E060E083
:102E400070E004C0440F551F661F771F8A95D2F7A4
:102E5000409550956095709580917C0290917D028F
:102E6000A0917E02B0917F028A019B010823192361
:102E70002A233B23C901B8011F910F910C94D4164A
:102E80000F931F9341E050E060E070E004C0440FF6
:102E9000551F661F771F8A95D2F780917C0290910B
:102EA0007D02A0917E02B0917F028A019B010827DA
:102EB00019272A273B27C901B8011F910F910C94AC
:102EC000D4160F931F9300917C0210917D022091E4
:102ED0007E0230917F02602B712B822B932B1F91EE
:102EE0000F910C94D4160F931F9300917C021091B4
:102EF0007D0220917E0230917F0260237123822324
:102F000093231F910F910C94D4160F931F9300914C
:102F10007C0210917D0220917E0230917F02602719
:102F20007127822793271F910F910C94D41608952F
:102F3000292F220F920F990F890FA82FA695A695DA
:102F4000A695877051E001C0550F8A95EAF785E094
:102F5000A89FD001112420E030E070E0F901EA0FD1
:102F6000FB1FEB5BFD4F4081CB01022E02C096950B
:102F700087950A94E2F781709927819584278523A4
:102F8000842780832F5F3F4F2530310539F708951F
:102F9000292F220F920F990F890F682F669566953A
:102FA0006695982F977085E0689FB001112440E0E6
:102FB00050E080E0FA01E60FF71FEB5BFD4F208148
:102FC00030E0092E02C0369527950A94E2F7217069
:102FD0003327042E01C0220F0A94EAF7822B4F5F99
:102FE0005F4F4530510531F70895BF92CF92DF9280
:102FF000EF92FF920F931F93CF93DF938C01C090BA
:103000008002D0908102E0908202F0908302809151
:103010007C0290917D02A0917E02B0917F02C82A2D
:10302000D92AEA2AFB2ACFE1D0E0D701C6010C2E2B
:1030300004C0B695A795979587950A94D2F780FF17
:1030400007C0BC2EB8018C2F0E94F708019719F415
:10305000219758F7B12C8B2DDF91CF911F910F91B4
:10306000FF90EF90DF90CF90BF900895CF93DF93C4
:10307000EC010E94F517BE010E94F708DF91CF9185
:1030800008951F93CF93DF93EB0190910A02992348
:1030900021F0CB010E94361813C0882349F0CB01E0
:1030A0000E94F517182F682FCE010E94981704C0B0
:1030B000CB010E94C817182FBE01812F0E94F7086C
:1030C000DF91CF911F910895809184028595859518
:1030D0008595089580918402877008959091840267
:1030E000977081E009F480E008958091A802089526
:1030F0009091A802892B8093A802089580959091C1
:10310000A80289238093A80208958093A8020895B5
:103110001092A80208959091A702892B8093A7028C
:10312000089580959091A70289238093A70208951E
:103130001092A70208959091A602892B8093A6026F
:10314000089580959091A60289238093A602089500
:103150001092A602089580918502089508950C9416
:10316000AE1890918502981721F0809385020C94F7
:10317000AF18089580918502882329F01092850266
:1031800080E00C94AF180895E0910801F0910901D6
:103190008091A8028083E0910801F091090190815B
:1031A0008091A702892B8083E0910801F0910901A9
:1031B00090818091A602892B80838091850288234B
:1031C00081F0E0910801F09109019081892B8083C1
:1031D00080910801909109010E94F41981110E94C7
:1031E000BA1880910801909109010C94E50C08959A
:1031F0000C94F71898E0899F90011124262B2093B6
:1032000084020E94FA1680918402859585958595A1
:103210000C94F8181092840280E00C94F818209115
:1032200084028095822380938402982F977079F48A
:1032300030E0482F082E000C550B2417350739F0C5
:103240008595859585950E941B170C940A190895FC
:10325000CF92DF92EF92FF926C01EE24FF24C11413
:10326000D104E104F10421F0C701B60120E101C05D
:1032700020E0C72ED82EE92EFF24C114D104E1048A
:10328000F10419F0285FC701B6016B017C0154E01D
:10329000F694E794D794C7945A95D1F7C114D10402
:1032A000E104F10419F02C5FC701B6016B017C0148
:1032B00042E0F694E794D794C7944A95D1F7C114A5
:1032C000D104E104F10419F02E5FC701B601DC015D
:1032D000CB01B695A79597958795892B8A2B8B2B34
:1032E00009F02F5F822FFF90EF90DF90CF9008952D
:1032F00080E090E00E94FC2321E08D3E9E4F09F08B
:1033000020E0822F089582E090E00C94F42383E083
:1033100090E00C94F42384E090E00C94F423682F64
:1033200084E090E00C940224AB01BC018FE090E0BB
:103330000C941424AB01BC0183E190E00C941424A0
:1033400060E070E0CB010C949A1960E070E0CB0172
:103350000E9494190C94A0196DEE7EEF80E090E02D
:103360000E94202460E082E090E00E94022460E05D
:1033700083E090E00E940224109280021092810269
:10338000109282021092830260E084E090E00E943A
:10339000022460E085E090E00E94022460E086E084
:1033A00090E00E9402246FEF87E090E00E940224E8
:1033B00040E050E0BA0188E090E00E94142460E010
:1033C0008DE090E00E94022440E050E0BA0188E1E4
:1033D00090E00E94142460E087E190E00E940224C3
:1033E0000C94A5190C94AC19FC013296809114012F
:1033F000882331F08091D60287FF02C09EE101C090
:1034000096E080E0915028F021912223D9F38F5F3C
:10341000F9CF08959C01FC0132969FEF80E0419125
:10342000461789F09F3F19F4411101C0982F8F5F13
:103430008630A9F79F3F39F0F901E90FF11D97FD9B
:10344000FA95628308950895FC01329608962081CA
:10345000261301C010823196E817F907C1F70895C5
:10346000262F2695269526952E3168F4FC01E20F2D
:10347000F11D677021E030E001C0220F6A95EAF784
:103480008281282B22830895262F2695269526951E
:103490002E3170F4FC01E20FF11D677021E030E085
:1034A00001C0220F6A95EAF72095828128232283A2
:1034B000089520911401222329F02091D60227FD9E
:1034C0000C94301A0C940A1A20911401222329F02A
:1034D0002091D60227FD0C94441A0C94241A2091B2
:1034E0001401FC013296222331F08091D60287FF2D
:1034F00002C08EE101C086E0DF011D928A95E9F7E6
:10350000089508950C94811A0E94821A8091DC0219
:10351000843049F11092AA0220E488E190E00FB6CD
:10352000F894A895809360000FBE2093600080E01F
:103530000E9453070E94821A83B7817F846083BFF1
:1035400083B7816083BF7894889583B78E7F83BF6C
:103550000FB6F894A8958091600088618093600010
:10356000109260000FBE08950895CF930E941E042C
:103570000E9431040E94B41AC0E08C2F0E9498046B
:10358000811104C0CF5FCE30C1F701C081E0CF917F
:10359000089508950C94C91A0E94BF120E94D90C74
:1035A0000E9453070C94CA1A1F920F920FB60F92E3
:1035B00011248F939F93AF93BF938091AA0281119F
:1035C00013C08091D2029091D302A091D402B09105
:1035D000D5024196A11DB11D8093D2029093D302D2
:1035E000A093D402B093D502BF91AF919F918F91D8
:1035F0000F900FBE0F901F90189582E084BD93E04E
:1036000095BD9AEF97BD80936E0008952FB7F894FB
:103610008091D2029091D302A091D402B091D502B0
:103620002FBF0895CF92DF92EF92FF920F931F93D7
:103630002FB7F8944091D2025091D3026091D402F6
:103640007091D5022FBF6A017B01EE24FF248C010B
:1036500020E030E0C016D106E206F30610F4415037
:1036600051099A01281B390BC9011F910F91FF9035
:10367000EF90DF90CF90089578941F920F920FB63D
:103680000F9211248F939F93AF93BF938091D20297
:103690009091D302A091D402B091D5020196A11DC0
:1036A000B11D8093D2029093D302A093D402B09321
:1036B000D502BF91AF919F918F910F900FBE0F9048
:1036C0001F901895F89481E08093E00080E2809349
:1036D000D800E9ECF0E010828FE19EE40197F1F769
:1036E00000C000001DBA109268001CBC10BE1FBABA
:1036F00010927A0010926E0010926F00109271007A
:10370000109272001082ECEBF0E0108214B817B83F
:103710001AB81DB810BA108215B818B81BB81EB860
:1037200011BA0C94003F08950E947819811102C0CB
:103730000E94F2190E9483198093A9020E948B199A
:1037400090E09093D7028093D6020E948719682F49
:1037500070E080E090E00C949A168091CB0208957E
:1037600008950F931F93CF93DF9300D01F92CDB78F
:10377000DEB78C010E94F41D823011F0843021F5F7
:1037800084E089831B830A8382E08093E9008FEFC2
:103790009091E800815095FD06C095ED9A95F1F75E
:1037A00000008111F5CF8091E80085FF0DC040E059
:1037B00050E063E070E0CE0101960E94111E8091FE
:1037C000E8008E778093E8000F900F900F90DF91C4
:1037D000CF911F910F910895CF93DF9300D01F9247
:1037E000CDB7DEB72091DC02243031F523E0298308
:1037F000805891099B838A8382E08093E9008FEF50
:103800009091E800815095FD06C095ED9A95F1F7ED
:1038100000008111F5CF8091E80085FF0DC040E0E8
:1038200050E063E070E0CE0101960E94111E80918D
:10383000E8008E778093E8000F900F900F90DF9153
:10384000CF910895CF93DF93EC010E94F41D823055
:1038500011F08430D9F580911401882339F08091DA
:10386000D60287FF03C060E282E002C068E081E028
:103870008093E9008FEF9091E800815095FD06C09C
:1038800095ED9A95F1F700008111F5CF8091E80050
:1038900085FF1CC080911401811105C040E050E0FB
:1038A00068E070E003C070E040E050E0CE010E94AC
:1038B000111E8091E8008E778093E80080E2FE017F
:1038C000ABEAB2E001900D928A95E1F7DF91CF91DA
:1038D00008958091DB02811109C00E94A61F0E94F9
:1038E00003208091E20084608093E20008951092AA
:1038F000DB020895089508950C94CC1A42E061EC1F
:1039000081E00E94201F42E261EC82E00C94201FC3
:103910008091DE02833009F460C030F4813071F0B0
:10392000823009F499C008958A3009F485C08B303B
:1039300009F46BC0893009F0A7C020C08091DD0276
:10394000813A09F0A1C08091E800877F8093E80068
:103950008091E1029091E202892B21F460E28BEAEE
:1039600092E003C060E080E090E070E00E945C1EA6
:103970008091E8008B778093E80008958091DD02C4
:10398000813209F081C08091E1029091E2020297B8
:1039900008F07AC08091E800877F8093E8008091EA
:1039A000E80082FD05C08091DC028111F8CF6CC077
:1039B0002091F3008091F20090E0922B029729F47D
:1039C0008091F1008B7F813021F48091F100809310
:1039D000CB028091E8008B7753C08091DD02813A61
:1039E00009F052C08091E1029091E202892B09F026
:1039F0004BC08091E800877F8093E8008091E800C9
:103A000080FFFCCF8091140136C08091DD028132AD
:103A1000D9F58091E1029091E202892BA9F580917C
:103A2000E800877F8093E8000E94551F8091DF02A5
:103A3000809314010C94BF128091DD02813221F534
:103A40008091E800877F8093E8000E94551F809155
:103A5000E0028093CC0208958091DD02813AA1F4C6
:103A60008091E800877F8093E8008091E80080FFE4
:103A7000FCCF8091CC028093F1008091E8008E779A
:103A80008093E8000C94551F089584B7877F84BF06
:103A90000FB6F894A89580916000886180936000CB
:103AA000109260000FBE80E8809361001092610068
:103AB0000E94390D0E94A61F0E9403208091E200FF
:103AC00084608093E20078940E9492220E94410DCB
:103AD0008AE091E00E94D40C8091DC02853069F488
:103AE0000E94841A8091DA028823B1F30E94B51AE9
:103AF000882391F30E94FB1DEFCF0E94490DECCF6C
:103B00000C94821D292F332723303105C9F064F42A
:103B10002130310581F02230310509F04CC08BE3B2
:103B200090E021E535E04BC02132310521F1223210
:103B3000310589F140C082E190E02CE835E03FC0DA
:103B400099278130910571F02CF4892BA1F5EDE4D2
:103B5000F5E00DC08230910541F0039761F5E7E192
:103B6000F5E005C0E5E3F5E002C0EDE1F5E08491A4
:103B700090E09F0124C06115710541F0613071052D
:103B8000D1F489E090E02CE735E019C089E090E0BD
:103B900023E635E014C06115710541F0613071050F
:103BA00051F481E790E02EE935E009C080E490E02F
:103BB0002FE036E004C080E090E020E030E0FA0141
:103BC0003183208308950895CF93C82F0E94E31D69
:103BD000C093CD02CF9108958091DC02843011F022
:103BE00081E0089582E008958091CD02811102C0A4
:103BF0000C94EC1D089580E189BD82E189BD09B472
:103C000000FEFDCF8091D8008F7D8093D8008091F9
:103C1000E00082608093E0008091E00081FDFCCFB5
:103C20000895CF92DF92EF92FF920F931F93CF935D
:103C3000DF93EC018B016A010E94741F811133C074
:103C4000C114D10439F0F60180819181081B190B50
:103C5000C80FD91FE12CF12C0115110519F1809124
:103C6000E80085FD16C08091E8008E778093E8001B
:103C7000C114D10449F0F60180819181E80EF91E4A
:103C8000F182E08285E00FC00E94741F882321F337
:103C90000AC089918093F10001501109FFEFEF1ADA
:103CA000FF0ADACF80E0DF91CF911F910F91FF9053
:103CB000EF90DF90CF9008952091E3023091E402DD
:103CC0002617370748F06115710539F42091E8008F
:103CD0002E772093E80001C0B90140E0611571051D
:103CE000A9F12091DC02222309F443C0253009F414
:103CF00042C02091E80023FD40C02091E80022FD51
:103D000032C02091E80020FFE9CF4091F3002091DC
:103D1000F20030E0342BFC01CF016115710559F040
:103D20002830310540F481918093F1006150710990
:103D30002F5F3F4FF1CF41E02830310509F040E0DF
:103D40002091E8002E772093E800C8CF4111C9CF19
:103D50000AC08091DC02882361F0853061F0809197
:103D6000E80083FD0AC08091E80082FFF2CF80E086
:103D7000089582E0089583E0089581E008952091F8
:103D8000E3023091E4022617370748F06115710508
:103D900039F42091E8002E772093E80001C0B901A2
:103DA000FC0120E06115710591F18091DC0288230E
:103DB00009F440C0853009F43FC08091E80083FDDC
:103DC0003DC08091E80082FD2FC08091E80080FF17
:103DD000E9CF2091F3008091F20090E0922B6115E1
:103DE000710559F08830910540F424912093F10039
:103DF0003196615071090196F2CF21E0089709F0E0
:103E000020E08091E8008E778093E800CBCF2111ED
:103E1000CCCF0AC08091DC02882361F0853061F04C
:103E20008091E80083FD0AC08091E80082FFF2CF14
:103E300080E0089582E0089583E0089581E0089588
:103E4000982F973058F59093E900981739F07091B2
:103E5000EC002091ED005091F00003C0242F762F4C
:103E600050E021FF19C03091EB003E7F3093EB0012
:103E70003091ED003D7F3093ED003091EB003160EB
:103E80003093EB007093EC002093ED005093F00022
:103E90002091EE0027FF07C09F5FD3CF8F708093E4
:103EA000E90081E0089580E008958091DD0287FFB8
:103EB00011C08091E80082FD05C08091DC02811173
:103EC000F8CF11C08091E8008B770BC08091DC02A5
:103ED000882349F08091E80080FFF8CF8091E800C6
:103EE0008E778093E80008952091E4003091E500FA
:103EF00095E64091EC00842F817040FF22C08091B4
:103F0000E80080FD1CC08091DC02882391F08530A0
:103F100091F08091EB0085FD10C04091E40050913C
:103F2000E5004217530729F39A01915011F784E0F5
:103F3000089582E0089583E0089581E0089580E087
:103F400008954091E80042FFDECF08950E941420BA
:103F50000E941C20E0EEF0E0808181608083E8ED2B
:103F6000F0E080818F77808319BCA7EDB0E08C9161
:103F70008E7F8C9380818F7E80831092DB020895E8
:103F80000F931F93CF93DF930E9414200E941C2055
:103F9000C8EDD0E088818F778883888180688883A6
:103FA00088818F7D888319BC1092DC021092D80220
:103FB0001092DA021092D90200EE10E0F80180812E
:103FC0008B7F808388818160888342E060E080E02D
:103FD0000E94201FE1EEF0E080818E7F8083E2EE80
:103FE000F0E0808181608083808188608083F80137
:103FF00080818E7F8083888180618883DF91CF91EB
:104000001F910F910895E8EDF0E080818F7E80830D
:10401000E7EDF0E080818160808384E082BF81E011
:104020008093DB020C94C01FE8EDF0E080818E7F6E
:1040300080831092E20008951092DA001092E1005D
:1040400008951F920F920FB60F9211242F933F9352
:104050004F935F936F937F938F939F93AF93BF9390
:10406000EF93FF938091E10082FF0BC08091E2000B
:1040700082FF07C08091E1008B7F8093E1000E9466
:1040800091228091DA0080FF1FC08091D80080FFCC
:104090001BC08091DA008E7F8093DA008091D90076
:1040A00080FF0DC080E189BD82E189BD09B400FEB9
:1040B000FDCF81E08093DC020E94691C05C019BC21
:1040C0001092DC020E94771C8091E10080FF19C0F1
:1040D0008091E20080FF15C08091E2008E7F809386
:1040E000E2008091E20080618093E2008091D8003C
:1040F00080628093D80019BC85E08093DC020E9426
:104100007B1C8091E10084FF30C08091E20084FF3D
:104110002CC080E189BD82E189BD09B400FEFDCFDC
:104120008091D8008F7D8093D8008091E1008F7EB0
:104130008093E1008091E2008F7E8093E200809185
:10414000E20081608093E2008091D802882311F020
:1041500084E007C08091E30087FD02C081E001C0D8
:1041600083E08093DC020E947C1C8091E10083FF4D
:1041700029C08091E20083FF25C08091E100877F04
:104180008093E10082E08093DC021092D80280915B
:10419000E1008E7F8093E1008091E2008E7F80932A
:1041A000E2008091E20080618093E20042E060E002
:1041B00080E00E94201F8091F00088608093F000D2
:1041C0000E947A1CFF91EF91BF91AF919F918F91C7
:1041D0007F916F915F914F913F912F910F900FBE03
:1041E0000F901F9018951F920F920FB60F921124E7
:1041F0002F933F934F935F936F937F938F939F93EF
:10420000AF93BF93CF93DF93EF93FF93C091E900F8
:10421000CF708091EC00D82FD17080FDD0E8109243
:10422000E9008091F000877F8093F00078940E94ED
:1042300037211092E9008091F00088608093F000AF
:10424000CD2BCF70C093E900FF91EF91DF91CF911B
:10425000BF91AF919F918F917F916F915F914F919E
:104260003F912F910F900FBE0F901F9018951F93A5
:10427000CF93DF93CDB7DEB7AA970FB6F894DEBF22
:104280000FBECDBFEDEDF2E088E08E0F9091F10012
:1042900091938E13FBCF0E94881C8091E80083FFCE
:1042A00028C18091DD029091DE02492F50E04A3012
:1042B000510508F01EC1FA01E755FF4F0C94C122C9
:1042C000803821F0823809F014C108C08091D902E9
:1042D0009091DA02992389F082600FC08091E10207
:1042E0008F70873008F005C18093E9008091EB0062
:1042F00085FB882780F91092E9009091E800977F6C
:104300009093E8008093F1001092F100D0C0282F24
:104310002D7F09F0EEC0882319F0823061F0E9C0EA
:104320008091DF02813009F0E4C0933009F080E031
:104330008093DA022EC08091DF0281112AC0809121
:10434000E1028F702FEF280F263008F0D2C0809343
:10435000E9002091EB0020FF1CC0933021F48091F4
:10436000EB00806214C09091EB0090619093EB00A1
:1043700021E030E0A90102C0440F551F8A95E2F701
:104380004093EA001092EA008091EB0088608093ED
:10439000EB001092E9008091E800877F8093E800AD
:1043A0000E94551FA6C08111A4C01091DF021F7783
:1043B0008091E3008078812B8093E3008091E80076
:1043C000877F8093E8000E94551F8091E80080FF5E
:1043D000FCCF8091E30080688093E300111102C05C
:1043E00082E001C083E08093DC0283C08058823089
:1043F00008F07FC08091DF029091E0028C3D53E095
:10440000950779F583E08A838AE289834FB7F89428
:10441000DE01139620E03EE051E2E32FF0E05093FE
:104420005700E49120FF03C0E295EF703F5FEF700B
:104430008E2F90E0EA3010F0C79601C0C0968D93A1
:104440009D932F5F243149F74FBF8091E800877F0C
:104450008093E8006AE270E0CE0101960E945C1E43
:1044600015C06091E1027091E202AE014F5F5F4FB3
:104470000E94801DBC01892BE1F19091E800977F9B
:104480009093E80089819A810E94BF1E8091E80084
:104490008B778093E8002DC0803859F58091E80033
:1044A000877F8093E8008091D8028093F10080910B
:1044B000E8008E7773CF81111CC09091DF0292309B
:1044C000C0F48091E800877F8093E8009093D80241
:1044D0000E94551F8091D802811106C08091E3008F
:1044E00087FD02C081E001C084E08093DC020E946D
:1044F0007E1C8091E80083FF0AC08091E800877FDE
:104500008093E8008091EB0080628093EB00AA9694
:104510000FB6F894DEBF0FBECDBFDF91CF911F91D4
:1045200008950895CF938091DC028823A1F0C09173
:10453000E900CF709091EC00892F817090FD80E8A8
:10454000C82B1092E9008091E80083FD0E9437217A
:10455000CF70C093E900CF910895AA1BBB1B51E116
:1045600007C0AA1FBB1FA617B70710F0A61BB70BE3
:10457000881F991F5A95A9F780959095BC01CD0188
:104580000895EE0FFF1F0590F491E02D0994CF934D
:10459000DF938230910510F482E090E0E091E70231
:1045A000F091E80220E030E0C0E0D0E0309711F177
:1045B0004081518148175907C0F04817590761F4E5
:1045C00082819381209719F09B838A832BC09093DB
:1045D000E8028093E70226C02115310519F0421741
:1045E000530718F49A01BE01DF01EF010280F38145
:1045F000E02DDCCF2115310509F1281B390B2430C2
:10460000310590F412968D919C9113976115710567
:1046100021F0FB019383828304C09093E80280938E
:10462000E702FD01329644C0FD01E20FF31F8193C2
:104630009193225031092D933C933AC02091E50289
:104640003091E602232B41F42091020130910301C5
:104650003093E6022093E5022091000130910101A0
:104660002115310541F42DB73EB740910401509119
:104670000501241B350BE091E502F091E602E217FB
:10468000F307A0F42E1B3F0B2817390778F0AC0175
:104690004E5F5F4F2417350748F04E0F5F1F509352
:1046A000E6024093E5028193919302C0E0E0F0E0DE
:1046B000CF01DF91CF9108950F931F93CF93DF9395
:1046C000009709F48CC0FC0132971382128200918A
:1046D000E7021091E8020115110581F42081318172
:1046E000820F931F2091E5023091E60228173907C7
:1046F00079F5F093E602E093E50271C0D80140E05D
:1047000050E0AE17BF0750F412962D913C911397CD
:10471000AD012115310509F1D901F3CF9D01DA0170
:104720003383228360817181860F971F82179307DD
:1047300069F4EC0128813981260F371F2E5F3F4F26
:10474000318320838A819B8193838283452B29F443
:10475000F093E802E093E70242C01396FC93EE93D5
:104760001297ED01499159919E01240F351FE217CF
:10477000F30771F480819181840F951F0296119641
:104780009C938E938281938113969C938E93129720
:10479000E0E0F0E0D80112968D919C91139700977C
:1047A00019F0F8018C01F6CF8D919C9198012E5F44
:1047B0003F4F820F931F2091E5023091E6022817A8
:1047C000390769F4309729F41092E8021092E70251
:1047D00002C0138212821093E6020093E502DF9179
:1047E000CF911F910F910895F999FECF92BD81BD90
:1047F000F89A992780B50895A8E1B0E042E050E02A
:104800000C942824262FF999FECF92BD81BDF89AE9
:10481000019700B4021639F01FBA20BD0FB6F89404
:10482000FA9AF99A0FBE08950396272F0E9403243F
:104830000E940224252F0E940324242F0C94032479
:104840000196272F0E9403240C940224DC01CB0143
:10485000FC01F999FECF06C0F2BDE1BDF89A319690
:1048600000B40D9241505040B8F70895F894FFCF2E
:104870000000E902200020008602AD1B221CB01BB4
:10488000EC1BB11B01000D010D020D030D040D0504
:104890000D000C010C020C030C040C050C000B01A8
:1048A0000B020B030B040B050B000A010A020A039F
:1048B0000A040A050A000901090209030904090595
:1048C0000900080108020803080408050800070198
:1048D000070207030704070507000601060206038F
:1048E0000604060506000501050205030504050585
:1048F0000500040104020403040404050400030188
:10490000030203030304030503000201020202037E
:104910000204020502000101010201030104010574
:0E492000010000010002000300040005000079
:00000001FF
