:100000000C9491030C94D8030C94D8030C94D8034B
:100010000C94D8030C94D8030C94D8030C94D803F4
:100020000C94D8030C94D8030C94B2270C94842815
:100030000C94671C0C94D8030C94D8030C94D8032C
:100040000C94D8030C94D8030C94D8030C94D803C4
:100050000C94D8030C94CF1C0C94D8030C94D803A4
:100060000C94D8030C94D8030C94D8030C94D803A4
:100070000C94D8030C94D8030C94D8030C94D80394
:100080000C94D8030C94D8030C94D8030C94D80384
:100090000C94D8030C94D8030C94D8030C94D80374
:1000A0000C94D8030C94D8030C94D80377097909DD
:1000B00084097B097D097F098109830986098809EB
:1000C0008A0995098C098E09900992099409970962
:1000D0009B119B11CD11CD1104122412B813B8132A
:1000E0006612B8131313131384138D13B813B113BB
:1000F0002013201320132013201320132013201368
:100100002013201320132013201320132013201357
:1001100031133E1345134C13561343144314551413
:1001200055144C14551455145514431443145114B8
:10013000551455145114F12818290A2A18290A2A85
:10014000642987290A2ADD29EC290A00253031365D
:1001500062003A200025303258000A722F632030A6
:100160003132333435363738394142434445460A13
:10017000006D6370323330313720646561747461AF
:10018000636865642121210A006D63703233303168
:10019000372061747461636865642121210A003528
:1001A000001E001F002000210022002E002E002330
:1001B00000240025002600270031002B0014001A1F
:1001C000000800150017002D002D001C0018000C61
:1001D00000120013002A002900040016000700097D
:1001E000000A00000000000B000D000E000F00339D
:1001F000002800E1001D001B000600190005003466
:1002000000340011001000360037003800E500E02F
:1002100000E200E3002F6830000000000000000052
:10022000005078517852744F71015100002C0069D0
:100230000002540000000000000000000000000167
:100240005469002C000000AE001E0D1F0D200D2172
:100250000D220D2E0D2E0D230D240D250D260D27FF
:100260000D6A00AD00140D1A0D080D150D170D26A1
:100270000227021C1D181D0C1D121D131D4C00BB56
:1002800000040D160D070D090D0A0D000000000BEE
:100290001D0D1D0E1D0F1D0000281DBC001D0D1B7A
:1002A0000D060D190D050D00000000111D101D3665
:1002B0001D00000000000000000000000000000021
:1002C000000000000000000000000000000000002E
:1002D00000000000002C0A000000000000000000E8
:1002E00000005C000000000000280E2C1500001823
:1002F00005E2003B003C003D003E00060506053FD0
:1003000000400041004200430000000C05000000D6
:100310000008050000170526022702000018050C3A
:10032000050000000000000D05000052050705094A
:10033000050A050000000000000D050E0500000084
:100340000028050E05500551054F0500000000501E
:100350000D4F0D0000000000000000000000000034
:10036000000000000000000000000000000000008D
:10037000005005510552054F0500000000500D507A
:100380000501000000000000000000000000000067
:10039000004F054F0D000044454255473A20656E19
:1003A00061626C65642E0A00556E69636F64652036
:1003B000696E707574206D6F646520736574207448
:1003C0006F3A2025750A00556E69636F6465206970
:1003D0006E707574206D6F646520696E6974207429
:1003E0006F3A2025750A000A002530325820006B2C
:1003F0006579626F6172645F7265706F72743A20C2
:10040000000A0025303258006B6579626F617264B2
:100410005F7365745F6C65643A200064656C5F6B44
:1004200065795F6269743A2063616E277420646540
:100430006C3A20253032580A006164645F6B65793C
:100440005F6269743A2063616E2774206164643A64
:1004500020253032580A00646F6E652E0A00626FE4
:100460006F746D61676963207363616E3A202E2E2D
:100470002E2000290A002575002F002575005D2813
:100480000025640020002564002000256400200071
:100490002564007C0025303258006D6F7573656BE4
:1004A0006579205B62746E7C782079207620685DA7
:1004B000287265702F61636C293A205B006261636A
:1004C0006B6C6967687420737465703A2025750ACF
:1004D000006261636B6C6967687420646973616250
:1004E0006C650A006261636B6C6967687420656E95
:1004F00061626C650A006261636B6C696768742095
:10050000746F67676C653A2025750A006261636BDA
:100510006C696768742064656372656173653A200D
:1005200025750A006261636B6C6967687420696E87
:100530006372656173653A2025750A005B735D001F
:100540004B6579626F6172642073746172742E0AF4
:10055000005B575D005B535D005B525D005B445D7B
:10056000005B435D000403300000000E0348006F91
:1005700000740044006F007800000012035A002E3F
:100580000050002E005A002E004F002E00000004E4
:1005900003090409025B00030100A0FA090400003A
:1005A000010301010009211101000122400007059A
:1005B000810308000A090401000103000000092169
:1005C0001101000122C0000705820320000A09046E
:1005D0000200020300000009211101000122220093
:1005E0000705830320000107050303200001120112
:1005F000100100000008EDFE1DE1010001020301F1
:100600000631FF0974A1010975150026FF00952028
:10061000750881020976150026FF0095207508915E
:1006200002C005010902A10185020901A100050915
:10063000190129051500250195057501810295010E
:10064000750381010501093009311581257F950266
:100650007508810609381581257F95017508810681
:10066000050C0A38021581257F950175088106C0A1
:10067000C005010980A10185031601002603001AA7
:1006800081002A8300751095018100C0050C0901C5
:10069000A1018504160100269C021A01002A9C0271
:1006A000751095018100C005010906A101850505A8
:1006B0000719E029E7150025019508750181020554
:1006C0000819012905950575019102950175039198
:1006D000010507190029EF1500250195F075018125
:1006E00002C005010906A101050719E029E7150067
:1006F000250195087501810295017508810105089C
:10070000190129059505750191029501750391015E
:100710000507190029FF150026FF009506750881B9
:1007200000C011241FBECFEFDAE0DEBFCDBF04B69C
:1007300003FE27C080918A0290918B02A0918C02C7
:10074000B0918D028730904BA740B04BD1F41092FE
:100750008A0210928B0210928C0210928D0214BEAB
:1007600084B7877F84BF0FB6F894A8958091600006
:10077000886180936000109260000FBEE0E0F8E3B3
:10078000099511E0A0E0B1E0EEE0F6E502C00590C9
:100790000D92A232B107D9F722E0A2E2B1E001C086
:1007A0001D92AA38B207E1F70E94CD240C94052BC4
:1007B0000C940000FF93EF93E0912201F09123014C
:1007C000309709F00995EF91FF910895FC0185910B
:1007D000803011F0EFDFFBCF0895FF27E0E230E239
:1007E00047FF0CC0419597FF09C0EDE260957095F9
:1007F00080959095611D711D811D911D27FF02C07F
:10080000219530E350E2AA27660F771F881F991FB2
:10081000AA1FA41710F0A41B63955A95A9F7AA3034
:1008200008F0A95FA05DAF93F3956115710581058F
:10083000910541F7ED3211F4EF93F395F21718F4A7
:100840003F93F395FBCF8F91B5DFFA95E1F70895CC
:10085000E991F9918591803021F0853219F0AADF74
:10086000F9CF089520E0E89455915532C1F3503303
:1008700011F4689455915A3348F4505390F3220F71
:10088000022E220F220F200D250FF4CF0EF42195FA
:1008900089919991533619F3533729F1533559F109
:1008A000BC0188279927E8945C3621F489919991B5
:1008B00068945591543639F446EF7EF077FF0DC0B9
:1008C0008FEF9FEF0AC055374AE039F0583540E1C5
:1008D00021F0523642E009F00895FF93EF937DDF57
:1008E000EF91FF91B7CFFF93EF93FC01819180309F
:1008F000B9F360DFFBCFFF93EF9368DFF1CFDF93B6
:10090000CF93CDB7DEB72596A3DFCF91DF910895C2
:1009100080B38C7080BB81B38C7081BB0C94FA0661
:1009200084B1807F84B985B18F6085B98AB1837FB6
:100930008AB98BB18C608BB93E98469A0C9440076B
:10094000089508950C94A10480E885BF85BF0E9496
:1009500088040E949004E8E7F1E084E291E01192BB
:10096000119220E030E0DC01A20FB31F1C922F5F38
:100970003F4F2E303105B9F70E9621E088379207A8
:1009800071F70C94A5080E9488040E949004E8E77F
:10099000F1E0118210821382128215821482178272
:1009A0001682118610861386128608959EE0899F0E
:1009B000B001112420E030E040E050E0A1E0B0E0E0
:1009C000F901E60FF71FEC5DFE4F9081992319F0B6
:1009D0009150908309C0CD01022E02C0880F991F4B
:1009E0000A94E2F7482B592B2F5F3F4F2E303105E9
:1009F00039F7CA010895CF932EE0629FB001112408
:100A000020E030E0A1E0B0E0C5E0AD01022E02C080
:100A1000440F551F0A94E2F748235923452B31F020
:100A2000F901E60FF71FEC5DFE4FC0832F5F3F4FCC
:100A30002E30310551F7CF910895CF92DF92EF928A
:100A4000FF920F931F93CF930E941C0788E7C82E35
:100A500081E0D82EC0E0C33091F038F4C13091F07D
:100A6000C23099F4859A8D9812C0C43029F0C530EF
:100A700061F4809A88980BC0819A899808C0849AFA
:100A80008C9805C0869A8E9802C0879A8F988C2F72
:100A90000E94FE0680EA8A95F1F78C2F0E94D60408
:100AA0007C010E947607282F30E0369903C080E849
:100AB00090E002C080E090E04B9903C000E011E0BC
:100AC00002C000E010E0082B192B4A9903C080E017
:100AD00092E002C080E090E0082B192B1B9903C024
:100AE00040E054E002C040E050E0042B152B1A997E
:100AF00003C060E078E002C060E070E0062B172BD6
:100B0000199903C080E090E102C080E090E0082BDA
:100B1000192B189903C040E050E202C040E050E0B9
:100B2000F60180819181042B152B022B132B0E21B2
:100B30001F21E094F094E822F9220E291F296C2F3E
:100B4000802791270E94FB04F601019311936F0106
:100B50000E948804CF5FC63009F07DCF0E94240830
:100B600081E0CF911F910F91FF90EF90DF90CF9098
:100B70000895E82FF0E0EE0FFF1FE858FE4F808148
:100B800091810895CF92DF92EF92FF920F931F937E
:100B9000CF93DF938AE591E00E94E60388E7E82E91
:100BA00081E0F82EC0E0D0E095E5C92E91E0D92E85
:100BB0000CE411E0DF93CF93DF92CF920E947F0489
:100BC00082E591E00E94E603F701819191917F0116
:100BD0000E94B61A9F938F931F930F930E947F04D6
:100BE0008AE491E00E94E60321968DB79EB70896AD
:100BF0000FB6F8949EBF0FBE8DBFC630D105D1F69B
:100C0000DF91CF911F910F91FF90EF90DF90CF90E8
:100C100008951092B9008CE08093B8000895EF9287
:100C2000FF920F931F93CF93DF93182FEB01109236
:100C3000BC0084EA8093BC000E94991C7C019091C6
:100C4000BC0097FD0EC0CF3F8FEFD807C1F30E94C5
:100C5000991C8E199F098C179D0788F38EEF9FEFC3
:100C60002EC09091B900987F983041F09091B900D2
:100C7000987F903119F08FEF9FEF21C01093BB0048
:100C800084E88093BC000E94991C8C019091BC0068
:100C900097FD0CC0CF3F8FEFD807C1F30E94991C7E
:100CA000801B910B8C179D0788F3D8CF8091B900DA
:100CB000887F883111F08034F1F680E090E0DF9198
:100CC000CF911F910F91FF90EF9008950F931F9375
:100CD000CF93DF93EB018093BB0084E88093BC004B
:100CE0000E94991C8C019091BC0097FD0EC0CF3FD3
:100CF0008FEFD807C1F30E94991C801B910B8C17B2
:100D00009D0788F38EEF9FEF0CC02091B900287FDC
:100D100081E090E0283211F480E090E09195819597
:100D20009109DF91CF911F910F9108950F931F9318
:100D3000CF93DF93EC0184E88093BC000E94991C60
:100D40008C019091BC0097FD0EC0CF3F8FEFD8076C
:100D5000C1F30E94991C801B910B8C179D0788F38F
:100D60008EEF9FEF03C08091BB0090E0DF91CF91A9
:100D70001F910F91089584E98093BC00089510920B
:100D800084010E9409062FEF83ED90E321508040FB
:100D90009040E1F700C0000080E008950F931F939A
:100DA000CF93DF931F92CDB7DEB790918401992343
:100DB000D1F0062F182F64E670E080E40E940F0641
:100DC00081110CC064E670E0812F0E9466068111DB
:100DD00005C064E670E0802F0E94660689830E9449
:100DE000BB06898101C080E00F90DF91CF911F91F8
:100DF0000F9108956FE381E00C94CE0661E070E0FE
:100E000001C0660F8A95EAF7609581E00C94CE06E2
:100E10006FE780E00E94CE066FE782E00E94CE0678
:100E20006FE78CE00E94CE066FEF81E00E94CE0655
:100E300060EC83E10C94CE0664E670E080E40E94EE
:100E40000F06811110C00E94BB06809184018111A0
:100E500016C081E0809384010E9408070E94331429
:100E600089E891E00AC080918401882341F01092C2
:100E700084010E94331481E791E00C94E603089505
:100E80000E94BF060C941C070F931F93CF93DF9310
:100E900090918401992321F18B01D82F64E670E0B1
:100EA00080E40E940F06C82F811116C064E670E02E
:100EB0008D2F0E946606C82F81110EC064E670E077
:100EC00081E40E940F06C82F811106C084E690E0DD
:100ED0000E949606F80180830E94BB068C2F01C0F9
:100EE00080E0DF91CF911F910F910895CF93DF9311
:100EF0001F92CDB7DEB71982BE016F5F7F4F82E1CF
:100F00000E94440789810F90DF91CF910895279A1D
:100F10002F98259A2D9A269A2E9A249A2C9A259AB9
:100F20002D982FEF80E792E0215080409040E1F72C
:100F300000C00000269A2E982FEF80E792E0215003
:100F400080409040E1F700C00000249A2C982FEFD9
:100F500080E792E0215080409040E1F700C000001F
:100F6000259A2D9A2FEF80E792E021508040904003
:100F7000E1F700C00000269A2E9A2FEF80E792E05A
:100F8000215080409040E1F700C00000249A2C9A44
:100F9000279A2F9A259A2D98269A2E98249A2C983B
:100FA0002FE782E490E1215080409040E1F700C0BB
:100FB0000000279A2F98259A2D9A269A2E9A249ADD
:100FC0002C9A08950E9487070C94A00481E008954C
:100FD00081E008950C94E8071F93CF93DF9300D02E
:100FE00000D01F92CDB7DEB749835A832091A0016C
:100FF00089819A81211112C0662349F00E946819E3
:10100000182F682F89819A810E940D1903C00E94B0
:101010003C19182F69817A81812F04C00E946819B8
:1010200069817A810F900F900F900F900F90DF9150
:10103000CF911F910C94530AFC0140815181628130
:10104000738184810C94EC070C94A204E82FE29540
:10105000EF70F0E032A1282F2F7081E090E001C006
:10106000880F2A95EAF78095832382A30895CF926B
:10107000DF92EF92FF92843030F4811105C090919D
:101080008000977F04C083E09091800098609093E7
:101090008000282F30E0AFEFBFEF0E94A92A23E0A5
:1010A00030E040E050E00E94812A2C3784E138078C
:1010B0004105510530F4C90169E070E00E94592AE8
:1010C00029C0DA01C9018A50974DAF4FBF4F66273B
:1010D000782F892F9A2F25EF38E241E050E00E94C7
:1010E000812A69017A01CA01B9010E943D2A9B0146
:1010F000AC01C701B6010E943D2ABB27A92F982F3A
:10110000872F009721E0A207B10511F0BC0102C0B2
:101110006FEF7FEF70938D0060938C00FF90EF90E6
:10112000DF90CF900895279A87E30E9426088AE0EF
:101130008093800089E1809381008FEF9FEF9093EF
:101140008700809386000C942C210E94D01A811174
:1011500002C00E945D1B0E9493080E94170D0C9410
:10116000E207282F2F7041F0822F90E02A3010F4F0
:101170004D9608950697089587E290E008950895A2
:101180000C94BF080C94C00808950E9433140E9468
:10119000C4082FEF84E39CE0215080409040E1F7A9
:1011A00000C000000C94F51C0F931F93CF93DF93A6
:1011B0008C010E941C08EC01B8010E94EA078823F8
:1011C00009F467C1B801CE010E94BF0D882309F45C
:1011D00060C1C73DFCE5DF0761F5F8018281882326
:1011E00051F010928A010E94991C9093870180937C
:1011F000860182E03BC00E94E81985FF05C081E0BE
:1012000080938A0180938B0180918A0181110FC0A4
:1012100080918601909187010E94A51C883C9105D0
:1012200030F486E20E94CB0F86E20E94E91082E051
:101230002FC0C83D8CE5D80770F1CC3D8CE5D807B0
:1012400009F4D9C008F0DEC0C83DFCE5DF0709F0AD
:10125000F7C0F8018281882361F010928B010E940F
:10126000991C909389018093880180E20E94591112
:1012700010C10E94E81981FF05C081E080938A01B6
:1012800080938B0180918B01882309F4C8C080E290
:101290000E946011FEC0C531ECE5DE0708F081C098
:1012A000C230FCE5DF0708F452C0F80182818823D0
:1012B00009F459C00E94D01A811102C00E945D1B1E
:1012C0000E94ED1A90E090937B0280937A02FE01D7
:1012D000E350FC45E231F10530F4EA5AFF4F8091CA
:1012E0007A020C94A32A80917A02816027C08260DE
:1012F00025C0846023C0806121C080621FC08064DB
:101300001DC080681BC08460886018C08E7F16C0B6
:101310008D7F14C08B7F12C08F7E10C08F7D0EC05A
:101320008F7B0CC08F770AC08B7F877F07C087FBBE
:10133000222720F991E0922790FB87F980937A0287
:1013400080917A020E94F11A0E943314A2C0C11542
:101350008CE5D80779F0C130DC45A1F081E08093BD
:101360008A0180938B01C801DF91CF911F910F916A
:101370000C94E607F8018281882309F48AC00E9450
:10138000C50887C0F8018281882309F482C0809152
:101390003D02816080933D0287E993E00E94E6036D
:1013A00078C0C631DC45D1F60E94E819282FF80133
:1013B00082814091000150910101882379F02A7ABD
:1013C00091E009F490E090938501911102C069E2E7
:1013D00001C065E3CA010E94E61B0AC08091850135
:1013E000811102C069E201C065E3CA010E94F11BDC
:1013F0000E94371A4EC0F8018281882309F449C03F
:1014000080E00AC0CD3DECE5DE07D1F5F801828130
:10141000882309F43EC082E00E9475253AC080917D
:101420008801909189010E94A51C883C910508F0D3
:101430002ECF87E20E94CB0F87E20E94E91027CFD0
:10144000C93DDC4509F08ACFF8018281811105CFC1
:1014500080918B0181111BCF80918801909189012E
:101460000E94A51C883C910508F011CF80E20E94E3
:10147000601188E20E94CB0F88E20E94E91009C047
:10148000CE3DDC4509F06ACFF801828181110E94CE
:101490005D1B80E0DF91CF911F910F91089580E057
:1014A00090E0089508959EE0799FF001112494E55D
:1014B000899FE00DF11D1124E60FF11DEE0FFF1FB6
:1014C000E156FE4F859194910895880F991FFC0174
:1014D000E855FC4F859194910895CF93DF930E9436
:1014E000530A0E94600CEC01811521E5920708F077
:1014F00042C0811560E5960708F031C1883E91052C
:1015000000F5803E910508F0D7C1883A910570F446
:10151000853A910508F0A6C08130910509F4CCC147
:1015200008F47DC1049708F0C7C179C18F3B9105CC
:1015300008F4A3C0803C910508F471C1805C910956
:10154000FDC0C11580E3D80780F4C11590E2D9072A
:1015500008F0F2C0C03FD10508F461C1CF3FD1050A
:1015600011F008F0A9C1D065A7C1C11520E4D207C8
:1015700008F0F2C0E7C0811569E5960760F5C1156E
:1015800088E5D80708F037C1C11594E5D90778F484
:10159000C11523E5D20708F013C1C11562E5D607CE
:1015A00008F0F8C0DC2FCC27C16FD06A85C1C11507
:1015B00085E5D80708F41AC1C11596E5D90708F0E2
:1015C0002EC18C2F0E94DD0C8F71C82FD0E0DC2F34
:1015D000CC27D06271C18D3B2CE5920709F416C16E
:1015E000F0F4CB3B8CE5D80709F40AC108F00BC135
:1015F000C1152AE5D20708F012C18C2F8F700E9406
:10160000DD0C94E0D695C7959A95E1F7CF70D0E0C0
:10161000DC2FCC27D06A8F70806EC82B4DC1803CE8
:101620009C4509F4F9C0C13C8CE5D80760F4CE3B79
:101630009CE5D90709F4EDC0CF3BDC4509F0EFC0CC
:10164000C0E0D2ED39C1CE0190568115904208F02C
:10165000E6C08D2F8F710E94DD0CDD27D0628F7167
:10166000D82B2AC1853A910509F4DCC0863A910548
:1016700009F0DBC0C2E8D0E41FC1883A910509F443
:10168000D7C0893A910509F4D6C08A3A910509F480
:10169000D5C08B3A910509F4D4C08C3A910509F470
:1016A000D3C08B3B910509F4D2C08C3B910509F462
:1016B000D1C08D3A910509F4D0C0803B910509F461
:1016C000CFC08E3A910509F4CEC08F3A910509F446
:1016D000CDC0813B910509F4CCC0823B910509F452
:1016E000CBC0833B910509F4CAC0843B910509F442
:1016F000C9C0853B910509F4C8C0863B910509F432
:10170000C7C0873B910509F4C6C0883B910509F421
:10171000C5C0893B910509F4C4C08D3B910509F40E
:10172000C3C08E3B910509F4C2C08A3B910509F400
:10173000C1C0C0E0D4E4C0C0CE019F700E94650A61
:10174000EC01BAC0CE019927D3FF03C0EC01D86CDD
:10175000B3C0EC01D06CB0C0DF70D06AADC0837094
:1017600021E030E002C0220F331F8A95E2F73C6887
:10177000CE0174E0969587957A95E1F78370382BC2
:10178000CF70C695C69580E2C89FE0011124C22B98
:10179000D32B92C04C2F4695469590E2499FA001CD
:1017A0001124C370DD2721E030E0C90102C0880F99
:1017B000991FCA95E2F7EC01C42BD52BDC687CC0DD
:1017C0004C2F4695469580E2489FA0011124C37096
:1017D000DD2721E030E0C90102C0880F991FCA95BA
:1017E000E2F7EC01C42BD52BDA6866C0DC2FCC27DE
:1017F000C46FD06A61C0DC2FCC27C06FD06A5CC0D8
:10180000C0E0D4ED59C0C0E0D5ED56C0C0E0D1ED88
:1018100053C0C0E0D0ED50C0C0E0D3ED4DC0C0E03B
:10182000D0E04AC0C1E8D0E447C0C3E8D0E444C037
:10183000C2EED4E441C0C9EED4E43EC0CAEED4E462
:101840003BC0C5EBD4E438C0C6EBD4E435C0C3EB31
:10185000D4E432C0C4EBD4E42FC0C7EBD4E42CC032
:10186000CCECD4E429C0CDECD4E426C0C3E8D5E464
:1018700023C0CAE8D5E420C0C2E9D5E41DC0C4E94C
:10188000D5E41AC0C1E2D6E417C0C3E2D6E414C05E
:10189000C4E2D6E411C0C5E2D6E40EC0C6E2D6E486
:1018A0000BC0C7E2D6E408C0CFE6D4E405C0C0E769
:1018B000D4E402C0CAE2D6E4CE01DF91CF9108950C
:1018C0008238910549F1B0F48133910509F458C08B
:1018D00048F48932910509F44EC08A32910509F421
:1018E00054C008958533910509F440C089339105AA
:1018F00099F00895833E910529F138F4803E9105D1
:1019000091F0823E9105A1F00895863E9105F9F08F
:10191000873E910531F1089520917A0220FD3AC069
:1019200021FD38C0089580917A0280FD35C032C013
:1019300080917A0282FF32C080917A0284FD30C0A9
:1019400083EE39C080917A0282FD28C0F5CF809164
:101950007A0283FF27C080917A0284FD21C087EE3E
:101960002AC080917A0283FD1DC0F5CF80917A0252
:1019700085FD1AC01BC080917A0285FD17C014C076
:1019800080917A0286FD14C015C080917A0286FD8E
:1019900011C00EC080EE0FC089E30DC082EE0BC0F7
:1019A00080E009C086EE07C089E205C085E303C078
:1019B0008AE201C081E390E0089590917A0292FF5B
:1019C0000DC0282F2871283019F4877F846006C045
:1019D000282F2471243011F48B7F886093FF0DC071
:1019E000282F2871283119F4877E846106C0282F9A
:1019F0002471243111F48B7E886194FD877E0895D3
:101A0000CF93DF93813020E8920768F0FB012281B9
:101A1000222349F0EC010E94560DCE019F770E94CF
:101A2000A20D0E948B0D81E0DF91CF9108958CE093
:101A300090E00E94C32A90E0A0E0B0E080937002A2
:101A400090937102A0937202B093730280913D0251
:101A500080FF0EC0809170021F928F9387EC93E0FD
:101A60009F938F930E947F040F900F900F900F9081
:101A70000895609170028CE090E00C94D12A8093DC
:101A800070020E94390D80913D0280FF0EC080914E
:101A900070021F928F9388EA93E09F938F930E9426
:101AA0007F040F900F900F900F9008950E94E819F7
:101AB00080938C010E94FB1980917002813071F03B
:101AC00048F08230D9F08430F9F486EE0E9451114A
:101AD00088E118C082EE0E94CB0F16C080EE0E94F3
:101AE000CB0F81EE0E94CB0F88E10E94511181EE55
:101AF0000E94E91080EE0E94E91006C082EE0E946A
:101B0000CB0F87E50E9451118FE39CE90197F1F714
:101B100000C00000089580917002813039F040F0DB
:101B2000823031F0843051F488E206C08CE204C087
:101B300082EE0E94E91002C00E94511180918C0136
:101B40000C94F8190F931F93CF93DF938C01CCE083
:101B5000D0E0C8010C2E02C0969587950A94E2F752
:101B60008F700E94B1080E9451112497CC3F8FEFD3
:101B7000D80779F7DF91CF911F910F9108950F93B7
:101B80001F93CF93DF93EC018B01FB0182818823AC
:101B900001F1C33EFCE5DF07B9F050F4C13EECE5CE
:101BA000DE0781F0C23EFCE5DF0799F481E00FC05B
:101BB000C43E8CE5D80751F0C53EECE5DE0749F49C
:101BC00084E005C080E003C082E001C083E00E94A1
:101BD0003F0DB801CE01DF91CF911F910F910C9471
:101BE000000D90939201809391010895E0919101ED
:101BF000F0919201309721F00190F081E02D09944D
:101C000080E00895EF92FF921F93CF93DF93FC0142
:101C1000A0919101B0919201109709F442C0809176
:101C20001101882341F080917A0287FF04C08081EE
:101C3000818385E08083EF011296ED91FC911397EB
:101C4000CE01099580913D0282FF2BC080FF04C028
:101C50008FEE93E00E94E60318E089EEE82E83E021
:101C6000F82E80913D0280FF0BC088811F928F93D8
:101C7000FF92EF920E947F040F900F900F900F90B1
:101C8000115021961111EDCF80913D0280FF09C0C6
:101C900087EE93E0DF91CF911F91FF90EF900C942E
:101CA000E603DF91CF911F91FF90EF900895E091AF
:101CB0009101F0919201309739F022E0DC012C93F0
:101CC0000480F581E02D0994089520918F013091D1
:101CD00090018217930771F09093900180938F0188
:101CE000E0919101F0919201309721F00680F78107
:101CF000E02D0994089520918D0130918E01821775
:101D0000930771F090938E0180938D01E091910182
:101D1000F0919201309721F00084F185E02D099433
:101D2000089585B7806885BF85B7806885BF0895A9
:101D3000089508950C94990E08950C949C0E0E9499
:101D4000910E0E94980E0C949A0E81E008950E94C4
:101D5000901C0E94A4040E94651D0E942C210C94DA
:101D60009D0ECF93C82F80913D0282FF1EC080FF41
:101D700004C088E094E00E94E60380913D0280FF69
:101D80000CC01F92CF9383E094E09F938F930E94A7
:101D90007F040F900F900F900F9080913D0280FF75
:101DA00004C081E094E00E94E6038C2FCF910C9454
:101DB000C2084F925F927F928F929F92AF92BF9292
:101DC000CF92DF92EF92FF920F931F93CF93DF9307
:101DD000CDB7DEB72A970FB6F894DEBF0FBECDBFE2
:101DE0000E941D050E94A50E811111C08FEF8983ED
:101DF0008A831B820E94991C8160782F9D838C832B
:101E000049815A816B818D810E94970F57C094E957
:101E1000C92E91E0D92E00E010E0AA24A394B12CA1
:101E2000702E802F0E94B9054C01F601419051900F
:101E30006F01482659264114510431F40F5F1F4F9A
:101E40000630110569F7D2CF80913D0281FD0E94D5
:101E5000C20520E030E07501022E02C0EE0CFF1C2E
:101E60000A94E2F7C70184219521892B09F12E8379
:101E70007F828E209F2091E0892809F490E0988746
:101E80000E94991C8160782F9A8789874E815F8193
:101E900068858A850E94970F000F111FF801EC5684
:101EA000FE4F80819181E826F926F182E08206C00A
:101EB0002F5F3F4F2E30310571F6C0CF0E94922028
:101EC000109193010E94F60D1817D9F00E94F60D9B
:101ED000809393012A960FB6F894DEBF0FBECDBF54
:101EE000DF91CF911F910F91FF90EF90DF90CF90F6
:101EF000BF90AF909F908F907F905F904F900C9489
:101F0000B10E2A960FB6F894DEBF0FBECDBFDF919B
:101F1000CF911F910F91FF90EF90DF90CF90BF90E6
:101F2000AF909F908F907F905F904F900895CF9348
:101F3000DF93CDB7DEB72B970FB6F894DEBF0FBE99
:101F4000CDBF4F83588769877A878B87DE011196CB
:101F500086E0FD0111928A95E9F785E0FE0137964A
:101F600001900D928A95E1F749815A816B817C81BC
:101F70008D819E810E94DD162B960FB6F894DEBFF0
:101F80000FBECDBFDF91CF910895FC01808191817B
:101F90000E94A9190895882309F41AC18238C1F44E
:101FA0000E94F60D81FD14C169E3809100019091BA
:101FB00001010E94E61B0E94371A2FEF81EE94E088
:101FC000215080409040E1F700C0000069E319C053
:101FD0008338F9F40E94F60D80FDFAC063E5809124
:101FE0000001909101010E94E61B0E94371A2FEF19
:101FF00081EE94E0215080409040E1F700C0000065
:1020000063E580910001909101010E94F11B0C9405
:10201000371A8438C1F40E94F60D82FDD9C067E4F6
:1020200080910001909101010E94E61B0E94371AE5
:102030002FEF81EE94E0215080409040E1F700C006
:10204000000067E4DECF9CEF980F913A40F4682FD0
:1020500080910001909101010E94E61BD8CF90E28F
:10206000980F983050F4877091E001C0990F8A95CD
:10207000EAF7892F0E94EB19CACF9BE5980F93309E
:1020800070F4853A29F0863A31F083E890E005C093
:1020900081E890E002C082E890E00C94650E98E53B
:1020A000980F973108F08EC0883A09F445C0893AF4
:1020B00009F445C08A3A09F445C08B3A09F445C091
:1020C0008C3A09F445C08B3B09F445C08C3B09F4BC
:1020D00045C08D3A09F445C0803B09F445C08E3AAD
:1020E00009F445C08F3A09F445C0813B09F445C065
:1020F000823B09F445C0833B09F445C0843B09F4A5
:1021000045C0853B09F445C0863B09F445C0873B83
:1021100009F445C0883B09F445C0893B09F445C032
:102120008D3B09F445C08E3B09F445C08A3B09F458
:1021300045C080E090E044C082EE90E041C089EE6E
:1021400090E03EC08AEE90E03BC085EB90E038C066
:1021500086EB90E035C083EB90E032C084EB90E0FA
:102160002FC087EB90E02CC08CEC90E029C08DEC68
:1021700090E026C083E891E023C08AE891E020C087
:1021800082E991E01DC084E991E01AC081E292E009
:1021900017C083E292E014C084E292E011C085E2AD
:1021A00092E00EC086E292E00BC087E292E008C0A7
:1021B0008FE690E005C080E790E002C08AE292E0FE
:1021C0000C947B0E803F20F00E94181F0C94052079
:1021D0000895882309F464C0823879F40E94F60DCA
:1021E00081FF5EC069E380910001909101010E942E
:1021F000E61B0E94371A69E310C08338B1F40E94CD
:10220000F60D80FF4DC063E58091000190910101C2
:102210000E94E61B0E94371A63E5809100019091AD
:1022200001010E94F11B0C94371A843879F40E9442
:10223000F60D82FF35C067E48091000190910101A5
:102240000E94E61B0E94371A67E4E7CF9CEF980FC5
:10225000913A10F4682FE1CF90E2980F983050F443
:10226000877091E001C0990F8A95EAF7892F0E9443
:10227000F119D9CF9BE5980F933020F480E090E0DE
:102280000C94650E98E5980F973120F480E090E06B
:102290000C947B0E803F20F00E94801F0C94052040
:1022A0000895CF93C82F0E94CB0F8C2FCF910C9401
:1022B000E910882321F00E94EB190C94371A089535
:1022C000882321F00E94F1190C94371A08958F92F7
:1022D0009F92AF92BF92DF92EF92FF920F931F9364
:1022E000CF93DF937C01D62FC72FFC010581029588
:1022F0000F70128111110E940B1A0E94E11988239C
:1023000079F0112369F080E28D0F883048F082E087
:102310000E94821A0E94E11991E0D82ED92601C0AC
:10232000D12CAC2EA2948FE0A822B12CF501E85953
:10233000FF4F0C94A32A8C2F807FCF70882311F03D
:10234000C295C07F112399F0CC2309F4C8C180E263
:102350008D0F883010F0D11104C08C2F0E94EB1922
:1023600003C08C2F0E94FE190E94371AB8C18D2F0E
:102370000E94E910CC2309F4FBC180E28D0F883064
:1023800010F0D11104C08C2F0E94F11903C08C2FC2
:102390000E94041A0E94371AEBC18C2F807FCF70E5
:1023A000803211F0C295C07FDD2319F0D130C9F021
:1023B00021C0112371F0002341F0013031F40E945B
:1023C0001E1A8C2B0E94241AD3C10E941E1A8C2B19
:1023D0003FC1002319F0013009F4CAC10E942D1A2F
:1023E00011C0112321F0023008F0C2C107C0011151
:1023F000BFC108C0112321F0011171C18C2F28C168
:1024000001117EC18C2F2AC18C2F869586958370F1
:1024100090E0009719F0019761F0AAC1112321F013
:102420008D2F9C2F937002C080E090E00E94650E7B
:10243000AFC1112321F08D2F9C2F937002C080E03B
:1024400090E00E947B0EA4C11123F9F0D53F51F01A
:10245000D63F71F0D43FA9F4809174029091750237
:1024600081600BC08091740290917502826005C0FA
:1024700080917402909175028460909375028093AC
:1024800074028D2F0E94181F1EC0D53F51F0D63FF9
:1024900071F0D43FA9F480917402909175028E7FFF
:1024A0000BC080917402909175028D7F05C0809160
:1024B0007402909175028B7F9093750280937402E1
:1024C0008D2F0E94801F0E94052062C18C2F837077
:1024D00009F050C0111158C18D2F829586958770D3
:1024E000880F880F9D2F9F70892E912CA12CB12CC5
:1024F000082E04C0880C991CAA1CBB1C0A94D2F795
:10250000D4FF14C00FE010E020E030E0B901A801D2
:1025100004C0440F551F661F771F8A95D2F7CB0161
:10252000BA01609570958095909503C060E070E069
:10253000CB01C695C695C370D0E0C230D10561F01D
:10254000C330D10581F0682979298A299B292197EF
:1025500071F00E94221818C1682979298A299B29BB
:102560000E94341811C10E942218C501B4010E94B2
:1025700010180AC1112319F08C2F817001C08695A3
:10258000882309F401C18D2F829586958770880F65
:10259000880F9D2F9F70892E912CA12CB12C082E75
:1025A00004C0880C991CAA1CBB1C0A94D2F7D4FF47
:1025B00014C00FE010E020E030E0B901A80104C031
:1025C000440F551F661F771F8A95D2F7CB01BA01BA
:1025D000609570958095909503C060E070E0CB01A8
:1025E000C695C695C3704C2F50E04230510569F036
:1025F0004330510589F0682979298A299B2941307E
:10260000510571F00E94E818BFC0682979298A290C
:102610009B290E94FA18B8C00E94E818C501B401AD
:102620000E94D618B1C08D2F90E0FC01E05EF10948
:10263000E531F10508F04FC0E858FF4F0C94A32A8C
:10264000DF708C2F8F71112331F00E946F188D2F46
:102650000E9459118DC00E9490188D2F0E94601108
:1026600087C0112339F0011183C08C2F8F710E9414
:10267000B5187EC0023008F07BC0F7CF112339F0C7
:102680008C2F8F710E946F1873C01123C9F38C2F88
:102690008F710E9490186CC0112329F08C2F8F71BC
:1026A0000E945A1865C00E94551862C0112349F053
:1026B000CF718C2F0E946F1863E08C2F0E946D1ACF
:1026C00057C081E00E94821A023008F451C082E0B3
:1026D0000E94821A4DC0112331F0002389F28D2F00
:1026E0000E94CB0F45C0002391F2D93349F45FEF2C
:1026F00067EE73E0515060407040E1F700C00000A9
:102700008D2F0E94E91034C04C2F4F706D2FC701E0
:102710000E944F0A0E9481173BC0111139C0CF702F
:10272000D0E0C230D10599F03CF4209769F02197B0
:10273000F9F40E9479212CC0C430D10571F054F015
:102740002597B1F480E00AC00E94492121C00E946F
:10275000E3211EC00E94FF211BC083E00E9435229E
:1027600017C04C2F4F706D2FC7010E94520A10C026
:1027700088E0A816B10441F05CF0EAE0AE1AB108B6
:10278000F2E0AF16B10420F40E94F60D0E94C208D8
:10279000DD20E1F00E94DD1980FD18C0F7011282F2
:1027A0000E94D7190E946F18C7010E94F2130E945D
:1027B000D719DF91CF911F910F91FF90EF90DF908C
:1027C000BF90AF909F908F900C949018DF91CF9115
:1027D0001F910F91FF90EF90DF90BF90AF909F906F
:1027E0008F9008950F931F93CF93DF93EC0188810F
:1027F00099812B813C81232BB9F09F3F11F48F3FAE
:1028000099F0CE010E94D408882371F06881798103
:102810008A810E94B4198C010E940C190E940D1823
:10282000B801CE010E946711DF91CF911F910F91E6
:1028300008950E940B1A0E941B1A0E94371A0E94C8
:1028400020210E94052080E090E00E94650E80E03B
:1028500090E00C947B0E80910001909101010E9408
:10286000FC1B0C9419140E94FB190C942B14E92FD7
:10287000E295EF70F0E03297EE30F105B0F4E357F7
:10288000FF4F0C94A32A803F91F018F4803E68F427
:102890000EC0843F51F40BC0803E48F0813F29F4C4
:1028A00006C093FB882780F9089580E0089581E0B1
:1028B00008950E94A9190E9437140895CF93DF93B9
:1028C00000D000D01F92CDB7DEB70F900F900F90C1
:1028D0000F900F90DF91CF910895CF93DF9300D0A9
:1028E00000D000D0CDB7DEB726960FB6F894DEBF85
:1028F0000FBECDBFDF91CF9108951F93CF93DF938C
:10290000C091A10116E08091A201C81799F0D0E012
:102910001C9FF0011D9FF00D1124ED55FE4F4081CD
:10292000518162817381848195810E946D14219609
:10293000C770E9CFDF91CF911F9108954091D301E6
:102940005091D4016091D5017091D6018091D70149
:102950009091D8010C946D148091D80182958F705C
:1029600009F054C08091D501882309F44FC08091AB
:10297000A101A091A2016091D3017091D401409175
:10298000D6015091D701B6E08A1709F43FC090E014
:1029900041155105C1F17F3F11F46F3FA1F1B89F7F
:1029A000F001B99FF00D1124ED55FE4F21817213F6
:1029B0002AC02081621327C02281211124C02381D3
:1029C00034812417350710F421503109241B350BAD
:1029D000283C3105C0F42091D8012F70206120934C
:1029E000D80126E0289FF001299FF00D1124E85519
:1029F000FE4F80818F708061808383ED91E00E9423
:102A0000F2130C947D1401968770BECF0895CF9277
:102A1000DF92EF92FF920F931F93CF93DF93CDB787
:102A2000DEB762970FB6F894DEBF0FBECDBF8C0144
:102A300085E0F801DE011D9601900D928A95E1F77F
:102A4000D8014C9111965C91119712966C91129746
:102A50001396CD90DC9014973091D3017091D401EE
:102A60008091D6019091D701009709F46BC17F3F07
:102A700019F43F3F09F466C1E090D501EE2009F456
:102A8000C0C02091D801C816D90628F0F601E81B6D
:102A9000F90BCF0104C0809590958C0D9D1DFF24EE
:102AA000F394883C910578F0F12C207F09F0C6C0A2
:102AB0007C2DD98AC88A89890E945E1483ED91E0B1
:102AC0000E94F213B1C0822F807F09F046C07513B7
:102AD00014C0341312C0611110C02F7020612093F4
:102AE000D8010E949E1483ED91E00E94F213809120
:102AF000D801D80115968C932EC0CD2819F15F3FCF
:102B000011F44F3FF9F0F62E61111CC08091A10124
:102B10002091A20136E0821709F45AC090E0389F54
:102B2000F001399FF00D1124ED55FE4F71815713BF
:102B300006C07081471303C07281711103C00196F2
:102B40008770E9CFF62E662309F427C18091D8015A
:102B500081608093D801F12C20C1751308C0341313
:102B600006C0611104C08091D801D801C3C04D874F
:102B70005E878D859E856A8B0E9459146A89882399
:102B8000E1F16623D1F12091D801822F82958F70D7
:102B900090E0029774F08091D3019091D4019887CE
:102BA0008F831986DB86CA862C87CE0107960E9402
:102BB000F21386E0F801A3EDB1E001900D928A9541
:102BC000E1F70E94AC140E949E14FF24F394E5C028
:102BD0004D875E878D859E850E94A919292F229594
:102BE0002F7030E0223031050CF0CBC09F7009F01F
:102BF000C5C0805E883008F4D0C0C8010E94F213BE
:102C0000E4CFC816D90608F453C0F601E81BF90B47
:102C1000CF01883C910508F450C0F12C7C2DD98A55
:102C2000C88A89890E945E14E3EDF1E086E0DF0145
:102C30001D928A95E9F70E949E14AFC0751314C0C7
:102C4000341312C0611110C08091D801F80185833E
:102C5000C8010E94F21386E0E3EDF1E0DF011D926E
:102C60008A95E9F7FE2C99C04D875E878D859E85F4
:102C70006A8B0E9459146A89882309F4BECF66239F
:102C800009F4BBCF2091D801822F82958F7090E0FC
:102C900002970CF48ECF8091D3019091D4019A8346
:102CA00089831B82DD82CC822E83CE0101967FCF69
:102CB000809590958C0D9D1DACCFF62E662309F462
:102CC0009CCF75132EC034132CC02091D80120FD49
:102CD0001FC0822F82958F70D9F0D80115962C9342
:102CE00015978F3049F08F5F982F9295907F822FA4
:102CF0008F70892B15968C93C8010E94F21386E081
:102D0000F801A3EDB1E001900D928A95E1F793CF20
:102D100086E0F801A3EDB1E001900D928A95E1F70C
:102D20003CC04D875E878D859E850E945914811118
:102D300040CF8091D80181608093D801C8010E9462
:102D4000F2132BC0662309F458CF4D875E878D851B
:102D50009E850E945914F82E882309F44ECF86E0F0
:102D6000F801A3EDB1E001900D928A95E1F783EDB2
:102D700091E00E94C50F0E94AC145DCF811139CF44
:102D80000CC0243031050CF038CF9F7009F431CFDE
:102D9000F8019581907F09F02CCF8F2D62960FB6A8
:102DA000F894DEBF0FBECDBFDF91CF911F910F9181
:102DB000FF90EF90DF90CF9008951F93CF93DF9314
:102DC000CDB7DEB72C970FB6F894DEBF0FBECDBFE0
:102DD0004F83588769877A878B879C87CE010796B0
:102DE0000E940715882369F08F8198852A853B8585
:102DF000232BF1F19F3F09F063C08F3F09F060C0C2
:102E000037C086E0FE013796DE01119601900D92E3
:102E10008A95E1F76F817885EA85FB85309741F1E6
:102E20007F3F11F46F3F21F12091A20130E0C901F1
:102E30000196877099274091A10150E0841795076A
:102E400009F447C069837A83FD83EC8396E0929FFF
:102E5000D001939FB00D1124AD55BE4FFE013196A8
:102E600001900D929A95E1F78093A2010E947D1442
:102E700016E08091A1019091A2018917C1F1189FDC
:102E8000C00111248D559E4F0E940715882379F1AA
:102E9000E091A1011E9FF0011124ED55FE4F4081EC
:102EA000518162817381848195810E946D1480912A
:102EB000A10190E00196877099278093A101D9CF55
:102EC0004F81588569857A858B859C850E946D1414
:102ED000CFCF0E9433141092A2011092A101E3ED12
:102EE000F1E086E0DF011D928A95E9F7C1CF2C96CB
:102EF0000FB6F894DEBF0FBECDBFDF91CF911F910B
:102F00000895EF92FF920F931F93CF93DF938C015D
:102F1000892B09F46CC0F12CEE24E394E80121968E
:102F2000F8018491843740F4843008F051C0813036
:102F300081F0823019F15BC0853709F444C0A8F1F3
:102F40009CE7980F903708F052C08F770E94E910E5
:102F500041C00E5F1F4FFE01C49180E28C0F88308C
:102F600048F4C7708E2D01C0880FCA95EAF70E94F9
:102F70000E1A14C08C2F0E94CB0F2DC00E5F1F4F56
:102F8000FE01C49180E28C0F883058F4C7708E2DFA
:102F900001C0880FCA95EAF70E94141A0E94371AD6
:102FA0001AC08C2F0E94E91016C00E5F1F4FFE0141
:102FB000C491CC2381F08FE99FE00197F1F700C025
:102FC0000000C150F6CF0E5F1F4FFE01F49003C00A
:102FD0000E94CB0F8E018F2D882309F49FCFEFE93C
:102FE000FFE03197F1F700C000008150F5CFDF918D
:102FF000CF911F910F91FF90EF90089508950C9439
:10300000FE170E94FF1760931402709315028093BD
:103010001602909317020C94191408950C94011839
:103020000F931F9300911402109115022091160224
:1030300030911702602B712B822B932B1F910F91D4
:103040000C9401180F931F93009114021091150214
:10305000209116023091170260237123822393235B
:103060001F910F910C9401180F931F93009114025C
:1030700010911502209116023091170260277127D6
:10308000822793271F910F910C94011808950C9497
:1030900046180E94471860931002709311028093A3
:1030A0001202909313020C94191460E070E0CB01AB
:1030B0000C9449180F931F9341E050E060E070E0DA
:1030C0008A019B0104C0000F111F221F331F8A9524
:1030D000D2F7C901B8011F910F910C9449180F93B1
:1030E0001F9341E050E060E070E004C0440F551FC2
:1030F000661F771F8A95D2F7809110029091110276
:10310000A0911202B09113028A019B01082B192B86
:103110002A2B3B2BC901B8011F910F910C94491820
:103120000F931F9341E050E060E070E004C0440F53
:10313000551F661F771F8A95D2F740955095609569
:1031400070958091100290911102A0911202B0919D
:1031500013028A019B01082319232A233B23C90157
:10316000B8011F910F910C9449180F931F9341E0E0
:1031700050E060E070E004C0440F551F661F771FE9
:103180008A95D2F78091100290911102A0911202BB
:10319000B09113028A019B01082719272A273B2790
:1031A000C901B8011F910F910C9449180F931F93F7
:1031B000009110021091110220911202309113021D
:1031C000602B712B822B932B1F910F910C9449181C
:1031D0000F931F930091100210911102209112027F
:1031E0003091130260237123822393231F910F9147
:1031F0000C9449180F931F93009110021091110223
:1032000020911202309113026027712782279327A1
:103210001F910F910C94491808952EE0929F800DF4
:103220001124A82FA695A695A695877051E001C0F8
:10323000550F8A95EAF785E0A89FD001112420E078
:1032400030E070E0F901EA0FFB1FE752FE4F4081CA
:10325000CB01022E02C0969587950A94E2F7817001
:103260009927819584278523842780832F5F3F4F6B
:103270002530310539F708952EE0929F800D1124F5
:10328000682F669566956695982F977085E0689F7C
:10329000B001112440E050E080E0FA01E60FF71F92
:1032A000E752FE4F208130E0092E02C03695279567
:1032B0000A94E2F721703327042E01C0220F0A94EA
:1032C000EAF7822B4F5F5F4F4530510531F7089584
:1032D000BF92CF92DF92EF92FF920F931F93CF9303
:1032E000DF938C01C0901402D0901502E09016027A
:1032F000F09017028091100290911102A091120299
:10330000B0911302C82AD92AEA2AFB2ACFE1D0E0D9
:10331000D701C6010C2E04C0B695A7959795879541
:103320000A94D2F780FF07C0BC2EB8018C2F0E94F0
:103330006D0A019719F4219758F7B12C8B2DDF9165
:10334000CF911F910F91FF90EF90DF90CF90BF90A2
:103350000895CF93DF93EC010E946819BE010E948B
:103360006D0ADF91CF9108951F93CF93DF93EB0107
:103370009091A001992321F0CB010E94A91913C0BB
:10338000882349F0CB010E946819182F682FCE01BD
:103390000E940D1904C0CB010E943C19182FBE01D8
:1033A000812F0E946D0ADF91CF911F910895809126
:1033B00018028595859585950895809118028770E6
:1033C000089590911802977081E009F480E00895C3
:1033D00080913C02089590913C02892B80933C029D
:1033E0000895809590913C02892380933C02089532
:1033F00080933C02089510923C02089590913B0204
:10340000892B80933B020895809590913B028923FC
:1034100080933B02089510923B02089590913A02E6
:10342000892B80933A020895809590913A028923DE
:1034300080933A02089510923A02089580911902F9
:10344000089508950C94211A90911902981721F06B
:10345000809319020C94221A0895809119028823EE
:1034600029F01092190280E00C94221A0895E0913C
:103470000001F091010180913C028083E091000104
:10348000F0910101908180913B02892B8083E09132
:103490000001F0910101908180913A02892B808393
:1034A00080911902882381F0E0910001F0910101DF
:1034B0009081892B808380910001909101010E946D
:1034C0005F1B81110E942D1A8091000190910101D2
:1034D0000C94020E08950C946A1A98E0899F90014A
:1034E0001124262B209318020E946F188091180235
:1034F0008595859585950C946B1A1092180280E03D
:103500000C946B1A209118028095822380931802E4
:10351000982F977079F430E0482F082E000C550B47
:103520002417350739F08595859585950E94901863
:103530000C947D1A0895909323018093220108959D
:103540008295982F9C7C392F36953695282F23739A
:1035500044E0249FC0011124932F982B292F2A7A0D
:103560002695892F8575880F822B08951F93CF93F9
:10357000DF931F92CDB7DEB799830E94A01A182F50
:103580009981892F0E94A01A212F30E0322F222703
:10359000A901482BCA010F90DF91CF911F91089587
:1035A00080E090E00E94CB2A21E08D3E9E4F09F002
:1035B00020E0822F089582E090E00C94C32A682FC7
:1035C00082E090E00C94D12A83E090E00C94C32A2E
:1035D000682F83E090E00C94D12A84E090E00C9472
:1035E000C32A682F84E090E00C94D12A86E090E012
:1035F0000C94C32A682F86E090E00C94D12AAB018A
:10360000BC018FE090E00C94E32AAB01BC0183E1A4
:1036100090E00C94E32A60E070E0CB010C94051B71
:1036200060E070E0CB010E94FF1A0C940B1B6DEE62
:103630007EEF80E090E00E94EF2A60E082E090E080
:103640000E94D12A60E083E090E00E94D12A10928B
:10365000140210921502109216021092170260E0E6
:1036600084E090E00E94D12A60E085E090E00E9432
:10367000D12A60E086E090E00E94D12A6FEF87E0D7
:1036800090E00E94D12A40E050E0BA0188E090E04A
:103690000E94E32A60E08DE090E00E94D12A40E0A1
:1036A00050E0BA0188E190E00E94E32A60E087E1FF
:1036B00090E00E94D12A0C94101B0C94171BFC0163
:1036C000329680911101882331F080917A0287FF30
:1036D00002C09EE101C096E080E0915028F0219167
:1036E0002223D9F38F5FF9CF08959C01FC01329614
:1036F0009FEF80E04191461789F09F3F19F44111F7
:1037000001C0982F8F5F8630A9F79F3F39F0F901EC
:10371000E90FF11D97FDFA95628308950895FC0164
:10372000329608962081261301C010823196E81740
:10373000F907C1F70895262F2695269526952E314F
:1037400070F4FC01E20FF11D677021E030E001C070
:10375000220F6A95EAF78281282B228308958091AF
:103760003D0280FF0CC01F926F9389E394E09F930A
:103770008F930E947F040F900F900F900F900895E9
:10378000262F2695269526952E3178F4FC01E20FFA
:10379000F11D677021E030E001C0220F6A95EAF761
:1037A0002095828128232283089580913D0280FF05
:1037B0000CC01F926F938BE194E09F938F930E94B4
:1037C0007F040F900F900F900F900895209111019A
:1037D000222329F020917A0227FD0C949B1B0C9444
:1037E000751B20911101222329F020917A0227FDD7
:1037F0000C94C01B0C948F1B20911101FC0132967C
:10380000222331F080917A0287FF02C08EE101C04D
:1038100086E0DF011D928A95E9F7089508950C94DA
:103820000E1C0E940F1C80918102843061F1109265
:103830003E0220E488E190E00FB6F894A8958093CA
:1038400060000FBE2093600080E00E94370880E097
:103850000E94C2080E940F1C83B7817F846083BFCF
:1038600083B7816083BF7894889583B78E7F83BF49
:103870000FB6F894A89580916000886180936000ED
:10388000109260000FBE08950895CF930E94C30464
:103890000E941D050E94441CC0E08C2F0E94B905A7
:1038A000892B29F4CF5FC630C1F780E001C081E0E9
:1038B000CF91089508950C945A1C0E9433140E94CD
:1038C0002C210E94F60D0E94C2080C945B1C1F92D2
:1038D0000F920FB60F9211248F939F93AF93BF93C4
:1038E00080913E02811113C08091760290917702FF
:1038F000A0917802B09179024196A11DB11D8093EB
:10390000760290937702A0937802B0937902BF91E8
:10391000AF919F918F910F900FBE0F901F901895B0
:1039200082E084BD93E095BD9AEF97BD80936E00D1
:1039300008952FB7F8948091760290917702A09124
:103940007802B09179022FBF0895CF92DF92EF9263
:10395000FF920F931F932FB7F894409176025091E6
:10396000770260917802709179022FBF6A017B0122
:10397000EE24FF248C0120E030E0C016D106E206E0
:10398000F30610F4415051099A01281B390BC90163
:103990001F910F91FF90EF90DF90CF900895789452
:1039A0001F920F920FB60F9211248F939F93AF9394
:1039B000BF938091760290917702A0917802B091A6
:1039C00079020196A11DB11D809376029093770232
:1039D000A0937802B0937902BF91AF919F918F919C
:1039E0000F900FBE0F901F90189581E08093E0001C
:1039F00080E28093D8001092C9008FE19EE4019785
:103A0000F1F700C0000087E090EBDC0180938A02B0
:103A100090938B02A0938C02B0938D029CE088E17E
:103A20000FB6F894A895809360000FBE9093600045
:103A3000FFCFAF92BF92CF92DF92EF92FF920F93A0
:103A40001F93CF93C0E0CC24C394D12CE82EF12C4B
:103A50008C2F0E94B9055C0100E010E09601002E59
:103A600002C0220F331F0A94E2F72A213B21232BA5
:103A700031F40F5F1F4F0E30110581F70AC0602F20
:103A80007C2F80E00E94530AE816F90691F781E046
:103A900004C0CF5FC630E1F680E0CF911F910F9157
:103AA000FF90EF90DF90CF90BF90AF900895CF93AD
:103AB000C82F8CE20E94191D882321F08C2FCF91F2
:103AC0000C94191D80E0CF910895CF930E94D01AD5
:103AD000811102C00E945D1B8EE594E00E94E60306
:103AE000C5E6C15049F00E941D058FE39CE901978E
:103AF000F1F700C00000F5CF87E594E00E94E603EF
:103B000089E20E94571D81110FC18AE20E94571D50
:103B100081110E945D1B85E00E94571D81110E944A
:103B2000F51C0E94DB1A80933D0287E00E94571D1E
:103B30008823A9F18BE10E94571D882351F08091C1
:103B40003D0281FB222720F991E0922790FB81F929
:103B50000EC08EE00E94571D882361F080913D02C7
:103B600082FB222720F991E0922790FB82F9809333
:103B70003D0215C080E10E94571D90913D028823AF
:103B800041F093FB222720F981E0822780FB93F903
:103B900004C0892F809580FB90F990933D0280911D
:103BA0003D020E94DF1A0E94ED1A90E090937B0282
:103BB00080937A0280EE0E94571D882341F0809105
:103BC0007A02982F909590FB80F980937A0289E38E
:103BD0000E94571D882359F080917A0281FB222789
:103BE00020F991E0922790FB81F980937A0282EE8E
:103BF0000E94571D882359F080917A0282FB222768
:103C000020F991E0922790FB82F980937A0286EE68
:103C10000E94571D882359F080917A0283FB222746
:103C200020F991E0922790FB83F980937A0283EE4A
:103C30000E94571D882359F080917A0284FB222725
:103C400020F991E0922790FB84F980937A0285E332
:103C50000E94571D882359F080917A0285FB222704
:103C600020F991E0922790FB85F980937A0281E315
:103C70000E94571D882359F080917A0286FB2227E3
:103C800020F991E0922790FB86F980937A0281E1F6
:103C90000E94571D882359F080917A0287FB2227C2
:103CA00020F991E0922790FB87F980937A02809126
:103CB0007A020E94F11A87E20E94571DC82F8EE1F6
:103CC0000E94571D8111C2608FE10E94571D811112
:103CD000C46080E20E94571D8111C86081E20E9489
:103CE000571D8111C06182E20E94571D8111C0627F
:103CF00083E20E94571D8111C06484E20E94571D17
:103D0000882311F0C06802C0CC2329F08C2F0E94B8
:103D1000E81A6C2F03C00E94E41A682F70E080E05C
:103D200090E0CF910C940E18CF91089580914302AA
:103D300080FF0BC06091050185E0689FB0011124F0
:103D400075956795759567952BC081FF09C0609142
:103D5000050185E0689FB00111247595679520C025
:103D600082FF07C06091050185E0689FB0011124C2
:103D700017C0909142029923D1F0609104019617E7
:103D800088F72091050185E0289F90011124929FDA
:103D9000A001939F500D112470E0CA010E946D2A6A
:103DA0006038710540F46115710539F002C065E0B5
:103DB00070E0862F08958FE7089581E0089580913F
:103DC000430280FF08C06091030170E0759567951C
:103DD0007595679521C081FF06C06091030170E071
:103DE0007595679519C082FF04C06091030170E06A
:103DF00010C0909142029923C1F060910201961780
:103E0000A0F780910301899FC001112470E00E94F6
:103E10006D2A6038710528F46115710521F0862F2F
:103E200008958FE7089581E0089561E070E0F4CF90
:103E3000803F21F40E94961E819504C0813F29F4A1
:103E40000E94961E809347020895823F21F40E94AB
:103E5000961E819504C0833F29F40E94961E80938C
:103E600046020895893F19F40E94DF1E05C08A3F6B
:103E700031F40E94DF1E81958093480208958B3FA4
:103E800021F40E94DF1E819504C08C3F29F40E941A
:103E9000DF1E809349020895843F21F480914502FA
:103EA000816017C0853F21F480914502826011C076
:103EB000863F21F48091450284600BC0873F21F446
:103EC00080914502886005C0883F31F480914502A9
:103ED00080618093450208958D3F21F480914302D3
:103EE00081600BC08E3F21F480914302826005C047
:103EF0008F3F29F4809143028460809343020895A8
:103F0000803F39F48091470287FF6CC010924702CE
:103F100069C0813F29F4809147021816BCF362C042
:103F200090914602823F29F497FF5CC010924602AE
:103F300059C0833F19F41916CCF354C0893F41F49A
:103F40008091480218160CF04DC0109248024AC0E9
:103F50008A3F29F48091480287FF44C0F6CF8B3F07
:103F600039F48091490287FF3DC0109249023AC05E
:103F70008C3F29F4809149021816BCF333C0843F6A
:103F800021F4809145028E7F17C0853F21F48091F6
:103F900045028D7F11C0863F21F4809145028B7FC1
:103FA0000BC0873F21F480914502877F05C0883F81
:103FB00031F4809145028F7E8093450213C08D3F7E
:103FC00021F4809143028E7F0BC08E3F21F48091BB
:103FD00043028D7F05C08F3F29F4809143028B7F80
:103FE000809343028091460281110EC08091470266
:103FF00081110AC080914802811106C08091490256
:10400000811102C010924202089580913D0283FF07
:104010007EC08AE994E00E94E603809145021F92E7
:104020008F9385E994E09F938F930E947F0483E9A7
:1040300094E00E94E60380914602282F082E000C8F
:10404000330B3F938F9380E994E09F938F930E946B
:104050007F048EE894E00E94E60380914702282FB7
:10406000082E000C330B3F938F938BE894E09F93C3
:104070008F930E947F0489E894E00E94E603809178
:104080004802282F082E000C330B3F938F9386E8AD
:1040900094E09F938F930E947F0484E894E00E94B1
:1040A000E60380914902282F082E000C330B3F9322
:1040B0008F9381E894E09F938F930E947F048EE713
:1040C00094E00E94E603809142021F928F938BE757
:1040D00094E09F938F930E947F0489E794E00E946D
:1040E000E603809143021F928F9386E794E09F93AB
:1040F0008F930E947F0483E794E00E94E6038DB7CC
:104100009EB74C960FB6F8949EBF0FBE8DBF84E449
:1041100092E00E94570E0E94991C90934102809356
:10412000400208951F93CF93DF93809140029091B6
:1041300041020E94A51CAC0190914202992321F0FA
:104140002091060130E006C020913F028AE0289FBE
:10415000900111244217530708F46EC08091460263
:10416000C0914702D091480210914902811107C0C5
:10417000C1115EC0D1115CC011115AC05DC09F3F1A
:1041800019F09F5F90934202181624F40E94961E25
:10419000809346028091460287FF05C00E94961ECA
:1041A0008195809346021C1624F40E94961E8093EB
:1041B00047028091470287FF05C00E94961E8195A5
:1041C0008093470240914602442379F030914702A0
:1041D000332359F025EB4203A001112450934602EA
:1041E0003203C0011124909347021D1624F40E944B
:1041F000DF1E809348028091480287FF05C00E941D
:10420000DF1E819580934802111624F40E94DF1E60
:10421000809349028091490287FF05C00E94DF1EFA
:10422000819580934902DF91CF911F910C940520D5
:104230009F3F09F0A6CFAECFDF91CF911F91089598
:10424000E4E4F2E086E0DF011D928A95E9F710923E
:1042500042021092430208950E94D01A811102C0B6
:104260000E945D1B0E94F61A80937C02282F2695DF
:1042700030E02430310524F08170866080937C0228
:1042800080917C0280FF02C0869501C080E00C9482
:10429000370820917C02822F8695482F50E04330CA
:1042A000510544F48F5F982F990F822F8170892BCD
:1042B00080937C0280917C02816080937C020E94CA
:1042C000FA1A80913D0280FF0FC080917C02869592
:1042D0001F928F9384E295E09F938F930E947F04B7
:1042E0000F900F900F900F9080917C0286950C9408
:1042F000370880917C02982F969591F09158990FEC
:104300008170892B80937C028E7F91E009F490E08C
:1043100080917C0290FB80F980937C020E94FA1AC3
:1043200080913D0280FF0FC080917C0286951F9294
:104330008F938CE095E09F938F930E947F040F9062
:104340000F900F900F9080917C0286950C94370807
:1043500080917C0280FD1DC0816080937C02813051
:1043600019F483E080937C0280917C020E94FA1A07
:1043700080913D0280FF08C084EE94E09F938F936C
:104380000E947F040F900F9080917C0286950C9480
:104390003708089580917C0280FF14C08E7F80933F
:1043A0007C020E94FA1A80913D0280FF08C081EDD4
:1043B00094E09F938F930E947F040F900F9080E072
:1043C0000C9437080895CF93C0917C02C1708091FE
:1043D0003D0280FF0CC01F92CF9386EF94E09F9325
:1043E0008F930E947F040F900F900F900F90CC231B
:1043F00019F0CF910C94CA21CF910C94A8219091DF
:104400007C02892F86958F5F8F779170843028F496
:10441000880F892B80937C0202C090937C0280914C
:104420007C028E7F91E009F490E080917C0290FB09
:1044300080F980937C020E94FA1A80913D0280FFED
:104440000FC080917C0286951F928F938DEB94E034
:104450009F938F930E947F040F900F900F900F9067
:1044600080917C0286950C943708843008F083E0B4
:10447000880F90917C029170892B80937C028E7FB3
:1044800091E009F490E080917C0290FB80F98093A8
:104490007C020E94FA1A80917C0286950C9437085F
:1044A00080916D0208959FB7F89410924C029FBFBF
:1044B00090918102943009F057C09091E9009F706B
:1044C0003091EC00232F217030FD20E8922B23E067
:1044D0002093E9002091EB0020FF43C02091EE00E3
:1044E00027FF3FC020914A02222321F02091E800BB
:1044F00025FF37C010924A0226E03091E80035FDD2
:1045000015C030918102343061F53091EB0035FDFA
:1045100028C0215021F481E080934A0222C0EFE9B3
:10452000FFE03197F1F700C00000E7CF8093F10082
:104530008091E80085FD0AC08091E80080FFFCCFF3
:104540008091E8008E778093E80006C08FB7F894DA
:1045500021E020934C028FBF9F709093E90080E090
:1045600008959F709093E9008FEF08950F931F9324
:10457000CF93DF9300D01F92CDB7DEB78C010E949E
:104580008525823011F0843021F584E089831B83F6
:104590000A8382E08093E9008FEF9091E8008150D8
:1045A00095FD06C095ED9A95F1F700008111F5CFC4
:1045B0008091E80085FF0DC040E050E063E070E0CE
:1045C000CE0101960E94A2258091E8008E7780930B
:1045D000E8000F900F900F90DF91CF911F910F91F6
:1045E0000895CF93DF9300D01F92CDB7DEB720910F
:1045F0008102243031F523E02983805891099B837F
:104600008A8382E08093E9008FEF9091E8008150E7
:1046100095FD06C095ED9A95F1F700008111F5CF53
:104620008091E80085FF0DC040E050E063E070E05D
:10463000CE0101960E94A2258091E8008E7780939A
:10464000E8000F900F900F90DF91CF910895CF93D6
:10465000DF93EC010E948525823011F08430F9F45B
:1046600082E08093E9009FEF8091E800915085FD02
:1046700006C085ED8A95F1F700009111F5CF809184
:10468000E80085FF0CC040E050E066E070E0CE013D
:104690000E94A2258091E8008E778093E800DF9148
:1046A000CF910895CF93DF93EC010E94852582304E
:1046B00011F08430D9F580911101882339F080916F
:1046C0007A0287FF03C060E282E002C068E081E016
:1046D0008093E9008FEF9091E800815095FD06C02E
:1046E00095ED9A95F1F700008111F5CF8091E800E2
:1046F00085FF1CC080911101811105C040E050E090
:1047000068E070E003C070E040E050E0CE010E943D
:10471000A2258091E8008E778093E80080E2FE0178
:10472000ADE4B2E001900D928A95E1F7DF91CF916F
:10473000089581E695E00E94E60380918002811150
:1047400009C00E9437270E9494278091E20084606C
:104750008093E20008958DE595E00E94E6031092B3
:104760008002089589E595E00C94E60385E595E0DF
:104770000C94E60381E595E00E94E6030C945D1C31
:1047800020914B022F5F822F62E30E944D2A9923D2
:1047900019F020934B02089510924B0280914C0225
:1047A000882371F180918102843041F58091E90084
:1047B0008F702091EC00922F917020FD90E8892B52
:1047C00093E09093E9009091EB0090FF14C09091DA
:1047D000EE0097FF10C09091E80095FF03C0109283
:1047E000F100F9CF9091E80090FF05C09091E800AA
:1047F0009E779093E8008F708093E90010924C02AE
:10480000089542E061EC81E00E94B12642E261EC51
:1048100082E00E94B12642E261EC83E00C94B12672
:1048200080918302833009F460C030F4813071F0EC
:10483000823009F499C008958A3009F485C08B301C
:1048400009F46BC0893009F0A7C020C080918202B2
:10485000813A09F0A1C08091E800877F8093E80049
:104860008091860290918702892B21F460E28DE489
:1048700092E003C060E080E090E070E00E94ED25EF
:104880008091E8008B778093E80008958091820200
:10489000813209F081C0809186029091870202974F
:1048A00008F07AC08091E800877F8093E8008091CB
:1048B000E80082FD05C0809181028111F8CF6CC0B3
:1048C0002091F3008091F20090E0922B029729F45E
:1048D0008091F1008B7F813021F48091F1008093F1
:1048E0006D028091E8008B7753C080918202813AFB
:1048F00009F052C08091860290918702892B09F0BD
:104900004BC08091E800877F8093E8008091E800A9
:1049100080FFFCCF8091110136C0809182028132EC
:10492000D9F58091860290918702892BA9F5809113
:10493000E800877F8093E8000E94E6268091840249
:10494000809311010C94331480918202813221F5FD
:104950008091E800877F8093E8000E94E62680919E
:10496000850280936E02089580918202813AA1F4BB
:104970008091E800877F8093E8008091E80080FFC5
:10498000FCCF80916E028093F1008091E8008E77D9
:104990008093E8000C94E626089584B7877F84BF4F
:1049A0000FB6F894A89580916000886180936000AC
:1049B000109260000FBE80E8809361001092610049
:1049C0000E949F0E0E9437270E9494278091E20048
:1049D00084608093E20083E592E20E949B1A7894BF
:1049E0000E94222A0E94A70E87E091E00E94F10D0A
:1049F00080E495E00E94E60380918102853089F48D
:104A00008CE395E00E94E6030E94111C80917F02D6
:104A1000882391F30E94451C882371F30E948C2502
:104A2000EBCF0E94D90EE8CF0C941625292F3327FF
:104A300023303105C9F064F42130310581F0223092
:104A4000310509F049C08BE590E023E935E048C025
:104A50002132310521F12232310571F13DC082E16F
:104A600090E02EEE35E03CC099278130910571F041
:104A70002CF4892B89F5EFE8F5E00DC08230910523
:104A800041F0039749F5E5E6F5E005C0EBE7F5E011
:104A900002C0EBE6F5E0849190E09F0121C0633015
:104AA0007105D0F4660F771FFB01E55EFE4F208194
:104AB000318189E090E014C06330710568F4FB0136
:104AC000EE0FFF1FEB5EFE4F20813181FB01EE5E9A
:104AD000FE4F808190E004C080E090E020E030E074
:104AE000FA013183208308950895CF93C82F0E943F
:104AF0007425C0936F02CF91089580918102843014
:104B000011F081E0089582E0089580916F02811193
:104B100002C00C947D25089580E189BD82E189BDA4
:104B200009B400FEFDCF8091D8008F7D8093D8001E
:104B30008091E00082608093E0008091E00081FD40
:104B4000FCCF0895CF92DF92EF92FF920F931F93C5
:104B5000CF93DF93EC018B016A010E94052781113D
:104B600033C0C114D10439F0F60180819181081B52
:104B7000190BC80FD91FE12CF12C0115110519F1E2
:104B80008091E80085FD16C08091E8008E778093C3
:104B9000E800C114D10449F0F60180819181E80E4A
:104BA000F91EF182E08285E00FC00E94052788236C
:104BB00021F30AC089918093F10001501109FFEFA0
:104BC000EF1AFF0ADACF80E0DF91CF911F910F91AA
:104BD000FF90EF90DF90CF90089520918802309160
:104BE00089022617370748F06115710539F42091BD
:104BF000E8002E772093E80001C0B90140E061157C
:104C00007105A9F120918102222309F443C02530C6
:104C100009F442C02091E80023FD40C02091E80043
:104C200022FD32C02091E80020FFE9CF4091F3003F
:104C30002091F20030E0342BFC01CF0161157105A9
:104C400059F02830310540F481918093F100615092
:104C500071092F5F3F4FF1CF41E02830310509F056
:104C600040E02091E8002E772093E800C8CF411162
:104C7000C9CF0AC080918102882361F0853061F03C
:104C80008091E80083FD0AC08091E80082FFF2CFA6
:104C900080E0089582E0089583E0089581E008951A
:104CA00020918802309189022617370748F0611554
:104CB000710539F42091E8002E772093E80001C0B7
:104CC000B901FC0120E06115710591F1809181022B
:104CD000882309F440C0853009F43FC08091E80082
:104CE00083FD3DC08091E80082FD2FC08091E800E7
:104CF00080FFE9CF2091F3008091F20090E0922BA9
:104D00006115710559F08830910540F42491209384
:104D1000F1003196615071090196F2CF21E00897B8
:104D200009F020E08091E8008E778093E800CBCFF7
:104D30002111CCCF0AC080918102882361F0853097
:104D400061F08091E80083FD0AC08091E80082FF55
:104D5000F2CF80E0089582E0089583E0089581E035
:104D60000895982F973058F59093E900981739F0E7
:104D70007091EC002091ED005091F00003C0242FC1
:104D8000762F50E021FF19C03091EB003E7F309329
:104D9000EB003091ED003D7F3093ED003091EB0062
:104DA00031603093EB007093EC002093ED00509352
:104DB000F0002091EE0027FF07C09F5FD3CF8F70D8
:104DC0008093E90081E0089580E008958091820257
:104DD00087FF11C08091E80082FD05C080918102AB
:104DE0008111F8CF11C08091E8008B770BC08091C2
:104DF0008102882349F08091E80080FFF8CF8091FC
:104E0000E8008E778093E80008952091E4003091C7
:104E1000E50095E64091EC00842F817040FF22C0B0
:104E20008091E80080FD1CC080918102882391F070
:104E3000853091F08091EB0085FD10C04091E40039
:104E40005091E5004217530729F39A01915011F749
:104E500084E0089582E0089583E0089581E0089554
:104E600080E008954091E80042FFDECF08950E945F
:104E7000A5270E94AD27E0EEF0E08081816080836D
:104E8000E8EDF0E080818F77808319BCA7EDB0E07A
:104E90008C918E7F8C9380818F7E80831092800294
:104EA00008950F931F93CF93DF930E94A5270E942D
:104EB000AD27C8EDD0E088818F77888388818068AE
:104EC000888388818F7D888319BC1092810210921B
:104ED0007D0210927F0210927E0200EE10E0F80137
:104EE00080818B7F808388818160888342E060E05D
:104EF00080E00E94B126E1EEF0E080818E7F808329
:104F0000E2EEF0E080818160808380818860808330
:104F1000F80180818E7F8083888180618883DF9122
:104F2000CF911F910F910895E8EDF0E080818F7E81
:104F30008083E7EDF0E080818160808384E082BF40
:104F400081E0809380020C945127E8EDF0E08081AD
:104F50008E7F80831092E20008951092DA00109202
:104F6000E10008951F920F920FB60F9211242F9314
:104F70003F934F935F936F937F938F939F93AF93E1
:104F8000BF93EF93FF938091E10082FF0BC080916C
:104F9000E20082FF07C08091E1008B7F8093E100F7
:104FA0000E94C0238091DA0080FF1FC08091D8004A
:104FB00080FF1BC08091DA008E7F8093DA008091A1
:104FC000D90080FF0DC080E189BD82E189BD09B4AF
:104FD00000FEFDCF81E0809381020E94992305C0ED
:104FE00019BC109281020E94AB238091E10080FFE6
:104FF00019C08091E20080FF15C08091E2008E7F91
:105000008093E2008091E20080618093E2008091D1
:10501000D80080628093D80019BC85E0809381021B
:105020000E94B6238091E10084FF30C08091E200AD
:1050300084FF2CC080E189BD82E189BD09B400FEF6
:10504000FDCF8091D8008F7D8093D8008091E100C2
:105050008F7E8093E1008091E2008F7E8093E2005A
:105060008091E20081608093E20080917D0288233C
:1050700011F084E007C08091E30087FD02C081E069
:1050800001C083E0809381020E94BA238091E100F5
:1050900083FF29C08091E20083FF25C08091E10059
:1050A000877F8093E10082E08093810210927D02ED
:1050B0008091E1008E7F8093E1008091E2008E7FFD
:1050C0008093E2008091E20080618093E20042E000
:1050D00060E080E00E94B1268091F00088608093BB
:1050E000F0000E94B223FF91EF91BF91AF919F9189
:1050F0008F917F916F915F914F913F912F910F9081
:105100000FBE0F901F9018951F920F920FB60F921F
:1051100011242F933F934F935F936F937F938F93BC
:105120009F93AF93BF93CF93DF93EF93FF93C09180
:10513000E900CF708091EC00D82FD17080FDD0E8CD
:105140001092E9008091F000877F8093F0007894BE
:105150000E94C8281092E9008091F0008860809336
:10516000F000CD2BCF70C093E900FF91EF91DF915C
:10517000CF91BF91AF919F918F917F916F915F91EF
:105180004F913F912F910F900FBE0F901F90189548
:105190001F93CF93DF93CDB7DEB7AA970FB6F894DE
:1051A000DEBF0FBECDBFE2E8F2E088E08E0F909147
:1051B000F10091938E13FBCF0E9410248091E800A0
:1051C00083FF28C18091820290918302492F50E091
:1051D0004A30510508F01EC1FA01E556FF4F0C9404
:1051E000A32A803821F0823809F014C108C08091C8
:1051F0007E0290917F02992389F082600FC0809196
:1052000086028F70873008F005C18093E900809195
:10521000EB0085FB882780F91092E9009091E80067
:10522000977F9093E8008093F1001092F100D0C036
:10523000282F2D7F09F0EEC0882319F0823061F00D
:10524000E9C080918402813009F0E4C0933009F014
:1052500080E080937F022EC08091840281112AC059
:10526000809186028F702FEF280F263008F0D2C071
:105270008093E9002091EB0020FF1CC0933021F4C3
:105280008091EB00806214C09091EB00906190934C
:10529000EB0021E030E0A90102C0440F551F8A95C0
:1052A000E2F74093EA001092EA008091EB008860F8
:1052B0008093EB001092E9008091E800877F809353
:1052C000E8000E94E626A6C08111A4C010918402C5
:1052D0001F778091E3008078812B8093E300809199
:1052E000E800877F8093E8000E94E6268091E8002E
:1052F00080FFFCCF8091E30080688093E300111170
:1053000002C082E001C083E08093810283C08058A4
:10531000823008F07FC080918402909185028C3D9C
:1053200053E0950779F583E08A838AE289834FB752
:10533000F894DE01139620E03EE051E2E32FF0E026
:1053400050935700E49120FF03C0E295EF703F5F58
:10535000EF708E2F90E0EA3010F0C79601C0C09633
:105360008D939D932F5F243149F74FBF8091E800C3
:10537000877F8093E8006AE270E0CE0101960E9488
:10538000ED2515C06091860270918702AE014F5FD6
:105390005F4F0E941425BC01892BE1F19091E80038
:1053A000977F9093E80089819A810E94502680918E
:1053B000E8008B778093E8002DC0803859F5809104
:1053C000E800877F8093E80080917D028093F10060
:1053D0008091E8008E7773CF81111CC09091840278
:1053E0009230C0F48091E800877F8093E80090932A
:1053F0007D020E94E62680917D02811106C0809187
:10540000E30087FD02C081E001C084E08093810257
:105410000E9401248091E80083FF0AC08091E80087
:10542000877F8093E8008091EB0080628093EB009F
:10543000AA960FB6F894DEBF0FBECDBFDF91CF9115
:105440001F910895CF93809181028823A1F0C0918C
:10545000E900CF709091EC00892F817090FD80E879
:10546000C82B1092E9008091E80083FD0E94C828B3
:10547000CF70C093E900CF910895DB018F939F9384
:105480000E94B82ABF91AF91A29F800D911DA39F4A
:10549000900DB29F900D11240895991B79E004C0DE
:1054A000991F961708F0961B881F7A95C9F7809563
:1054B0000895AA1BBB1B51E107C0AA1FBB1FA6175B
:1054C000B70710F0A61BB70B881F991F5A95A9F7AD
:1054D00080959095BC01CD01089597FB072E16F499
:1054E000009407D077FD09D00E94592A07FC05D007
:1054F0003EF4909581959F4F0895709561957F4FEB
:105500000895A1E21A2EAA1BBB1BFD010DC0AA1F04
:10551000BB1FEE1FFF1FA217B307E407F50720F01C
:10552000A21BB30BE40BF50B661F771F881F991F97
:105530001A9469F760957095809590959B01AC01E0
:10554000BD01CF010895EE0FFF1F0590F491E02DEE
:105550000994A29FB001B39FC001A39F700D811D4C
:105560001124911DB29F700D811D1124911D08956C
:105570000E94A92AA59F900DB49F900DA49F800D15
:10558000911D11240895F999FECF92BD81BDF89A1D
:10559000992780B50895A8E1B0E042E050E00C946E
:1055A000F72A262FF999FECF92BD81BDF89A01976F
:1055B00000B4021639F01FBA20BD0FB6F894FA9A5B
:1055C000F99A0FBE08950396272F0E94D22A0E94AF
:1055D000D12A252F0E94D22A242F0C94D22A019658
:1055E000272F0E94D22A0C94D12ADC01CB01FC0186
:1055F000F999FECF06C0F2BDE1BDF89A319600B42C
:0E5600000D9241505040B8F70895F894FFCF36
:10560E001A0228083C0714502252232723F122B6EF
:10561E00220140C022E20622060006A505BE05D7DD
:02562E00050075
:00000001FF
