:100000000C94B1030C946E150C94F8030C94F80343
:100010000C94F8030C94F8030C94F8030C94F80374
:100020000C94F8030C94F8030C94462D0C94182EA1
:100030000C948D230C94F8030C94F8030C94F8039F
:100040000C94F8030C94F8030C94F8030C94F80344
:100050000C94F8030C94DA230C94F8030C94F80332
:100060000C94F8030C94F8030C94F8030C94F80324
:100070000C94F8030C94F8030C94F8030C94F80314
:100080000C94F8030C94F8030C94F8030C94F80304
:100090000C94F8030C94F8030C94F8030C94F803F4
:1000A0000C94F8030C94F8030C94F8039E10A11020
:1000B000A610AD10B210B710BC10C110C610CB10F6
:1000C000D010D510D710DA10DD10E010E310E610D4
:1000D000E810ED10391939196B196B19B819D619BF
:1000E0002E1B2E1B181AAD1ABE1ABE1A1E1B2E1B53
:1000F0002E1B271BCE1BCE1BE01BE01BD71BE01BC0
:10010000E01BE01BCE1BCE1BDC1BE01BE01BDC1B43
:10011000852EAC2EA42FAC2EA42FF82E1B2FA42F8F
:10012000722F812F35421E001F0020002100220067
:100130002B4214001A000800150017002961040062
:100140001600070009000A00E1001D001B00060060
:10015000190005000351E000E200E30001510151E4
:100160002300240025002600270031001C00180071
:100170000C00120013002A000B000D000E000F00EF
:1001800033003400110010003600370038002872A8
:100190002C002C005000510052004F0000000000C5
:1001A000000000000000000000000000000000004F
:1001B0002602000000000000000000002F022D02B7
:1001C000E1000000000000002F002D000000E00012
:1001D000E200E30001000100000000000000000058
:1001E00000000000000027020000000000000000E6
:1001F0002E00300200000000000000002E0230003F
:100200000000AE000000E50005510551AC00AA0059
:10021000A900AB0035071E071F072007210722078B
:10022000000014071A07080715071707290704070E
:100230001607070709070A0700001D071B0706071F
:100240001907050700000000000000000000000082
:100250002307240725072607270731071C07180748
:100260000C07120713072A070B070D070E070F07C6
:1002700033073407110710073607370738072807F1
:100280002C072C075007510752074F0700000000AA
:100290000000000000000000000014051A05080519
:1002A00015051705000004051605070509050A05CB
:1002B0000000000000000605000000000100000032
:1002C000000000000000000000000000000000002E
:1002D00000000000000000000000000013054C05B5
:1002E0000B050D050E050F05000034051105000076
:1002F00036003705000028050000000050055105B4
:1003000052054F050100010001000100010001003C
:1003100001000100010001000100010001000100D5
:1003200001000100010001000100010001000100C5
:1003300001000100010001000100010001000100B5
:1003400001000100010001000100010001000100A5
:100350000100010001000100010001000100010095
:100360000100010001000100010001000100010085
:1003700001000100010001000100010000003A003D
:100380003B003C003D003E000000005CC25CC35CE2
:10039000C65CC55C0000000000000000000000001A
:1003A000000000000000000000000000000000004D
:1003B00000000000000000003F004000410042003B
:1003C00043000000C85CC75CCA5CC95C0000000058
:1003D000000000000000000000000000000000001D
:1003E000000000000000000001000100000000000B
:1003F0000000000032190A00047F3F1F64321464B9
:100400003214783C1E1E140A052223252628292A88
:100410002C2D2F3032333536383A3B3D3E40424367
:100420004547494A4C4E5051535557595A5C5E60A6
:1004300062646668696B6D6F71737577797B7D7FB8
:1004400081838587898A8C8E90929496989A9C9EB7
:100450009FA1A3A5A7A8AAACAEAFB1B3B4B6B8B9D3
:10046000BBBCBEBFC1C2C3C5C6C7C9CACBCCCDCE3B
:10047000D0D1D2D2D3D4D5D6D7D7D8D9D9DADADB1E
:10048000DBDBDCDCDCDCDCDDDDDDDDDCDCDCDCDCAA
:10049000DBDBDBDADAD9D9D8D7D7D6D5D4D3D2D2E9
:1004A000D1D0CECDCCCBCAC9C7C6C5C3C2C1BFBED1
:1004B000BCBBB9B8B6B4B3B1AFAEACAAA8A7A5A33C
:1004C000A19F9E9C9A98969492908E8C8A898785FB
:1004D00083817F7D7B79777573716F6D6B696866DA
:1004E0006462605E5C5A5957555351504E4C4A49AC
:1004F00047454342403E3D3B3A3836353332302F54
:100500002D2C2A292826252322FFAA7F55400001C9
:1005100001010101010101010202020202020202C3
:100520000203030303030303030404040404040495
:100530000505050505060606060607070707070859
:10054000080808090909090A0A0A0B0B0B0C0C0C0C
:100550000D0D0D0E0E0E0F0F0F10101111111212A6
:1005600013131414151516161717181819191A1A23
:100570001B1B1C1D1D1E1E1F202021222223242484
:10058000252626272829292A2B2C2D2D2E2F3031C0
:100590003232333435363738393A3B3C3D3E3F40D2
:1005A0004142434445464748494A4C4D4E4F5051BD
:1005B0005354555658595A5B5D5E5F616264656677
:1005C00068696B6C6D6F7072737577787A7B7D7EFE
:1005D0008082838587888A8C8E8F91939596989A4E
:1005E0009C9EA0A2A3A5A7A9ABADAFB1B3B5B7BA66
:1005F000BCBEC0C2C4C6C9CBCDCFD1D4D6D8DBDD3A
:10060000DFE2E4E7E9EBEEF0F3F5F8FAFDFF0403CF
:10061000300000002A0354006800650020004E00EE
:1006200079007100750069007300740020004B00B0
:100630006500790062006F006100720064000000D4
:100640000E034B0065006500620069006F0000004A
:100650000403090409023B00020100A0FA09040096
:1006600000010301010009211101000122400007DE
:1006700005810308000A09040100010300000009C4
:1006800021110100012281000705820320000A12C6
:100690000110010000000810CB56110003010203F5
:1006A0000105010902A10185020901A1000509193D
:1006B0000129051500250195057501810295017532
:1006C0000381010501093009311581257F950275E6
:1006D00008810609381581257F9501750881060571
:1006E0000C0A38021581257F950175088106C0C066
:1006F00005010980A101850319012AB7001501260A
:10070000B700950175108100C0050C0901A1018594
:100710000419012AA002150126A002950175108175
:1007200000C005010906A101050719E029E7150028
:10073000250195087501810295017508810105075C
:10074000190029FF150026FF009506750881000590
:100750000819012905950575019102950175039107
:1007600001C011241FBECFEFDAE0DEBFCDBF04B65B
:1007700003FE27C08091450390914603A091470353
:10078000B09148038730904BA740B04BD1F4109202
:10079000450310924603109247031092480314BE7B
:1007A00084B7877F84BF0FB6F894A89580916000C6
:1007B000886180936000109260000FBEE0E0F8E373
:1007C000099511E0A0E0B1E0ECE8F2E602C0059086
:1007D0000D92A43EB107D9F723E0A4EEB1E001C029
:1007E0001D92A534B207E1F70E94752A0C9444319A
:1007F0000C9400000E94671185E00E94D5110E94B0
:10080000E70E4FEF6FEF80E00E94B40B8BE00E9489
:10081000E40E60E070E0CB010E9475220C9481220E
:1008200081E0089581E008950C94120408950C94D9
:1008300016041F93CF93DF9300D000D01F92CDB743
:10084000DEB749835A836B8330915D0289819A8137
:10085000311114C0662359F0222349F00E94092166
:10086000182F682F89819A810E94B02003C00E94AE
:10087000DC20182F69817A81812F04C00E94092110
:1008800069817A810F900F900F900F900F90DF91F8
:10089000CF911F910C94D904FC01262F40815181E6
:1008A0006281738184810C941904CF93DF93EC01EE
:1008B00060E00E944C04BE01DF91CF910C941704BC
:1008C0000E943B22811102C00E94DD220E9472120E
:1008D0000C94F5060C94F10608950C946C0481E0D8
:1008E00008950C946F04CF93C82F0E946D048C2F31
:1008F0000E947104CF91089508950E94BC1B0E942C
:100900007C042FEF84E39CE0215080409040E1F78D
:1009100000C000000C9400240F931F93CF93DF932B
:10092000EC0161E00E944C048C01BE010E941404A1
:100930008823A9F1BE01C8010E94DB11882379F147
:10094000BE01C8010E942113882349F1BE01C801DC
:100950000E946213882319F1BE01C8010E948D1400
:100960008823E9F0BE01C8010E9488108823B9F0ED
:100970008A81882369F001158CE5180731F00E3D56
:100980001C4531F40E94DD220AC00E947D0407C08C
:10099000CE01DF91CF911F910F910C94100480E054
:1009A000DF91CF911F910F91089580E090E008951D
:1009B00008952CE3829FC0011124FC0126E0729F60
:1009C000E00DF11D1124E60FF11DEE0FFF1FEC5D90
:1009D000FE4F859194910895880F991FFC01EC506A
:1009E000FC4F859194910895CF93DF930E94D90491
:1009F0000E940C06EC018115904508F041C0C1151C
:100A000080E4D80708F0D1C0C83ED10510F5C03E3B
:100A1000D10508F0FDC0C83AD10578F4C53AD10532
:100A200008F0A2C0C130D10509F4F2C008F4EEC04C
:100A3000C430D10508F0ECC0E9C0CF3BD10508F4C3
:100A40009BC0C03CD10508F4E1C0CE01805C910997
:100A50009EC0C11590E2D90758F4C11521E0D20714
:100A600008F0D6C0C03FD10508F4D0C0D065D0C0D2
:100A7000C11580E3D80708F08EC0CE019F7087C0F3
:100A8000C11595E5D90708F043C0C11524E5D20783
:100A900008F0A2C0C11582E5D80708F5C11591E597
:100AA000D90708F085C0CE0174E0969587957A95B0
:100AB000E1F783709C2F937021E030E002C0220F99
:100AC000331F9A95E2F73C68382BCF70C695C695D0
:100AD00080E2C89FE0011124C22BD32B99C09E0154
:100AE000237033278C2F86958695C115D34508F042
:100AF00064C0C1E0D0E002C0CC0FDD1F2A95E2F750
:100B000020E2829FC0011124C82BD92BDC6880C051
:100B1000C11529E5D207A0F4C11588E5D80708F06A
:100B200060C0C11596E5D90708F070C08C2F0E94EF
:100B3000A0068F71C82FD0E0DC2FCC27D06268C010
:100B4000C1152AE5D20708F451C0CE01905681158F
:100B5000904208F05BC08D2F8F710E94A006DD27A8
:100B6000D0628F71D82B54C0C55AD0E0C659DE4F21
:100B7000C881D0E0D0644CC0C85AD0E0CC0FDD1F93
:100B8000C45CDE4F0990D881C02DD46441C00E945E
:100B9000EC04EC013DC0CE019927D3FF03C0EC016A
:100BA000D86C36C0EC01D06C33C0DF70D06A30C076
:100BB000DC2FCC27C16FD06A2BC0C1E0D0E002C0CF
:100BC000CC0FDD1F2A95E2F720E2829FC00111249D
:100BD000C82BD92BDA681CC0DC2FCC27C46FD06A95
:100BE00017C0DC2FCC27C06FD06A12C08C2F8F703B
:100BF0000E94A00694E0D695C7959A95E1F7CF702C
:100C0000D0E0DC2FCC27D069C82B02C0C0E0D0E0F8
:100C1000CE01DF91CF9108958238910569F1B0F44A
:100C20008133910509F46DC048F48932910509F4C6
:100C300063C08A32910509F469C00895853391052E
:100C400009F455C089339105B9F00895833E9105A3
:100C500069F138F4803E9105B1F0823E910509F1C9
:100C60000895863E9105A9F1873E9105B9F1843E2C
:100C7000910509F064C023C02091360320FD4FC0C8
:100C800021FD4DC008958091360380FD44C08091C0
:100C9000370380FF44C08091360384FD42C083EE59
:100CA0004DC08091360382FF38C0F5CF8091360366
:100CB00082FD33C08091370380FD31C0ECCF80913D
:100CC000370381FF32C08091360384FD2AC087EE4E
:100CD00035C08091360383FF26C0F5CF809136035F
:100CE00083FD21C08091370381FD1FC0ECCF80912F
:100CF000360385FD1CC01DC08091360385FD19C0DB
:100D000016C08091360386FD16C017C08091360349
:100D100086FD13C010C089E311C082EE0FC080EEC3
:100D20000DC080E00BC086EE09C084EE07C089E2EA
:100D300005C085E303C08AE201C081E390E0089525
:100D40009091360392FF0DC0282F2871283019F496
:100D5000877F846006C0282F2471243011F48B7F94
:100D6000886093FF0DC0282F2871283119F4877EE1
:100D7000846106C0282F2471243111F48B7E886190
:100D80002091370320FF0DC0382F3871383019F407
:100D9000877F816006C0382F3171313011F48E7F2A
:100DA000886021FF0DC0282F2871283119F4877E13
:100DB000816106C0282F2171213111F48E7E886156
:100DC00094FD877E0895E82FF0E0E650FD4F808186
:100DD0000895089580EA8A95F1F7089508950C948E
:100DE000EE060C94EF060C94EE060C94F3060895B0
:100DF000CF93DF930E946D088091040180910401DC
:100E0000811102C095E001C090E09093050385E058
:100E1000891B80930403A3E7B1E048E751E061E058
:100E200070E08D91E82FE295EF70F0E021A18F70D6
:100E3000EB0102C0CC0FDD1F8A95E2F7CE019C2F9B
:100E40009095922391A392A1892B82A34A175B07C5
:100E500041F7ADE6B1E043E751E061E070E08D912C
:100E6000E82FE295EF70F0E021A18F70EB0102C056
:100E7000CC0FDD1F8A95E2F7CE019C2F909592232F
:100E800091A392A1892B82A34A175B0741F7E0EF58
:100E9000F2E0AAEFB2E08AEF92E011921D928E1773
:100EA0009F07D9F785E00E9412080E946004DF9135
:100EB000CF910C9481080E945008882309F18091F9
:100EC000040390E086509D4F0E94B108811114C028
:100ED0008091E4018F5F8093E401863078F0E091A7
:100EE0000403F0E0E650FD4F80E090E0119201969F
:100EF00085309105D9F702C01092E4010C946A0480
:100F00008091050390E086509D4F0E94DA080C9472
:100F1000F7066F927F928F929F92AF92BF92CF927D
:100F2000DF92EF92FF920F931F93CF93DF9383E7AC
:100F3000882E81E0982E00EF12E095EFA92E92E026
:100F4000B92E712CCC24C394D12CF40181914F0182
:100F5000C82FC295CF70D0E099A18F70760101C0E3
:100F6000EE0C8A95EAF7892F8E2989A38AA16E2C27
:100F7000609486218AA30E94EA06EDE6F1E040E053
:100F800050E020E03191A32FA295AF70B0E0909691
:100F90008C9190E03F7002C0959587953A95E2F765
:100FA00080FD07C08C2D042E01C0880F0A94EAF73B
:100FB00001C080E0282B4F5F5F4F4630510511F78D
:100FC00089A1682269A28AA1E82AEAA2F80180819F
:100FD000281719F0208381E001C080E0782A0F5F94
:100FE0001F4FA016B10609F0B0CF6091050370E065
:100FF00066507D4F272D45E080EF92E00E94130858
:101000000E945B07872DDF91CF911F910F91FF9079
:10101000EF90DF90CF90BF90AF909F908F907F9098
:101020006F9008950895FF920F931F93CF93DF93CE
:101030008C01F62ED72FC42F222349F081E0809314
:10104000E7010E94BF239093E6018093E501809120
:10105000E7018823C1F08091E5019091E6010E94AB
:10106000CB23069780F0EF2DFD2FD8014C2F50E0B9
:10107000CD01801B910B841795071CF48D918193F2
:10108000F7CF1092E701DF91CF911F910F91FF9061
:10109000089555985D9889B185FB882780F9089552
:1010A0008091E801811112C08091D8008061809305
:1010B000D8008AE18A95F1F700C08091D90080FDBF
:1010C00002C082E001C081E08093E80181E090915C
:1010D000E801913009F080E008950E94490880936A
:1010E00004018091040166E0882311F080E001C0D2
:1010F00086E00E947F090E94500881110C948808A4
:1011000008950E945008811102C00C948E08089521
:1011100062E070E085E091E00C941C1562E070E004
:1011200085E091E00C9425150E944F0E882361F014
:1011300081EF91E00E94550E81E090E00E94FE1543
:10114000892B11F40C94520E08958091F00188308F
:1011500039F460E081EF91E00E942D0F1092F001D0
:101160000895CF93DF93D82FC92F0E94940880E071
:1011700090E00E94FE15892BC9F4ED2FFC2F80E032
:1011800090E0DC01A551BE4F2C9121930196853052
:101190009105B9F70E94F710882319F00E94FB10FF
:1011A00001C080E08093EA0181E001C080E0DF912E
:1011B000CF910895CF93DF93D82FC92F0E94A50810
:1011C000ED2FFC2F80E090E02191DC01A551BE4F76
:1011D0002C93019685309105B9F78091EA01DF9152
:1011E000CF910C941012EF92FF920F931F93CF9315
:1011F000DF93F62E472FE82FF0E0711106C0E25F73
:10120000FA4F6491762F862F72C0272F30E0E25F6D
:10121000FA4FE4910E2F10E056E0659FC0011124B3
:10122000CFEFD0E0BE010E9402305BEA5603C0015E
:10123000579F900D11248F0D911D8F0D911D982F8B
:10124000990F890F7E01E21AF30AE09ED001E19E18
:10125000B00DF09EB00D1124489FA0011124452F20
:1012600055277E01E41AF50AE09EA001E19E500D8B
:10127000F09E500D11247E01E81AF108E29EC00193
:10128000E39E900DF29E900D1124892F9927C81B83
:10129000D90BC09FC001C19F900DD09F900D11240C
:1012A0006230710591F048F461157105E1F061302B
:1012B0007105A9F48B2F752F19C06430710561F089
:1012C00038F06630710579F00AC0892F7B2F0EC087
:1012D0008E2F7B2FE52F0AC08E2F792F02C0852FEE
:1012E0007E2FEB2F03C08B2F7E2FE92F6E2FDF91E8
:1012F000CF911F910F91FF90EF9008950895E7E12E
:10130000F1E0808361830895CF93DF93762FE90125
:10131000682F842F0E94F308798368838A83DF9182
:10132000CF91089580910603282F269530E021154E
:10133000310519F48170826005C02B32310524F02B
:101340008170846580930603089588E090E00C9492
:10135000DD30CF92DF92EF92FF926B017C010E9411
:101360009209B701A60188E090E0FF90EF90DF902E
:10137000CF900C94FB30E6E0F3E083E080831182B1
:101380008FEF828383831482A2E4B2E012968C9161
:101390001297836012968C93608171818281938110
:1013A0000C94A9098091060380FF02C086950895D8
:1013B00080E0089580910A03833018F48F5F809352
:1013C0000A036091060370910703809108039091CE
:1013D00009030C94A90980910A03882319F081500C
:1013E00080930A03609106037091070380910803BC
:1013F000909109030C94A90970E00C9482126091F9
:1014000018018091060380FF0AC08091170123E034
:10141000829FC0011124855F9C4F0C94FC09809130
:10142000190190911A01891780F7E82FF0E09F01C8
:10143000220F331FE20FF31FE55FFC4F1182108272
:1014400012828F5FF0CF9091060390FF16C09091AB
:10145000190120911A01921770F4E92FF0E0DF01D1
:10146000AA0FBB1FEA0FFB1FE55FFC4F8183608360
:1014700042839F5FF0CF0C94FF090895CF93DF93D1
:1014800000D01F92CDB7DEB79091060390FF0AC03F
:101490009E012F5F3F4F0E9484094B8169818A81A1
:1014A0000E94230A0F900F900F90DF91CF91089523
:1014B000CF93DF93EC01EC81F0E0E75FFB4F4491C9
:1014C000E6E0F3E0628181810E943E0A8C818F5FB9
:1014D0008C83DF91CF910895CF93DF93EC01E6E009
:1014E000F3E0438162818C810E943E0A8C818F5F90
:1014F0008C83DF91CF9108950F931F93CF93DF9348
:1015000000D01F92CDB7DEB78C018091F901811117
:101510000AC09E012F5F3F4F4FEF6FEF0E9484097B
:101520008A818093F901F8018481813051F028F09B
:10153000823061F44091F9010AC08091F90140E0E4
:1015400007C06091F90140E080E003C040E080E026
:1015500060E00E94230AF801848190E0019663E034
:1015600070E00E94163084830F900F900F90DF91EF
:10157000CF911F910F910895AF92BF92CF92DF92BA
:10158000EF92FF920F931F93CF93DF9300D01F92A0
:10159000CDB7DEB7182FF62E042FE22E909106035A
:1015A00090FF7EC0E92FE695AE2FB0E0A358BE4F66
:1015B0008C91809342029E7F923061F49E012F5F56
:1015C0003F4F812F0E9484094B8169818A810E944B
:1015D000230A43C0823019F4009109033EC08630CB
:1015E00019F41091070339C08930D9F38931A9F56D
:1015F000E9518E2F8170D82EE695F0E0E75FFA4F23
:10160000A590B490C12CBB2460911B01C61618F59F
:101610002C2D30E0A29EC001A39E900DB29E900D95
:10162000112470E00E940230812FD11002C0860F79
:1016300001C0861B90911901290F311DA901440F8A
:10164000551F240F351F255F3C4F402F6F2D0E94E3
:101650008409C394D9CF0E94FF098091070318130E
:1016600008C080910803F81204C08091090308178C
:1016700029F0809144028260809344021093070312
:10168000F092080300930903EE2051F060910603E5
:101690007091070380910803909109030E94A909A2
:1016A0000F900F900F90DF91CF911F910F91FF90AE
:1016B000EF90DF90CF90BF90AF900895E6E0F3E019
:1016C0009181282F4381628188E0890F0C94BC0AA4
:1016D00081E00C945E0BE6E0F3E09181282F4381DA
:1016E000628188EF890F0C94BC0A81E00C946B0B2B
:1016F000E6E0F3E0628121E1620F08F46FEF282F4A
:10170000438181810C94BC0A81E00C94780BE6E063
:10171000F3E0628121E1621B08F460E0282F43813D
:1017200081810C94BC0A81E00C94870BE6E0F3E025
:10173000438121E1420F08F44FEF282F628181811C
:101740000C94BC0A81E00C94960BE6E0F3E0438134
:1017500021E1421B08F440E0282F628181810C9432
:10176000BC0A81E00C94A50B21E00C94BC0A20E09B
:101770000C94BC0AFF920F931F93CF93DF93EC015D
:10178000F12C0FEF10E060911B01F616F0F4809140
:1017900019012F2D30E0280F311DC901880F991F25
:1017A000280F391F255F3C4F70E0C8010E9416309A
:1017B000962F8C814091090360910803F99E800D5A
:1017C00011240E948409F394DECF0E94FF099A81BC
:1017D0008C8190FF02C08F5F01C081508C83DF91AC
:1017E000CF911F910F91FF9008958F929F92AF928A
:1017F000BF92CF92DF92EF92FF920F931F93CF93FE
:10180000DF93EC018A8180FF03C0BB24BA9402C03D
:10181000BB24B3948C8181110DC081E0B81206C045
:1018200080911B0181508093FB0102C01092FB014B
:1018300081E08C83A12C4CE0942E80911B01A81692
:1018400008F044C080911901CA2CD12C8601080FE0
:10185000111DC801880F991F080F191F055F1C4F24
:10186000F80111821082128234E0E32EF12C812CD7
:101870008091FB01880D8D302CF0692D0E94F42F92
:10188000892F05C087FF03C090911B01890F082E87
:10189000000C990BC816D90691F4809109038E9D0E
:1018A000A0018F9D500D112455954795559547954D
:1018B000980160910803809107030E9484098B0CB2
:1018C000F1E0EF1AF108A1F6A394B7CF0E94FF0947
:1018D0008091FB0191E0B9120EC0811107C0809187
:1018E0001B0181508093FB011C820FC081508093AB
:1018F000FB01BC820AC090E0019660911B0170E080
:101900000E9416308093FB018C83DF91CF911F9151
:101910000F91FF90EF90DF90CF90BF90AF909F908E
:101920008F9008951F93CF93DF93EC018C818111E9
:1019300009C081E08C831092FA0192E09093160125
:10194000809315018091190190911A01891770F403
:10195000E82FF0E09F01220F331FE20FF31FE55F36
:10196000FC4F1182108212828F5FF0CF10E06091E5
:101970001B011617C0F5E12FF0E070E0CF010E94C7
:10198000163020911901820F2091FA01022E000CCD
:10199000330B90E0E217F307CCF020911601022EF2
:1019A000000C330B2E173F078CF09C01220F331FC6
:1019B000820F931F9C01255F3C4F4091090360916A
:1019C0000803809107030E9484090BC0FC01EE0FFD
:1019D000FF1F8E0F9F1FFC01E55FFC4F11821082DD
:1019E00012821F5FC4CF0E94FF09809115012091D0
:1019F000FA01280F2093FA0190911601980F909305
:101A0000160119165CF4022E000C330B40911B01D9
:101A100050E0415051092417350734F081958093E7
:101A20001501813009F41C82DF91CF911F91089537
:101A30000F931F93CF93DF938C01FC0184819581D9
:101A400001968170992795838483C0E0D5E58091C4
:101A50001B01C81700F5809119012C2F30E0280FC9
:101A6000311DC901880F991F280F391F255F3C4F71
:101A70004C2F4695F80184819581840F911D8170CA
:101A800040910903609108038D9F802D11240E94CD
:101A90008409CF5FDCCFDF91CF911F910F910C9420
:101AA000FF090F931F93CF93DF93EC0100E010E049
:101AB00080911B01282F30E00217130724F5909125
:101AC00019019801290F311DA901440F551F240F39
:101AD000351F255F3C4F869590E04C81081719070C
:101AE0001CF4442331F002C0411103C040910903AA
:101AF00001C040E060910803809107030E948409BF
:101B00000F5F1F4FD5CF0E94FF098C8190E0019697
:101B1000817099278C83DF91CF911F910F91089548
:101B20008F929F92AF92BF92CF92DF92EF92FF92ED
:101B30000F931F93CF93DF93FC01B280948081E0D9
:101B4000848300E015E05BE4A52E88248394EE24D2
:101B5000EA94F12C7BE4C72ED12C80911B0108174D
:101B600008F08FC0C02FD0E01C9FF0011D9FF00D2A
:101B70001124E150FE4F911003C01382128267C0FE
:101B80002381222389F1215023833481332319F0C7
:101B90009A2D921B01C0922F809109031C9FF00186
:101BA0001D9FF00D1124E150FE4F899FC0011124AB
:101BB000B6010E9402306283211104C0332311F068
:101BC0001482A38222E02B1508F441C01C9FF0016F
:101BD0001D9FF00D1124E150FE4F8091070380837B
:101BE00080910803818333C00E94B83082309140D5
:101BF00074F582E08B1530F40E94B830B7010E9472
:101C0000163002C0809107031C9FF0011D9FF00D4C
:101C10001124E150FE4F808322E02B1558F40E94DE
:101C2000B830209108032695622F70E00E9416308C
:101C3000820F02C0809108031C9FF0011D9FF00DD0
:101C40001124E150FE4F81831282A382848280910D
:101C500019019E01280F311DC901880F991F280FF6
:101C6000391F255F3C4F1C9FF0011D9FF00D112473
:101C7000E150FE4F4281618180810E9484090F5FA3
:101C80006CCFDF91CF911F910F91FF90EF90DF907C
:101C9000CF90BF90AF909F908F900C94FF09809150
:101CA0004402089510924402089525E0E6E0F3E02E
:101CB000DC0101900D922A95E1F7209142023091CA
:101CC000430240914402FC012583368347830895F3
:101CD00060910603669570E04BE050E08CE191E086
:101CE0000E94C830892B19F481E0809343020E943E
:101CF000BF2390933C0280933B0280914402846016
:101D0000809344020895E2E4F2E0118282818460CB
:101D1000828308959091060390FF3AC091708111DB
:101D200002C0926006C08B3210F0946502C0880F2A
:101D3000982B909306038091440281608093440223
:101D4000662351F0609106037091070380910803A8
:101D5000909109030E94A90960910603669570E0BD
:101D60004BE050E08CE191E00E94C830892B19F0E3
:101D70000E94830E02C00E94680E81E080933E02A2
:101D80004091090360910803809107030C94B70BFD
:101D90000895682F90910603969581E0890F8B3204
:101DA00008F081E00C948A0E81E00C94C90E682F33
:101DB0009091060396958FEF890F09F48AE20C94AF
:101DC0008A0E81E00C94D70E61E00C948A0EE6E056
:101DD000F3E080818160808386950C94E40E60E05E
:101DE0000C948A0EE6E0F3E080818E7F8083608130
:101DF0007181828193810E94A9090E94830EE2E48D
:101E0000F2E08281816082832FEF80E792E02150AF
:101E100080409040E1F700C000000C94FF098091E1
:101E2000060380FD0C94F20E0C94E70EE6E0F3E05E
:101E300080818E7F80830E94830EE2E4F2E08281C3
:101E4000816082832FEF80E792E0215080409040B4
:101E5000E1F700C000000C94FF091F93CF93DF93BC
:101E6000EC01162F8F8180FF0FC0888180FF0AC090
:101E700080910603816080930603888186950E9485
:101E80008A0E02C00E94160F8F8181FF06C0212F8B
:101E90004B816A8189810E94BC0A8F8182FF08C0C0
:101EA0008E81882319F00E94680E02C00E94830E62
:101EB0008F8183FF03C081E080933E02DF91CF9149
:101EC0001F91089580914102811133C00E943B22ED
:101ED000811104C00E94DD220E94BB090E94A50955
:101EE000609306037093070380930803909309039C
:101EF000809144028360809344026E7F61F40E946B
:101F0000BB090E94A50960930603709307038093A1
:101F10000803909309030E9492090E94830E809106
:101F2000060380FF03C086950E94EF0E81E0809338
:101F300041020895EF92FF920F931F93CF93DF9387
:101F400080914302882309F4C1C080914202E0914C
:101F50000603E695E81BE0933D02823049F4F0E089
:101F6000EB5FFB4FE491CE2FD0E008E51AE059C0BB
:101F7000863049F4F0E0EE5FFB4FE491CE2FD0E0E5
:101F80000CE61AE04EC0893051F4E695F0E0E150DD
:101F9000FC4FE491CE2FD0E00AEB1BE042C08F3023
:101FA00051F4E695F0E0E450FC4FE491CE2FD0E000
:101FB00005EF1BE036C0853149F4F0E0E750FC4FF7
:101FC000E491CE2FD0E002E91CE02BC08831D9F09B
:101FD000833239F4E7EFF3E0C591D4910CE71AE0CE
:101FE00020C08432A9F08532C1F48E2F63E00E94B4
:101FF000E82FE92FF0E0EC50FC4FE491CE2FD0E039
:1020000000E91DE00EC0C8EED3E008E11DE009C004
:10201000C4EFD1E001E51DE004C0C0EDD7E00EE75C
:1020200019E080913E02882389F010923E020E94BE
:10203000BF239E0120953095820F931F90933C0201
:1020400080933B021092400210923F0280913B022B
:1020500090913C020E94CB238C179D07B8F1809190
:10206000FE018823B1F01092FE018091FC01909155
:10207000FD010E94CB238033954758F00E94BF2377
:102080009093FD018093FC018091440288608093CD
:102090004402E0903F02F0904002E0913B02F09158
:1020A0003C02CE0FDF1FD0933C02C0933B028BE378
:1020B00092E0F801099580913F0290914002892BAE
:1020C00029F4EF2819F081E08093FE01DF91CF9190
:1020D0001F910F91FF90EF900895882311F0FA015E
:1020E00001C0FB010994CF93DF93C82FD62F0E9424
:1020F000D2098C1740F00E94D2098D1720F4DF918D
:10210000CF910C94D40E8C2FDF91CF910C94E40ED0
:102110001F93CF93DF93FB011281111163C0EC0178
:102120000E948A218272FE01E25CFC45E431F105E5
:1021300008F057C0EA5AFF4F0C944C300E940F0F22
:1021400051C041EE5EE064ED7EE004C044ED5EE02F
:1021500061EE7EE00E946D1045C045E75BE068E6F9
:102160007BE0F8CF48E65BE065E77BE0F3CF43E94F
:102170005BE064E87BE0EECF44E85BE063E97BE0B2
:10218000E9CF41EB5BE062EA7BE0E4CF42EA5BE06F
:1021900061EB7BE0DFCF4BEE59E06AED79E0DACF1F
:1021A0004AED59E06BEE79E0D5CF81E017C065E0EC
:1021B00082E010C068E086E00DC06EE089E00AC0F1
:1021C00064E18FE007C067E185E104C088E106C0F3
:1021D00062E289E10E94731005C083E20E94E40E6E
:1021E00001C011E0812FDF91CF911F91089580915F
:1021F0002F038170089580912F038695869586958B
:1022000008950E943B22811102C00E94DD220E949B
:102210006C2280932F03282F26952695269530E053
:102220002830310524F08770886380932F038091D4
:102230002F0380FF04C086958695869501C080E0B7
:102240000C94101220912F03822F869586958695E7
:10225000482F50E04730510554F48F5F982F990F65
:10226000990F990F822F8770892B80932F0380916C
:102270002F03816080932F030E94702280912F038F
:102280008695869586950C94101280912F03982F31
:10229000969596959695A1F0915E990F990F990F45
:1022A0008770892B80932F03887F91E009F490E059
:1022B00080912F0390FB80F980932F030E9470225E
:1022C00080912F038695869586950C9410128091A7
:1022D0002F0380FD13C0816080932F03813019F498
:1022E00089E080932F0380912F030E9470228091B8
:1022F0002F038695869586950C94101208958091EB
:102300002F0380FF08C08E7F80932F030E947022CE
:1023100080E00C941012089580912F0380FD0C949E
:102320007F110C94671190912F03892F86958695C4
:1023300086958F5F8F719770883038F4880F880F7B
:10234000880F892B80932F0302C090932F038091D5
:102350002F03887F91E009F490E080912F0390FB98
:1023600080F980932F030E94702280912F0386951D
:10237000869586950C941012883008F087E090912D
:102380002F039770282F220F220F220F922B90934A
:102390002F03987F21E009F420E090912F0320FB88
:1023A00090F990932F030C9410120E94BC1180910D
:1023B0002F030C9470229C01FB018281882349F138
:1023C0002D3BFCE53F07C9F040F42B3BECE53E0715
:1023D00069F02C3B3C4561F008952F3B9CE53907A3
:1023E00091F070F0203C3C4589F0089587E001C0F1
:1023F00080E00E94D51180E008950E944511FBCF36
:102400000E942211F8CF0E948C11F5CF0E949311E7
:10241000F2CF81E00895259A2D9808952D9808957A
:10242000CF92DF92EF92FF92CF93C82F883050F473
:10243000811109C0809180008F77809380000E9475
:102440000E1206C0C7E080918000806880938000F3
:102450002C2F30E0AFEFBFEF0E94523027E030E08A
:1024600040E050E00E942A30C9012C3764E1360771
:1024700028F469E070E00E94023029C0DA01C90145
:102480008A50974DAF4FBF4F6627782F892F9A2FCD
:1024900025EF38E241E050E00E942A3069017A01DC
:1024A000CA01B9010E94D82F9B01AC01C701B60136
:1024B0000E94D82FBB27A92F982F872F009721E0A4
:1024C000A207B10511F0BC0102C06FEF7FEF70935E
:1024D000890060938800CF91FF90EF90DF90CF90BC
:1024E000089508950E940B1282E88093800089E18C
:1024F000809381008FEF9FEF9093870080938600F9
:102500000C940111249A25B12F7E35B130614FB75B
:10251000F894FC01CB01880F991F680F791F6E0F8B
:102520007F1FE617F70789F0819198E035B9000021
:1025300000C087FF25B9880F000000C000C000C0A0
:1025400025B900C09A9591F7ECCF4FBF8FE594E085
:102550000197F1F700C0000008950F931F93CF93E8
:10256000DF93C62FD42F122FFC0182818823C9F05C
:10257000609347020E94BF239093460280934502D6
:1025800080E28C0F883008F057C0C77081E001C02E
:10259000880FCA95EAF7DF91CF911F910F910C94A4
:1025A000F51880914702681330C0809145029091E0
:1025B00046020E94CB23883C910538F500E20D0FBE
:1025C000CD17B9F080E28C0F883040F4C77081E0FD
:1025D00001C0880FCA95EAF70E94FC18083028F558
:1025E00081E09D2F977001C0880F9A95EAF70E94AD
:1025F000F518812F0E94E2180830F0F4D77081E0BE
:1026000001C0880FDA95EAF70AC080E28C0F8830A3
:1026100098F4C77081E001C0880FCA95EAF7DF918E
:10262000CF911F910F910C94FC18812FDF91CF91C6
:102630001F910F910C94E218DF91CF911F910F9190
:1026400008959C01CB01233F4CE53407F9F078F461
:10265000283DFCE53F07B9F0293D4CE5340711F171
:10266000273D3C4531F526E241EE61EE1EC0253F97
:10267000FCE53F0799F070F0263F3C45D1F427E296
:1026800045EE66EE12C027E245EE0EC026E241EEB0
:1026900060EE0BC027E245EE64EE07C026E241EE95
:1026A00062EE03C028E241E065EE0E94AD1280E0D8
:1026B0000895FC018281882319F010924702089541
:1026C00081E00895CF93DF93EC01FB0182818823A1
:1026D00009F41FC1C230FCE5DF0708F41BC1C63195
:1026E0009CE5D90738F09E012A5F3C452930310529
:1026F00008F010C10E944E22909337038093360356
:10270000C031ECE5DE0709F4C3C008F041C0C830B1
:102710008CE5D80709F49AC0F0F4C430ECE5DE0784
:1027200009F487C068F4C2308CE5D80709F477C093
:10273000C330DC4509F0E3C080913603826076C087
:10274000C630ECE5DE0709F46EC008F07BC080916E
:10275000360388606BC0CC308CE5D80709F485C09F
:1027600068F4CA30ECE5DE0709F474C008F079C0FB
:102770000E94BC1B80913603806858C0CE308CE527
:10278000D80709F476C008F07FC0809136038BC06B
:10279000CB3FECE5DE0709F44FC018F5C3318CE5FB
:1027A000D80709F47DC078F4C131ECE5DE0709F4FF
:1027B00073C0C231DC4509F0A2C00E94BC1B8091ED
:1027C00036038F7733C0C5318CE5D80709F472C062
:1027D00008F486C0CA3FDC4509F091C080913703F8
:1027E0003EC0CF3FFCE5DF0709F45FC058F4CD3FA2
:1027F0009CE5D90709F444C008F43FC08091370331
:1028000082602DC0C130FDE5DF0709F475C008F412
:102810005DC0C230DD4509F072C080E06EC08091BD
:102820003603816003C08091360380618093360354
:1028300066C08091360311C0809137038260809317
:1028400037035DC0809136038062F0CF80913603FC
:102850008064ECCF8091360388608460E7CF81602C
:10286000EECF809136038E7FE1CF809136038D7F4E
:10287000DDCF80913603877FD9CF8091370318C091
:10288000809137038D7FDBCF809136038F7ECECF53
:10289000809136038F7DCACF809136038F7BC6CF60
:1028A00080913603877F8B7FC1CF809137038D7FE7
:1028B0008E7FC5CF8091360382FB222720F991E0DD
:1028C000922790FB82F990FB83F9B0CF8091370378
:1028D000982F909591708E7F892B90FB81F9AFCFC7
:1028E0000E94BC1B8091360387FB222720F991E0D0
:1028F000922790FB87F99ACF81E00E94DF22809196
:102900003603909137030E945F220E94BC1B80E037
:1029100001C081E0DF91CF910895CF93DF9386319D
:102920009C4541F5EB010E948A21982F8A812091D4
:10293000270130912801882379F09A7A81E009F4FF
:1029400080E080934802911102C069E201C065E312
:10295000C9010E9426230AC080914802811102C049
:1029600069E201C065E3C9010E9428230E94D821C1
:1029700080E001C081E0DF91CF9108958EE1489B16
:1029800002C08150E1F7489BFECF0895589880E23D
:102990008A95F1F7589A0895FC012AE02A95F1F7F3
:1029A00090E020E080E031E0261779F040E14A95A0
:1029B000F1F7880F489B02C08160932700C0000098
:1029C00040E14A95F1F72F5FEFCF20E12A95F1F72B
:1029D00029B100C0000030E13A95F1F7217092274B
:1029E0002081920F90830895EF92FF920F931F938F
:1029F000CF93DF931F92CDB7DEB719828C017C0194
:102A0000E60EF11C0E151F0559F00E94BE1468E079
:102A1000CE0101960E94CC14F80181938F01F2CF70
:102A200081E09981911180E00F90DF91CF911F910A
:102A30000F91FF90EF90089590934B0280934A027C
:102A400060934902509A589A089590934B0280934C
:102A50004A02609349025098589AE89AE9E6F0E0F1
:102A600080818C7F80830895615091E001C0990F2F
:102A70006A95EAF720E031E0992361F0492F482375
:102A800019F0589A232701C0589840E24A95F1F767
:102A90009695F2CF222311F0589A01C0589880E2FF
:102AA0008A95F1F758980895FF920F931F93CF934B
:102AB000DF93EC018C01060F111DC017D10741F007
:102AC000F9900E94C61468E08F2D0E943415F5CF4E
:102AD000DF91CF911F910F91FF9008951F920F9258
:102AE0000FB60F9211240F931F932F933F934F9381
:102AF0005F936F937F938F939F93AF93BF93EF9366
:102B0000FF93CF93DF931F92CDB7DEB719820E9458
:102B1000BE1467E0CE0101960E94CC14382F369582
:102B200036953695932F96959570232F2570920F95
:102B3000292F2370969596958770920F891348C018
:102B40008981811145C080914902831708F440C0F2
:102B500080E18A95F1F7589A509AA2E0AA95F1F788
:102B600000C000914A0210914B02B8E03B9F000D5B
:102B7000111D11245898F8016581662321F0868182
:102B800097810E9454150E94C614F0E1FA95F1F75E
:102B900058985098589A80E18A95F1F7D801129682
:102BA0006C911297662369F013968D919C911497FE
:102BB0000E94F414D801ED91FC91811105C082E0CE
:102BC00004C0D801ED91FC9188E080830E94BE147E
:102BD0000F90DF91CF91FF91EF91BF91AF919F91B6
:102BE0008F917F916F915F914F913F912F911F91A5
:102BF0000F910F900FBE0F901F9018950F931F937A
:102C0000CF93DF932091490230E0281739070CF465
:102C100071C09C0193E0220F331F9A95E1F7C09198
:102C20004A02D0914B02C20FD31FF894509A589881
:102C300045E04A95F1F70000982F969595708570BC
:102C4000890F982F937086958695890F8901082B97
:102C50000E94C61484E08A95F1F700C067E0802FD7
:102C60000E94341540E14A95F1F75098589A4899D6
:102C700002C000C0FCCF87E090E0489B0EC00197E7
:102C800051F4509A589AE881F98181E080837894D0
:102C900081E090E031C000C0F0CF6D81662381F00B
:102CA0008E819F810E94F41481110AC0509A589A13
:102CB000E881F98182E08083789482E090E01CC012
:102CC0000E94BE1480E28A95F1F75898509A40E12C
:102CD0004A95F1F76A81662321F08B819C810E94DD
:102CE00054150E94C614E881F9811082789480E01E
:102CF00090E002C084E090E0DF91CF911F910F91AE
:102D0000089590935102809350020895E0915002EB
:102D1000F0915102309721F00190F081E02D09945B
:102D200080E00895E0915002F0915102309721F037
:102D30000280F381E02D09940895E0915002F09112
:102D40005102309739F022E0DC012C930480F581A8
:102D5000E02D0994089520914E0230914F022817DA
:102D6000390771F090934F0280934E02E091500228
:102D7000F0915102309721F00680F781E02D0994FF
:102D8000089520914C0230914D022817390771F0B7
:102D900090934D0280934C02E0915002F0915102C9
:102DA000309721F00084F185E02D0994089585B7CE
:102DB000806885BF85B7806885BF089508950C94A5
:102DC000DE160C94DF160C94DE160C94DE160E94B0
:102DD000D7160E94E3160C94E1160C9450080E943A
:102DE000B6230E94F8060E9424240E9401110E942A
:102DF000620F0C94E516AF92BF92CF92DF92EF92E2
:102E0000FF920F931F93CF93DF93CDB7DEB72A972F
:102E10000FB6F894DEBF0FBECDBF0E9489070E9497
:102E2000ED16811111C08FEF89838A831B820E9466
:102E3000BF238160782F9D838C8349815A816B8168
:102E40008D810E94971740C083E5A82E82E0B82E9E
:102E500000E010E0C02E802F0E94E306E82EF5016E
:102E6000D1905F01D82631F40F5F1F4F0A30110552
:102E700089F7D9CF8091D30281FD0E94E90680E0D5
:102E8000FF24F3949D2D9F21D1F08E83CF82EF20DC
:102E900081E009F480E088870E94BF238160782F59
:102EA0009A8789874E815F8168858A850E949717F6
:102EB000F801ED5AFD4F8081F826F08205C08F5F42
:102EC000FF0C8630F9F6D0CF0E949A0F0E94711243
:102ED0000E94B6250E948616909152028917B1F081
:102EE0000E948616809352022A960FB6F894DEBF8F
:102EF0000FBECDBFDF91CF911F910F91FF90EF904B
:102F0000DF90CF90BF90AF900C9473042A960FB6C9
:102F1000F894DEBF0FBECDBFDF91CF911F910F910F
:102F2000FF90EF90DF90CF90BF90AF900895CF9338
:102F3000DF93CDB7DEB72B970FB6F894DEBF0FBE89
:102F4000CDBF4F83588769877A878B87DE011196BB
:102F500086E0FD0111928A95E9F785E0FE0137963A
:102F600001900D928A95E1F749815A816B817C81AC
:102F70008D819E810E94751E2B960FB6F894DEBF40
:102F80000FBECDBFDF91CF910895FC01808191816B
:102F90000E944B210895CF93882309F4A9C0C82F1C
:102FA0008238C1F40E94861681FDA2C069E3809137
:102FB0002701909128010E9426230E94D8212FEFFB
:102FC00081EE94E0215080409040E1F700C0000085
:102FD00069E319C0833801F50E94861680FD88C018
:102FE00063E580912701909128010E9426230E9489
:102FF000D8212FEF81EE94E0215080409040E1F7FE
:1030000000C0000063E580912701909128010E9493
:103010002823CF910C94D8218438C1F40E948616BD
:1030200082FD66C067E480912701909128010E948B
:1030300026230E94D8212FEF81EE94E0215080407A
:103040009040E1F700C0000067E4DDCF8CEF8C0F0B
:10305000813AF8F48C2F0E945E28811149C06C2FB0
:1030600080912701909128010E94F022882349F045
:103070006C2F80912701909128010E9428230E94A3
:10308000D8216C2F80912701909128010E9426233E
:10309000C0CF80E28C0F883048F4C77081E001C057
:1030A000880FCA95EAF70E948D21B3CFEBE5EC0FAC
:1030B000E33040F4F0E0EA52FE4F808190E0CF919F
:1030C0000C94AB16E8E5EC0FE73150F4F0E0EE0FAE
:1030D000FF1FE855FE4F80819181CF910C94C1165E
:1030E000C03F30F08C2F0E94BE24CF910C94AB25B2
:1030F000CF910895882309F464C0823879F40E943E
:10310000861681FF5EC069E38091270190912801B6
:103110000E9426230E94D82169E310C08338B1F4AD
:103120000E94861680FF4DC063E580912701909133
:1031300028010E9426230E94D82163E5809127015F
:10314000909128010E9428230C94D821843879F486
:103150000E94861682FF35C067E480912701909116
:1031600028010E9426230E94D82167E4E7CF9CEF24
:10317000980F913A10F4682FE1CF90E2980F9830B1
:1031800050F4877091E001C0990F8A95EAF7892F72
:103190000E949321D9CF9BE5980F933020F480E0D3
:1031A00090E00C94AB1698E5980F973120F480E0EE
:1031B00090E00C94C116803F20F00E9426250C94CC
:1031C000AB250895CF93C82F0E94CB17C93349F47C
:1031D0002FEF87EE93E0215080409040E1F700C050
:1031E00000008C2FCF910C947A18882321F00E9434
:1031F0008D210C94D8210895882321F00E949321D9
:103200000C94D8210895CF92DF92EF92FF920F9302
:103210001F93CF93DF937C01062FC72FFC011581ED
:1032200012951F70D281D1110E94AA210E94832180
:10323000882399F0DD2389F08C2F807F803421F062
:1032400080E2800F883048F082E00E9422220E94B3
:10325000832191E0D82ED92601C0D12CCC2EC29446
:103260008FE0C8228C2D90E0FC01E659FF4F0C94B2
:103270004C308C2F807FCF70882311F0C295C07F97
:10328000DD2399F0CC2309F4C4C180E2800F88309B
:1032900010F0011104C08C2F0E948D2103C08C2FCF
:1032A0000E949D210E94D821B4C1802F0E947A18CB
:1032B000CC2309F4D3C180E2800F883010F00111D3
:1032C00004C08C2F0E94932103C08C2F0E94A32145
:1032D0000E94D821C3C18C2F807FCF70803211F023
:1032E000C295C07F002319F00130C9F022C0DD2350
:1032F00071F0112341F0113031F40E94BD218C2B6B
:103300000E94C521ABC10E94BD218C2B1DC0112381
:1033100019F0113009F4A2C10E94CE2125C0DD238D
:1033200021F0163008F09AC10EC0153008F096C191
:103330001BC0DD2361F0112331F0F701858180FF8F
:1033400068C18F7085838C2F0E94F51887C1112367
:1033500059F0093309F06EC1FFEF27EE83E0F15019
:1033600020408040E1F764C18C2F0E94FC1876C198
:103370008C2F86958695837019F0813061F06EC12F
:10338000DD2321F0802F9C2F937002C080E090E01D
:103390000E94AB166BC1DD2321F0802F9C2F937010
:1033A00002C080E090E00E94C11660C1DD23F9F008
:1033B000053F51F0063F71F0043FA9F480913003BE
:1033C0009091310381600BC0809130039091310363
:1033D000826005C0809130039091310384609093A6
:1033E000310380933003802F0E94BE241EC0053F0E
:1033F00051F0063F71F0043FA9F4809130039091A1
:1034000031038E7F0BC080913003909131038D7F0B
:1034100005C080913003909131038B7F90933103ED
:1034200080933003802F0E9426250E94AB251EC169
:103430008C2F837009F045C0D11114C1402F4295E3
:1034400046954770440F440F602F6F70862F90E0B1
:10345000A0E0B0E0042E04C0880F991FAA1FBB1F74
:103460000A94D2F704FF10C00FE010E020E030E033
:1034700004C0000F111F221F331F4A95D2F7009579
:1034800010952095309503C000E010E09801C69596
:10349000C695C370BC01CD01602B712B822B932B81
:1034A000C23049F058F4C13019F00E94C61FDAC08A
:1034B0000E94B41FD7C00E94D81FD4C00E94B21F60
:1034C000D1C0DD2319F08C2F817001C0869588232F
:1034D00009F4C8C0402F429546954770440F440FE9
:1034E000602F6F70862F90E0A0E0B0E0042E04C043
:1034F000880F991FAA1FBB1F0A94D2F704FF10C0A0
:103500000FE010E020E030E004C0000F111F221F88
:10351000331F4A95D2F7009510952095309503C03A
:1035200000E010E09801C695C695C370BC01CD01BE
:10353000602B712B822B932BC23049F058F4C13091
:1035400019F00E948B208EC00E9479208BC00E94AF
:103550009D2088C00E94EC1F85C0CF70DD2339F00C
:103560008C2F0E941220802F0E94F5187BC0802F84
:103570000E94FC188C2F0E94332074C0023F01F17E
:1035800028F4003F41F0013FA1F03FC0033FF9F0B4
:10359000043F39F13AC0DD2341F0153008F05EC038
:1035A0008C2F8F710E94582059C0163008F056C0D9
:1035B000F7CFDD2339F08C2F8F710E9412204EC07F
:1035C000DD23C9F38C2F8F710E94332047C0DD2388
:1035D00029F08C2F8F710E94FD1F40C00E94F81FA0
:1035E0003DC0DD2349F0CF718C2F0E94122063E093
:1035F0008C2F0E940D2232C081E00E9422221230C4
:1036000068F182E00E94222229C0DD2331F01123DB
:1036100091F2802F0E94CB1721C0112399F2093318
:1036200049F49FEFE7EEF3E09150E040F040E1F71E
:1036300000C00000802F0E947A1810C04C2F4F70DD
:10364000602FC7010E94D5040E94231F0FC04C2F7A
:103650004F70602FC7010E94D80408C088EF8C0DFE
:10366000843020F40E9486160E947304DD20C9F085
:103670000E947F2180FD15C0F70112820E947921EE
:103680000E941220C7010E94721B0E947921DF91C3
:10369000CF911F910F91FF90EF90DF90CF900C94FE
:1036A0003320DF91CF911F910F91FF90EF90DF902A
:1036B000CF9008950F931F93CF93DF93EC01688110
:1036C00079818A810E9456218C010E94AF200E943C
:1036D000A01FB801CE010E940319DF91CF911F9165
:1036E0000F910895CF93DF93EC01988189812B810D
:1036F0003C81232B31F08F3F31F481E09F3F19F45F
:1037000003C081E001C080E080FD19C0CE010E94AD
:103710008C0481110CC00E948321882381F08A814E
:10372000882369F082E0DF91CF910C942222CE01B0
:103730000E945A1BCE01DF91CF910C945504DF916A
:10374000CF9108950E94AA210E94BA210E94D821F7
:103750000E94D5260E94AB2580E090E00E94AB1627
:1037600080E090E00C94C11680912701909128018F
:103770000E942A230C94A21B0E949A210C94B41B31
:10378000E92FE295EF704E2F50E0FA013297EE30BC
:10379000F105B0F4E658FF4F0C944C30803F91F0A7
:1037A00018F4883E68F40EC0843F51F40BC0883E84
:1037B00048F0813F29F406C093FB882780F90895DB
:1037C00080E0089581E008950E944B210E94C01B73
:1037D0000895CF93DF9300D000D01F92CDB7DEB70E
:1037E0000F900F900F900F900F90DF91CF91089551
:1037F000CF93DF9300D000D000D0CDB7DEB72696B0
:103800000FB6F894DEBF0FBECDBFDF91CF91089504
:103810001F93CF93DF93C0915E0216E080915F0209
:10382000C81799F0D0E01C9FF0011D9FF00D1124E6
:10383000E05AFD4F4081518162817381848195817D
:103840000E94F81B2196C770E9CFDF91CF911F919D
:10385000089540919002509191026091920270916E
:10386000930280919402909195020C94F81B0F930F
:103870001F93CF93DF938091950282958F7009F00B
:103880005DC080919202882309F458C080915E0245
:1038900010915F026091900270919102C091930229
:1038A000D091940291E06F3F09F090E0292F06E05B
:1038B000811709F443C0209721F07F3F21F030E0C9
:1038C00003C031E001C0322F90E030FD34C0089FCA
:1038D000F001099FF00D1124DF01A05ABD4F119690
:1038E0003C911197371327C03C91361324C0129690
:1038F0003C91129731111FC013964D915C91149712
:103900004C1B5D0B483C5105B0F4809195028F70C3
:10391000806180939502EB59FD4F80818F708061AB
:10392000808380E992E00E94721BDF91CF911F910A
:103930000F910C94081C01968770BACFDF91CF913C
:103940001F910F9108959F92AF92BF92CF92DF92F5
:10395000EF92FF920F931F93CF93DF93CDB7DEB714
:1039600061970FB6F894DEBF0FBECDBF8C0185E026
:10397000F801DE011D9601900D928A95E1F7F8019C
:1039800040815181E280909190026091910220915A
:103990009302309194022115310531F06F3F31F4DB
:1039A00081E09F3F19F403C081E001C080E0F82F5F
:1039B000F1709F2E80FD46C1F801A380B48080E99C
:1039C000C82E82E0D82EF0909202F501E21BF30B94
:1039D000FF2009F4DFC080919502E83CF10508F072
:1039E0009BC0282F207F09F052C0561313C04913E3
:1039F00011C0FE2CE1100EC08F7080618093950283
:103A00000E94291CC6010E94721B80919502F80138
:103A1000858358C1AB2831F05F3F31F481E04F3FDF
:103A200019F403C081E001C080E080FD03C081E0A3
:103A30008E2502C080E090E0F82FF170FF2E80FF0D
:103A40001CC080915E0220915F0236E0821709F46B
:103A500017C190E0389FF001399FF00D1124E05A12
:103A6000FD4F6181561306C06081461303C0628119
:103A7000E61203C001968770E9CFFE2CEE2009F410
:103A800021C1809195028160809395025AC056139E
:103A900006C0491304C0E11002C0F8019FC04D8761
:103AA0005E878D859E850E94E41B882379F1EE2038
:103AB00069F120919502822F82958F7090E0029794
:103AC00074F0809190029091910298878F8319866B
:103AD000BB86AA862C87CE0107960E94721B86E0C1
:103AE000F801A0E9B2E001900D928A95E1F70E94F9
:103AF000371C0E94291C0DC0561729F14D875E877F
:103B00008D859E850E94E41B81112CC0C8010E94F6
:103B1000721BFF24F394D6C0282F207F69F77A2DDB
:103B2000B98AA88A6E2D89890E94E91B80E992E0F2
:103B30000E94721B86E0F60111928A95E9F70E94B5
:103B4000291CF12CBFC04913D9CFE110D7CFF80100
:103B50008583C8010E94721B86E0F60111928A9546
:103B6000E9F7B0C0EE2091F220919502822F829564
:103B70008F7090E002970CF4B2CF809190029091F8
:103B800091029A8389831B82BD82AC822E83CE01EF
:103B90000196A3CFE83CF10508F047C0FE2CEE20CB
:103BA00009F4B4CF561330C049132EC020919502AA
:103BB00020FD21C0822F82958F70482F50E0411543
:103BC0005105C9F0F80125834F30510541F08F5F51
:103BD000982F9295907F822F8F70892B8583C801B3
:103BE0000E94721B86E0F801A0E9B2E001900D92FC
:103BF0008A95E1F742C086E0F801A0E9B2E00190C1
:103C00000D928A95E1F75EC04D875E878D859E8512
:103C10000E94E41B811163CF8091950281608093A3
:103C20009502C8010E94721B4DC07A2DB98AA88ADC
:103C30006E2D89890E94E91B86E0F60111928A9512
:103C4000E9F71BC0EE2009F461CF4D875E878D85B3
:103C50009E850E94E41BF82E882309F457CF86E046
:103C6000F801A0E9B2E001900D928A95E1F780E9B0
:103C700092E00E94C5170E94371C0E94291C22C096
:103C80004D875E878D859E850E944B21292F229529
:103C90002F70223028F49F7039F0811105C00BC0BD
:103CA000243028F49F7049F4805E883020F0C801E9
:103CB0000E94721B9F2CF92C05C0F8019581907F02
:103CC00099F7F9CF8F2D61960FB6F894DEBF0FBE2E
:103CD000CDBFDF91CF911F910F91FF90EF90DF90BB
:103CE000CF90BF90AF909F9008951F93CF93DF9395
:103CF000CDB7DEB72C970FB6F894DEBF0FBECDBFA1
:103D00004F83588769877A878B879C87CE01079670
:103D10000E94A31C8823D1F09F8188852A853B853A
:103D2000232B31F08F3F31F481E09F3F19F403C022
:103D300081E001C080E080FD47C04F8158856985E2
:103D40007A858B859C850E94F81B3EC086E0FE012B
:103D50003796DE01119601900D928A95E1F7FF8169
:103D6000E8856A857B856115710531F0EF3F31F497
:103D700081E0FF3F19F403C081E001C080E080FDD5
:103D800023C020915F0230E0C90101968770992716
:103D900040915E0250E084179507F1F1F983EA83C0
:103DA0007D836C8396E0929FD001939FB00D112488
:103DB000A05ABD4FFE01319601900D929A95E1F700
:103DC00080935F020E94081C16E080915E02909131
:103DD0005F02891771F1189FC0011124805A9D4F0D
:103DE0000E94A31C882329F1E0915E021E9FF0012E
:103DF0001124E05AFD4F4081518162817381848199
:103E000095810E94F81B80915E0290E00196877078
:103E1000992780935E02D9CF0E94BC1B10925F024B
:103E200010925E02E0E9F2E086E0DF011D928A95E1
:103E3000E9F72C960FB6F894DEBF0FBECDBFDF9129
:103E4000CF911F910895EF92FF920F931F93CF93FD
:103E5000DF938C01892B09F46CC0F12CEE24E394E0
:103E6000E8012196F8018491843740F4843008F009
:103E700051C0813081F0823019F15BC0853709F47F
:103E800044C0A8F19CE7980F903708F052C08F7794
:103E90000E947A1841C00E5F1F4FFE01849190E28C
:103EA000980F983050F48770FE2D01C0FF0F8A954F
:103EB000EAF78F2F0E94AD2114C00E94CB172DC0AE
:103EC0000E5F1F4FFE01849190E2980F983060F4CE
:103ED0008770FE2D01C0FF0F8A95EAF78F2F0E9491
:103EE000B3210E94D82119C00E947A1816C00E5F13
:103EF0001F4FFE01C491CC2381F08FE99FE0019711
:103F0000F1F700C00000C150F6CF0E5F1F4FFE0159
:103F1000F49003C00E94CB178E018F2D882309F4E3
:103F20009FCFEFE9FFE03197F1F700C0000081502B
:103F3000F5CFDF91CF911F910F91FF90EF900895F2
:103F4000089508950C94A11F0C94A21F0E94A41F11
:103F50006093C2027093C3028093C4029093C5021F
:103F60000C94A21B0C94A61F0F931F930091C202E6
:103F70001091C3022091C4023091C502602B712BB5
:103F8000822B932B1F910F910C94A61F0F931F93BD
:103F90000091C2021091C3022091C4023091C50267
:103FA00060237123822393231F910F910C94A61FEA
:103FB0000F931F930091C2021091C3022091C4027B
:103FC0003091C50260277127822793271F910F9197
:103FD0000C94A61F0C94A11F0E94EA1F6093BE02BE
:103FE0007093BF028093C0029093C1020C94A21BF5
:103FF00060E070E0CB010C94EC1F0F931F9341E045
:1040000050E060E070E08A019B0104C0000F111FC6
:10401000221F331F8A95D2F7C901B8011F910F9152
:104020000C94EC1F0F931F9341E050E060E070E0B0
:1040300004C0440F551F661F771F8A95D2F78091E1
:10404000BE029091BF02A091C002B091C1028A014C
:104050009B01082B192B2A2B3B2BC901B8011F915F
:104060000F910C94EC1F0F931F9341E050E060E020
:1040700070E004C0440F551F661F771F8A95D2F762
:1040800040955095609570958091BE029091BF02C9
:10409000A091C002B091C1028A019B01082319239B
:1040A0002A233B23C901B8011F910F910C94EC1FE7
:1040B0000F931F9341E050E060E070E004C0440FB4
:1040C000551F661F771F8A95D2F78091BE02909187
:1040D000BF02A091C002B091C1028A019B010827D2
:1040E00019272A273B27C901B8011F910F910C946A
:1040F000EC1F0F931F930091BE021091BF022091FD
:10410000C0023091C102602B712B822B932B1F9127
:104110000F910C94EC1F0F931F930091BE0210910E
:10412000BF022091C0023091C1026023712382231B
:1041300093231F910F910C94EC1F0F931F930091E9
:10414000BE021091BF022091C0023091C1026027CF
:104150007127822793271F910F910C94EC1F0895CC
:10416000292F220F920F990F890FE82FE695E695D8
:10417000E695877051E001C0550F8A95EAF785E012
:10418000E89FF0011124EA56FD4F20E030E070E096
:104190004081CB01022E02C0969587950A94E2F7E2
:1041A0008170819584278523842781932F5F3F4FDA
:1041B0002530310569F70895292F220F920F990FA5
:1041C000890F682F669566956695982F977085E09C
:1041D000689FB001112440E050E080E0FB01E40F53
:1041E000F51FEA56FD4F208130E0092E02C03695BA
:1041F00027950A94E2F721703327042E01C0220F7D
:104200000A94EAF7822B4F5F5F4F4530510531F733
:104210000895BF92CF92DF92EF92FF920F931F9378
:10422000CF93DF938C01C090BE02D090BF02E0908C
:10423000C002F090C1028091C2029091C302A0918D
:10424000C402B091C502C82AD92AEA2AFB2ACFE1C2
:10425000D0E0D701C6010C2E04C0B695A79597955E
:1042600087950A94D2F780FD04C0219790F7B12C6E
:1042700007C0BC2EB8018C2F0E94F4040197A9F34B
:104280008B2DDF91CF911F910F91FF90EF90DF90D9
:10429000CF90BF900895CF93DF93EC010E94092146
:1042A000BE010E94F404DF91CF9108951F93CF9334
:1042B000DF93EB0190915D02992321F0CB010E94E5
:1042C0004B2113C0882349F0CB010E940921182FEC
:1042D000682FCE010E94B02004C0CB010E94DC20D8
:1042E000182FBE01812F0E94F404DF91CF911F91FE
:1042F00008958091C602859585958595089580914C
:10430000C602877008959091C602977081E009F403
:1043100080E008958091D20208959091D202892B75
:104320008093D202089580959091D2028923809340
:10433000D20208951092D20208959091D102892B51
:104340008093D102089580959091D1028923809322
:10435000D10208951092D10208959091D002892B34
:104360008093D002089580959091D0028923809304
:10437000D00208951092D00208958091C702089546
:1043800008950C94C0210C94C1219091C7029817F4
:1043900021F08093C7020C94C32108958091C70235
:1043A000882329F01092C70280E00C94C32108955D
:1043B000E0912701F09128018091D2028083E09161
:1043C0002701F091280190818091D102892B80836F
:1043D000E0912701F091280190818091D002892BF2
:1043E00080838091C702882381F0E0912701F091BA
:1043F00028019081892B8083809127019091280149
:104400000E94E42281110E94CE2180912701909187
:1044100028010C9492160C94C02198E0899F900179
:104420001124262B2093C6020E9412208091C602DE
:104430008595859585950C940B221092C60280E097
:104440000C940B222091C602809582238093C60291
:10445000982F977079F430E0482F082E000C550BF8
:104460002417350739F08595859585950E94332069
:104470000C941D22089580E090E00E94E33021E03A
:104480008C3E9E4F09F020E0822F089582E090E05C
:104490000C94D53083E090E00C94D530CF9384E039
:1044A00090E00E94D530C82F81E290E00E94D53084
:1044B0002C2F30E0A901582BCA01CF910895CF933A
:1044C000C92F682F84E090E00E94E9306C2F81E2D0
:1044D00090E0CF910C94E93086E090E00C94D530D8
:1044E000682F86E090E00C94E930AB01BC018FE0CE
:1044F00090E00C94FB30AB01BC0183E190E00C94A4
:10450000FB3060E070E0CB010C947B226CEE7EEF20
:1045100080E090E00E94073160E082E090E00E943D
:10452000E93060E083E090E00E94E9301092C2023E
:104530001092C3021092C4021092C50260E084E09F
:1045400090E00E94E93060E081E290E00E94E93072
:1045500060E085E090E00E94E93060E086E090E075
:104560000E94E9306FEF87E090E00E94E93040E080
:1045700050E0BA0188E090E00E94FB3060E08DE0FE
:1045800090E00E94E93040E050E0BA0188E190E01C
:104590000E94FB3060E087E190E00E94E93040E05B
:1045A00050E0BA018CE190E00E94FB3060E080E2D4
:1045B00090E00E94E9300C94FA030C948622682F54
:1045C0008EE090E00C94E930FC01329697E080E0B8
:1045D000915029F021912223D9F38F5FF9CF0895CB
:1045E000662349F0FC01329608962191621729F062
:1045F000E817F907D1F780E0089581E008959C015C
:10460000FC0132969FEF80E04191461789F09F3F71
:1046100019F4411101C0982F8F5F8630A9F79F3F91
:1046200039F0F901E90FF11D97FDFA9562830895BC
:1046300008959C012A5F3F4FFC014281461301C04F
:104640001282019682179307B9F708950C94FF22FE
:104650000C941923029626E0FC0111922A95E9F7A1
:10466000089508950C9431230C943123CF930E9424
:1046700034230E9489070E943223C0E08C2F0E94BD
:10468000E306811104C0CF5FCA30C1F701C081E0E9
:10469000CF9108950C9431230C944A230E944C230B
:1046A00080913C03843061F11092D40220E488E1CF
:1046B00090E00FB6F894A895809360000FBE209309
:1046C000600080E00E94101280E00E9473040E944B
:1046D0004C2383B7817F846083BF83B7816083BFAE
:1046E0007894889583B78E7F83BF0FB6F894A8958A
:1046F00080916000886180936000109260000FBE1E
:1047000008950C9431230E94BC1B0E9401110E9449
:1047100086160E9473040C9481231F920F920FB689
:104720000F9211248F939F93AF93BF938091D402E4
:10473000811113C08091320390913303A09134030F
:10474000B09135034196A11DB11D80933203909322
:104750003303A0933403B0933503BF91AF919F917E
:104760008F910F900FBE0F901F90189582E084BD1F
:1047700093E095BD9AEF97BD80936E0008952FB793
:10478000F8948091320390913303A0913403B09157
:1047900035032FBF08959C014FB7F89480913203E1
:1047A00090913303A0913403B09135034FBF821B26
:1047B000930B089578941F920F920FB60F921124C5
:1047C0008F939F93AF93BF93809132039091330364
:1047D000A0913403B09135030196A11DB11D8093C2
:1047E000320390933303A0933403B0933503BF9106
:1047F000AF919F918F910F900FBE0F901F901895C2
:1048000081E08093E00080E28093D8001092C9009C
:104810008FE19EE40197F1F700C0000087E090EB84
:10482000DC018093450390934603A0934703B09324
:1048300048039CE088E10FB6F894A8958093600047
:104840000FBE90936000FFCF0E943B22811102C0F7
:104850000E94DD220E9446228093D3020E944E22B3
:1048600090933703809336030E944A22682F70E0AA
:1048700080E090E00C94B21F8091DC0280FF0BC0BE
:1048800060912E0185E0689FB001112475956795B0
:10489000759567952BC081FF09C060912E0185E059
:1048A000689FB00111247595679520C082FF07C0ED
:1048B00060912E0185E0689FB001112417C090918E
:1048C000DB029923D1F060912D01961788F7209192
:1048D0002E0185E0289F90011124929FA001939FB3
:1048E000500D112470E0CA010E9416306038710525
:1048F00040F46115710519F406C065E070E0862F7B
:1049000008958FE7089581E008958091DC0280FF8B
:1049100008C060912A0170E0759567957595679557
:1049200021C081FF06C060912A0170E075956795EE
:1049300019C082FF04C060912A0170E010C09091FC
:10494000DB02992399F0609129019617A0F78091D5
:104950002A01899FC001112470E00E94163060383E
:10496000710540F46115710519F406C061E070E04D
:10497000862F08958FE7089581E00895803F21F400
:104980000E943C24819504C0813F29F40E943C246C
:104990008093E0020895823F21F40E943C24819597
:1049A00004C0833F29F40E943C248093DF020895D1
:1049B000893F19F40E94852405C08A3F31F40E9482
:1049C000852481958093E10208958B3F21F40E9414
:1049D0008524819504C08C3F29F40E94852480930E
:1049E000E2020895843F21F48091DE02816017C0C5
:1049F000853F21F48091DE02826011C0863F21F460
:104A00008091DE0284600BC0873F21F48091DE023A
:104A1000886005C0883F31F48091DE028061809318
:104A2000DE0208958D3F21F48091DC0281600BC08D
:104A30008E3F21F48091DC02826005C08F3F29F413
:104A40008091DC0284608093DC020895803F39F419
:104A50008091E00287FF6CC01092E00269C0813F44
:104A600029F48091E0021816BCF362C09091DF0235
:104A7000823F29F497FF5CC01092DF0259C0833F48
:104A800019F41916CCF354C0893F41F48091E10226
:104A900018160CF04DC01092E1024AC08A3F29F46A
:104AA0008091E10287FF44C0F6CF8B3F39F48091BB
:104AB000E20287FF3DC01092E2023AC08C3F29F427
:104AC0008091E2021816BCF333C0843F21F4809138
:104AD000DE028E7F17C0853F21F48091DE028D7F3C
:104AE00011C0863F21F48091DE028B7F0BC0873F8F
:104AF00021F48091DE02877F05C0883F31F48091E8
:104B0000DE028F7E8093DE0213C08D3F21F4809100
:104B1000DC028E7F0BC08E3F21F48091DC028D7F02
:104B200005C08F3F29F48091DC028B7F8093DC02EB
:104B30008091DF0281110EC08091E00281110AC0D4
:104B40008091E102811106C08091E202811102C0D0
:104B50001092DB0208958DED92E00E949D160E9456
:104B6000BF239093DA028093D9020895CF93DF9305
:104B700000D000D000D0CDB7DEB786E0EDEDF2E09A
:104B8000DE01119601900D928A95E1F78091DF0286
:104B9000811105C08091E002882309F47AC08091D8
:104BA000D7029091D8020E94CB23AC019091DB02F6
:104BB000992339F020912F0130E02417350758F060
:104BC00068C0209130018AE0289F900111242417A9
:104BD000350718F05EC09F3F19F09F5F9093DB028E
:104BE0001092E1021092E2028091DF02181624F482
:104BF0000E943C248093DF028091DF0287FF05C082
:104C00000E943C2481958093DF028091E002181677
:104C100024F40E943C248093E0028091E00287FF0C
:104C200005C00E943C2481958093E0023091DF0210
:104C30003323E1F02091E0022223C1F045EB34035D
:104C4000C0011124992319F09093DF0203C081E081
:104C50008093DF0235EB2303C0011124992319F05F
:104C60009093E00203C081E08093E0020E94AB25B4
:104C70008091D9029091DA029093D8028093D70262
:104C800086E0FE013196ADEDB2E001900D928A957D
:104C9000E1F78091E102811105C08091E202882351
:104CA00009F47AC08091D5029091D6020E94CB235C
:104CB000AC019091DB02992339F020912B0130E077
:104CC0002417350758F068C020912C018AE0289FEE
:104CD000900111242417350718F05EC09F3F19F08A
:104CE0009F5F9093DB021092DF021092E0028091AE
:104CF000E102181624F40E9485248093E102809139
:104D0000E10287FF05C00E94852481958093E1021E
:104D10008091E202181624F40E9485248093E20216
:104D20008091E20287FF05C00E94852481958093CF
:104D3000E2023091E1023323E1F02091E2022223EA
:104D4000C1F045EB3403C0011124992319F090936D
:104D5000E10203C081E08093E10235EB2303C0014F
:104D60001124992319F09093E20203C081E080930B
:104D7000E2020E94AB258091D9029091DA029093D1
:104D8000D6028093D50286E0FE013196ADEDB2E009
:104D900001900D928A95E1F726960FB6F894DEBF42
:104DA0000FBECDBFDF91CF910895EDEDF2E086E02B
:104DB000DF011D928A95E9F71092DB021092DC0266
:104DC0000895833081F128F4813059F08230D1F098
:104DD0000895853009F449C0B8F1863009F456C009
:104DE000089580913001262F30E0280F311D2F3F8C
:104DF000310524F4680F6093300108958FEF80939C
:104E00003001089580912F01262F30E0280F311DA9
:104E10002F3F310524F4680F60932F0108958FEF21
:104E200080932F01089580912E01262F30E0280FC6
:104E3000311D2F3F310524F4680F60932E01089532
:104E40008FEF80932E01089580912D01262F30E061
:104E5000280F311D2F3F310524F4680F60932D0179
:104E600008958FEF80932D01089580912A01262FB8
:104E700030E0280F311D2F3F310524F4680F609377
:104E80002A0108958FEF80932A01089580912901C6
:104E9000262F30E0280F311D2F3F310524F4680FF5
:104EA0006093290108958FEF80932901089583303D
:104EB00011F128F4813049F0823091F00895853065
:104EC00081F120F18630C1F1089580913001681799
:104ED00020F4861B809330010895109230010895CC
:104EE00080912F01681720F4861B80932F0108956D
:104EF00010922F01089580912E01681720F4861BCF
:104F000080932E01089510922E01089580912D0115
:104F1000681720F4861B80932D01089510922D01AF
:104F2000089580912A01681720F4861B80932A0136
:104F3000089510922A01089580912901681720F49C
:104F4000861B8093290108951092290108950F93DB
:104F50001F9341E050E060E070E08A019B0104C0D3
:104F6000000F111F221F331F8A95D2F7C901B80104
:104F70000E94B21F1F910F910C94BC1B8B3109F43E
:104F800068C058F58B3009F486C078F4863009F48F
:104F900045C020F4853009F44BC07FC0873009F448
:104FA0004AC0883009F477C078C0803109F464C001
:104FB00068F48E3009F071C08091D30282FB222701
:104FC00020F991E0922790FB82F94CC0863109F4D8
:104FD00062C0893109F45FC060C08A32E1F060F4D8
:104FE000873209F455C028F48E3108F456C08D512B
:104FF00050C08932E9F051C0833450F48A3308F04C
:1050000045C0853309F444C0883309F444C045C021
:105010008334F1F142C00E94DD223DC08091D30271
:10502000817F8E7F8093D30281E08093E402089594
:105030000E947D0430C08091D302982F909591708A
:1050400090FB80F98093D302911125C0897F877FDF
:1050500010C08091D30281FB222720F991E0922792
:1050600090FB81F98093D3029923A9F08091D30218
:1050700081608093D3020FC08091D30283FB2227EB
:1050800020F991E0922790FB83F9ECCF895301C07E
:1050900080E00E94A72781E0089580E0089580E0E5
:1050A00008950C944F288E518A3030F4E82FF0E0A8
:1050B000E752FE4F8081089580E00895CF93C82F76
:1050C0008091E402813051F018F0823099F17DC076
:1050D0000E948A21823209F07AC004C00E948A218B
:1050E000823261F48C2F0E945128811104C08C2FD0
:1050F0000E94BE271DC081E090E01AC08C2F0E9444
:105100004F28811114C0C43179F048F4CB3079F0C4
:10511000C03109F060C082E08093E40208C0C93267
:1051200019F0C83321F057C01092E40254C081E056
:10513000817053C0C93289F118F5C43171F1B0F4EE
:10514000C73009F046C08EE18093300182E380933E
:105150002F018AE080932E0184E180932D0188E065
:1051600080932A0188E28093290133C082EE8C0F5C
:10517000863078F58C2F0E9453288093E30229C053
:10518000CE34E9F020F4CB3421F56AE013C0C13508
:1051900079F0C235F1F461E00DC08091E30288231B
:1051A00019F01092E30215C081E08093E40215C06B
:1051B00061E006C08091E3020E94E1260AC06AE035
:1051C0008091E3020E94572704C01092E40280E01D
:1051D00004C081E002C080E0ABCFCF910895809100
:1051E000ED020895CF93DF9300D01F92CDB7DEB7C5
:1051F00090913C03943019F589837B836A8382E024
:105200008093E9008FEF9091E800815095FD06C0F2
:1052100095ED9A95F1F700008111F5CF8091E800A6
:1052200085FF0DC040E050E063E070E0CE010196E4
:105230000E943A2B8091E8008E778093E8000F90CF
:105240000F900F90DF91CF910895CF93DF93EC01F2
:105250000E941D2B823011F0843031F4BE0184E0B5
:10526000DF91CF910C94F228DF91CF910895BC018A
:1052700083E00C94F228CF93DF93EC010E941D2B66
:10528000823011F08430F9F482E08093E9008FEFEE
:105290009091E800815095FD06C095ED9A95F1F743
:1052A00000008111F5CF8091E80085FF0CC040E03F
:1052B00050E066E070E0CE010E943A2B8091E80059
:1052C0008E778093E800DF91CF910895CF93DF939D
:1052D000EC010E941D2B823011F0843039F581E001
:1052E0008093E9008FEF9091E800815095FD06C012
:1052F00095ED9A95F1F700008111F5CF8091E800C6
:1053000085FF14C040E050E068E070E0CE010E94EC
:105310003A2B8091E8008E778093E80088E0FE01C8
:10532000A5EEB2E001900D928A95E1F7DF91CF9161
:10533000089580913B03811109C00E94CB2C0E94EB
:10534000282D8091E20084608093E20008951092FD
:105350003B030895089508950C94832342E061EC83
:1053600081E00E94442C42E261EC82E00C94442CE7
:1053700080913E03833009F460C030F4813071F0D5
:10538000823009F499C008958A3009F485C08B30C1
:1053900009F46BC0893009F0A7C020C080913D039B
:1053A000813A09F0A1C08091E800877F8093E800EE
:1053B0008091410390914203892B21F468E085EEAE
:1053C00092E003C060E080E090E070E00E94852BF6
:1053D0008091E8008B778093E800089580913D03E9
:1053E000813209F081C0809141039091420302977C
:1053F00008F07AC08091E800877F8093E800809170
:10540000E80082FD05C080913C038111F8CF6CC09B
:105410002091F3008091F20090E0922B029729F402
:105420008091F1008B7F813021F48091F100809395
:10543000ED028091E8008B7753C080913D03813A63
:1054400009F052C08091410390914203892B09F0E9
:105450004BC08091E800877F8093E8008091E8004E
:1054600080FFFCCF80913B0136C080913D038132AB
:10547000D9F58091410390914203892BA9F5809140
:10548000E800877F8093E8000E94792C80913F0399
:1054900080933B010C94BC1B80913D03813221F52C
:1054A0008091E800877F8093E8000E94792C8091AA
:1054B00040038093EE02089580913D03813AA1F468
:1054C0008091E800877F8093E8008091E80080FF6A
:1054D000FCCF8091EE028093F1008091E8008E77FE
:1054E0008093E8000C94792C089584B7877F84BF5B
:1054F0000FB6F894A8958091600088618093600051
:10550000109260000FBE90E080E80FB6F894809390
:105510006100909361000FBE0E94E7160E94CB2CA1
:105520000E94282D8091E20084608093E2007894AC
:105530000E94BD2F0E94EF1681E391E00E94811628
:1055400080913C03853069F40E944E2380913A0398
:105550008823B1F30E943623882391F30E94242BE1
:10556000EFCF0E94FB16ECCF0C94B62A292F3327DD
:1055700023303105C9F060F42130310581F022304B
:10558000310509F04AC08BE390E024E536E049C0DC
:105590002132310511F12232310579F13EC082E12B
:1055A00090E02FE836E03DC099278130910561F009
:1055B00040F08230910559F0039779F5EEE0F6E07E
:1055C00008C0E0E5F6E005C0E0E4F6E002C0E4E192
:1055D000F6E0849190E09F0124C06115710541F0CF
:1055E00061307105D1F489E090E02FE736E019C011
:1055F00089E090E026E636E014C06115710541F0BF
:105600006130710551F481E890E021EA36E009C08B
:1056100080E490E022E237E004C080E090E020E007
:1056200030E0FA0131832083089580913C03843077
:1056300011F081E0089582E008958091EF028111D8
:1056400002C00C94152B089580E189BD82E189BDCB
:1056500009B400FEFDCF8091D8008F7D8093D800E3
:105660008091E00082608093E0008091E00081FD05
:10567000FCCF0895CF92DF92EF92FF920F931F938A
:10568000CF93DF93EC018B017A010E94982C81115A
:1056900033C0E114F10439F0F70180819181081BD6
:1056A000190BC80FD91FC12CD12C0115110519F1E7
:1056B0008091E80085FD16C08091E8008E77809388
:1056C000E800E114F10449F0F70180819181C80EEE
:1056D000D91ED182C08285E00FC00E94982C8823F9
:1056E00021F30AC089918093F10001501109FFEF65
:1056F000CF1ADF0ADACF80E0DF91CF911F910F91AF
:10570000FF90EF90DF90CF90089520914303309168
:1057100044032617370748F06115710539F42091C5
:10572000E8002E772093E80001C0B901FC0120E0D9
:105730006115710579F180913C038823F1F1853081
:10574000F1F18091E80083FD3CC08091E80082FD8A
:105750002EC08091E80080FFEBCF2091F300809174
:10576000F20090E0922B6115710551F0883091059F
:1057700038F421912093F100615071090196F3CF23
:1057800021E0089709F020E08091E8008E7780936F
:10579000E800CECF2111CFCF0AC080913C038823EF
:1057A00061F0853061F08091E80083FD0AC080914E
:1057B000E80082FFF2CF80E0089582E0089583E060
:1057C000089581E008952091430330914403261702
:1057D000370748F06115710539F42091E8002E77FC
:1057E0002093E80001C0B901FC0120E061157105BA
:1057F00091F180913C03882309F440C0853009F47D
:105800003FC08091E80083FD3DC08091E80082FDAB
:105810002FC08091E80080FFE9CF2091F3008091B4
:10582000F20090E0922B6115710559F088309105D6
:1058300040F424912093F100319661507109019652
:10584000F2CF21E0089709F020E08091E8008E7700
:105850008093E800CBCF2111CCCF0AC080913C03CC
:10586000882361F0853061F08091E80083FD0AC0F3
:105870008091E80082FFF2CF80E0089582E00895F1
:1058800083E0089581E00895982F973068F590930C
:10589000E900981739F07091EC002091ED005091DB
:1058A000F00003C0242F762F50E021FD02C09F5F3F
:1058B000ECCF3091EB003E7F3093EB003091ED0068
:1058C0003D7F3093ED003091EB0031603093EB0081
:1058D0007093EC002093ED005093F0002091EE00C7
:1058E00027FDE5CF80E008958F708093E90081E087
:1058F000089580913D0387FF11C08091E80082FDEB
:1059000005C080913C038111F8CF11C08091E8005F
:105910008B770BC080913C03882349F08091E8008D
:1059200080FFF8CF8091E8008E778093E80008959B
:105930002091E4003091E50095E64091EC00842F41
:10594000817040FF23C08091E80080FD1DC08091E0
:105950003C03882399F0853099F08091EB0085FD18
:1059600011C04091E4005091E5002417350729F358
:10597000915011F09A01E1CF84E0089582E00895FA
:1059800083E0089581E0089580E008954091E80063
:1059900042FFDDCF08950E94392D0E94412DE0EE97
:1059A000F0E0808181608083E8EDF0E080818F7796
:1059B000808319BCA7EDB0E08C918E7F8C938081A1
:1059C0008F7E808310923B0308950F931F93CF9394
:1059D000DF930E94392D0E94412DC8EDD0E08881CF
:1059E0008F77888388818068888388818F7D88838A
:1059F00019BC10923C031092380310923A03109293
:105A0000390300EE10E0F80180818B7F808388816C
:105A10008160888342E060E080E00E94442CE1EEF7
:105A2000F0E080818E7F8083E2EEF0E08081816013
:105A30008083808188608083F80180818E7F80836D
:105A4000888180618883DF91CF911F910F910895A4
:105A5000E8EDF0E080818F7E8083E7EDF0E08081EB
:105A60008160808384E082BF81E080933B030C945B
:105A7000E52CE8EDF0E080818E7F80831092E200DB
:105A800008951092DA001092E10008951F920F928B
:105A90000FB60F9211242F933F934F935F936F9301
:105AA0007F938F939F93AF93BF93EF93FF938091D7
:105AB000E10082FF0BC08091E20082FF07C080916D
:105AC000E1008B7F8093E1000E94BC2F8091DA007F
:105AD00080FF1FC08091D80080FF1BC08091DA003A
