:100000000C94B1030C9412160C94F8030C94F8039E
:100010000C94F8030C94F8030C94F8030C94F80374
:100020000C94F8030C94F8030C94992D0C946B2EFB
:100030000C94FD230C94F8030C94F8030C94F8032F
:100040000C94F8030C94F8030C94F8030C94F80344
:100050000C94F8030C944A240C94F8030C94F803C1
:100060000C94F8030C94F8030C94F8030C94F80324
:100070000C94F8030C94F8030C94F8030C94F80314
:100080000C94F8030C94F8030C94F8030C94F80304
:100090000C94F8030C94F8030C94F8030C94F803F4
:1000A0000C94F8030C94F8030C94F8030D11101140
:1000B00015111C11211126112B11301135113A1176
:1000C0003F114411461149114C114F115211551154
:1000D00057115C11DD19DD190F1A0F1A5C1A7A1A03
:1000E0009B1B9B1B851A1A1B2B1B2B1B8B1B9B1BE8
:1000F0009B1B941B3B1C3B1C4D1C4D1C441C4D1C52
:100100004D1C4D1C3B1C3B1C491C4D1C4D1C491CD3
:10011000D82EFF2EF72FFF2EF72F4B2F6E2FF72FF6
:10012000C52FD42F35421E021F02200221022202B7
:100130002B4214001A000800150017002961040062
:100140001600070009000A0003511D001B000600ED
:10015000190005000065E000E200E30001510151D3
:100160002302240225022602270231001C00180067
:100170000C00120013002A000B000D000E000F00EF
:1001800033003400110010003600370038002843D7
:100190002C002C005000510052004F0000000000C5
:1001A000000000000000000000000000000000004F
:1001B0002602000000000000000000002F022D02B7
:1001C000E1000000000000002F002D000000E00012
:1001D000E200E30001000100000000000000000058
:1001E00000000000000027020000000000000000E6
:1001F0002E00300200000000000000002E0230003F
:100200000000AE000000E50005510551AC00AA0059
:10021000A900AB0035071E071F072007210722078B
:10022000000014071A07080715071707290704070E
:100230001607070709070A0700001D071B0706071F
:100240001907050700000000000000000000000082
:100250002307240725072607270731071C07180748
:100260000C07120713072A070B070D070E070F07C6
:1002700033073407110710073607370738072807F1
:100280002C072C075007510752074F0735021E0055
:100290001F002000210022002B0014021A02080275
:1002A00015021702E00004021602070209020A0200
:1002B00001001D021B020602190205020000E000F7
:1002C000E200E300000000002300240025002600D7
:1002D000270031021C0218020C02120213024C0009
:1002E0000B020D020E020F623302340211021002E1
:1002F0003602370238022802000000000000000029
:1003000000000000010001000100010001000100E7
:1003100001000100010001000100010001000100D5
:1003200001000100010001000100010001000100C5
:1003300001000100010001000100010001000100B5
:1003400001000100010001000100010001000100A5
:100350000100010001000100010001000100010095
:100360000100010001000100010001000100010085
:1003700001000100010001000100010000003A003D
:100380003B003C003D003E000000005CC25CC35CE2
:10039000C65CC55C0000000000000000000000001A
:1003A000000000000000000000000000000000004D
:1003B00000000000000000003F004000410042003B
:1003C00043000000C85CC75CCA5CC95C0000000058
:1003D000000000000000000000000000000000001D
:1003E000000000000000000001000100000000000B
:1003F0000000000032190A00047F3F1F64321464B9
:100400003214783C1E1E140A052223252628292A88
:100410002C2D2F3032333536383A3B3D3E40424367
:100420004547494A4C4E5051535557595A5C5E60A6
:1004300062646668696B6D6F71737577797B7D7FB8
:1004400081838587898A8C8E90929496989A9C9EB7
:100450009FA1A3A5A7A8AAACAEAFB1B3B4B6B8B9D3
:10046000BBBCBEBFC1C2C3C5C6C7C9CACBCCCDCE3B
:10047000D0D1D2D2D3D4D5D6D7D7D8D9D9DADADB1E
:10048000DBDBDCDCDCDCDCDDDDDDDDDCDCDCDCDCAA
:10049000DBDBDBDADAD9D9D8D7D7D6D5D4D3D2D2E9
:1004A000D1D0CECDCCCBCAC9C7C6C5C3C2C1BFBED1
:1004B000BCBBB9B8B6B4B3B1AFAEACAAA8A7A5A33C
:1004C000A19F9E9C9A98969492908E8C8A898785FB
:1004D00083817F7D7B79777573716F6D6B696866DA
:1004E0006462605E5C5A5957555351504E4C4A49AC
:1004F00047454342403E3D3B3A3836353332302F54
:100500002D2C2A292826252322FFAA7F55400001C9
:1005100001010101010101010202020202020202C3
:100520000203030303030303030404040404040495
:100530000505050505060606060607070707070859
:10054000080808090909090A0A0A0B0B0B0C0C0C0C
:100550000D0D0D0E0E0E0F0F0F10101111111212A6
:1005600013131414151516161717181819191A1A23
:100570001B1B1C1D1D1E1E1F202021222223242484
:10058000252626272829292A2B2C2D2D2E2F3031C0
:100590003232333435363738393A3B3C3D3E3F40D2
:1005A0004142434445464748494A4C4D4E4F5051BD
:1005B0005354555658595A5B5D5E5F616264656677
:1005C00068696B6C6D6F7072737577787A7B7D7EFE
:1005D0008082838587888A8C8E8F91939596989A4E
:1005E0009C9EA0A2A3A5A7A9ABADAFB1B3B5B7BA66
:1005F000BCBEC0C2C4C6C9CBCDCFD1D4D6D8DBDD3A
:10060000DFE2E4E7E9EBEEF0F3F5F8FAFDFF0403CF
:10061000300000002A0354006800650020004E00EE
:1006200079007100750069007300740020004B00B0
:100630006500790062006F006100720064000000D4
:100640000E034B0065006500620069006F0000004A
:100650000403090409023B00020100A0FA09040096
:1006600000010301010009211101000122400007DE
:1006700005810308000A09040100010300000009C4
:1006800021110100012281000705820320000A12C6
:100690000110010000000810CB56110003010203F5
:1006A0000105010902A10185020901A1000509193D
:1006B0000129051500250195057501810295017532
:1006C0000381010501093009311581257F950275E6
:1006D00008810609381581257F9501750881060571
:1006E0000C0A38021581257F950175088106C0C066
:1006F00005010980A101850319012AB7001501260A
:10070000B700950175108100C0050C0901A1018594
:100710000419012AA002150126A002950175108175
:1007200000C005010906A101050719E029E7150028
:10073000250195087501810295017508810105075C
:10074000190029FF150026FF009506750881000590
:100750000819012905950575019102950175039107
:1007600001C011241FBECFEFDAE0DEBFCDBF04B65B
:1007700003FE27C08091410390914203A09143035F
:10078000B09144038730904BA740B04BD1F4109206
:10079000410310924203109243031092440314BE8B
:1007A00084B7877F84BF0FB6F894A89580916000C6
:1007B000886180936000109260000FBEE0E0F8E373
:1007C000099511E0A0E0B1E0E0E5F3E602C0059094
:1007D0000D92A43EB107D9F723E0A4EEB1E001C029
:1007E0001D92A134B207E1F70E94D72A0C94A631DA
:1007F0000C9400000E94D61185E00E9444120E94D1
:10080000560F4FEF6FEF80E00E94C90B8BE00E9404
:10081000530F60E070E0CB010E94E5220C94F122BE
:1008200081E0089581E008950C94120408950C94D9
:1008300016041F93CF93DF9300D000D01F92CDB743
:10084000DEB749835A836B8330915D0289819A8137
:10085000311114C0662359F0222349F00E947921F6
:10086000182F682F89819A810E94202103C00E943D
:100870004C21182F69817A81812F04C00E9479212F
:1008800069817A810F900F900F900F900F90DF91F8
:10089000CF911F910C94D904FC01262F40815181E6
:1008A0006281738184810C941904CF93DF93EC01EE
:1008B00060E00E944C04BE01DF91CF910C941704BC
:1008C0000E94AB22811102C00E944D230E94E112BE
:1008D0000C94F5060C94F10608950C946C0481E0D8
:1008E00008950C946F04CF93C82F0E946D048C2F31
:1008F0000E947104CF91089508950E94291C0E94BE
:100900007C042FEF84E39CE0215080409040E1F78D
:1009100000C000000C9470240F931F93CF93DF93BB
:10092000EC0161E00E944C048C01BE010E941404A1
:100930008823A9F1BE01C8010E944A12882379F1D7
:10094000BE01C8010E94B413882349F1BE01C80149
:100950000E940614882319F1BE01C8010E943115B6
:100960008823E9F0BE01C8010E94F7108823B9F07E
:100970008A81882369F001158CE5180731F00E3D56
:100980001C4531F40E944D230AC00E947D0407C01B
:10099000CE01DF91CF911F910F910C94100480E054
:1009A000DF91CF911F910F91089580E090E008951D
:1009B00008952CE3829FC0011124FC0126E0729F60
:1009C000E00DF11D1124E60FF11DEE0FFF1FEC5D90
:1009D000FE4F859194910895880F991FFC01EC506A
:1009E000FC4F859194910895CF93DF930E94D90491
:1009F0000E940C06EC018115904508F041C0C1151C
:100A000080E4D80708F0D1C0C83ED10510F5C03E3B
:100A1000D10508F0FDC0C83AD10578F4C53AD10532
:100A200008F0A2C0C130D10509F4F2C008F4EEC04C
:100A3000C430D10508F0ECC0E9C0CF3BD10508F4C3
:100A40009BC0C03CD10508F4E1C0CE01805C910997
:100A50009EC0C11590E2D90758F4C11521E0D20714
:100A600008F0D6C0C03FD10508F4D0C0D065D0C0D2
:100A7000C11580E3D80708F08EC0CE019F7087C0F3
:100A8000C11595E5D90708F043C0C11524E5D20783
:100A900008F0A2C0C11582E5D80708F5C11591E597
:100AA000D90708F085C0CE0174E0969587957A95B0
:100AB000E1F783709C2F937021E030E002C0220F99
:100AC000331F9A95E2F73C68382BCF70C695C695D0
:100AD00080E2C89FE0011124C22BD32B99C09E0154
:100AE000237033278C2F86958695C115D34508F042
:100AF00064C0C1E0D0E002C0CC0FDD1F2A95E2F750
:100B000020E2829FC0011124C82BD92BDC6880C051
:100B1000C11529E5D207A0F4C11588E5D80708F06A
:100B200060C0C11596E5D90708F070C08C2F0E94EF
:100B3000A0068F71C82FD0E0DC2FCC27D06268C010
:100B4000C1152AE5D20708F451C0CE01905681158F
:100B5000904208F05BC08D2F8F710E94A006DD27A8
:100B6000D0628F71D82B54C0C55AD0E0C559DE4F22
:100B7000C881D0E0D0644CC0C85AD0E0CC0FDD1F93
:100B8000C35CDE4F0990D881C02DD46441C00E945F
:100B9000EC04EC013DC0CE019927D3FF03C0EC016A
:100BA000D86C36C0EC01D06C33C0DF70D06A30C076
:100BB000DC2FCC27C16FD06A2BC0C1E0D0E002C0CF
:100BC000CC0FDD1F2A95E2F720E2829FC00111249D
:100BD000C82BD92BDA681CC0DC2FCC27C46FD06A95
:100BE00017C0DC2FCC27C06FD06A12C08C2F8F703B
:100BF0000E94A00694E0D695C7959A95E1F7CF702C
:100C0000D0E0DC2FCC27D069C82B02C0C0E0D0E0F8
:100C1000CE01DF91CF9108958238910569F1B0F44A
:100C20008133910509F46DC048F48932910509F4C6
:100C300063C08A32910509F469C00895853391052E
:100C400009F455C089339105B9F00895833E9105A3
:100C500069F138F4803E9105B1F0823E910509F1C9
:100C60000895863E9105A9F1873E9105B9F1843E2C
:100C7000910509F064C023C02091320320FD4FC0CC
:100C800021FD4DC008958091320380FD44C08091C4
:100C9000330380FF44C08091320384FD42C083EE61
:100CA0004DC08091320382FF38C0F5CF809132036E
:100CB00082FD33C08091330380FD31C0ECCF809141
:100CC000330381FF32C08091320384FD2AC087EE56
:100CD00035C08091320383FF26C0F5CF8091320367
:100CE00083FD21C08091330381FD1FC0ECCF809133
:100CF000320385FD1CC01DC08091320385FD19C0E3
:100D000016C08091320386FD16C017C08091320351
:100D100086FD13C010C089E311C082EE0FC080EEC3
:100D20000DC080E00BC086EE09C084EE07C089E2EA
:100D300005C085E303C08AE201C081E390E0089525
:100D40009091320392FF0DC0282F2871283019F49A
:100D5000877F846006C0282F2471243011F48B7F94
:100D6000886093FF0DC0282F2871283119F4877EE1
:100D7000846106C0282F2471243111F48B7E886190
:100D80002091330320FF0DC0382F3871383019F40B
:100D9000877F816006C0382F3171313011F48E7F2A
:100DA000886021FF0DC0282F2871283119F4877E13
:100DB000816106C0282F2171213111F48E7E886156
:100DC00094FD877E0895E82FF0E0E850FD4F808184
:100DD0000895089580EA8A95F1F7089508950C948E
:100DE000EE060C94EF060C94EE060C94F3060895B0
:100DF000CF93DF930E946D088091040180910401DC
:100E0000811102C095E001C090E09093030385E05A
:100E1000891B80930203A4E7B1E049E751E061E058
:100E200070E08D91E82FE295EF70F0E021A18F70D6
:100E3000EB0102C0CC0FDD1F8A95E2F7CE019C2F9B
:100E40009095922391A392A1892B82A34A175B07C5
:100E500041F7AEE6B1E044E751E061E070E08D912A
:100E6000E82FE295EF70F0E021A18F70EB0102C056
:100E7000CC0FDD1F8A95E2F7CE019C2F909592232F
:100E800091A392A1892B82A34A175B0741F7EEEE4B
:100E9000F2E0A8EFB2E088EF92E011921D928E1777
:100EA0009F07D9F785E00E9412080E946004DF9135
:100EB000CF910C9481080E945008882309F18091F9
:100EC000020390E088509D4F0E94B108811114C028
:100ED0008091E4018F5F8093E401863078F0E091A7
:100EE0000203F0E0E850FD4F80E090E0119201969F
:100EF00085309105D9F702C01092E4010C946A0480
:100F00008091030390E088509D4F0E94DA080C9472
:100F1000F7066F927F928F929F92AF92BF92CF927D
:100F2000DF92EF92FF920F931F93CF93DF9384E7AB
:100F3000882E81E0982E0EEE12E093EFA92E92E01B
:100F4000B92E712CCC24C394D12CF40181914F0182
:100F5000C82FC295CF70D0E099A18F70760101C0E3
:100F6000EE0C8A95EAF7892F8E2989A38AA16E2C27
:100F7000609486218AA30E94EA06EEE6F1E040E052
:100F800050E020E03191A32FA295AF70B0E0909691
:100F90008C9190E03F7002C0959587953A95E2F765
:100FA00080FD07C08C2D042E01C0880F0A94EAF73B
:100FB00001C080E0282B4F5F5F4F4630510511F78D
:100FC00089A1682269A28AA1E82AEAA2F80180819F
:100FD000281719F0208381E001C080E0782A0F5F94
:100FE0001F4FA016B10609F0B0CF6091030370E067
:100FF00068507D4F272D45E08EEE92E00E94130849
:101000000E945B07872DDF91CF911F910F91FF9079
:10101000EF90DF90CF90BF90AF909F908F907F9098
:101020006F9008950895FF920F931F93CF93DF93CE
:101030008C01F62ED72FC42F222349F081E0809314
:10104000E7010E942F249093E6018093E5018091AF
:10105000E7018823C1F08091E5019091E6010E94AB
:101060003B24069780F0EF2DFD2FD8014C2F50E048
:10107000CD01801B910B841795071CF48D918193F2
:10108000F7CF1092E701DF91CF911F910F91FF9061
:10109000089555985D9889B185FB882780F9089552
:1010A0008091E801811112C08091D8008061809305
:1010B000D8008AE18A95F1F700C08091D90080FDBF
:1010C00002C082E001C081E08093E80181E090915C
:1010D000E801913009F080E008950E94490880936A
:1010E00004018091040166E0882311F080E001C0D2
:1010F00086E00E9488090E94500881110C9488089B
:1011000008950E945008811102C00C948E08089521
:1011100062E070E085E091E00C94C01562E070E060
:1011200085E091E00C94C9150E94BE0E882361F001
:1011300081EF91E00E94C40E81E090E00E94A2162F
:10114000892B11F40C94C10E08958091F001883020
:1011500039F460E081EF91E00E949C0F1092F00161
:101160000895CF93DF93D82FC92F0E94940880E071
:1011700090E00E94A216892BC9F4ED2FFC2F80E08D
:1011800090E0DC01A551BE4F2C9121930196853052
:101190009105B9F70E946611882319F00E946A111F
:1011A00001C080E08093EA0181E001C080E0DF912E
:1011B000CF910895CF93DF93D82FC92F0E94A50810
:1011C000ED2FFC2F80E090E02191DC01A551BE4F76
:1011D0002C93019685309105B9F78091EA01DF9152
:1011E000CF910C947F12EF92FF920F931F93CF93A6
:1011F000DF938B01682F11110AC0442329F0E82FD7
:10120000F0E0E25FFA4F6491762F862F75C0212FB0
:1012100030E0E82FF0E0442321F0E25FFA4FE49160
:10122000F0E046E0049FC0011124CFEFD0E0BE0102
:101230000E9455304BEA4603C001479F900D112490
:10124000800F911D800F911D982F990F890FAE016E
:10125000421B530B4E9FD0014F9FB00D5E9FB00DB0
:1012600011249B2F189FA0011124452F55278E0173
:10127000041B150B0E9FA0010F9F500D1E9F500DBC
:1012800011247E01E81AF108E29E8001E39E100D10
:10129000F29E100D1124212F3327C21BD30BCE9F9A
:1012A0009001CF9F300DDE9F300D1124623071050B
:1012B000A9F048F46115710569F061307105C9F450
:1012C0008B2F752F0DC06430710581F058F066309A
:1012D000710579F47E2F8B2F932F0DC0832F7B2FD9
:1012E0009E2F09C08E2F7B2F952F05C08E2F732F19
:1012F00002C07E2F852F692FDF91CF911F910F9113
:10130000FF90EF90089541E00E94F308089508953A
:10131000E8E1F1E0808361830895CF93DF93762F36
:10132000E901682F842F0E948309798368838A8367
:10133000DF91CF91089580910403282F269530E006
:101340002115310519F48170826005C02B323105F9
:1013500024F08170846580930403089588E090E010
:101360000C944731CF92DF92EF92FF926B017C0198
:101370000E949B09B701A60188E090E0FF90EF90E2
:10138000DF90CF900C946531E4E0F3E083E080835C
:1013900011828FEF828383831482A2E4B2E01296DB
:1013A0008C911297836012968C93608171818281F7
:1013B00093810C94B2098091040380FF02C086954A
:1013C000089580E0089590910803933018F49F5F8A
:1013D00090930803882351F06091040370910503F2
:1013E00080910603909107030C94B209089581E05F
:1013F0000C94E30990910803992319F0915090936C
:101400000803882351F060910403709105038091D3
:101410000603909107030C94B209089581E00C949F
:10142000FA0970E00C94F1126091190180910403A3
:1014300080FF0AC08091180123E0829FC00111241F
:10144000875F9C4F0C94110A80911A0190911B01A7
:10145000891780F7E82FF0E09F01220F331FE20F7A
:10146000F31FE75FFC4F1182108212828F5FF0CF73
:101470009091040390FF16C090911A0120911B01D6
:10148000921770F4E92FF0E0DF01AA0FBB1FEA0FFB
:10149000FB1FE75FFC4F8183608342839F5FF0CF38
:1014A0000C94140A0895CF93DF9300D01F92CDB708
:1014B000DEB79091040390FF0AC09E012F5F3F4F5B
:1014C0000E948D094B8169818A810E94380A0F90A0
:1014D0000F900F90DF91CF910895CF93DF93EC01A0
:1014E000EC81F0E0E75FFB4F4491E4E0F3E06281E0
:1014F00081810E94530A8C818F5F8C83DF91CF9111
:101500000895CF93DF93EC01E4E0F3E0438162813F
:101510008C810E94530A8C818F5F8C83DF91CF91E5
:1015200008950F931F93CF93DF9300D01F92CDB7F1
:10153000DEB78C018091F90181110AC09E012F5FF5
:101540003F4F4FEF6FEF0E948D098A818093F90121
:10155000F8018481813051F028F0823061F44091AB
:10156000F9010AC08091F90140E007C06091F901DA
:1015700040E080E003C040E080E060E00E94380A84
:10158000F801848190E0019663E070E00E94693088
:1015900084830F900F900F90DF91CF911F910F9147
:1015A0000895AF92BF92CF92DF92EF92FF920F9386
:1015B0001F93CF93DF9300D01F92CDB7DEB7182FC4
:1015C000F62E042FE22E9091040390FF7EC0E92FA7
:1015D000E695AE2FB0E0A258BE4F8C9180934202A8
:1015E0009E7F923061F49E012F5F3F4F812F0E94BA
:1015F0008D094B8169818A810E94380A43C08230FB
:1016000019F4009107033EC0863019F410910503C8
:1016100039C08930D9F38931A9F5E9518E2F81700C
:10162000D82EE695F0E0E75FFA4FA590B490C12C74
:10163000BB2460911C01C61618F52C2D30E0A29E2B
:10164000C001A39E900DB29E900D112470E00E94E7
:101650005530812FD11002C0860F01C0861B90919A
:101660001A01290F311DA901440F551F240F351FE1
:10167000275F3C4F402F6F2D0E948D09C394D9CF17
:101680000E94140A80910503181308C08091060374
:10169000F81204C080910703081729F080914402D2
:1016A00082608093440210930503F0920603009336
:1016B0000703EE2051F060910403709105038091BF
:1016C0000603909107030E94B2090F900F900F90AC
:1016D000DF91CF911F910F91FF90EF90DF90CF900E
:1016E000BF90AF900895E4E0F3E09181282F43810B
:1016F000628188E0890F0C94D10A81E00C94730B0D
:10170000E4E0F3E09181282F4381628188EF890F23
:101710000C94D10A81E00C94800BE4E0F3E0628148
:1017200021E1620F08F46FEF282F438181810C942F
:10173000D10A81E00C948D0BE4E0F3E0628121E1B9
:10174000621B08F460E0282F438181810C94D10A48
:1017500081E00C949C0BE4E0F3E0438121E1420F33
:1017600008F44FEF282F628181810C94D10A81E027
:101770000C94AB0BE4E0F3E0438121E1421B08F45D
:1017800040E0282F628181810C94D10A81E00C9481
:10179000BA0B21E00C94D10A20E00C94D10AFF92FC
:1017A0000F931F93CF93DF93EC01F12C0FEF10E019
:1017B00060911C01F616F0F480911A012F2D30E093
:1017C000280F311DC901880F991F280F391F275F66
:1017D0003C4F70E0C8010E946930962F8C81409187
:1017E000070360910603F99E800D11240E948D0964
:1017F000F394DECF0E94140A9A818C8190FF02C07C
:101800008F5F01C081508C83DF91CF911F910F9129
:10181000FF9008958F929F92AF92BF92CF92DF92E6
:10182000EF92FF920F931F93CF93DF93EC018A8186
:1018300080FF03C0BB24BA9402C0BB24B3948C8144
:1018400081110DC081E0B81206C080911C01815049
:101850008093FB0102C01092FB0181E08C83A12CDC
:101860004CE0942E80911C01A81608F044C0809191
:101870001A01CA2CD12C8601080F111DC801880F2E
:10188000991F080F191F075F1C4FF8011182108262
:10189000128234E0E32EF12C812C8091FB01880D23
:1018A0008D302CF0692D0E944730892F05C087FFAD
:1018B00003C090911C01890F082E000C990BC816CB
:1018C000D90691F4809107038E9DA0018F9D500D44
:1018D00011245595479555954795980160910603B4
:1018E000809105030E948D098B0CF1E0EF1AF1083D
:1018F000A1F6A394B7CF0E94140A8091FB0191E056
:10190000B9120EC0811107C080911C0181508093D3
:10191000FB011C820FC081508093FB01BC820AC076
:1019200090E0019660911C0170E00E946930809304
:10193000FB018C83DF91CF911F910F91FF90EF906E
:10194000DF90CF90BF90AF909F908F9008951F939E
:10195000CF93DF93EC018C81811109C081E08C83EE
:101960001092FA0192E090931701809316018091F2
:101970001A0190911B01891770F4E82FF0E09F0184
:10198000220F331FE20FF31FE75FFC4F118210821B
:1019900012828F5FF0CF10E060911C011617C0F526
:1019A000E12FF0E070E0CF010E94693020911A0130
:1019B000820F2091FA01022E000C330B90E0E21707
:1019C000F307CCF020911701022E000C330B2E17D9
:1019D0003F078CF09C01220F331F820F931F9C0145
:1019E000275F3C4F409107036091060380910503F8
:1019F0000E948D090BC0FC01EE0FFF1F8E0F9F1F71
:101A0000FC01E75FFC4F1182108212821F5FC4CF7E
:101A10000E94140A809116012091FA01280F209348
:101A2000FA0190911701980F9093170119165CF421
:101A3000022E000C330B40911C0150E04150510923
:101A40002417350734F0819580931601813009F40D
:101A50001C82DF91CF911F9108958F929F92AF9238
:101A6000BF92CF92DF92EF92FF920F931F93CF938B
:101A7000DF938C01FC014481C42FD0E09E01DE0184
:101A80000E94AD309B01AC010E94C3306B017C0110
:101A9000E0E2F0E0EC1BFD0BA5E5B0E09B01AC0142
:101AA0000E94C3304B015C019F01DF010E94A53001
:101AB0009B01AC010E94CE309B01AC012C0D3D1D61
:101AC0004E1D5F1DC501B4010E947D30C22FD22F73
:101AD0002A3228F4F3E02F9F900111240DC025E550
:101AE00030E02C1B3109C901880F991F280F391FBD
:101AF00037FF02C02F5F3F4F35952795C22FC09506
:101B0000F12C85E5E82EED1A80911C01F816C8F439
:101B1000F1FC02C08E2D01C08D2F90911A012F2D46
:101B200030E0290F311DA901440F551F240F351F27
:101B3000275F3C4F4C2F609106030E948D09F39460
:101B4000E3CF0E94140AF8018481811102C091E060
:101B500003C0803219F49FEF909315019091150105
:101B6000890FF8018483DF91CF911F910F91FF902E
:101B7000EF90DF90CF90BF90AF909F908F9008959F
:101B80000F931F93CF93DF93EC0100E010E080915F
:101B90001C01282F30E00217130724F590911A0139
:101BA0009801290F311DA901440F551F240F351F1E
:101BB000275F3C4F869590E04C81081719071CF46D
:101BC000442331F002C0411103C04091070301C01A
:101BD00040E060910603809105030E948D090F5F2C
:101BE0001F4FD5CF0E94140A8C8190E0019681701E
:101BF00099278C83DF91CF911F910F9108958F9238
:101C00009F92AF92BF92CF92DF92EF92FF920F938B
:101C10001F93CF93DF93FC01B280948081E0848393
:101C200000E015E05BE4A52E88248394EE24EA947A
:101C3000F12C7BE4C72ED12C80911C01081708F0F1
:101C40008FC0C02FD0E01C9FF0011D9FF00D11240C
:101C5000E150FE4F911003C01382128267C02381AE
:101C6000222389F1215023833481332319F09A2DC3
:101C7000921B01C0922F809107031C9FF0011D9FB2
:101C8000F00D1124E150FE4F899FC0011124B601CF
:101C90000E9455306283211104C0332311F0148255
:101CA000A38222E02B1508F441C01C9FF0011D9F68
:101CB000F00D1124E150FE4F809105038083809147
:101CC0000603818333C00E9422318230914074F533
:101CD00082E08B1530F40E942231B7010E946930F6
:101CE00002C0809105031C9FF0011D9FF00D11247F
:101CF000E150FE4F808322E02B1558F40E942231E0
:101D0000209106032695622F70E00E946930820FB1
:101D100002C0809106031C9FF0011D9FF00D11244D
:101D2000E150FE4F81831282A382848280911A0146
:101D30009E01280F311DC901880F991F280F391FD7
:101D4000275F3C4F1C9FF0011D9FF00D1124E150B7
:101D5000FE4F4281618180810E948D090F5F6CCFAF
:101D6000DF91CF911F910F91FF90EF90DF90CF9077
:101D7000BF90AF909F908F900C94140A8091440272
:101D8000089510924402089525E0E4E0F3E0DC01B8
:101D900001900D922A95E1F7209142023091430281
:101DA00040914402FC012583368347830895609166
:101DB0000403669570E04BE050E08DE191E00E94F5
:101DC0003231892B19F481E0809343020E942F2441
:101DD00090933C0280933B02809144028460809304
:101DE00044020895E2E4F2E01182828184608283F9
:101DF00008959091040390FF3AC09170811102C040
:101E0000926006C08B3210F0946502C0880F982B48
:101E1000909304038091440281608093440266237E
:101E200051F0609104037091050380910603909135
:101E300007030E94B20960910403669570E04BE0CD
:101E400050E08DE191E00E943231892B19F00E941F
:101E5000F20E02C00E94D70E81E080933E024091B4
:101E6000070360910603809105030C94CC0B089541
:101E7000682F90910403969581E0890F8B3208F0CA
:101E800081E00C94F90E81E00C94380F682F90914A
:101E9000040396958FEF890F09F48AE20C94F90EEA
:101EA00081E00C94460F61E00C94F90EE4E0F3E05D
:101EB00080818160808386950C94530F60E00C9440
:101EC000F90EE4E0F3E080818E7F80836081718190
:101ED000828193810E94B2090E94F20EE2E4F2E054
:101EE0008281816082832FEF80E792E021508040E1
:101EF0009040E1F700C000000C94140A80910403A4
:101F000080FD0C94610F0C94560FE4E0F3E08081A7
:101F10008E7F80830E94F20EE2E4F2E08281816093
:101F200082832FEF80E792E0215080409040E1F7DC
:101F300000C000000C94140A1F93CF93DF93EC01B0
:101F4000162F8F8180FF0FC0888180FF0AC080918B
:101F50000403816080930403888186950E94F90EB2
:101F600002C00E94850F8F8181FF06C0212F4B8107
:101F70006A8189810E94D10A8F8182FF08C08E8187
:101F8000882319F00E94D70E02C00E94F20E8F81A2
:101F900083FF03C081E080933E02DF91CF911F91C8
:101FA000089580914102811133C00E94AB228111BA
:101FB00004C00E944D230E94C4090E94AE09609390
:101FC00004037093050380930603909307038091A5
:101FD00044028360809344026E7F61F40E94C409CE
:101FE0000E94AE0960930403709305038093060377
:101FF000909307030E949B090E94F20E80910403B4
:1020000080FF03C086950E945E0F81E080934102AD
:102010000895EF92FF920F931F93CF93DF938091D8
:102020004302882309F4C1C080914202E091040375
:10203000E695E81BE0933D02823049F4F0E0EB5F67
:10204000FB4FE491CE2FD0E00DE61AE059C0863068
:1020500049F4F0E0EE5FFB4FE491CE2FD0E001E8D1
:102060001AE04EC0893051F4E695F0E0E150FC4FA3
:10207000E491CE2FD0E00FEC1BE042C08F3051F442
:10208000E695F0E0E450FC4FE491CE2FD0E00AE07A
:102090001CE036C0853149F4F0E0E750FC4FE49194
:1020A000CE2FD0E007EA1CE02BC08831D9F0833274
:1020B00039F4E7EFF3E0C591D49101E91AE020C0CB
:1020C0008432A9F08532C1F48E2F63E00E943B3048
:1020D000E92FF0E0EC50FC4FE491CE2FD0E00FEF71
:1020E0001DE00EC0C8E2D0E00DE21DE009C0C4EF63
:1020F000D1E000EC1DE004C0C0EDD7E007E819E036
:1021000080913E02882389F010923E020E942F2483
:102110009E0120953095820F931F90933C028093EF
:102120003B021092400210923F0280913B0290913C
:102130003C020E943B248C179D07B8F18091FE0160
:102140008823B1F01092FE018091FC019091FD0175
:102150000E943B248033954758F00E942F2490938F
:10216000FD018093FC0180914402886080934402C9
:10217000E0903F02F0904002E0913B02F0913C027F
:10218000CE0FDF1FD0933C02C0933B028BE392E063
:10219000F801099580913F0290914002892B29F422
:1021A000EF2819F081E08093FE01DF91CF911F911C
:1021B0000F91FF90EF900895882311F0FA0101C06C
:1021C000FB010994CF93DF93C82FD62F0E94DB0920
:1021D0008C1740F00E94DB098D1720F4DF91CF911E
:1021E0000C94430F8C2FDF91CF910C94530F1F93BE
:1021F000CF93DF93FB011281111163C0EC010E94A8
:10220000FA218272FE01E25CFC45E431F10508F03E
:1022100057C0EA5AFF4F0C949F300E947E0F51C066
:1022200040E55FE063E47FE004C043E45FE060E535
:102230007FE00E94DC1045C04AE85BE06DE77BE090
:10224000F8CF4DE75BE06AE87BE0F3CF48EA5BE07C
:1022500069E97BE0EECF49E95BE068EA7BE0E9CF42
:1022600046EC5BE067EB7BE0E4CF47EB5BE066ECE2
:102270007BE0DFCF4EE05AE067EF79E0DACF47EF5F
:1022800059E06EE07AE0D5CF81E017C065E082E0EA
:1022900010C068E086E00DC06EE089E00AC064E12D
:1022A0008FE007C067E185E104C088E106C062E213
:1022B00089E10E94E21005C083E20E94530F01C031
:1022C00011E0812FDF91CF911F91089580912D030F
:1022D0008170089580912D03869586958695089541
:1022E0000E94AB22811102C00E944D230E94DC2279
:1022F00080932D03282F26952695269530E02830AB
:10230000310524F08770886380932D0380912D031D
:1023100080FF04C086958695869501C080E00C9468
:102320007F1220912D03822F869586958695482FC2
:1023300050E04730510554F48F5F982F990F990F53
:10234000990F822F8770892B80932D0380912D0305
:10235000816080932D030E94E02280912D03869559
:10236000869586950C947F1280912D03982F9695D3
:1023700096959695A1F0915E990F990F990F877098
:10238000892B80932D03887F91E009F490E0809160
:102390002D0390FB80F980932D030E94E022809111
:1023A0002D038695869586950C947F1280912D033A
:1023B00080FD13C0816080932D03813019F489E082
:1023C00080932D0380912D030E94E02280912D03A4
:1023D0008695869586950C947F12089580912D039D
:1023E00080FF08C08E7F80932D030E94E02280E052
:1023F0000C947F12089580912D0380FD0C94EE11B2
:102400000C94D61190912D03892F869586958695EB
:102410008F5F8F719770883038F4880F880F880F1E
:10242000892B80932D0302C090932D0380912D035F
:10243000887F91E009F490E080912D0390FB80F972
:1024400080932D030E94E02280912D03869586952E
:1024500086950C947F12883008F087E090912D03C8
:102460009770282F220F220F220F922B90932D036B
:10247000987F21E009F420E090912D0320FB90F952
:1024800090932D030C947F120E942B1280912D03A8
:102490000C94E0229C01FB018281882349F12D3BB1
:1024A000FCE53F07C9F040F42B3BECE53E0769F043
:1024B0002C3B3C4561F008952F3B9CE5390791F09A
:1024C00070F0203C3C4589F0089587E001C080E031
:1024D0000E94441280E008950E94B411FBCF0E9434
:1024E0009111F8CF0E94FB11F5CF0E940212F2CF9A
:1024F00081E00895259A2D9808952D980895CF92FA
:10250000DF92EF92FF92CF93C82F883050F4811161
:1025100009C0809180008F77809380000E947D1297
:1025200006C0C7E0809180008068809380002C2FD7
:1025300030E0AFEFBFEF0E94AD3027E030E040E089
:1025400050E00E947D30C9012C3764E1360728F441
:1025500069E070E00E94553029C0DA01C9018A5053
:10256000974DAF4FBF4F6627782F892F9A2F25EFB2
:1025700038E241E050E00E947D3069017A01CA01F1
:10258000B9010E942B309B01AC01C701B6010E942A
:102590002B30BB27A92F982F872F009721E0A20768
:1025A000B10511F0BC0102C06FEF7FEF709389009D
:1025B00060938800CF91FF90EF90DF90CF900895C7
:1025C00008950E947A1282E88093800089E18093C6
:1025D00081008FEF9FEF90938700809386000C948B
:1025E0007011249A25B12F7E35B130614FB7F89420
:1025F000FC01CB01880F991F680F791F6E0F7F1F99
:10260000E617F70789F0819198E035B9000000C01E
:1026100087FF25B9880F000000C000C000C025B9A1
:1026200000C09A9591F7ECCF4FBF8FE594E00197EA
:10263000F1F700C000000895AF92BF92CF92DF92F1
:10264000EF92FF920F931F93CF93DF937C015B0177
:10265000C42FD22FFC0182818823F9F040934702D6
:102660000E942F24909346028093450280E28C0FB3
:10267000883008F06EC0C77081E001C0880FCA952D
:10268000EAF7DF91CF911F910F91FF90EF90DF90CC
:10269000CF90BF90AF900C94991980914702481346
:1026A00035C080914502909146020E943B246C0106
:1026B000B701C5010E94E21EC816D90638F510E21E
:1026C0001D0FCD17B9F080E28C0F883040F4C77031
:1026D00081E001C0880FCA95EAF70E94A01918305E
:1026E00058F581E09D2F977001C0880F9A95EAF701
:1026F0000E949919802F0E948619183050F5D770C2
:1027000081E001C0880FDA95EAF70AC080E28C0FF9
:102710008830F8F4C77081E001C0880FCA95EAF7E5
:10272000DF91CF911F910F91FF90EF90DF90CF90AD
:10273000BF90AF900C94A019802FDF91CF911F9183
:102740000F91FF90EF90DF90CF90BF90AF900C94DF
:102750008619DF91CF911F910F91FF90EF90DF903D
:10276000CF90BF90AF9008950F939C01CB01233F72
:102770004CE5340731F188F4283DFCE53F07D9F0FA
:10278000293D4CE5340779F1273D3C45A9F506E2A2
:1027900021EE41EE67ED7CE52BC0253FFCE53F07D0
:1027A000E1F0A8F0263F3C4539F507E225EE46EE7C
:1027B00066EF7CE51DC007E225EE45EE68ED7CE5A1
:1027C00017C006E221EE40EE63EF7CE511C007E2A0
:1027D00025EE44EE64EF7CE50BC006E221EE42EE0E
:1027E00065EF7CE505C008E221E045EE69ED7CE59A
:1027F0000E941C1380E008C0FC018281882319F02C
:102800001092470201C081E00F910895CF93DF93AA
:10281000EC01FB018281882309F41FC1C230FCE571
:10282000DF0708F41BC1C6319CE5D90738F09E01CB
:102830002A5F3C452930310508F010C10E94BE22B4
:102840009093330380933203C031ECE5DE0709F443
:10285000C3C008F041C0C8308CE5D80709F49AC05D
:10286000F0F4C430ECE5DE0709F487C068F4C23048
:102870008CE5D80709F477C0C330DC4509F0E3C024
:1028800080913203826076C0C630ECE5DE0709F441
:102890006EC008F07BC08091320388606BC0CC3082
:1028A0008CE5D80709F485C068F4CA30ECE5DE078A
:1028B00009F474C008F079C00E94291C8091320389
:1028C000806858C0CE308CE5D80709F476C008F08F
:1028D0007FC0809132038BC0CB3FECE5DE0709F46B
:1028E0004FC018F5C3318CE5D80709F47DC078F4E2
:1028F000C131ECE5DE0709F473C0C231DC4509F0F3
:10290000A2C00E94291C809132038F7733C0C53149
:102910008CE5D80709F472C008F486C0CA3FDC45CC
:1029200009F091C0809133033EC0CF3FFCE5DF0743
:1029300009F45FC058F4CD3F9CE5D90709F444C0C1
:1029400008F43FC08091330382602DC0C130FDE5A3
:10295000DF0709F475C008F45DC0C230DD4509F039
:1029600072C080E06EC080913203816003C08091AC
:10297000320380618093320366C08091320311C0BC
:10298000809133038260809333035DC08091320372
:102990008062F0CF809132038064ECCF809132036B
:1029A00088608460E7CF8160EECF809132038E7FB4
:1029B000E1CF809132038D7FDDCF80913203877F1D
:1029C000D9CF8091330318C0809133038D7FDBCF43
:1029D000809132038F7ECECF809132038F7DCACF1C
:1029E000809132038F7BC6CF80913203877F8B7FAC
:1029F000C1CF809133038D7F8E7FC5CF809132030D
:102A000082FB222720F991E0922790FB82F990FB2C
:102A100083F9B0CF80913303982F909591708E7F7A
:102A2000892B90FB81F9AFCF0E94291C8091320342
:102A300087FB222720F991E0922790FB87F99ACF14
:102A400081E00E944F2380913203909133030E94D2
:102A5000CF220E94291C80E001C081E0DF91CF914C
:102A60000895CF93DF9386319C4541F5EB010E9499
:102A7000FA21982F8A8120912801309129018823F9
:102A800079F09A7A81E009F480E08093480291110C
:102A900002C069E201C065E3C9010E9496230AC031
:102AA00080914802811102C069E201C065E3C90159
:102AB0000E9498230E94482280E001C081E0DF91BB
:102AC000CF9108958EE1489B02C08150E1F7489B69
:102AD000FECF0895589880E28A95F1F7589A0895A4
:102AE000FC012AE02A95F1F790E020E080E031E057
:102AF000261779F040E14A95F1F7880F489B02C00C
:102B00008160932700C0000040E14A95F1F72F5FF4
:102B1000EFCF20E12A95F1F729B100C0000030E1A4
:102B20003A95F1F7217092272081920F90830895B2
:102B3000EF92FF920F931F93CF93DF931F92CDB726
:102B4000DEB719828C017C01E60EF11C0E151F0503
:102B500059F00E94621568E0CE0101960E9470153E
:102B6000F80181938F01F2CF81E09981911180E08A
:102B70000F90DF91CF911F910F91FF90EF900895EB
:102B800090934B0280934A0260934902509A589A5C
:102B9000089590934B0280934A02609349025098A3
:102BA000589AE89AE9E6F0E080818C7F8083089566
:102BB000615091E001C0990F6A95EAF720E031E099
:102BC000992361F0492F482319F0589A232701C00F
:102BD000589840E24A95F1F79695F2CF222311F0EA
:102BE000589A01C0589880E28A95F1F7589808954C
:102BF000FF920F931F93CF93DF93EC018C01060F8D
:102C0000111DC017D10741F0F9900E946A1568E0C4
:102C10008F2D0E94D815F5CFDF91CF911F910F9185
:102C2000FF9008951F920F920FB60F9211240F93E9
:102C30001F932F933F934F935F936F937F938F9344
:102C40009F93AF93BF93EF93FF93CF93DF931F9225
:102C5000CDB7DEB719820E94621567E0CE010196FA
:102C60000E947015382F369536953695932F969588
:102C70009570232F2570920F292F23709695969586
:102C80008770920F891348C08981811145C0809156
:102C90004902831708F440C080E18A95F1F7589AF9
:102CA000509AA2E0AA95F1F700C000914A02109153
:102CB0004B02B8E03B9F000D111D11245898F801FC
:102CC0006581662321F0868197810E94F8150E9414
:102CD0006A15F0E1FA95F1F758985098589A80E102
:102CE0008A95F1F7D80112966C911297662369F0D4
:102CF00013968D919C9114970E949815D801ED918F
:102D0000FC91811105C082E004C0D801ED91FC91D5
:102D100088E080830E9462150F90DF91CF91FF9130
:102D2000EF91BF91AF919F918F917F916F915F9143
:102D30004F913F912F911F910F910F900FBE0F90C8
:102D40001F9018950F931F93CF93DF932091490203
:102D500030E0281739070CF471C09C0193E0220F72
:102D6000331F9A95E1F7C0914A02D0914B02C20FEE
:102D7000D31FF894509A589845E04A95F1F700000F
:102D8000982F969595708570890F982F93708695DA
:102D90008695890F8901082B0E946A1584E08A951F
:102DA000F1F700C067E0802F0E94D81540E14A95F6
:102DB000F1F75098589A489902C000C0FCCF87E0BC
:102DC00090E0489B0EC0019751F4509A589AE881C0
:102DD000F98181E08083789481E090E031C000C087
:102DE000F0CF6D81662381F08E819F810E949815BE
:102DF00081110AC0509A589AE881F98182E0808353
:102E0000789482E090E01CC00E94621580E28A956E
:102E1000F1F75898509A40E14A95F1F76A81662394
:102E200021F08B819C810E94F8150E946A15E8812F
:102E3000F9811082789480E090E002C084E090E014
:102E4000DF91CF911F910F9108959093510280933C
:102E500050020895E0915002F0915102309721F014
:102E60000190F081E02D099480E00895E0915002F6
:102E7000F0915102309721F00280F381E02D099406
:102E80000895E0915002F0915102309739F022E01C
:102E9000DC012C930480F581E02D099408952091A4
:102EA0004E0230914F022817390771F090934F026C
:102EB00080934E02E0915002F0915102309721F040
:102EC0000680F781E02D0994089520914C023091FD
:102ED0004D022817390771F090934D0280934C02F0
:102EE000E0915002F0915102309721F00084F18579
:102EF000E02D0994089585B7806885BF85B78068FF
:102F000085BF089508950C9482170C9483170C9430
:102F100082170C9482170E947B170E9487170C94CB
:102F200085170C9450080E9426240E94F8060E94DF
:102F300094240E9470110E94D10F0C948917AF92B3
:102F4000BF92CF92DF92EF92FF920F931F93CF9396
:102F5000DF93CDB7DEB72A970FB6F894DEBF0FBE6A
:102F6000CDBF0E9489070E949117811111C08FEF78
:102F700089838A831B820E942F248160782F9D83FE
:102F80008C8349815A816B818D810E943B1840C09E
:102F900083E5A82E82E0B82E00E010E0C02E802F3E
:102FA0000E94E306E82EF501D1905F01D82631F4A6
:102FB0000F5F1F4F0A30110589F7D9CF8091D302D7
:102FC00081FD0E94E90680E0FF24F3949D2D9F215E
:102FD000D1F08E83CF82EF2081E009F480E08887F2
:102FE0000E942F248160782F9A8789874E815F8184
:102FF00068858A850E943B18F801ED5AFD4F808153
:10300000F826F08205C08F5FFF0C8630F9F6D0CF2E
:103010000E9409100E94E0120E9443260E942A1773
:10302000909152028917B1F00E942A1780935202A0
:103030002A960FB6F894DEBF0FBECDBFDF91CF91B9
:103040001F910F91FF90EF90DF90CF90BF90AF90C6
:103050000C9473042A960FB6F894DEBF0FBECDBF52
:10306000DF91CF911F910F91FF90EF90DF90CF9064
:10307000BF90AF900895CF93DF93CDB7DEB72B9776
:103080000FB6F894DEBF0FBECDBF4F835887698758
:103090007A878B87DE01119686E0FD0111928A9571
:1030A000E9F785E0FE01379601900D928A95E1F7E8
:1030B00049815A816B817C818D819E810E94E51EB0
:1030C0002B960FB6F894DEBF0FBECDBFDF91CF9128
:1030D0000895FC01808191810E94BB210895CF93C6
:1030E000882309F4A9C0C82F8238C1F40E942A1786
:1030F00081FDA2C069E380912801909129010E947D
:1031000096230E9448222FEF81EE94E021508040C8
:103110009040E1F700C0000069E319C0833801F571
:103120000E942A1780FD88C063E580912801909154
:1031300029010E9496230E9448222FEF81EE94E0FD
:10314000215080409040E1F700C0000063E580918D
:103150002801909129010E949823CF910C94482234
:103160008438C1F40E942A1782FD66C067E480910A
:103170002801909129010E9496230E9448222FEF56
:1031800081EE94E0215080409040E1F700C00000C3
:1031900067E4DDCF8CEF8C0F813AF8F48C2F0E941E
:1031A000E128811149C06C2F80912801909129015B
:1031B0000E946023882349F06C2F80912801909110
:1031C00029010E9498230E9448226C2F8091280197
:1031D000909129010E949623C0CF80E28C0F883005
:1031E00048F4C77081E001C0880FCA95EAF70E94D1
:1031F000FD21B3CFEBE5EC0FE33040F4F0E0E95212
:10320000FE4F808190E0CF910C944F17E8E5EC0FD2
:10321000E73150F4F0E0EE0FFF1FE755FE4F8081DD
:103220009181CF910C946517C03F30F08C2F0E9494
:103230003825CF910C942526CF910895882309F441
:1032400064C0823879F40E942A1781FF5EC069E366
:1032500080912801909129010E9496230E94482282
:1032600069E310C08338B1F40E942A1780FF4DC073
:1032700063E580912801909129010E9496230E9484
:10328000482263E580912801909129010E949823AA
:103290000C944822843879F40E942A1782FF35C0A2
:1032A00067E480912801909129010E9496230E9451
:1032B000482267E4E7CF9CEF980F913A10F4682F0B
:1032C000E1CF90E2980F983050F4877091E001C000
:1032D000990F8A95EAF7892F0E940322D9CF9BE59F
:1032E000980F933020F480E090E00C944F1798E50D
:1032F000980F973120F480E090E00C946517803FA0
:1033000020F00E94A0250C9425260895CF93C82F65
:103310000E946F18C93349F42FEF87EE93E02150D4
:1033200080409040E1F700C000008C2FCF910C94BA
:103330001E19882321F00E94FD210C944822089533
:10334000882321F00E9403220C9448220895CF92F2
:10335000DF92EF92FF920F931F93CF93DF937C0145
:10336000062FC72FFC01158112951F70D281D11134
:103370000E941A220E94F321882399F0DD2389F00C
:103380008C2F807F803421F080E2800F883048F0DD
:1033900082E00E9492220E94F32191E0D82ED92649
:1033A00001C0D12CCC2EC2948FE0C8228C2D90E08D
:1033B000FC01E659FF4F0C949F308C2F807FCF701B
:1033C000882311F0C295C07FDD2399F0CC2309F446
:1033D0008DC180E2800F883010F0011104C08C2F65
:1033E0000E94FD2103C08C2F0E940D220E944822C2
:1033F0007DC1802F0E941E19CC2309F49CC180E25C
:10340000800F883010F0011104C08C2F0E9403221D
:1034100003C08C2F0E9413220E9448228CC18C2F43
:10342000807FCF70803211F0C295C07F002319F0E9
:103430000130C9F022C0DD2371F0112341F01130B9
:1034400031F40E942D228C2B0E94352274C10E94DF
:103450002D228C2B1DC0112319F0113009F46BC1E2
:103460000E943E2225C0DD2321F0163008F063C102
:103470000EC0153008F05FC11BC0DD2361F01123C1
:1034800031F0F701858180FF31C18F7085838C2FEA
:103490000E94991950C1112359F0093309F037C11D
:1034A000FFEF27EE83E0F15020408040E1F72DC18F
:1034B0008C2F0E94A0193FC18C2F86958695837012
:1034C00019F0813061F037C1DD2321F0802F9C2F6E
:1034D000937002C080E090E00E944F1734C1DD235A
:1034E00021F0802F9C2F937002C080E090E00E941A
:1034F000651729C1802FDD2319F00E94382502C0ED
:103500000E94A0250E9425261EC18C2F837009F0E1
:1035100045C0D11114C1402F429546954770440FC4
:10352000440F602F6F70862F90E0A0E0B0E0042E73
:1035300004C0880F991FAA1FBB1F0A94D2F704FF6B
:1035400010C00FE010E020E030E004C0000F111FB9
:10355000221F331F4A95D2F700951095209530957C
:1035600003C000E010E09801C695C695C370BC0189
:10357000CD01602B712B822B932BC23049F058F474
:10358000C13019F00E943620DAC00E942420D7C032
:103590000E944820D4C00E942220D1C0DD2319F00F
:1035A0008C2F817001C08695882309F4C8C0402FF4
:1035B000429546954770440F440F602F6F70862FD9
:1035C00090E0A0E0B0E0042E04C0880F991FAA1F6D
:1035D000BB1F0A94D2F704FF10C00FE010E020E0F8
:1035E00030E004C0000F111F221F331F4A95D2F78D
:1035F000009510952095309503C000E010E09801EB
:10360000C695C695C370BC01CD01602B712B822B72
:10361000932BC23049F058F4C13019F00E94FB20BE
:103620008EC00E94E9208BC00E940D2188C00E949C
:103630005C2085C0CF70DD2339F08C2F0E94822062
:10364000802F0E9499197BC0802F0E94A0198C2F77
:103650000E94A32074C0023F01F128F4003F41F012
:10366000013FA1F03FC0033FF9F0043F39F13AC0F8
:10367000DD2341F0153008F05EC08C2F8F710E9461
:10368000C82059C0163008F056C0F7CFDD2339F0F6
:103690008C2F8F710E9482204EC0DD23C9F38C2FA6
:1036A0008F710E94A32047C0DD2329F08C2F8F71DA
:1036B0000E946D2040C00E9468203DC0DD2349F07B
:1036C000CF718C2F0E94822063E08C2F0E947D227C
:1036D00032C081E00E949222123068F182E00E94A2
:1036E000922229C0DD2331F0112391F2802F0E9414
:1036F0006F1821C0112399F2093349F49FEFE7EEC7
:10370000F3E09150E040F040E1F700C00000802F6E
:103710000E941E1910C04C2F4F70602FC7010E94CD
:10372000D5040E94931F0FC04C2F4F70602FC7010C
:103730000E94D80408C088EF8C0D843020F40E94C9
:103740002A170E947304DD20C9F00E94EF2180FD3A
:1037500015C0F70112820E94E9210E948220C70150
:103760000E94DF1B0E94E921DF91CF911F910F91F1
:10377000FF90EF90DF90CF900C94A320DF91CF913A
:103780001F910F91FF90EF90DF90CF9008950F93CE
:103790001F93CF93DF93EC01688179818A810E9426
:1037A000C6218C010E941F210E941020B801CE0169
:1037B0000E94A719DF91CF911F910F910895CF9388
:1037C000DF93EC01988189812B813C81232B31F09F
:1037D0008F3F31F481E09F3F19F403C081E001C0C5
:1037E00080E080FD19C0CE010E948C0481110CC0C4
:1037F0000E94F321882381F08A81882369F082E086
:10380000DF91CF910C949222CE010E94C71BCE0172
:10381000DF91CF910C945504DF91CF9108950E94D0
:103820001A220E942A220E9448220E9456270E94A1
:10383000252680E090E00E944F1780E090E00C94F5
:10384000651780912801909129010E949A230C9478
:103850000F1C0E940A220C94211CE92FE295EF70A4
:103860004E2F50E0FA013297EE30F105B0F4E658F1
:10387000FF4F0C949F30803F91F018F4883E68F41D
:103880000EC0843F51F40BC0883E48F0813F29F4BC
:1038900006C093FB882780F9089580E0089581E0B1
:1038A00008950E94BB210E942D1C0895CF93DF93A1
:1038B00000D000D01F92CDB7DEB70F900F900F90C1
:1038C0000F900F90DF91CF910895CF93DF9300D0A9
:1038D00000D000D0CDB7DEB726960FB6F894DEBF85
:1038E0000FBECDBFDF91CF9108951F93CF93DF938C
:1038F000C0915E0216E080915F02C81799F0D0E097
:103900001C9FF0011D9FF00D1124E05AFD4F4081D6
:10391000518162817381848195810E94651C219609
:10392000C770E9CFDF91CF911F9108954091900228
:103930005091910260919202709193028091940251
:10394000909195020C94651C0F931F93CF93DF9376
:103950008091950282958F7009F05DC080919202EE
:10396000882309F458C080915E0210915F02609133
:10397000900270919102C0919302D091940291E0D3
:103980006F3F09F090E0292F06E0811709F443C04A
:10399000209721F07F3F21F030E003C031E001C0EB
:1039A000322F90E030FD34C0089FF001099FF00DE8
:1039B0001124DF01A05ABD4F11963C911197371386
:1039C00027C03C91361324C012963C9112973111B6
:1039D0001FC013964D915C9114974C1B5D0B483C96
:1039E0005105B0F4809195028F70806180939502AB
:1039F000EB59FD4F80818F708061808380E992E078
:103A00000E94DF1BDF91CF911F910F910C94751CC9
:103A100001968770BACFDF91CF911F910F910895D2
:103A20009F92AF92BF92CF92DF92EF92FF920F934D
:103A30001F93CF93DF93CDB7DEB761970FB6F8949E
:103A4000DEBF0FBECDBF8C0185E0F801DE011D9603
:103A500001900D928A95E1F7F80140815181E28051
:103A60009091900260919102209193023091940282
:103A70002115310531F06F3F31F481E09F3F19F49A
:103A800003C081E001C080E0F82FF1709F2E80FD1F
:103A900046C1F801A380B48080E9C82E82E0D82E08
:103AA000F0909202F501E21BF30BFF2009F4DFC056
:103AB00080919502E83CF10508F09BC0282F207FFB
:103AC00009F052C0561313C0491311C0FE2CE11067
:103AD0000EC08F708061809395020E94961CC60173
:103AE0000E94DF1B80919502F801858358C1AB28A5
:103AF00031F05F3F31F481E04F3F19F403C081E0C2
:103B000001C080E080FD03C081E08E2502C080E01E
:103B100090E0F82FF170FF2E80FF1CC080915E02B4
:103B200020915F0236E0821709F417C190E0389FB8
:103B3000F001399FF00D1124E05AFD4F61815613B9
:103B400006C06081461303C06281E61203C001967D
:103B50008770E9CFFE2CEE2009F421C180919502F7
:103B60008160809395025AC0561306C0491304C061
:103B7000E11002C0F8019FC04D875E878D859E854C
:103B80000E94511C882379F1EE2069F12091950261
:103B9000822F82958F7090E0029774F0809190024E
:103BA0009091910298878F831986BB86AA862C876D
:103BB000CE0107960E94DF1B86E0F801A0E9B2E083
:103BC00001900D928A95E1F70E94A41C0E94961C18
:103BD0000DC0561729F14D875E878D859E850E9401
:103BE000511C81112CC0C8010E94DF1BFF24F394DB
:103BF000D6C0282F207F69F77A2DB98AA88A6E2D22
:103C000089890E94561C80E992E00E94DF1B86E0B1
:103C1000F60111928A95E9F70E94961CF12CBFC01B
:103C20004913D9CFE110D7CFF8018583C8010E948D
:103C3000DF1B86E0F60111928A95E9F7B0C0EE200D
:103C400091F220919502822F82958F7090E00297D9
:103C50000CF4B2CF80919002909191029A83898363
:103C60001B82BD82AC822E83CE010196A3CFE83C9D
:103C7000F10508F047C0FE2CEE2009F4B4CF56132E
:103C800030C049132EC02091950220FD21C0822F03
:103C900082958F70482F50E041155105C9F0F80109
:103CA00025834F30510541F08F5F982F9295907F7B
:103CB000822F8F70892B8583C8010E94DF1B86E0CD
:103CC000F801A0E9B2E001900D928A95E1F742C0B7
:103CD00086E0F801A0E9B2E001900D928A95E1F743
:103CE0005EC04D875E878D859E850E94511C811127
:103CF00063CF80919502816080939502C8010E94F4
:103D0000DF1B4DC07A2DB98AA88A6E2D89890E9441
:103D1000561C86E0F60111928A95E9F71BC0EE2049
:103D200009F461CF4D875E878D859E850E94511C69
:103D3000F82E882309F457CF86E0F801A0E9B2E015
:103D400001900D928A95E1F780E992E00E9469184E
:103D50000E94A41C0E94961C22C04D875E878D8500
:103D60009E850E94BB21292F22952F70223028F496
:103D70009F7039F0811105C00BC0243028F49F706A
:103D800049F4805E883020F0C8010E94DF1B9F2C20
:103D9000F92C05C0F8019581907F99F7F9CF8F2D07
:103DA00061960FB6F894DEBF0FBECDBFDF91CF9105
:103DB0001F910F91FF90EF90DF90CF90BF90AF9049
:103DC0009F90089588EC90E008951F93CF93DF9320
:103DD000CDB7DEB72C970FB6F894DEBF0FBECDBFC0
:103DE0004F83588769877A878B879C87CE01079690
:103DF0000E94101D8823D1F09F8188852A853B85EC
:103E0000232B31F08F3F31F481E09F3F19F403C041
:103E100081E001C080E080FD47C04F815885698501
:103E20007A858B859C850E94651C3EC086E0FE01DC
:103E30003796DE01119601900D928A95E1F7FF8188
:103E4000E8856A857B856115710531F0EF3F31F4B6
:103E500081E0FF3F19F403C081E001C080E080FDF4
:103E600023C020915F0230E0C90101968770992735
:103E700040915E0250E084179507F1F1F983EA83DF
:103E80007D836C8396E0929FD001939FB00D1124A7
:103E9000A05ABD4FFE01319601900D929A95E1F71F
:103EA00080935F020E94751C16E080915E029091E3
:103EB0005F02891771F1189FC0011124805A9D4F2C
:103EC0000E94101D882329F1E0915E021E9FF001DF
:103ED0001124E05AFD4F40815181628173818481B8
:103EE00095810E94651C80915E0290E0019687702A
:103EF000992780935E02D9CF0E94291C10925F02FD
:103F000010925E02E0E9F2E086E0DF011D928A9500
:103F1000E9F72C960FB6F894DEBF0FBECDBFDF9148
:103F2000CF911F910895EF92FF920F931F93CF931C
:103F3000DF938C01892B09F46CC0F12CEE24E394FF
:103F4000E8012196F8018491843740F4843008F028
:103F500051C0813081F0823019F15BC0853709F49E
:103F600044C0A8F19CE7980F903708F052C08F77B3
:103F70000E941E1941C00E5F1F4FFE01849190E206
:103F8000980F983050F48770FE2D01C0FF0F8A956E
:103F9000EAF78F2F0E941D2214C00E946F182DC0B7
:103FA0000E5F1F4FFE01849190E2980F983060F4ED
:103FB0008770FE2D01C0FF0F8A95EAF78F2F0E94B0
:103FC00023220E94482219C00E941E1916C00E5FAB
:103FD0001F4FFE01C491CC2381F08FE99FE0019730
:103FE000F1F700C00000C150F6CF0E5F1F4FFE0179
:103FF000F49003C00E946F188E018F2D882309F45E
:104000009FCFEFE9FFE03197F1F700C0000081504A
:10401000F5CFDF91CF911F910F91FF90EF90089511
:10402000089508950C9411200C9412200E941420DD
:104030006093C2027093C3028093C4029093C5023E
:104040000C940F1C0C9416200F931F930091C20226
:104050001091C3022091C4023091C502602B712BD4
:10406000822B932B1F910F910C9416200F931F936B
:104070000091C2021091C3022091C4023091C50286
:1040800060237123822393231F910F910C94162098
:104090000F931F930091C2021091C3022091C4029A
:1040A0003091C50260277127822793271F910F91B6
:1040B0000C9416200C9411200E945A206093BE028A
:1040C0007093BF028093C0029093C1020C940F1CA6
:1040D00060E070E0CB010C945C200F931F9341E0F3
:1040E00050E060E070E08A019B0104C0000F111FE6
:1040F000221F331F8A95D2F7C901B8011F910F9172
:104100000C945C200F931F9341E050E060E070E05E
:1041100004C0440F551F661F771F8A95D2F7809100
:10412000BE029091BF02A091C002B091C1028A016B
:104130009B01082B192B2A2B3B2BC901B8011F917E
:104140000F910C945C200F931F9341E050E060E0CE
:1041500070E004C0440F551F661F771F8A95D2F781
:1041600040955095609570958091BE029091BF02E8
:10417000A091C002B091C1028A019B0108231923BA
:104180002A233B23C901B8011F910F910C945C2095
:104190000F931F9341E050E060E070E004C0440FD3
:1041A000551F661F771F8A95D2F78091BE029091A6
:1041B000BF02A091C002B091C1028A019B010827F1
:1041C00019272A273B27C901B8011F910F910C9489
:1041D0005C200F931F930091BE021091BF022091AB
:1041E000C0023091C102602B712B822B932B1F9147
:1041F0000F910C945C200F931F930091BE021091BD
:10420000BF022091C0023091C1026023712382233A
:1042100093231F910F910C945C200F931F93009197
:10422000BE021091BF022091C0023091C1026027EE
:104230007127822793271F910F910C945C2008957A
:10424000292F220F920F990F890FE82FE695E695F7
:10425000E695877051E001C0550F8A95EAF785E031
:10426000E89FF0011124EA56FD4F20E030E070E0B5
:104270004081CB01022E02C0969587950A94E2F701
:104280008170819584278523842781932F5F3F4FF9
:104290002530310569F70895292F220F920F990FC4
:1042A000890F682F669566956695982F977085E0BB
:1042B000689FB001112440E050E080E0FB01E40F72
:1042C000F51FEA56FD4F208130E0092E02C03695D9
:1042D00027950A94E2F721703327042E01C0220F9C
:1042E0000A94EAF7822B4F5F5F4F4530510531F753
:1042F0000895BF92CF92DF92EF92FF920F931F9398
:10430000CF93DF938C01C090BE02D090BF02E090AB
:10431000C002F090C1028091C2029091C302A091AC
:10432000C402B091C502C82AD92AEA2AFB2ACFE1E1
:10433000D0E0D701C6010C2E04C0B695A79597957D
:1043400087950A94D2F780FD04C0219790F7B12C8D
:1043500007C0BC2EB8018C2F0E94F4040197A9F36A
:104360008B2DDF91CF911F910F91FF90EF90DF90F8
:10437000CF90BF900895CF93DF93EC010E947921F5
:10438000BE010E94F404DF91CF9108951F93CF9353
:10439000DF93EB0190915D02992321F0CB010E9404
:1043A000BB2113C0882349F0CB010E947921182F2B
:1043B000682FCE010E94202104C0CB010E944C2115
:1043C000182FBE01812F0E94F404DF91CF911F911D
:1043D00008958091C602859585958595089580916B
:1043E000C602877008959091C602977081E009F423
:1043F00080E008958091D20208959091D202892B95
:104400008093D202089580959091D202892380935F
:10441000D20208951092D20208959091D102892B70
:104420008093D102089580959091D1028923809341
:10443000D10208951092D10208959091D002892B53
:104440008093D002089580959091D0028923809323
:10445000D00208951092D00208958091C702089565
:1044600008950C9430220C9431229091C702981731
:1044700021F08093C7020C94332208958091C702E3
:10448000882329F01092C70280E00C94332208950B
:10449000E0912801F09129018091D2028083E0917E
:1044A0002801F091290190818091D102892B80838C
:1044B000E0912801F091290190818091D002892B0F
:1044C00080838091C702882381F0E0912801F091D8
:1044D00029019081892B8083809128019091290165
:1044E0000E94542381110E943E22809128019091C4
:1044F00029010C9436170C94302298E0899F900182
:104500001124262B2093C6020E9482208091C6028D
:104510008595859585950C947B221092C60280E046
:104520000C947B222091C602809582238093C60240
:10453000982F977079F430E0482F082E000C550B17
:104540002417350739F08595859585950E94A32018
:104550000C948D22089580E090E00E944D3121E07E
:104560008C3E9E4F09F020E0822F089582E090E07B
:104570000C943F3183E090E00C943F31CF9384E082
:1045800090E00E943F31C82F81E290E00E943F31CD
:104590002C2F30E0A901582BCA01CF910895CF9359
:1045A000C92F682F84E090E00E9453316C2F81E284
:1045B00090E0CF910C94533186E090E00C943F3121
:1045C000682F86E090E00C945331AB01BC018FE082
:1045D00090E00C946531AB01BC0183E190E00C9458
:1045E000653160E070E0CB010C94EB226CEE7EEF65
:1045F00080E090E00E94713160E082E090E00E94F3
:10460000533160E083E090E00E9453311092C20287
:104610001092C3021092C4021092C50260E084E0BE
:1046200090E00E94533160E081E290E00E945331BB
:1046300060E085E090E00E94533160E086E090E029
:104640000E9453316FEF87E090E00E94533140E0C9
:1046500050E0BA0188E090E00E94653160E08DE0B2
:1046600090E00E94533140E050E0BA0188E190E0D0
:104670000E94653160E087E190E00E94533140E0A4
:1046800050E0BA018CE190E00E94653160E080E288
:1046900090E00E9453310C94FA030C94F622682F98
:1046A0008EE090E00C945331FC01329697E080E06C
:1046B000915029F021912223D9F38F5FF9CF0895EA
:1046C000662349F0FC01329608962191621729F081
:1046D000E817F907D1F780E0089581E008959C017B
:1046E000FC0132969FEF80E04191461789F09F3F91
:1046F00019F4411101C0982F8F5F8630A9F79F3FB1
:1047000039F0F901E90FF11D97FDFA9562830895DB
:1047100008959C012A5F3F4FFC014281461301C06E
:104720001282019682179307B9F708950C946F23AC
:104730000C948923029626E0FC0111922A95E9F750
:10474000089508950C94A1230C94A123CF930E9463
:10475000A4230E9489070E94A223C0E08C2F0E94FC
:10476000E306811104C0CF5FCA30C1F701C081E008
:10477000CF9108950C94A1230C94BA230E94BC23DA
:1047800080913803843061F11092D40220E488E1F2
:1047900090E00FB6F894A895809360000FBE209328
:1047A000600080E00E947F1280E00E9473040E94FB
:1047B000BC2383B7817F846083BF83B7816083BF5D
:1047C0007894889583B78E7F83BF0FB6F894A895A9
:1047D00080916000886180936000109260000FBE3D
:1047E00008950C94A1230E94291C0E9470110E941C
:1047F0002A170E9473040C94F1231F920F920FB694
:104800000F9211248F939F93AF93BF938091D40203
:10481000811113C080912E0390912F03A09130033A
:10482000B09131034196A11DB11D80932E03909349
:104830002F03A0933003B0933103BF91AF919F91A9
:104840008F910F900FBE0F901F90189582E084BD3E
:1048500093E095BD9AEF97BD80936E0008952FB7B2
:10486000F89480912E0390912F03A0913003B09182
:1048700031032FBF08959C014FB7F89480912E0308
:1048800090912F03A0913003B09131034FBF821B51
:10489000930B089578941F920F920FB60F921124E4
:1048A0008F939F93AF93BF9380912E0390912F038B
:1048B000A0913003B09131030196A11DB11D8093E9
:1048C0002E0390932F03A0933003B0933103BF9135
:1048D000AF919F918F910F900FBE0F901F901895E1
:1048E00081E08093E00080E28093D8001092C900BC
:1048F0008FE19EE40197F1F700C0000087E090EBA4
:10490000DC018093410390934203A0934303B0934F
:1049100044039CE088E10FB6F894A895809360006A
:104920000FBE90936000FFCF0E94AB22811102C0A6
:104930000E944D230E94B6228093D3020E94BE2281
:1049400090933303809332030E94BA22682F70E061
:1049500080E090E00E9422206091BE027091BF0230
:104960008091C0029091C1020C945A208091DB0288
:1049700080FF0BC060912F0185E0689FB00111247A
:1049800075956795759567952BC081FF09C06091F6
:104990002F0185E0689FB00111247595679520C0AF
:1049A00082FF07C060912F0185E0689FB00111244C
:1049B00017C09091DA029923D1F060912E019617D9
:1049C00088F720912F0185E0289F90011124929F64
:1049D000A001939F500D112470E0CA010E9469301C
:1049E0006038710540F46115710519F406C065E081
:1049F00070E0862F08958FE7089581E008958091F3
:104A0000DB0280FF08C060912B0170E0759567950F
:104A10007595679521C081FF06C060912B0170E0FC
:104A20007595679519C082FF04C060912B0170E0F5
:104A300010C09091D902992399F060912A0196179C
:104A4000A0F780912B01899FC001112470E00E9482
:104A500069306038710540F46115710519F406C0BC
:104A600061E070E0862F08958FE7089581E0089552
:104A7000803F21F40E94B624819504C0813F29F42F
:104A80000E94B6248093DF020895823F21F40E94A1
:104A9000B624819504C0833F29F40E94B6248093F4
:104AA000DE020895893F19F40E94FF2405C08A3F61
:104AB00031F40E94FF2481958093E00208958B3F9A
:104AC00021F40E94FF24819504C08C3F29F40E94A8
:104AD000FF248093E1020895843F21F48091DD0258
:104AE000816017C0853F21F48091DD02826011C092
:104AF000863F21F48091DD0284600BC0873F21F462
:104B00008091DD02886005C0883F31F48091DD022C
:104B100080618093DD0208958D3F21F48091DB0256
:104B200081600BC08E3F21F48091DB02826005C062
:104B30008F3F29F48091DB0284608093DB0208952B
:104B4000803F39F48091DF0287FF6AC01092DF0254
:104B500067C0813F29F48091DF021816BCF360C062
:104B60009091DE02823F29F497FF5AC01092DE0234
:104B700057C0833F19F41916CCF352C09091E0024C
:104B8000893F31F419160CF04BC01092E00248C076
:104B90008A3F19F497FF44C0F8CF8B3F39F48091D6
:104BA000E10287FF3DC01092E1023AC08C3F29F438
:104BB0008091E1021816BCF333C0843F21F4809148
:104BC000DD028E7F17C0853F21F48091DD028D7F4D
:104BD00011C0863F21F48091DD028B7F0BC0873F9F
:104BE00021F48091DD02877F05C0883F31F48091F8
:104BF000DD028F7E8093DD0213C08D3F21F4809112
:104C0000DB028E7F0BC08E3F21F48091DB028D7F13
:104C100005C08F3F29F48091DB028B7F8093DB02FC
:104C20008091DE02811106C08091DF02811102C0F5
:104C30001092DA028091E002811106C08091E102B7
:104C4000811102C01092D90208950E942F24209150
:104C5000DE02211104C02091DF02222321F0909373
:104C6000D8028093D7022091E002211104C0209144
:104C7000E102222321F09093D6028093D5028CED9D
:104C800092E00C944117EF92FF920F931F93CF93F2
:104C9000DF9300D000D000D0CDB7DEB786E0ECEDDA
:104CA000F2E0DE01119601900D928A95E1F7E09015
:104CB000DE02F090DF020091E0021091E10210921A
:104CC000DE021092DF021092E0021092E102E11087
:104CD00003C0FF2009F45DC08091D7029091D802F3
:104CE0000E943B24AC019091DA02992339F0209183
:104CF000300130E02417350758F04BC020913101C6
:104D00008AE0289F900111242417350718F041C02C
:104D10009F3F19F09F5F9093DA02EE2061F00E94AE
:104D2000B6241E1414F09FEF01C091E0989F902DBF
:104D300011249093DE02FF2061F00E94B6241F141C
:104D400014F09FEF01C091E0989F902D1124909353
:104D5000DF023091DE023323E1F02091DF022223D3
:104D6000C1F045EB3403C0011124992319F090934D
:104D7000DE0203C081E08093DE0235EB2303C00135
:104D80001124992319F09093DF0203C081E08093EE
:104D9000DF02011103C0112309F45DC08091D50227
:104DA0009091D6020E943B24AC019091D9029923A4
:104DB00039F020912C0130E02417350758F04BC012
:104DC00020912D018AE0289F900111242417350796
:104DD00018F041C09F3F19F09F5F9093D9020023C4
:104DE00061F00E94FF24101614F09FEF01C091E0C3
:104DF000989F902D11249093E002112361F00E945E
:104E0000FF24111614F09FEF01C091E0989F902DA0
:104E100011249093E1023091E0023323E1F02091DC
:104E2000E1022223C1F045EB3403C0011124992390
:104E300019F09093E00203C081E08093E00235EB2B
:104E40002303C0011124992319F09093E10203C0B8
:104E500081E08093E1028091DE0281110BC080919C
:104E6000DF02811107C08091E002811103C08091AF
:104E7000E10281110E942526EB82FC820D831E83B4
:104E800086E0FE013196ACEDB2E001900D928A957C
:104E9000E1F726960FB6F894DEBF0FBECDBFDF91C7
:104EA000CF911F910F91FF90EF900895ECEDF2E0FC
:104EB00086E0DF011D928A95E9F71092DA021092DE
:104EC000D9021092DB020895833081F128F48130F9
:104ED00059F08230D1F00895853009F449C0B8F115
:104EE000863009F456C0089580913101262F30E0B4
:104EF000280F311D2F3F310524F4680F60933101D5
:104F000008958FEF80933101089580913001262F0D
:104F100030E0280F311D2F3F310524F4680F6093D6
:104F2000300108958FEF80933001089580912F0113
:104F3000262F30E0280F311D2F3F310524F4680F54
:104F400060932F0108958FEF80932F010895809132
:104F50002E01262F30E0280F311D2F3F310524F47C
:104F6000680F60932E0108958FEF80932E010895AE
:104F700080912B01262F30E0280F311D2F3F310566
:104F800024F4680F60932B0108958FEF80932B0119
:104F9000089580912A01262F30E0280F311D2F3FE0
:104FA000310524F4680F60932A0108958FEF8093F0
:104FB0002A010895833011F128F4813049F08230BC
:104FC00091F00895853081F120F18630C1F1089586
:104FD00080913101681720F4861B80933101089578
:104FE00010923101089580913001681720F4861BDA
:104FF00080933001089510923001089580912F011F
:10500000681720F4861B80932F01089510922F01BA
:10501000089580912E01681720F4861B80932E013D
:10502000089510922E01089580912B01681720F4A5
:10503000861B80932B01089510922B010895809177
:105040002A01681720F4861B80932A010895109284
:105050002A0108950F931F9341E050E060E070E053
:105060008A019B0104C0000F111F221F331F8A9564
:10507000D2F7C901B8010E9422201F910F910C9410
:10508000291C8B3109F468C058F58B3009F486C0AF
:1050900078F4863009F445C020F4853009F44BC01B
:1050A0007FC0873009F44AC0883009F477C078C0DF
:1050B000803109F464C068F48E3009F071C08091C9
:1050C000D30282FB222720F991E0922790FB82F9FC
:1050D0004CC0863109F462C0893109F45FC060C0F8
:1050E0008A32E1F060F4873209F455C028F48E3139
:1050F00008F456C08D5150C08932E9F051C0833454
:1051000050F48A3308F045C0853309F444C088332D
:1051100009F444C045C08334F1F142C00E944D23DC
:105120003DC08091D302817F8E7F8093D30281E046
:105130008093E30208950E947D0430C08091D302E1
:10514000982F9095917090FB80F98093D3029111E4
:1051500025C0897F877F10C08091D30281FB2227E1
:1051600020F991E0922790FB81F98093D302992353
:10517000A9F08091D30281608093D3020FC0809107
:10518000D30283FB222720F991E0922790FB83F939
:10519000ECCF895301C080E00E942A2881E0089565
:1051A00080E0089580E008950C94D2288E518A30D2
:1051B00030F4E82FF0E0E652FE4F8081089580E061
:1051C0000895CF93C82F8091E302813051F018F0F9
:1051D000823099F17DC00E94FA21823209F07AC0B2
:1051E00004C00E94FA21823261F48C2F0E94D428DC
:1051F000811104C08C2F0E9441281DC081E090E0E5
:105200001AC08C2F0E94D228811114C0C43179F0A9
:1052100048F4CB3079F0C03109F060C082E080936F
:10522000E30208C0C93219F0C83321F057C0109208
:10523000E30254C081E0817053C0C93289F118F58E
:10524000C43171F1B0F4C73009F046C08EE18093EB
:10525000310182E3809330018AE080932F0184E161
:1052600080932E0188E080932B0188E280932A01AD
:1052700033C082EE8C0F863078F58C2F0E94D628B2
:105280008093E20229C0CE34E9F020F4CB3421F53A
:105290006AE013C0C13579F0C235F1F461E00DC0A8
:1052A0008091E202882319F01092E20215C081E099
:1052B0008093E30215C061E006C08091E2020E9483
:1052C00064270AC06AE08091E2020E94DA2704C0E3
:1052D0001092E30280E004C081E002C080E0ABCF26
:1052E000CF9108958091EC020895CF93DF9300D081
:1052F0001F92CDB7DEB790913803943019F58983AA
:105300007B836A8382E08093E9008FEF9091E800CD
:10531000815095FD06C095ED9A95F1F70000811139
:10532000F5CF8091E80085FF0DC040E050E063E0DC
:1053300070E0CE0101960E948D2B8091E8008E775F
:105340008093E8000F900F900F90DF91CF91089518
:10535000BC0184E00C947529BC0183E00C94752990
:1053600022E02093E9002FEF3091E800215035FD35
:1053700006C035ED3A95F1F700002111F5CF2091E7
:10538000E80025FF0BC040E050E066E070E00E94BE
:105390008D2B8091E8008E778093E8000895CF935D
:1053A000DF9321E02093E9002FEF3091E8002150B6
:1053B00035FD06C035ED3A95F1F700002111F5CF26
:1053C0002091E80025FF14C0EC0140E050E068E0C7
:1053D00070E00E948D2B8091E8008E778093E8002A
:1053E00088E0FE01A4EEB2E001900D928A95E1F70B
:1053F000DF91CF91089580913703811109C00E94F8
:105400001E2D0E947B2D8091E20084608093E2003B
:105410000895109237030895089508950C94F32386
:1054200042E061EC81E00E94972C42E261EC82E074
:105430000C94972C80913A03833009F460C030F4C7
:10544000813071F0823009F499C008958A3009F4EE
:1054500085C08B3009F46BC0893009F0A7C020C02B
:1054600080913903813A09F0A1C08091E800877FDB
:105470008093E80080913D0390913E03892B21F4B5
:1054800068E084EE92E003C060E080E090E070E0CD
:105490000E94D82B8091E8008B778093E8000895D4
:1054A00080913903813209F081C080913D03909150
:1054B0003E03029708F07AC08091E800877F8093CE
:1054C000E8008091E80082FD05C0809138038111D9
:1054D000F8CF6CC02091F3008091F20090E0922B05
:1054E000029729F48091F1008B7F813021F4809123
:1054F000F1008093EC028091E8008B7753C080919B
:105500003903813A09F052C080913D0390913E03E6
:10551000892B09F04BC08091E800877F8093E800D9
:105520008091E80080FFFCCF80913C0136C08091E3
:1055300039038132D9F580913D0390913E03892B47
:10554000A9F58091E800877F8093E8000E94CC2C29
:1055500080913B0380933C010C94291C809139037A
:10556000813221F58091E800877F8093E8000E94D6
:10557000CC2C80913C038093ED02089580913903F7
:10558000813AA1F48091E800877F8093E8008091C0
:10559000E80080FFFCCF8091ED028093F1008091C4
:1055A000E8008E778093E8000C94CC2C089584B7A3
:1055B000877F84BF0FB6F894A895809160008861BA
:1055C00080936000109260000FBE90E080E80FB6FC
:1055D000F89480936100909361000FBE0E948B1736
:1055E0000E941E2D0E947B2D8091E200846080939A
:1055F000E20078940E9410300E94931782E391E0B9
:105600000E94251780913803853069F40E94BE23DB
:10561000809136038823B1F30E94A623882391F357
:105620000E94772BEFCF0E949F17ECCF0C94182B82
:10563000292F332723303105C9F060F4213031059B
:1056400081F02230310509F04AC08BE390E024E577
:1056500036E049C02132310511F12232310579F1AC
:105660003EC082E190E02FE836E03DC099278130CE
:10567000910561F040F08230910559F0039779F57A
:10568000EEE0F6E008C0E0E5F6E005C0E0E4F6E0B4
:1056900002C0E4E1F6E0849190E09F0124C061152E
:1056A000710541F061307105D1F489E090E02FE798
:1056B00036E019C089E090E026E636E014C06115B6
:1056C000710541F06130710551F481E890E021EA03
:1056D00036E009C080E490E022E237E004C080E0D8
:1056E00090E020E030E0FA0131832083089580E1EA
:1056F00089BD82E189BD09B400FEFDCF8091D8004B
:105700008F7D8093D8008091E00082608093E000DC
:105710008091E00081FDFCCF0895CF92DF92EF925F
:10572000FF920F931F93CF93DF93EC018B017A01CC
:105730000E94EB2C811133C0E114F10439F0F70120
:1057400080819181081B190BC80FD91FC12CD12C46
:105750000115110519F18091E80085FD16C08091B1
:10576000E8008E778093E800E114F10449F0F70136
:1057700080819181C80ED91ED182C08285E00FC080
:105780000E94EB2C882321F30AC089918093F100B9
:1057900001501109FFEFCF1ADF0ADACF80E0DF9165
:1057A000CF911F910F91FF90EF90DF90CF900895D0
:1057B00020913F03309140032617370748F06115C9
:1057C000710539F42091E8002E772093E80001C09C
:1057D000B901FC0120E06115710579F18091380370
:1057E0008823F1F18530F1F18091E80083FD3CC020
:1057F0008091E80082FD2EC08091E80080FFEBCF11
:105800002091F3008091F20090E0922B61157105D8
:1058100051F08830910538F421912093F1006150C6
:1058200071090196F3CF21E0089709F020E08091FB
:10583000E8008E778093E800CECF2111CFCF0AC049
:1058400080913803882361F0853061F08091E80011
:1058500083FD0AC08091E80082FFF2CF80E00895C6
:1058600082E0089583E0089581E0089520913F0348
:10587000309140032617370748F06115710539F458
:105880002091E8002E772093E80001C0B901FC01C7
:1058900020E06115710591F180913803882309F4A6
:1058A00040C0853009F43FC08091E80083FD3DC0D1
:1058B0008091E80082FD2FC08091E80080FFE9CF51
:1058C0002091F3008091F20090E0922B6115710518
:1058D00059F08830910540F424912093F1003196DD
:1058E000615071090196F2CF21E0089709F020E09C
:1058F0008091E8008E778093E800CBCF2111CCCF48
:105900000AC080913803882361F0853061F080916E
:10591000E80083FD0AC08091E80082FFF2CF80E0BA
:10592000089582E0089583E0089581E00895982F16
:10593000973068F59093E900981739F07091EC0072
:105940002091ED005091F00003C0242F762F50E0FD
:1059500021FD02C09F5FECCF3091EB003E7F309382
:10596000EB003091ED003D7F3093ED003091EB0086
:1059700031603093EB007093EC002093ED00509376
:10598000F0002091EE0027FDE5CF80E008958F70B4
:105990008093E90081E008958091390387FF11C069
:1059A0008091E80082FD05C0809138038111F8CF15
:1059B00011C08091E8008B770BC080913803882359
:1059C00049F08091E80080FFF8CF8091E8008E7761
:1059D0008093E80008952091E4003091E50095E679
:1059E0004091EC00842F817040FF23C08091E8003B
:1059F00080FD1DC080913803882399F0853099F08F
:105A00008091EB0085FD11C04091E4005091E500CC
:105A10002417350729F3915011F09A01E1CF84E062
:105A2000089582E0089583E0089581E0089580E07C
:105A300008954091E80042FFDDCF08950E948C2D2B
:105A40000E94942DE0EEF0E0808181608083E8ED9B
:105A5000F0E080818F77808319BCA7EDB0E08C9156
:105A60008E7F8C9380818F7E808310923703089580
:105A70000F931F93CF93DF930E948C2D0E94942D40
:105A8000C8EDD0E088818F7788838881806888839B
:105A900088818F7D888319BC10923803109234035B
:105AA000109236031092350300EE10E0F801808169
:105AB0008B7F808388818160888342E060E080E022
:105AC0000E94972CE1EEF0E080818E7F8083E2EEF1
:105AD000F0E0808181608083808188608083F8012C
