:100000000C94A1070C94E8070C94E8070C94E807FB
:100010000C94E8070C94E8070C94E8070C94E807A4
:100020000C94E8070C94E8070C94A12B0C94732C07
:100030000C94A61D0C94E8070C94E8070C94E807B0
:100040000C94E8070C94E8070C94E8070C94E80774
:100050000C94E8070C941A1E0C94E8070C94E8071B
:100060000C94E8070C94E8070C94E8070C94E80754
:100070000C94E8070C94E8070C94E8070C94E80744
:100080000C94E8070C94E8070C94E8070C94E80734
:100090000C94D9090C94E8070C94E8070C94E80731
:1000A0000C94E8070C94E8070C94E807F012F0129F
:1000B000221322136F138F13EF14EF14D1136E1446
:1000C0007F147F14DF14EF14EF14E8147115711509
:1000D000831583157A15831583158315711571158D
:1000E0007F15831583157F15F923E7230B248522BC
:1000F000E424E424E423E424E4243824E4244C2405
:10010000C424E424E424E424E4248024E424E42433
:100110006924E4242424E424E424DE24DE24DE24EC
:10012000DE24DE24DE24DE24DE24DE24E024E424B7
:10013000F923DC23E424E424E424E424E424E42474
:10014000E424E424E424E424E024E424E424E42374
:10015000E424DC24DC24DC24DC24DC24DC24DC2497
:10016000DC24DC24E024E02C072DF92D072DF92DCB
:10017000532D762DF92DCC2DDB2D253032583A20FC
:10018000253031366225730A00722F6320303132F8
:10019000333435363738394142434445460A0050F6
:1001A00000E600E3000000510063004F0062001B06
:1001B00000E200356519000000290010002C000144
:1001C00051370000000000590058005A005B001D24
:1001D00000E300E00006000E0000001100050034FE
:1001E000003800360000005C0057005D005E00072C
:1001F000000400E10009000D003A000B000A00E5D0
:100200000033000F00300052000000000000001614
:10021000001400296115000C003C001800170000B4
:1002200000000000000000000000000000000000CE
:100230000000000000000000000000000000002E90
:10024000002D0027002A00530031005400550020E3
:10025000001F000000210026003B00240023002F87
:10026000001300120028005F005600600061001AB1
:10027000001E002B6D080025003D001C00220044DC
:10028000004300420045004C004E0049004B000076
:100290000000000000000041003E0040003F004A16
:1002A000006500010000004E0001004D000100014A
:1002B0000001000100010000000100010001000137
:1002C0000001000000000001000100010001000128
:1002D0000001000100010001000000010001000117
:1002E0000001000100000001000100010001000107
:1002F00000010001000100010001000100010001F6
:10030000000100010001004B00000000000000019E
:100310000001000100010046000100010001000091
:1003200000000000000000000000000000000000CD
:1003300000000000000000000000000000000001BC
:1003400000010001000100010001000100010001A5
:100350000001000000010001000100010001000196
:1003600000480047000100010001000100010001F8
:100370000001000100010001000100010001000175
:100380000001000100010001004D0001004A0000D1
:100390000000000000000001000100010001004415
:1003A000454255473A2064697361626C65642E0A60
:1003B0000044454255473A20656E61626C65642E83
:1003C0000A000A002530325820006B6579626F619F
:1003D00072645F7265706F72743A20000A00253093
:1003E0003258006B6579626F6172645F7365745F28
:1003F0006C65643A200064656C5F6B65795F626967
:10040000743A2063616E27742064656C3A2025304D
:1004100032580A006164645F6B65795F6269743A9F
:100420002063616E2774206164643A20253032585D
:100430000A00290A002575002F002575005D280097
:10044000256400200025640020002564002000258C
:1004500064007C0025303258006D6F7573656B65E4
:1004600079205B62746E7C782079207620685D2824
:100470007265702F61636C293A205B006D6B5F774A
:100480006865656C5F74696D655F746F5F6D6178D9
:10049000203D2025640A006D6B5F776865656C5FA1
:1004A0006D61785F7370656564203D2025640A0086
:1004B0006D6B5F74696D655F746F5F6D6178203D12
:1004C0002025640A006D6B5F6D61785F73706565F0
:1004D00064203D2025640A006D6B5F696E7465724F
:1004E00076616C203D2025640A006D6B5F64656C4D
:1004F0006179203D2025640A006D6B5F7768656532
:100500006C5F74696D655F746F5F6D6178203D200D
:1005100025640A006D6B5F776865656C5F6D617857
:100520005F7370656564203D2025640A006D6B5F14
:1005300074696D655F746F5F6D6178203D2025641F
:100540000A006D6B5F6D61785F7370656564203D57
:100550002025640A006D6B5F696E74657276616C4C
:10056000203D2025640A006D6B5F64656C61792015
:100570003D2025640A000A00257500363A20776878
:1005800065656C5F74696D655F746F5F6D61783A06
:1005900020000A00257500353A20776865656C5F94
:1005A0006D61785F73706565643A20000A00257597
:1005B00000343A2074696D655F746F5F6D61783ADD
:1005C00020000A00257500333A206D61785F737052
:1005D0006565643A20000A00257500323A20696E8C
:1005E00074657276616C286D73293A20000A0025C3
:1005F0007500313A2064656C6179282A31306D7359
:10060000293A20000A092D2056616C756573202D4A
:100610000A004D3E004D25643E20003F0073657486
:100620002064656661756C740A00433E200077683B
:100630006572652064656C74613A20637572736FCE
:10064000723D25642C20776865656C3D25640A53EE
:10065000656520687474703A2F2F656E2E77696B0C
:100660006970656469612E6F72672F77696B692F96
:100670004D6F7573655F6B6579730A000A092D20EC
:100680004D6F7573656B6579202D0A4553432F7146
:100690003A09717569740A313A0964656C6179289F
:1006A0002A31306D73290A323A09696E746572769F
:1006B000616C286D73290A333A096D61785F737034
:1006C0006565640A343A0974696D655F746F5F6DBE
:1006D00061780A353A09776865656C5F6D61785FA6
:1006E00073706565640A363A09776865656C5F748E
:1006F000696D655F746F5F6D61780A0A703A0970A1
:1007000072696E742076616C7565730A643A097358
:1007100065742064656661756C74730A75703A0956
:100720002B310A646F776E3A092D310A7067757044
:100730003A092B31300A7067646F776E3A092D31B0
:10074000300A0A7370656564203D2064656C7461CD
:10075000202A206D61785F7370656564202A2028E7
:10076000726570656174202F2074696D655F746FA8
:100770005F6D6178290A003F004D3E2000433E2016
:10078000004C25640A0074696D65725F726561646E
:10079000333228293A202530346C580A006B6579A9
:1007A0006D61705F636F6E6669672E6E6B726F3A14
:1007B0002025580A006B6579626F6172645F696415
:1007C0006C653A2025580A006B6579626F61726426
:1007D0005F70726F746F636F6C3A2025580A0068FF
:1007E0006F73745F6B6579626F6172645F6C65646F
:1007F0007328293A2025580A000A092D20537461CC
:10080000747573202D0A004743433A20342E392E45
:1008100032204156522D4C4942433A20312E382E37
:100820003073766E204156525F415243483A206100
:100830007672350A004F5054494F4E533A204C556A
:100840004641204D4F5553454B455920455854522C
:10085000414B455920434F4E534F4C4520434F4D3C
:100860004D414E44204E4B524F20343039360A0011
:100870004255494C443A2022302E372E39372D31FB
:100880002D676439636636632D646972747922203A
:100890002831353A31303A333120446563202032F3
:1008A0002032303139290A005649443A20307846FE
:1008B00045454428514D4B29205049443A20307831
:1008C00039383043284C656F706F6C64204643396B
:1008D000383043207769746820514D4B29205645A4
:1008E000523A203078303130300A00444553433A90
:1008F000204C656F706F6C6420464339383043205C
:1009000077697468204861737520616C7465726ED4
:10091000617469766520636F6E74726F6C6C65725A
:10092000207573696E6720514D4B0A000A092D200E
:1009300056657273696F6E202D0A000A092D2043D7
:100940006F6E736F6C65202D0A4553432F713A0902
:10095000717569740A6D3A096D6F7573656B6579A8
:100960000A000A092D204D61676963202D0A443A67
:10097000094465627567204D65737361676520542E
:100980006F67676C650A583A094D6174726978201F
:100990004465627567204D6F646520546F67676CAE
:1009A00065202D2053686F77206B657970726573B1
:1009B00073657320696E206D617472697820677247
:1009C00069640A4B3A094B6579626F61726420442D
:1009D0006562756720546F67676C65202D205368CA
:1009E0006F77206B65797072657373207265706FB5
:1009F00072740A4D3A094465627567204D6F7573CC
:100A00006520546F67676C650A563A0956657273BC
:100A1000696F6E0A533A095374617475730A433AE5
:100A200009416374697661746520436F6E736F6CFE
:100A300065204D6F64650A46312D4631303A0953C1
:100A4000776974636820746F204C61796572203017
:100A50002D392028463130203D204C30290A302DB8
:100A6000393A0953776974636820746F204C61794F
:100A7000657220302D390A47524156453A0953775D
:100A80006974636820746F204C617965722030202E
:100A900028616C7465726E617465290A423A094A6C
:100AA000756D7020746F20426F6F746C6F61646538
:100AB000720A4553433A094A756D7020746F20429B
:100AC0006F6F746C6F616465722028616C746572FD
:100AD0006E617465290A453A095072696E74204541
:100AE0004550524F4D2053657474696E67730A42C6
:100AF00053504143453A09436C6561722045455066
:100B0000524F4D0A4E3A094E4B524F20546F676771
:100B10006C650A000A002575002E6E6B726F3A2014
:100B2000000A002575002E737761705F6261636B48
:100B3000736C6173685F6261636B73706163653A64
:100B400020000A002575002E737761705F6772615F
:100B500076655F6573633A20000A002575002E6E86
:100B60006F5F6775693A20000A002575002E73775C
:100B700061705F72616C745F726775693A20000A18
:100B8000002575002E737761705F6C616C745F6C0B
:100B90006775693A20000A002575002E7377617029
:100BA0005F7263746C5F726775693A20000A002592
:100BB00075002E737761705F6C63746C5F6C677522
:100BC000693A20000A002575002E636170736C6F0E
:100BD000636B5F746F5F636F6E74726F6C3A20004B
:100BE0000A002575002E737761705F636F6E7472F3
:100BF0006F6C5F636170736C6F636B3A20000A0007
:100C000025303258006B65796D61705F636F6E6679
:100C100069672E7261773A20000A002575002E6DF3
:100C20006F7573653A20000A002575002E6B657993
:100C3000626F6172643A20000A002575002E6D61B2
:100C4000747269783A20000A002575002E656E617D
:100C5000626C653A20000A002530325800646562F3
:100C600075675F636F6E6669672E7261773A200001
:100C70000A0025750064656661756C745F6C617946
:100C800065723A20003F004E4B524F3A206F666625
:100C90000A004E4B524F3A206F6E0A000A6D6F7574
:100CA00073653A206F66660A000A6D6F7573653A60
:100CB000206F6E0A000A6B6579626F6172643A2078
:100CC0006F66660A000A6B6579626F6172643A202A
:100CD0006F6E0A000A6D61747269783A206F6666F9
:100CE0000A000A6D61747269783A206F6E0A000A10
:100CF00064656275673A206F66660A000A64656219
:100D000075673A206F6E0A000A0A4A756D70696E3F
:100D10006720746F20626F6F746C6F616465722EF0
:100D20002E2E2000433E2000436C656172696E6781
:100D300020454550524F4D0A006565636F6E6669E8
:100D4000673A0A005B735D004B6579626F6172649C
:100D50002073746172742E0A005B575D005B535DF3
:100D6000005B525D005B445D005B435D000403304B
:100D700000000030034C0065006F0070006F006CD5
:100D80000064002000460043003900380030004372
:100D90000020007700690074006800200051004DB9
:100DA000004B000000080351004D004B0000000400
:100DB00003090409025B00030100A0FA0904000012
:100DC0000103010100092111010001224000070572
:100DD000810308000A090401000103000000092141
:100DE0001101000122C0000705820320000A090446
:100DF000020002030000000921110100012222006B
:100E000007058303200001070503032000011201E9
:100E1000100100000008EDFE0C9800010102030122
:100E20000631FF0974A1010975150026FF00952000
:100E3000750881020976150026FF00952075089136
:100E400002C005010902A10185020901A1000509ED
:100E500019012905150025019505750181029501E6
:100E6000750381010501093009311581257F95023E
:100E70007508810609381581257F95017508810659
:100E8000050C0A38021581257F950175088106C079
:100E9000C005010980A10185031A81002A8300167B
:100EA0000100260300950175108100C0050C0901A1
:100EB000A10185041A01002A9C02160100269C0249
:100EC000950175108100C005010906A10185050580
:100ED0000719E029E715002501950875018102052C
:100EE00007190029EF1500250195F075018102050C
:100EF0000819012905950575019102950175039160
:100F000001C005010906A101050719E029E715003F
:100F10002501950875018102950175088101050774
:100F2000190029FF150026FF0095067508810005A8
:100F3000081901290595057501910295017503911F
:100F400001C011241FBECFEFDAE0DEBFCDBF04B673
:100F500003FE27C08091840290918502A0918602B1
:100F6000B09187028730904BA740B04BD1F41092DC
:100F7000840210928502109286021092870214BE9B
:100F800084B7877F84BF0FB6F894A89580916000DE
:100F9000886180936000109260000FBEE0E0F8E38B
:100FA000099511E0A0E0B1E0E4E5FDE502C005909F
:100FB0000D92AE32B107D9F722E0AEE2B1E001C046
:100FC0001D92A438B207E1F70E94C5280C94A82E00
:100FD0000C940000FF93EF93E0912E01F0912F010C
:100FE000309709F00995EF91FF910895FC018591E3
:100FF000803011F0EFDFFBCF0895FF27E0E230E211
:1010000047FF0CC0419597FF09C0EDE260957095D0
:1010100080959095611D711D811D911D27FF02C056
:10102000219530E350E2AA27660F771F881F991F8A
:10103000AA1FA41710F0A41B63955A95A9F7AA300C
:1010400008F0A95FA05DAF93F39561157105810567
:10105000910541F7ED3211F4EF93F395F21718F47F
:101060003F93F395FBCF8F91B5DFFA95E1F70895A4
:10107000E991F9918591803021F0853219F0AADF4C
:10108000F9CF089520E0E89455915532C1F35033DB
:1010900011F4689455915A3348F4505390F3220F49
:1010A000022E220F220F200D250FF4CF0EF42195D2
:1010B00089919991533619F3533729F1533559F1E1
:1010C000BC0188279927E8945C3621F4899199918D
:1010D00068945591543639F446EF7EF077FF0DC091
:1010E0008FEF9FEF0AC055374AE039F0583540E19D
:1010F00021F0523642E009F00895FF93EF937DDF2F
:10110000EF91FF91B7CFFF93EF93FC018191803076
:10111000B9F360DFFBCFFF93EF9368DFF1CFDF938D
:10112000CF93CDB7DEB72596A3DFCF91DF9108959A
:101130000895089580912B028160826080932B0234
:1011400084B18F6084B93E98469A3F9A8AB1806F85
:101150008AB95F9A479884B1806784B985B18067FE
:1011600085B9E0E4F1E01192119281E0E035F807F1
:10117000D1F7E0E3F1E01192119281E0E034F80759
:10118000D1F780E491E0909353018093520180E382
:1011900091E090935101809350010C948C0AAF928E
:1011A000BF92DF92EF92FF920F931F93CF93DF9343
:1011B0008091500190915101209152013091530141
:1011C0003093510120935001909353018093520129
:1011D00000E010E0C1E0D0E085B1807F802B85B9D0
:1011E000BE01002E02C0660F771F0A94E2F75B0172
:1011F000A094B09440E050E08BB1282F2F78CA0122
:1012000034E0880F991F3A95E1F7822B8BB92AE0D9
:101210002A95F1F700C0CA01880F991FA0915001CB
:10122000B0915101A80FB91F2D913C91262337236E
:10123000232B09F0479AE5E3EA95F1F70000D6B4CD
:101240005F98FAE0FA95F1F700C0A0915201B091D1
:1012500053017D01E80EF91EF701369B05C0208180
:1012600031812A213B2104C020813181262B372B5B
:101270003183208326B5ED2CF12C2D1518F026B5E1
:1012800030E004C026B530E021503F4F2E193F0911
:101290002630310568F02091500130915101280F1E
:1012A000391FF90120813181A80FB91F2D933C937B
:1012B000FAE1FA95F1F700C047985F9A8BE291E066
:1012C0000197F1F700C000004F5F5F4F48305105B4
:1012D00009F092CFA0915201B0915301E0915001D9
:1012E000F091510150962D913C91519780899189AF
:1012F0002817390751F00E94E41D60935401709340
:10130000550180935601909357010F5F1F4F003195
:10131000110509F061CF0E94940A81E0DF91CF911D
:101320001F910F91FF90EF90DF90BF90AF900895C5
:101330002091520190915301E22FF92FE80FF11DF6
:10134000E80FF11D808191810895EF92FF920F9334
:101350001F93CF93DF9389E891E00E94F607C0E0E6
:10136000D0E083E1E82E81E0F82E0AE711E08C2F2F
:101370000E9498090E94E11BFF92EF929F938F9326
:10138000DF93CF931F930F930E948F0821968DB701
:101390009EB708960FB6F8949EBF0FBE8DBFC8309B
:1013A000D10529F7DF91CF911F910F91FF90EF9019
:1013B00008951F920F920FB60F9211248F939F934F
:1013C000EF93FF938091B900887F803869F038F4FB
:1013D0008823C9F18036C9F51092580136C0883A81
:1013E00009F1883BF9F031C080915801811111C099
:1013F0008091BB008093590180915901803120F088
:101400001092590180E001C081E091E09093580171
:101410001DC0E0915901F0E08091BB00E15AFD4F01
:10142000808308C0E0915901F0E0E15AFD4F8081CE
:101430008093BB008091590190E001968F709927AD
:101440008093590102C01092BC0081E09091BC00D1
:1014500095688295880F880F807C892B8093BC00CB
:10146000FF91EF919F918F910F900FBE0F901F9062
:1014700018950C9498080C9499080C94520A80FFC3
:1014800002C02C9A01C02C9881FF02C02D9A01C085
:101490002D9882FF02C02E9A01C02E980C94960AB5
:1014A00081E0089581E008951F93CF93DF9300D0EA
:1014B00000D01F92CDB7DEB749835A8320917501C2
:1014C00089819A81211112C0662349F00E94961ADF
:1014D000182F682F89819A810E943B1A03C00E94AD
:1014E0006A1A182F69817A81812F04C00E94961A86
:1014F00069817A810F900F900F900F900F90DF917C
:10150000CF911F910C94550CFC0140815181628157
:10151000738184810C94540A0E94FB1B811102C0C8
:101520000E949B1C0C94390A0C943B0A089581E09C
:1015300008950C94970ACF93C82F0E943F0A8C2FCE
:101540000E94990ACF91089508950E9461150E9402
:10155000A40A2FEF84E39CE0215080409040E1F703
:1015600000C000000C94401E0F931F93CF93DF9395
:101570008C010E94840AEC01B8010E943D0A882374
:10158000C9F0B801CE010E946B0F882399F0F801D1
:101590008281882309F44EC1C1308CE5D80761F0FF
:1015A000CE3DECE5DE07E9F0C115FCE5DF07E1F42F
:1015B0000E94A50AC0E06FC180912B02C82FC09580
:1015C000C170C0FB80F980932B02CC2329F081EB02
:1015D00093E00E94F607EECF8FE993E00E94F607B2
:1015E0005AC10E949B1CE6CFC6318CE5D80709F48E
:1015F00024C130F4C230FCE5DF0708F445C106C061
:10160000CE018A5F9C45099708F03EC10E94FB1BF2
:10161000811102C00E949B1C0E940E1C90937602B6
:1016200080937502C0318CE5D80709F4C3C008F077
:1016300041C0C830FCE5DF0709F49AC0F0F4C430BB
:10164000ECE5DE0709F487C068F4C2308CE5D80702
:1016500009F477C0C330DC4509F0E3C0809175021E
:10166000826076C0C630FCE5DF0709F46EC008F082
:101670007BC08091750288606BC0CC30ECE5DE07E2
:1016800009F485C068F4CA308CE5D80709F474C041
:1016900008F079C00E94611580917502806858C079
:1016A000CE30FCE5DF0709F476C008F07FC08091FA
:1016B00075028BC0CB3FECE5DE0709F44FC018F58F
:1016C000C3318CE5D80709F47DC078F4C131FCE55D
:1016D000DF0709F473C0C231DC4509F0A2C00E94E3
:1016E0006115809175028F7733C0C531ECE5DE0757
:1016F00009F472C008F486C0CA3FDC4509F091C005
:10170000809176023EC0CF3FECE5DE0709F45FC072
:1017100058F4CD3F8CE5D80709F444C008F43FC025
:101720008091760282602DC0C130FDE5DF0709F4AB
:1017300075C008F45DC0C230DD4509F072C080E0BC
:101740006EC080917502816003C0809175028061D6
:101750008093750266C08091750211C080917602F7
:101760008260809376025DC0809175028062F0CFC6
:10177000809175028064ECCF8091750288608460EE
:10178000E7CF8160EECF809175028E7FE1CF8091AF
:1017900075028D7FDDCF80917502877FD9CF8091D3
:1017A000760218C0809176028D7FDBCF8091750222
:1017B0008F7ECECF809175028F7DCACF80917502CA
:1017C0008F7BC6CF80917502877F8B7FC1CF809141
:1017D00076028D7F8E7FC5CF8091750282FB222796
:1017E00020F991E0922790FB82F990FB83F9B0CF2A
:1017F00080917602982F909591708E7F892B90FB27
:1018000081F9AFCF0E9461158091750287FB222775
:1018100020F991E0922790FB87F99ACF81E00E940E
:101820009D1C80917502909176020E941F1C0E945F
:101830006115C0CEC631DC4539F50E94161B282F34
:10184000F80182814091000150910101882379F0D3
:101850002A7A91E009F490E090935A01911102C024
:1018600069E201C065E3CA010E94291D0AC0809196
:101870005A01811102C069E201C065E3CA010E94F8
:10188000341D0E94621B96CEC801DF91CF911F913B
:101890000F910C94500A8C2FDF91CF911F910F91D3
:1018A000089580E090E008950895E72FF0E098E033
:1018B000899FE00DF11D112484E0EE0FFF1F8A9532
:1018C000E1F7E60FF11DEE0FFF1FE156FE4F859188
:1018D00094910895880F991FFC01EE53FC4F859158
:1018E00094910895CF93DF930E94550C0E94270E88
:1018F000EC01811520E59207F0F5811530E493079E
:1019000008F024C1883E910500F5803E910508F05D
:101910009AC1883A910570F4853A910508F09FC004
:101920008130910509F48FC108F440C1049708F093
:101930008AC13CC18F3B910508F49CC0803C910555
:1019400008F434C1805C9109F4C0811540E2940729
:1019500058F4C11581E0D80708F075C1C03FD10522
:1019600008F424C1D0656FC1811520E3920708F007
:10197000E4C09F70DEC0811535E5930708F044C0D0
:10198000811544E5940708F0F8C0C11582E5D80731
:1019900008F5C11521E5D20708F0DBC08C2F837054
:1019A00021E030E002C0220F331F8A95E2F73C6845
:1019B000CE0174E0969587957A95E1F78370382B80
:1019C000CF70C695C69580E2C89FE0011124C22B56
:1019D000D32B39C12C2F26952695CE0183709927BC
:1019E000C115D34508F0BAC040E2249F90011124EC
:1019F000C1E0D0E002C0CC0FDD1F8A95E2F72C2BAE
:101A00003D2BE901DC681FC1811549E59407A0F46D
:101A1000C11588E5D80708F0B5C0C11526E5D2077D
:101A200008F0C4C08C2F0E94BB0E8F71C82FD0E06D
:101A3000DC2FCC27D06207C181153AE5930708F463
:101A4000A6C090568115904208F0B0C08D2F8F71BE
:101A50000E94BB0EDD27D0628F71D82BF4C0853A6F
:101A6000910509F4A6C0863A910509F0A5C0C2E81F
:101A7000D0E4E9C0883A910509F4A1C0893A9105FA
:101A800009F4A0C08A3A910509F49FC08B3A9105E8
:101A900009F49EC08C3A910509F49DC08B3B9105D9
:101AA00009F49CC08C3B910509F49BC08D3A9105CB
:101AB00009F49AC0803B910509F499C08E3A9105CA
:101AC00009F498C08F3A910509F497C0813B9105BC
:101AD00009F496C0823B910509F495C0833B9105BA
:101AE00009F494C0843B910509F493C0853B9105AA
:101AF00009F492C0863B910509F491C0873B91059A
:101B000009F490C0883B910509F48FC0893B910589
:101B100009F48EC08D3B910509F48DC08E3B910573
:101B200009F48CC08A3B910509F48BC0C0E0D4E471
:101B30008AC00E946A0CEC0186C09927D3FF03C0BB
:101B4000EC01D86C80C0EC01D06C7DC0DF70D06A35
:101B50007AC0DC2FCC27C16FD06A75C040E2249FC9
:101B600090011124C1E0D0E002C0CC0FDD1F8A95A6
:101B7000E2F7C22BD32BDA6866C0D82FCC27C46F0C
:101B8000D06A61C0DC2FCC27C06FD06A5CC08F7078
:101B90000E94BB0E94E0D695C7959A95E1F7CF7059
:101BA000D0E0DC2FCC27D069C82B4DC0C0E0D0E0FE
:101BB0004AC0C1E8D0E447C0C3E8D0E444C0C2EEA4
:101BC000D4E441C0C9EED4E43EC0CAEED4E43BC084
:101BD000C5EBD4E438C0C6EBD4E435C0C3EBD4E4E1
:101BE00032C0C4EBD4E42FC0C7EBD4E42CC0CCEC9F
:101BF000D4E429C0CDECD4E426C0C3E8D5E423C0A6
:101C0000CAE8D5E420C0C2E9D5E41DC0C4E9D5E4E2
:101C10001AC0C1E2D6E417C0C3E2D6E414C0C4E2DD
:101C2000D6E411C0C5E2D6E40EC0C6E2D6E40BC0CD
:101C3000C7E2D6E408C0CFE6D4E405C0C0E7D4E4E8
:101C400002C0CAE2D6E4CE01DF91CF910895823876
:101C5000910569F1B0F48133910509F46DC048F440
:101C60008932910509F463C08A32910509F469C08B
:101C700008958533910509F455C089339105B9F06C
:101C80000895833E910569F138F4803E9105B1F0E5
:101C9000823E910509F10895863E9105A9F1873E9E
:101CA0009105B9F1843E910509F064C023C02091EB
:101CB000750220FD4FC021FD4DC008958091750231
:101CC00080FD44C08091760280FF44C080917502FF
:101CD00084FD42C083EE4DC08091750282FF38C002
:101CE000F5CF8091750282FD33C08091760280FD30
:101CF00031C0ECCF8091760281FF32C080917502B5
:101D000084FD2AC087EE35C08091750283FF26C00E
:101D1000F5CF8091750283FD21C08091760281FD0F
:101D20001FC0ECCF8091750285FD1CC01DC0809145
:101D3000750285FD19C016C08091750286FD16C01A
:101D400017C08091750286FD13C010C089E311C0D1
:101D500082EE0FC080EE0DC080E00BC086EE09C0A1
:101D600084EE07C089E205C085E303C08AE201C0B2
:101D700081E390E008959091750292FF0DC0282FA5
:101D80002871283019F4877F846006C0282F2471B9
:101D9000243011F48B7F886093FF0DC0282F2871A9
:101DA000283119F4877E846106C0282F24712431DC
:101DB00011F48B7E88612091760220FF0DC0382FB0
:101DC0003871383019F4877F816006C0382F31713F
:101DD000313011F48E7F886021FF0DC0282F2871CB
:101DE000283119F4877E816106C0282F21712131A5
:101DF00011F48E7E886194FD877E08950F931F9362
:101E0000CF93DF93C62FD42F022FFC01828188232A
:101E1000C9F060935D010E94D81D90935C0180938E
:101E20005B0180E28C0F883008F050C0C77081E001
:101E300001C0880FCA95EAF7DF91CF911F910F91EA
:101E40000C94B01210915D01161330C080915B01AB
:101E500090915C010E94F01D8F3A910538F5C0E227
:101E6000CD0F1D17B9F080E2810F883040F4177054
:101E700081E001C0880F1A95EAF70E94B712C830B6
:101E800048F481E09D2F977001C0880F9A95EAF77A
:101E90000E94B012802F0E949D12C830B8F4D770F3
:101EA00081E001C0880FDA95EAF70AC080E28C0F62
:101EB000883060F4C77081E001C0880FCA95EAF7E6
:101EC000DF91CF911F910F910C94B712DF91CF91B9
:101ED0001F910F9108959C01CB01233F4CE53407DE
:101EE000F9F078F4283DFCE53F07B9F0293D4CE5D1
:101EF000340711F1273D3C4531F526E241EE61EE14
:101F00001EC0253FFCE53F0799F070F0263F3C4599
:101F1000D1F427E245EE66EE12C027E245EE0EC090
:101F200026E241EE60EE0BC027E245EE64EE07C00C
:101F300026E241EE62EE03C028E241E065EE0E9437
:101F4000FE0E80E00895FC018281882319F0109232
:101F50005D01089581E0089590936301809362018B
:101F60000895E0916201F0916301309721F00190B2
:101F7000F081E02D099480E00895EF92FF921F9385
:101F8000CF93DF93FC01A0916201B09163011097A0
:101F900009F442C080911201882341F080917502BA
:101FA00087FF04C08081818385E08083EF011296E2
:101FB000ED91FC911397CE01099580912B0282FF40
:101FC0002BC080FF04C08AEC93E00E94F60718E063
:101FD00084ECE82E83E0F82E80912B0280FF0BC06A
:101FE00088811F928F93FF92EF920E948F080F902B
:101FF0000F900F900F90115021961111EDCF8091FD
:102000002B0280FF09C082EC93E0DF91CF911F91FA
:10201000FF90EF900C94F607DF91CF911F91FF9006
:10202000EF900895E0916201F0916301309739F0EB
:1020300022E0DC012C930480F581E02D09940895C1
:1020400020916001309161018217930771F09093A4
:10205000610180936001E0916201F091630130972A
:1020600021F00680F781E02D0994089520915E010A
:1020700030915F018217930771F090935F01809315
:102080005E01E0916201F0916301309721F00084DC
:10209000F185E02D0994089585B7806885BF85B7DF
:1020A000806885BF0895089508950C94541008958C
:1020B0000C9457100E944C100E9453100C94551011
:1020C00081E008950E94CF1D0E949A080E94641E1C
:1020D0000C945810CF93C82F80912B0282FF1EC002
:1020E00080FF04C083EE93E00E94F60780912B02EC
:1020F00080FF0CC01F92CF938EED93E09F938F9340
:102100000E948F080F900F900F900F9080912B02DC
:1021100080FF04C08CED93E00E94F6078C2FCF91D6
:102120000C949B0A4F925F927F928F929F92AF92F4
:10213000BF92CF92DF92EF92FF920F931F93CF93B4
:10214000DF93CDB7DEB72A970FB6F894DEBF0FBE88
:10215000CDBF0E94CF080E946010811111C08FEF87
:1021600089838A831B820E94D81D8160782F9D837A
:102170008C8349815A816B818D810E94501157C097
:1021800095E6C92E91E0D92E00E010E0AA24A39490
:10219000B12C702E802F0E9498094C01F6014190BD
:1021A00051906F01482659264114510431F40F5FB4
:1021B0001F4F0830110569F7D2CF80912B0281FDA6
:1021C0000E94A50920E030E07501022E02C0EE0C4D
:1021D000FF1C0A94E2F7C70184219521892B09F19C
:1021E0002E837F828E209F2091E0892809F490E041
:1021F00098870E94D81D8160782F9A8789874E81A1
:102200005F8168858A850E945011000F111FF801B7
:10221000EB59FE4F80819181E826F926F182E08218
:1022200006C02F5F3F4F2031310571F6C0CF0E94AD
:102230007820109164010E94B10F1817D9F00E9404
:10224000B10F809364012A960FB6F894DEBF0FBEDB
:10225000CDBFDF91CF911F910F91FF90EF90DF9055
:10226000CF90BF90AF909F908F907F905F904F9056
:102270000C946A102A960FB6F894DEBF0FBECDBF3D
:10228000DF91CF911F910F91FF90EF90DF90CF9052
:10229000BF90AF909F908F907F905F904F900895E8
:1022A000CF93DF93CDB7DEB72B970FB6F894DEBF91
:1022B0000FBECDBF4F83588769877A878B87DE0132
:1022C000119686E0FD0111928A95E9F785E0FE01FD
:1022D000379601900D928A95E1F749815A816B8179
:1022E0007C818D819E810E940B182B960FB6F894ED
:1022F000DEBF0FBECDBFDF91CF910895FC0180817D
:1023000091810E94D71A0895CF93DF931F92CDB782
:10231000DEB7882309F4D9C0682F8CEF860F813A85
:1023200070F4862F69830E94FC2469818111CDC0DD
:1023300080910001909101010E94291D0CC080E252
:10234000860F883068F4677081E001C0880F6A9555
:10235000EAF70E94191B0F90DF91CF910C94621B3A
:102360008BE5860F833088F4653A29F0663A31F0C0
:1023700083E890E005C081E890E002C082E890E048
:102380000F90DF91CF910C94201088E5860F873154
:1023900008F091C0683A09F445C0693A09F445C0AB
:1023A0006A3A09F445C06B3A09F445C06C3A09F43D
:1023B00045C06B3B09F445C06C3B09F445C06D3A20
:1023C00009F445C0603B09F445C06E3A09F445C0C4
:1023D0006F3A09F445C0613B09F445C0623B09F41A
:1023E00045C0633B09F445C0643B09F445C0653B07
:1023F00009F445C0663B09F445C0673B09F445C094
:10240000683B09F445C0693B09F445C06D3B09F4DC
:1024100045C06E3B09F445C06A3B09F445C080E005
:1024200090E044C082EE90E041C089EE90E03EC072
:102430008AEE90E03BC085EB90E038C086EB90E000
:1024400035C083EB90E032C084EB90E02FC087EB87
:1024500090E02CC08CEC90E029C08DEC90E026C080
:1024600083E891E023C08AE891E020C082E991E00E
:102470001DC084E991E01AC081E292E017C083E2B6
:1024800092E014C084E292E011C085E292E00EC0B6
:1024900086E292E00BC087E292E008C08FE690E00F
:1024A00005C080E790E002C08AE292E00F90DF91E1
:1024B000CF910C943610603F40F0862F0E94FE1E94
:1024C0000F90DF91CF910C94EB1F0F90DF91CF9184
:1024D0000895882389F19CEF980F913A40F4682F72
:1024E00080910001909101010E94341D0DC090E285
:1024F000980F983058F4877091E001C0990F8A9531
:10250000EAF7892F0E941F1B0C94621B9BE5980F12
:10251000933020F480E090E00C94201098E5980F20
:10252000973120F480E090E00C943610803F20F04A
:102530000E94661F0C94EB1F0895CF93C82F0E9432
:102540008411C93349F42FEF87EE93E02150804086
:102550009040E1F700C000008C2FCF910C946912DD
:10256000882321F00E94191B0C94621B0895882374
:1025700021F00E941F1B0C94621B0895BF92CF9202
:10258000DF92EF92FF920F931F93CF93DF937C0123
:10259000062FC72FFC01158112951F70D281D11112
:1025A0000E94361B0E940F1B882379F0DD2369F0FF
:1025B00080E2800F883048F082E00E94AD1B0E94CC
:1025C0000F1B91E0B82EB92601C0B12CCC2EC294BD
:1025D0008FE0C822D12CF601EA5AFF4F0C944C2E02
:1025E0008C2F807FCF70882311F0C295C07FDD23B0
:1025F00099F0CC2309F4CEC180E2800F883010F02E
:10260000011104C08C2F0E94191B03C08C2F0E9443
:10261000291B0E94621BBEC1802F0E946912CC231D
:1026200009F4DDC180E2800F883010F0011104C090
:102630008C2F0E941F1B03C08C2F0E942F1B0E94F7
:10264000621BCDC18C2F807FCF70803211F0C2957C
:10265000C07F002319F00130C9F022C0DD2371F0E2
:10266000112341F0113031F40E94491B8C2B0E9440
:102670004F1BB5C10E94491B8C2B1DC0112319F0A3
:10268000113009F4ACC10E94581B25C0DD2321F094
:10269000163008F0A4C10EC0153008F0A0C11BC050
:1026A000DD2361F0112331F0F701858180FF72C1D4
:1026B0008F7085838C2F0E94B01291C1112359F025
:1026C000093309F078C1FFEF27EE83E0F150204095
:1026D0008040E1F76EC18C2F0E94B71280C18C2F11
:1026E00086958695837090E0009719F0019761F0C8
:1026F00076C1DD2321F0802F9C2F937002C080E0F3
:1027000090E00E94201076C1DD2321F0802F9C2FC5
:10271000937002C080E090E00E9436106BC1DD2310
:10272000F9F0053F51F0063F71F0043FA9F48091A4
:102730006F029091700281600BC080916F02909146
:102740007002826005C080916F0290917002846077
:102750009093700280936F02802F0E94FE1E1EC015
:10276000053F51F0063F71F0043FA9F480916F02DC
:10277000909170028E7F0BC080916F0290917002D9
:102780008D7F05C080916F02909170028B7F909336
:10279000700280936F02802F0E94661F0E94EB1FC1
:1027A00029C18C2F837009F049C0D1111FC1402F5E
:1027B000429546954770440F440F602F6F70862FE7
:1027C00090E0A0E0B0E0042E04C0880F991FAA1F7B
:1027D000BB1F0A94D2F704FF10C00FE010E020E006
:1027E00030E004C0000F111F221F331F4A95D2F79B
:1027F000009510952095309503C000E010E09801F9
:10280000C695C695C370D0E0BC01CD01602B712B7D
:10281000822B932BC230D10559F0C330D10559F02A
:10282000219719F00E945019E1C00E943E19DEC0A4
:102830000E946219DBC00E943C19D8C0DD2319F048
:102840008C2F817001C08695882309F4CFC0402F5A
:10285000429546954770440F440F602F6F70862F46
:1028600090E0A0E0B0E0042E04C0880F991FAA1FDA
:10287000BB1F0A94D2F704FF10C00FE010E020E065
:1028800030E004C0000F111F221F331F4A95D2F7FA
:10289000009510952095309503C000E010E0980158
:1028A000C695C695C370D0E0BC01CD01602B712BDD
:1028B000822B932BC230D10559F0C330D10559F08A
:1028C000219719F00E94161A91C00E94041A8EC016
:1028D0000E94281A8BC00E94771988C0CF70DD2310
:1028E00039F08C2F0E949D19802F0E94B0127EC05B
:1028F000802F0E94B7128C2F0E94BE1977C0023F12
:1029000001F128F4003F41F0013FA1F03FC0033F37
:10291000F9F0043F39F13AC0DD2341F0153008F0F9
:102920005EC08C2F8F710E94E31959C0163008F0D9
:1029300056C0F7CFDD2339F08C2F8F710E949D197F
:102940004EC0DD23C9F38C2F8F710E94BE1947C082
:10295000DD2329F08C2F8F710E94881940C00E94BE
:1029600083193DC0DD2349F0CF718C2F0E949D1942
:1029700063E08C2F0E94981B32C081E00E94AD1B47
:10298000123068F182E00E94AD1B29C0DD2331F0D6
:10299000112391F2802F0E94841121C0112399F2FA
:1029A000093349F49FEFE7EEF3E09150E040F04047
:1029B000E1F700C00000802F0E94691210C04C2F68
:1029C0004F70602FC7010E94510C0E94AF1812C0B7
:1029D0004C2F4F70602FC7010E94540C0BC028E091
:1029E000C21AD10884E0C816D10420F40E94B10FA5
:1029F0000E949B0ABB20D1F00E940B1B80FD16C0D9
:102A0000F70112820E94051B0E949D19C7010E94B6
:102A100020150E94051BDF91CF911F910F91FF9010
:102A2000EF90DF90CF90BF900C94BE19DF91CF91C3
:102A30001F910F91FF90EF90DF90CF90BF9008957E
:102A40000F931F93CF93DF93EC01888199812B81A2
:102A50003C81232BB9F09F3F11F48F3F99F0CE01B9
:102A60000E94B40A882371F0688179818A810E946A
:102A7000E21A8C010E943A1A0E943B19B801CE0159
:102A80000E94BE12DF91CF911F910F9108950E9475
:102A9000361B0E94461B0E94621B0E9413210E944B
:102AA000EB1F80E090E00E94201080E090E00C940A
:102AB000361080910001909101010E943F1D0C94FD
:102AC00047150E94261B0C945915E92FE295EF70CB
:102AD000F0E03297EE30F105B0F4EA59FF4F0C9474
:102AE0004C2E803F91F018F4883E68F40EC0843F6D
:102AF00051F40BC0883E48F0813F29F406C093FB97
:102B0000882780F9089580E0089581E008950E9463
:102B1000D71A0E9465150895CF93DF9300D000D097
:102B20001F92CDB7DEB70F900F900F900F900F90C0
:102B3000DF91CF910895CF93DF9300D000D000D0E4
:102B4000CDB7DEB726960FB6F894DEBF0FBECDBF69
:102B5000DF91CF9108951F93CF93DF93C0917601BA
:102B600016E080917701C81799F0D0E01C9FF00122
:102B70001D9FF00D1124E858FE4F40815181628164
:102B80007381848195810E949B152196C770E9CF3E
:102B9000DF91CF911F9108954091A8015091A90113
:102BA0006091AA017091AB018091AC019091AD014F
:102BB0000C949B158091AD0182958F7009F054C0E3
:102BC0008091AA01882309F44FC080917601A091D9
:102BD00077016091A8017091A9014091AB015091DA
:102BE000AC01B6E08A1709F43FC090E041155105E9
:102BF000C1F17F3F11F46F3FA1F1B89FF001B99F80
:102C0000F00D1124E858FE4F218172132AC0208153
:102C1000621327C02281211124C02381348124170B
:102C2000350710F421503109241B350B2F3A31059B
:102C3000C0F42091AD012F7020612093AD0126E0FA
:102C4000289FF001299FF00D1124E358FE4F808149
:102C50008F708061808388EA91E00E9420150C9437
:102C6000AB1501968770BECF0895CF92DF92EF9299
:102C7000FF920F931F93CF93DF93CDB7DEB7629789
:102C80000FB6F894DEBF0FBECDBF8C0185E0F80112
:102C9000DE011D9601900D928A95E1F7D8014C91C5
:102CA00011965C91119712966C9112971396CD9094
:102CB000DC9014973091A8017091A9018091AB012B
:102CC0009091AC01009709F46BC17F3F19F43F3F2D
:102CD00009F466C1E090AA01EE2009F4C0C0209179
:102CE000AD01C816D90628F0F601E81BF90BCF0193
:102CF00004C0809590958C0D9D1DFF24F3948F3A10
:102D0000910578F0F12C207F09F0C6C07C2DD98A7E
:102D1000C88A89890E948C1588EA91E00E94201552
:102D2000B1C0822F807F09F046C0751314C03413E0
:102D300012C0611110C02F7020612093AD010E945C
:102D4000CC1588EA91E00E9420158091AD01D80150
:102D500015968C932EC0CD2819F15F3F11F44F3F8B
:102D6000F9F0F62E61111CC0809176012091770157
:102D700036E0821709F45AC090E0389FF001399F7D
:102D8000F00D1124E858FE4F7181571306C0708171
:102D9000471303C07281711103C001968770E9CF98
:102DA000F62E662309F427C18091AD0181608093DE
:102DB000AD01F12C20C1751308C0341306C0611198
:102DC00004C08091AD01D801C3C04D875E878D8559
:102DD0009E856A8B0E9487156A898823E1F16623A4
:102DE000D1F12091AD01822F82958F7090E00297F2
:102DF00074F08091A8019091A90198878F8319861A
:102E0000DB86CA862C87CE0107960E94201586E0B5
:102E1000F801A8EAB1E001900D928A95E1F70E94CD
:102E2000DA150E94CC15FF24F394E5C04D875E8728
:102E30008D859E850E94D71A292F22952F7030E00C
:102E4000223031050CF0CBC09F7009F0C5C0805E08
:102E5000883008F4D0C0C8010E942015E4CFC816FD
:102E6000D90608F453C0F601E81BF90BCF018F3ADD
:102E7000910508F450C0F12C7C2DD98AC88A898923
:102E80000E948C15E8EAF1E086E0DF011D928A9548
:102E9000E9F70E94CC15AFC0751314C0341312C0EB
:102EA000611110C08091AD01F8018583C8010E94B5
:102EB000201586E0E8EAF1E0DF011D928A95E9F746
:102EC000FE2C99C04D875E878D859E856A8B0E94FA
:102ED00087156A89882309F4BECF662309F4BBCF1E
:102EE0002091AD01822F82958F7090E002970CF4B3
:102EF0008ECF8091A8019091A9019A8389831B822A
:102F0000DD82CC822E83CE0101967FCF8095909575
:102F10008C0D9D1DACCFF62E662309F49CCF751346
:102F20002EC034132CC02091AD0120FD1FC0822F74
:102F300082958F70D9F0D80115962C9315978F3004
:102F400049F08F5F982F9295907F822F8F70892BF9
:102F500015968C93C8010E94201586E0F801A8EA16
:102F6000B1E001900D928A95E1F793CF86E0F801E8
:102F7000A8EAB1E001900D928A95E1F73CC04D8737
:102F80005E878D859E850E948715811140CF809137
:102F9000AD0181608093AD01C8010E9420152BC056
:102FA000662309F458CF4D875E878D859E850E94E4
:102FB0008715F82E882309F44ECF86E0F801A8EA99
:102FC000B1E001900D928A95E1F788EA91E00E94C4
:102FD0007E110E94DA155DCF811139CF0CC02430EB
:102FE00031050CF038CF9F7009F431CFF80195818D
:102FF000907F09F02CCF8F2D62960FB6F894DEBF2C
:103000000FBECDBFDF91CF911F910F91FF90EF9039
:10301000DF90CF9008951F93CF93DF93CDB7DEB7A6
:103020002C970FB6F894DEBF0FBECDBF4F835887E5
:1030300069877A878B879C87CE0107960E94351611
:10304000882369F08F8198852A853B85232BF1F1B0
:103050009F3F09F063C08F3F09F060C037C086E032
:10306000FE013796DE01119601900D928A95E1F7E7
:103070006F817885EA85FB85309741F17F3F11F4B8
:103080006F3F21F12091770130E0C90101968770EF
:1030900099274091760150E08417950709F447C0BD
:1030A00069837A83FD83EC8396E0929FD001939F9E
:1030B000B00D1124A858BE4FFE01319601900D921B
:1030C0009A95E1F7809377010E94AB1516E0809105
:1030D0007601909177018917C1F1189FC0011124E1
:1030E00088589E4F0E943516882379F1E091760129
:1030F0001E9FF0011124E858FE4F408151816281EA
:103100007381848195810E949B158091760190E066
:1031100001968770992780937601D9CF4F81588582
:1031200069857A858B859C850E949B15CFCF0E94EF
:1031300061151092770110927601E8EAF1E086E0DD
:10314000DF011D928A95E9F7C1CF2C960FB6F8944E
:10315000DEBF0FBECDBFDF91CF911F910895EF92DB
:10316000FF920F931F93CF93DF938C01892B09F468
:103170006CC0F12CEE24E394E8012196F8018491CF
:10318000843740F4843008F051C0813081F08230BF
:1031900019F15BC0853709F444C0A8F19CE7980F8A
:1031A000903708F052C08F770E94691241C00E5FBD
:1031B0001F4FFE01C49180E28C0F883048F4C77025
:1031C0008E2D01C0880FCA95EAF70E94391B14C0E2
:1031D0008C2F0E9484112DC00E5F1F4FFE01C491E1
:1031E00080E28C0F883058F4C7708E2D01C0880F94
:1031F000CA95EAF70E943F1B0E94621B1AC08C2FDF
:103200000E94691216C00E5F1F4FFE01C491CC23AD
:1032100081F08FE99FE00197F1F700C00000C150F5
:10322000F6CF0E5F1F4FFE01F49003C00E94841181
:103230008E018F2D882309F49FCFEFE9FFE03197AE
:10324000F1F700C000008150F5CFDF91CF911F91C1
:103250000F91FF90EF90089508950C942C190E94FF
:103260002D196093020270930302809304029093DD
:1032700005020C94471508950C942F190F931F9372
:103280000091020210910302209104023091050284
:10329000602B712B822B932B1F910F910C942F1964
:1032A0000F931F93009102021091030220910402D8
:1032B0003091050260237123822393231F910F9184
:1032C0000C942F190F931F93009102021091030287
:1032D00020910402309105026027712782279327ED
:1032E0001F910F910C942F1908950C9474190E943A
:1032F00075196093FE017093FF0180930002909313
:1033000001020C94471560E070E0CB010C94771932
:103310000F931F9341E050E060E070E08A019B0151
:1033200004C0000F111F221F331F8A95D2F7C90155
:10333000B8011F910F910C9477190F931F9341E0DF
:1033400050E060E070E004C0440F551F661F771F17
:103350008A95D2F78091FE019091FF01A091000221
:10336000B09101028A019B01082B192B2A2B3B2BC0
:10337000C901B8011F910F910C9477190F931F93F6
:1033800041E050E060E070E004C0440F551F661F4C
:10339000771F8A95D2F740955095609570958091EA
:1033A000FE019091FF01A0910002B09101028A01FB
:1033B0009B01082319232A233B23C901B8011F912C
:1033C0000F910C9477190F931F9341E050E060E048
:1033D00070E004C0440F551F661F771F8A95D2F70F
:1033E0008091FE019091FF01A0910002B091010235
:1033F0008A019B01082719272A273B27C901B80101
:103400001F910F910C9477190F931F930091FE0158
:103410001091FF012091000230910102602B712B6D
:10342000822B932B1F910F910C9477190F931F935D
:103430000091FE011091FF012091000230910102E4
:1034400060237123822393231F910F910C9477198A
:103450000F931F930091FE011091FF012091000234
:103460003091010260277127822793271F910F91C6
:103470000C947719089520E1929F800D1124A82FB4
:10348000A695A695A695877051E001C0550F8A951F
:10349000EAF785E0A89FD001112420E030E070E039
:1034A000F901EA0FFB1FE255FE4F4081CB01022ECE
:1034B00002C0969587950A94E2F7817099278195C5
:1034C00084278523842780832F5F3F4F2530310554
:1034D00039F7089520E1929F800D1124682F669599
:1034E00066956695982F977085E0689FB0011124C6
:1034F00040E050E080E0FA01E60FF71FE255FE4F92
:10350000208130E0092E02C0369527950A94E2F713
:1035100021703327042E01C0220F0A94EAF7822B70
:103520004F5F5F4F4530510531F70895BF92CF92FD
:10353000DF92EF92FF920F931F93CF93DF938C0153
:10354000C0900202D0900302E0900402F0900502C5
:103550008091FE019091FF01A0910002B0910102C3
:10356000C82AD92AEA2AFB2ACFE1D0E0D701C6012E
:103570000C2E04C0B695A795979587950A94D2F717
:1035800080FF07C0BC2EB8018C2F0E94720C0197DF
:1035900019F4219758F7B12C8B2DDF91CF911F9102
:1035A0000F91FF90EF90DF90CF90BF900895CF9351
:1035B000DF93EC010E94961ABE010E94720CDF910B
:1035C000CF9108951F93CF93DF93EB0190917501F5
:1035D000992321F0CB010E94D71A13C0882349F008
:1035E000CB010E94961A182F682FCE010E943B1A19
:1035F00004C0CB010E946A1A182FBE01812F0E94BD
:10360000720CDF91CF911F910895809106028595EC
:10361000859585950895809106028770089590910B
:103620000602977081E009F480E0089580912A02F3
:10363000089590912A02892B80932A0208958095FB
:1036400090912A02892380932A02089510922A02D7
:10365000089590912902892B8093290208958095DD
:1036600090912902892380932902089510922902BA
:10367000089590912802892B8093280208958095BF
:10368000909128028923809328020895109228029D
:10369000089580910702089508950C944C1B909111
:1036A0000702981721F0809307020C944D1B089590
:1036B00080910702882329F01092070280E00C9481
:1036C0004D1B0895E0910001F091010180912A02C3
:1036D0008083E0910001F0910101908180912902A5
:1036E000892B8083E0910001F0910101908180910C
:1036F0002802892B808380910702882381F0E09142
:103700000001F09101019081892B8083809100015B
:10371000909101010E94A21C81110E94581B80916E
:103720000001909101010C94BD0F08950C94951B1C
:1037300098E0899F90011124262B209306020E9475
:103740009D19809106028595859585950C94961B0B
:103750001092060280E00C94961B20910602809540
:10376000822380930602982F977079F430E0482FD7
:10377000082E000C550B2417350739F085958595D3
:1037800085950E94BE190C94A81B089590932F0153
:1037900080932E0108958295982F9C7C392F369521
:1037A0003695282F237344E0249FC0011124932FC2
:1037B000982B292F2A7A2695892F8575880F822B99
:1037C00008951F93CF93DF931F92CDB7DEB79983F0
:1037D0000E94CB1B182F9981892F0E94CB1B212F70
:1037E00030E0322F2227A901482BCA010F90DF9128
:1037F000CF911F91089580E090E00E946E2E21E00D
:103800008C3E9E4F09F020E0822F089582E090E0E8
:103810000C94662E83E090E00C94662ECF9384E0A7
:1038200090E00E94662EC82F81E290E00E94662EF2
:103830002C2F30E0A901582BCA01CF910895CF93C6
:10384000C92F682F84E090E00E94742E6C2F81E2D3
:1038500090E0CF910C94742EAB01BC018FE090E00E
:103860000C94862EAB01BC0183E190E00C94862E73
:1038700060E070E0CB010C94321C60E070E0CB01A2
:103880000E942C1C0C94381C6CEE7EEF80E090E0C3
:103890000E94922E60E082E090E00E94742E60E030
:1038A00083E090E00E94742E1092020210920302B4
:1038B000109204021092050260E084E090E00E9401
:1038C000742E60E081E290E00E94742E60E085E05A
:1038D00090E00E94742E60E086E090E00E94742EDA
:1038E0006FEF87E090E00E94742E40E050E0BA0154
:1038F00088E090E00E94862E60E08DE090E00E94DB
:10390000742E40E050E0BA0188E190E00E94862EDB
:1039100060E087E190E00E94742E40E050E0BA0140
:103920008CE190E00E94862E60E080E290E00E94B0
:10393000742E0C943D1C0C94441C682F8EE090E077
:103940000C94742EFC01329680911201882331F080
:103950008091750287FF02C09EE101C096E080E081
:10396000915028F021912223D9F38F5FF9CF089548
:103970009C01FC0132969FEF80E04191461789F04F
:103980009F3F19F4411101C0982F8F5F8630A9F72E
:103990009F3F39F0F901E90FF11D97FDFA95628318
:1039A00008950895FC01329608962081261301C0DF
:1039B00010823196E817F907C1F70895262F26954A
:1039C000269526952E3170F4FC01E20FF11D6770EB
:1039D00021E030E001C0220F6A95EAF78281282BAE
:1039E0002283089580912B0280FF0CC01F926F9359
:1039F00084E194E09F938F930E948F080F900F9023
:103A00000F900F900895262F2695269526952E31F6
:103A100078F4FC01E20FF11D677021E030E001C095
:103A2000220F6A95EAF72095828128232283089540
:103A300080912B0280FF0CC01F926F9386EF93E062
:103A40009F938F930E948F080F900F900F900F906D
:103A5000089520911201222329F02091750227FD5B
:103A60000C94DE1C0C94B81C20911201222329F026
:103A70002091750227FD0C94031D0C94D21C2091FB
:103A80001201FC013296222331F08091750287FFEA
:103A900002C08EE101C086E0DF011D928A95E9F740
:103AA000089508950C94511D0E94521D80917B022F
:103AB000843049F110922C0220E488E190E00FB6A6
:103AC000F894A895809360000FBE2093600080E07A
:103AD0000E949B0A0E94521D83B7817F846083BF2E
:103AE00083B7816083BF7894889583B78E7F83BFC7
:103AF0000FB6F894A895809160008861809360006B
:103B0000109260000FBE089508950895CF930E940B
:103B1000841D0E94CF080E94851DC0E08C2F0E944A
:103B20009809892B29F4CF5FC830C1F780E001C024
:103B300081E0CF91089508950C949B1D0E9461151A
:103B40000E94B10F0E949B0A0C949C1D1F920F9221
:103B50000FB60F9211248F939F93AF93BF938091D1
:103B60002C02811113C08091710290917202A09178
:103B70007302B09174024196A11DB11D8093710230
:103B800090937202A0937302B0937402BF91AF91AD
:103B90009F918F910F900FBE0F901F90189582E00C
:103BA00084BD93E095BD9AEF97BD80936E00089514
:103BB0002FB7F8948091710290917202A0917302D4
:103BC000B09174022FBF08952FB7F89460917102DD
:103BD0007091720280917302909174022FBF0895C8
:103BE000CF92DF92EF92FF920F931F932FB7F8942B
:103BF000409171025091720260917302709174024F
:103C00002FBF6A017B01EE24FF248C0120E030E00D
:103C1000C016D106E206F30610F4415051099A018C
:103C2000281B390BC9011F910F91FF90EF90DF9076
:103C3000CF90089578941F920F920FB60F9211248F
:103C40008F939F93AF93BF93809171029091720273
:103C5000A0917302B09174020196A11DB11D8093D1
:103C6000710290937202A0937302B0937402BF9199
:103C7000AF919F918F910F900FBE0F901F9018954D
:103C800081E08093E00080E28093D8001092C90028
:103C90008FE19EE40197F1F700C0000087E090EB10
:103CA000DC018093840290938502A0938602B093F6
:103CB00087029CE088E10FB6F894A8958093600095
:103CC0000FBE90936000FFCF0E94FB1B811102C0CA
:103CD0000E949B1C0E94061C80932B020E940E1CBB
:103CE00090937602809375020E940A1C682F70E000
:103CF00080E090E00C943C198091300280FF0BC072
:103D00006091050185E0689FB00111247595679564
:103D1000759567952BC081FF09C06091050185E00D
:103D2000689FB00111247595679520C082FF07C078
:103D30006091050185E0689FB001112417C0909142
:103D40002F029923D1F060910401961788F72091F2
:103D5000050185E0289F90011124929FA001939F67
:103D6000500D112470E0CA010E94382E6038710590
:103D700040F46115710539F002C065E070E0862FEE
:103D800008958FE7089581E008958091300280FFC3
:103D900008C06091030170E075956795759567950A
:103DA00021C081FF06C06091030170E075956795A1
:103DB00019C082FF04C06091030170E010C09091AF
:103DC0002F029923C1F0609102019617A0F780910C
:103DD0000301899FC001112470E00E94382E6038D1
:103DE000710528F46115710521F0862F08958FE77C
:103DF000089581E0089561E070E0F4CF803F21F400
:103E00000E947C1E819504C0813F29F40E947C1E83
:103E1000809334020895823F21F40E947C1E819594
:103E200004C0833F29F40E947C1E809333020895CE
:103E3000893F19F40E94C51E05C08A3F31F40E94D3
:103E4000C51E81958093350208958B3F21F40E9411
:103E5000C51E819504C08C3F29F40E94C51E809325
:103E600036020895843F21F480913202816017C0A8
:103E7000853F21F480913202826011C0863F21F497
:103E80008091320284600BC0873F21F4809132021E
:103E9000886005C0883F31F4809132028061809350
:103EA000320208958D3F21F48091300281600BC071
:103EB0008E3F21F480913002826005C08F3F29F44B
:103EC000809130028460809330020895803F39F4FD
:103ED0008091340287FF6CC01092340269C0813F28
:103EE00029F4809134021816BCF362C09091330219
:103EF000823F29F497FF5CC01092330259C0833F80
:103F000019F41916CCF354C0893F41F4809135025D
:103F100018160CF04DC0109235024AC08A3F29F4A1
:103F20008091350287FF44C0F6CF8B3F39F48091F2
:103F3000360287FF3DC0109236023AC08C3F29F40A
:103F4000809136021816BCF333C0843F21F480916F
:103F500032028E7F17C0853F21F4809132028D7F1F
:103F600011C0863F21F4809132028B7F0BC0873FC6
:103F700021F480913202877F05C0883F31F480911F
:103F800032028F7E8093320213C08D3F21F48091E4
:103F900030028E7F0BC08E3F21F4809130028D7FE6
:103FA00005C08F3F29F4809130028B7F80933002CF
:103FB0008091330281110EC08091340281110AC0B8
:103FC00080913502811106C080913602811102C0B4
:103FD00010922F02089580912B0283FF7EC089E505
:103FE00094E00E94F607809132021F928F9384E53D
:103FF00094E09F938F930E948F0882E594E00E9443
:10400000F60780913302282F082E000C330B3F93C4
:104010008F938FE494E09F938F930E948F088DE499
:1040200094E00E94F60780913402282F082E000C9D
:10403000330B3F938F938AE494E09F938F930E9476
:104040008F0888E494E00E94F60780913502282FBB
:10405000082E000C330B3F938F9385E494E09F93DD
:104060008F930E948F0883E494E00E94F60780916A
:104070003602282F082E000C330B3F938F9380E4D9
:1040800094E09F938F930E948F088DE394E00E94A9
:10409000F60780912F021F928F938AE394E09F93FB
:1040A0008F930E948F0888E394E00E94F607809126
:1040B00030021F928F9385E394E09F938F930E9429
:1040C0008F0882E394E00E94F6078DB79EB74C9666
:1040D0000FB6F8949EBF0FBE8DBF81E392E00E94A1
:1040E00012100E94D81D90932E0280932D020895E5
:1040F0001F93CF93DF9380912D0290912E020E9407
:10410000F01DAC0190912F02992321F0209106011E
:1041100030E006C0209107018AE0289F9001112419
:104120004217530708F47BC080913302C0913402D8
:10413000D091350210913602811107C0C1116BC0B8
:10414000D11169C0111167C06AC09F3F19F09F5F0C
:1041500090932F02181624F40E947C1E8093330241
:104160008091330287FF05C00E947C1E8195809359
:1041700033021C1624F40E947C1E8093340280912A
:10418000340287FF05C00E947C1E81958093340213
:10419000309133023323E1F0209134022223C1F025
:1041A00045EB3403C0011124892F990F990B009717
:1041B00009F481E08093330235EB2303C00111241D
:1041C000892F990F990B009709F481E080933402AD
:1041D0001D1624F40E94C51E80933502809135027D
:1041E00087FF05C00E94C51E819580933502111678
:1041F00024F40E94C51E809336028091360287FF08
:1042000005C00E94C51E819580933602DF91CF9133
:104210001F910C94EB1F9F3F09F099CFA1CFDF9125
:10422000CF911F910895E1E3F2E086E0DF011D9256
:104230008A95E9F710922F021092300208958CE7C8
:1042400096E00E94F6071F9281E08F931F9285E00F
:104250008F938EE296E09F938F930E948F080F902A
:104260000F900F900F900F900F9008958330E9F109
:1042700028F4813061F0823009F10895853009F425
:1042800062C008F449C0863009F474C00895809172
:104290000701262F30E0280F311D2F3F310524F470
:1042A000680F6093070103C08FEF8093070180912F
:1042B00007011F928F9387E695E072C080910601F7
:1042C000262F30E0280F311D2F3F310524F4680FD1
:1042D0006093060103C08FEF809306018091060171
:1042E0001F928F9385E595E05BC080910501262F95
:1042F00030E0280F311D2F3F310524F4680F609303
:10430000050103C08FEF80930501809105011F9285
:104310008F9382E495E044C080910401262F30E021
:10432000280F311D2F3F310524F4680F60930401DD
:1043300003C08FEF80930401809104011F928F933B
:104340008DE295E02DC080910301262F30E0280FEB
:10435000311D2F3F310524F4680F6093030103C022
:104360008FEF80930301809103011F928F9384E16B
:1043700095E016C080910201262F30E0280F311DF4
:104380002F3F310524F4680F6093020103C08FEFC3
:1043900080930201809102011F928F9389EF94E034
:1043A0009F938F930E948F080F900F900F900F9004
:1043B0000895833081F128F4813059F08230D1F0B2
:1043C0000895853009F449C0B8F1863009F456C023
:1043D000089580910701681720F4861B80930701D8
:1043E00002C010920701809107011F928F938AEEFD
:1043F00094E054C080910601681720F4861B8093D6
:10440000060102C010920601809106011F928F934F
:1044100088ED94E043C080910501681720F4861B65
:104420008093050102C010920501809105011F9241
:104430008F9385EC94E032C080910401681720F4DA
:10444000861B8093040102C0109204018091040134
:104450001F928F9380EB94E021C080910301681735
:1044600020F4861B8093030102C010920301809107
:1044700003011F928F9387E994E010C0809102019D
:10448000681720F4861B8093020102C0109202017B
:10449000809102011F928F938CE794E09F938F93FA
:1044A0000E948F080F900F900F900F900895CF9358
:1044B000C82F1F928F9381E897E09F938F930E945C
:1044C0008F0881E090E0A0E0B0E0BC01CD0104C025
:1044D000660F771F881F991FCA95D2F70E943C1953
:1044E0000F900F900F900F90CF910C946115CF9378
:1044F000DF93482F50E0FA013597EF33F10508F0CC
:1045000063C2EC58FF4F0C944C2E89E39DE00E944F
:10451000F60785E79CE00E94F6070E940A1C1F929E
:104520008F9382E79CE09F938F930E948F0880E790
:104530009CE00E94F6070E94061CC82F8DE59CE0B7
:104540000E94F6071F92CF9388E59CE09F938F937C
:104550000E948F0886E59CE00E94F6078CE49CE0B0
:104560000E94F6078C2F81701F928F9389E49CE044
:104570009F938F930E948F0887E49CE00E94F60728
:104580008DE39CE00E94F607C1FB882780F91F920B
:104590008F938AE39CE09F938F930E948F0888E318
:1045A0009CE00E94F6078CE29CE00E94F607C2FBAA
:1045B000882780F91F928F9389E29CE09F938F93C5
:1045C0000E948F0887E29CE00E94F6078EE19CE043
:1045D0000E94F607C3FBCC27C0F91F92CF938BE153
:1045E0009CE09F938F930E948F0889E19CE00E943A
:1045F000F6070E940E1CEC0185E09CE00E94F60785
:10460000DF93CF9380E09CE09F938F930E948F086D
:104610008EEF9BE00E94F60785EE9BE00E94F60776
:104620008C2F81701F928F9382EE9BE09F938F93CC
:104630000E948F088DB79EB780960FB6F8949EBFE4
:104640000FBE8DBF80EE9BE00E94F60789EC9BE0D9
:104650000E94F607C1FB882780F91F928F9386EC92
:104660009BE09F938F930E948F0884EC9BE00E94B5
:10467000F60782EB9BE00E94F6078D2F81701F9258
:104680008F938FEA9BE09F938F930E948F088DEA10
:104690009BE00E94F6078BE99BE00E94F607D69507
:1046A000D1701F92DF9388E99BE09F938F930E94C4
:1046B0008F0886E99BE00E94F60784E89BE00E9451
:1046C000F607C2FB882780F91F928F9381E89BE051
:1046D0009F938F930E948F088FE79BE00E94F607BD
:1046E0008DE69BE00E94F607C3FB882780F91F92A6
:1046F0008F938AE69BE09F938F930E948F0888E6B2
:104700009BE00E94F6078EE59BE00E94F607C4FB43
:10471000882780F91F928F938BE59BE09F938F935F
:104720000E948F0889E59BE00E94F60787E49BE0E2
:104730000E94F607C5FB882780F91F928F9384E4B7
:104740009BE09F938F930E948F0882E49BE00E94DE
:10475000F60786E29BE00E94F607C6FB882780F9F1
:104760001F928F9383E29BE09F938F930E948F0809
:104770008DB79EB780960FB6F8949EBF0FBE8DBFC3
:1047800081E29BE00E94F60789E19BE00E94F60728
:10479000C7FBCC27C0F91F92CF9386E19BE09F9384
:1047A0008F930E948F0884E19BE00E94F6070F9090
:1047B0000F900F900F9006C088E29DE00E94F607D0
:1047C0000E949B1CC1E005C182E699E07FC08091F8
:1047D0002B02817F8E7F80932B028BE399E00E94D6
:1047E000F60784E29DE00E94F60781E0809338029C
:1047F000E9CF0E94611588E09DE00E94F6079FEFD7
:1048000023ED80E3915020408040E1F700C000009C
:104810000E94401ED7CF80912B02C82FC095C17037
:10482000C0FB80F980932B02CC2319F08CEF9CE025
:10483000BDC08FEE9CE00E94F60780912B02897F1D
:10484000877F80932B02BECF90912B0291FBCC27C8
:10485000C0F981E0C827892FC0FB81F980932B0222
:10486000CC2319F082EE9CE027C084ED9CE02EC0A2
:1048700090912B0292FBCC27C0F981E0C827892FA9
:10488000C0FB82F980932B02CC2319F085EC9CE0CD
:1048900013C085EB9CE01AC090912B0293FBCC27B0
:1048A000C0F981E0C827892FC0FB83F980932B02D0
:1048B000CC2351F089EA9CE00E94F60780912B02FC
:1048C000816080932B0285C08CE99CE00E94F607F2
:1048D00079CF8CE299E00E94F6078BEE98E00E9477
:1048E000F60788EA98E00E94F60780E798E00E94C1
:1048F000F60785E398E00E94F60787E098E0E6CFA8
:1049000089EF97E00E94F6070E94B10F1F928F93E4
:104910008FED97E09F938F930E948F0880911201F3
:104920001F928F9388EC97E09F938F930E948F083C
:1049300080915D021F928F9385EB97E09F938F93F9
:104940000E948F088091750287FB882780F91F924B
:104950008F938DE997E09F938F930E948F080E9419
:10496000E41D9F938F937F936F9386E897E09F93C7
:104970008F930E948F088DB79EB746960FB6F89416
:104980009EBF0FBE8DBF1ECF0E9461159091750214
:1049900097FBCC27C0F981E0C827892FC0FB87F996
:1049A00080937502CC2329F082E99CE00E94F607EF
:1049B00010C087E89CE08ACF895303C08D5101C0A5
:1049C00080E00E945722FECE85E89CE00E94F60718
:1049D000C0E08C2FDF91CF91089580E0089580E0B2
:1049E00008958E518A3030F4E82FF0E0EC5EFE4FEF
:1049F0008081089580E00895CF93C82F8091380278
:104A0000813059F020F0823009F445C039C10E944C
:104A1000161B823209F036C104C00E94161B823276
:104A200061F48C2F0E94ED24811104C08C2F0E9410
:104A300077222FC081E090E02CC08C2F0E94EF24C1
:104A4000811126C0C431E1F070F4CB3081F0C03167
:104A5000D1F40E941F2189E797E00E94F60782E0C7
:104A60008093380215C0C93259F0C83361F48BE322
:104A700099E00E94F6078DE797E00E94F60708C0CC
:104A80001092380201C187E797E00E94F607FCC048
:104A900081E08170FBC0C43228F5CE3108F0C1C07E
:104AA000CB30A1F1D0F4C73009F0D0C08EE18093B3
:104AB000070182E3809306018AE08093050184E187
:104AC0008093040188E08093030188E280930201CF
:104AD0008DE196E00E94F607BCC0C33149F1C431B4
:104AE000C1F0B4C0CB3409F4A6C028F4C93289F0AF
:104AF000C83361F0ABC0C13509F49BC0C23509F4BD
:104B000096C0CE3409F0A2C06AE09BC00E941F216B
:104B1000A0C080913702882319F01092370299C003
:104B20008AE296E00E94F60781E080933802AEC0E8
:104B300084E096E00E94F60782EF95E00E94F60777
:104B4000809107011F928F938FEE95E09F938F9333
:104B50000E948F088DEE95E00E94F6078BED95E0A0
:104B60000E94F607809106011F928F9388ED95E0D1
:104B70009F938F930E948F0886ED95E00E94F60721
:104B800087EC95E00E94F607809105011F928F93B4
:104B900084EC95E09F938F930E948F0882EC95E0C0
:104BA0000E94F60781EB95E00E94F60780910401D0
:104BB0001F928F938EEA95E09F938F930E948F08A8
:104BC0008CEA95E00E94F60787E995E00E94F607D7
:104BD000809103011F928F9384E995E09F938F93B7
:104BE0000E948F0882E995E00E94F6078BE795E026
:104BF0000E94F607809102011F928F9388E795E04B
:104C00009F938F930E948F0886E795E00E94F60796
:104C10008DB79EB748960FB6F8949EBF0FBE8DBF56
:104C200018C08C2F0E94F1248093370212C061E0DB
:104C300003C061E006C06AE0809137020E9436211D
:104C400008C0809137020E94D92103C08BE196E011
:104C500013C080913702882369F01F928F9385E1FA
:104C600096E09F938F930E948F080F900F900F9064
:104C70000F9004C082E196E00E94F60781E006C032
:104C80001092380280E002C080E003CFCF910895F7
:104C900080915C0208959FB7F89410923B029FBFE9
:104CA00090917B02943009F057C09091E9009F7079
:104CB0003091EC00232F217030FD20E8922B23E06F
:104CC0002093E9002091EB0020FF43C02091EE00EB
:104CD00027FF3FC020913902222321F02091E800D4
:104CE00025FF37C01092390226E03091E80035FDEB
:104CF00015C030917B02343061F53091EB0035FD09
:104D000028C0215021F481E08093390222C0EFE9CC
:104D1000FFE03197F1F700C00000E7CF8093F1008A
:104D20008091E80085FD0AC08091E80080FFFCCFFB
:104D30008091E8008E778093E80006C08FB7F894E2
:104D400021E020933B028FBF9F709093E90080E0A9
:104D500008959F709093E9008FEF08950F931F932C
:104D6000CF93DF9300D01F92CDB7DEB78C010E94A6
:104D70007429823011F0843021F584E089831B830B
:104D80000A8382E08093E9008FEF9091E8008150E0
:104D900095FD06C095ED9A95F1F700008111F5CFCC
:104DA0008091E80085FF0DC040E050E063E070E0D6
:104DB000CE0101960E9491298091E8008E77809320
:104DC000E8000F900F900F90DF91CF911F910F91FE
:104DD0000895CF93DF9300D01F92CDB7DEB7209117
:104DE0007B02243031F523E02983805891099B838D
:104DF0008A8382E08093E9008FEF9091E8008150F0
:104E000095FD06C095ED9A95F1F700008111F5CF5B
:104E10008091E80085FF0DC040E050E063E070E065
:104E2000CE0101960E9491298091E8008E778093AF
:104E3000E8000F900F900F90DF91CF910895CF93DE
:104E4000DF93EC010E947429823011F08430F9F470
:104E500082E08093E9009FEF8091E800915085FD0A
:104E600006C085ED8A95F1F700009111F5CF80918C
:104E7000E80085FF0CC040E050E066E070E0CE0145
:104E80000E9491298091E8008E778093E800DF915D
:104E9000CF910895CF93DF93EC010E947429823063
:104EA00011F08430D9F580911201882339F0809176
:104EB000750287FF03C060E282E002C068E081E023
:104EC0008093E9008FEF9091E800815095FD06C036
:104ED00095ED9A95F1F700008111F5CF8091E800EA
:104EE00085FF1CC080911201811105C040E050E097
:104EF00068E070E003C070E040E050E0CE010E9446
:104F000091298091E8008E778093E80080E2FE018D
:104F1000ACE3B2E001900D928A95E1F7DF91CF9179
:104F2000089589E69DE00E94F60780917A0281113A
:104F300009C00E94262B0E94832B8091E20084608E
:104F40008093E200089585E69DE00E94F6071092A6
:104F50007A02089581E69DE00C94F6078DE59DE0C8
:104F60000C94F60789E59DE00E94F6070C949E1DBF
:104F700020913A022F5F822F62E30E942C2E992308
:104F800019F020933A02089510923A0280913B0260
:104F9000882371F180917B02843041F58091E90092
:104FA0008F702091EC00922F917020FD90E8892B5A
:104FB00093E09093E9009091EB0090FF14C09091E2
:104FC000EE0097FF10C09091E80095FF03C010928B
:104FD000F100F9CF9091E80090FF05C09091E800B2
:104FE0009E779093E8008F708093E90010923B02C7
:104FF000089542E061EC81E00E94A02A42E261EC67
:1050000082E00E94A02A42E261EC83E00C94A02A94
:1050100080917D02833009F460C030F4813071F0FA
:10502000823009F499C008958A3009F485C08B3024
:1050300009F46BC0893009F0A7C020C080917C02C0
:10504000813A09F0A1C08091E800877F8093E80051
:105050008091800290918102892B21F460E28CE39F
:1050600092E003C060E080E090E070E00E94DC2904
:105070008091E8008B778093E800089580917C020E
:10508000813209F081C08091800290918102029763
:1050900008F07AC08091E800877F8093E8008091D3
:1050A000E80082FD05C080917B028111F8CF6CC0C1
:1050B0002091F3008091F20090E0922B029729F466
:1050C0008091F1008B7F813021F48091F1008093F9
:1050D0005C028091E8008B7753C080917C02813A1A
:1050E00009F052C08091800290918102892B09F0D1
:1050F0004BC08091E800877F8093E8008091E800B2
:1051000080FFFCCF8091120136C080917C028132F9
:10511000D9F58091800290918102892BA9F5809127
:10512000E800877F8093E8000E94D52A80917E0264
:10513000809312010C94611580917C02813221F5DB
:105140008091E800877F8093E8000E94D52A8091B3
:105150007F0280935D02089580917C02813AA1F4E0
:105160008091E800877F8093E8008091E80080FFCD
:10517000FCCF80915D028093F1008091E8008E77F2
:105180008093E8000C94D52A089584B7877F84BF64
:105190000FB6F894A89580916000886180936000B4
:1051A000109260000FBE80E8809361001092610051
:1051B0000E945A100E94262B0E94832B8091E200AD
:1051C00084608093E2008BE496E20E94C61B789490
:1051D0000E94112E0E94621088E091E00E94AC0FA4
:1051E00088E49DE00E94F60780917B02853089F477
:1051F00084E49DE00E94F6070E94541D809179028C
:10520000882391F30E94861D882371F30E947B29D5
:10521000EBCF0E949210E8CF0C940E29292F332750
:1052200023303105C9F064F42130310581F022309A
:10523000310509F049C08BE590E023EB3DE048C023
:105240002132310521F12232310571F13DC082E177
:1052500090E02EE03EE03CC099278130910571F04E
:105260002CF4892B89F5EFEAFDE00DC08230910521
:1052700041F0039749F5EDE6FDE005C0E5EAFDE004
:1052800002C0E3E7FDE0849190E09F0121C063301C
:105290007105D0F4660F771FFB01E95DFE4F208199
:1052A000318189E090E014C06330710568F4FB013E
:1052B000EE0FFF1FEF5DFE4F20813181FB01E25EAB
:1052C000FE4F808190E004C080E090E020E030E07C
:1052D000FA0131832083089580917B02843011F09C
:1052E00081E0089582E0089580915E02811102C0FC
:1052F0000C946C29089580E189BD82E189BD09B4CF
:1053000000FEFDCF8091D8008F7D8093D8008091E2
:10531000E00082608093E0008091E00081FDFCCF9E
:105320000895CF92DF92EF92FF920F931F93CF9346
:10533000DF93EC018B016A010E94F42A811133C0D2
:10534000C114D10439F0F60180819181081B190B39
:10535000C80FD91FE12CF12C0115110519F180910D
:10536000E80085FD16C08091E8008E778093E80004
:10537000C114D10449F0F60180819181E80EF91E33
:10538000F182E08285E00FC00E94F42A882321F395
:105390000AC089918093F10001501109FFEFEF1AC3
:1053A000FF0ADACF80E0DF91CF911F910F91FF903C
:1053B000EF90DF90CF900895209182023091830288
:1053C0002617370748F06115710539F42091E80078
:1053D0002E772093E80001C0B90140E06115710506
:1053E000A9F120917B02222309F443C0253009F45E
:1053F00042C02091E80023FD40C02091E80022FD3A
:1054000032C02091E80020FFE9CF4091F3002091C5
:10541000F20030E0342BFC01CF016115710559F029
:105420002830310540F481918093F1006150710979
:105430002F5F3F4FF1CF41E02830310509F040E0C8
:105440002091E8002E772093E800C8CF4111C9CF02
:105450000AC080917B02882361F0853061F08091E1
:10546000E80083FD0AC08091E80082FFF2CF80E06F
:10547000089582E0089583E0089581E008952091E1
:105480008202309183022617370748F061157105B3
:1054900039F42091E8002E772093E80001C0B9018B
:1054A000FC0120E06115710591F180917B02882358
:1054B00009F440C0853009F43FC08091E80083FDC5
:1054C0003DC08091E80082FD2FC08091E80080FF00
:1054D000E9CF2091F3008091F20090E0922B6115CA
:1054E000710559F08830910540F424912093F10022
:1054F0003196615071090196F2CF21E0089709F0C9
:1055000020E08091E8008E778093E800CBCF2111D6
:10551000CCCF0AC080917B02882361F0853061F096
:105520008091E80083FD0AC08091E80082FFF2CFFD
:1055300080E0089582E0089583E0089581E0089571
:10554000982F973058F59093E900981739F070919B
:10555000EC002091ED005091F00003C0242F762F35
:1055600050E021FF19C03091EB003E7F3093EB00FB
:105570003091ED003D7F3093ED003091EB003160D4
:105580003093EB007093EC002093ED005093F0000B
:105590002091EE0027FF07C09F5FD3CF8F708093CD
:1055A000E90081E0089580E0089580917C0287FF02
:1055B00011C08091E80082FD05C080917B028111BD
:1055C000F8CF11C08091E8008B770BC080917B02EF
:1055D000882349F08091E80080FFF8CF8091E800AF
:1055E0008E778093E80008952091E4003091E500E3
:1055F00095E64091EC00842F817040FF22C080919D
:10560000E80080FD1CC080917B02882391F08530EA
:1056100091F08091EB0085FD10C04091E400509125
:10562000E5004217530729F39A01915011F784E0DE
:10563000089582E0089583E0089581E0089580E070
:1056400008954091E80042FFDECF08950E94942B18
:105650000E949C2BE0EEF0E0808181608083E8ED89
:10566000F0E080818F77808319BCA7EDB0E08C914A
:105670008E7F8C9380818F7E808310927A02089532
:105680000F931F93CF93DF930E94942B0E949C2B28
:10569000C8EDD0E088818F7788838881806888838F
:1056A00088818F7D888319BC10927B0210927702CB
:1056B000109279021092780200EE10E0F8018081D9
:1056C0008B7F808388818160888342E060E080E016
:1056D0000E94A02AE1EEF0E080818E7F8083E2EEDE
:1056E000F0E0808181608083808188608083F80120
:1056F00080818E7F8083888180618883DF91CF91D4
:105700001F910F910895E8EDF0E080818F7E8083F6
:10571000E7EDF0E080818160808384E082BF81E0FA
:1057200080937A020C94402BE8EDF0E080818E7F2C
:1057300080831092E20008951092DA001092E10046
:1057400008951F920F920FB60F9211242F933F933B
:105750004F935F936F937F938F939F93AF93BF9379
:10576000EF93FF938091E10082FF0BC08091E200F4
:1057700082FF07C08091E1008B7F8093E1000E944F
:10578000B8278091DA0080FF1FC08091D80080FF89
:105790001BC08091DA008E7F8093DA008091D9005F
:1057A00080FF0DC080E189BD82E189BD09B400FEA2
:1057B000FDCF81E080937B020E94912705C019BC38
:1057C00010927B020E94A3278091E10080FF19C004
:1057D0008091E20080FF15C08091E2008E7F80936F
:1057E000E2008091E20080618093E2008091D80025
:1057F00080628093D80019BC85E080937B020E9470
:10580000AE278091E10084FF30C08091E20084FFE8
:105810002CC080E189BD82E189BD09B400FEFDCFC5
:105820008091D8008F7D8093D8008091E1008F7E99
:105830008093E1008091E2008F7E8093E20080916E
:10584000E20081608093E20080917702882311F06A
:1058500084E007C08091E30087FD02C081E001C0C1
:1058600083E080937B020E94B2278091E10083FF56
:1058700029C08091E20083FF25C08091E100877FED
:105880008093E10082E080937B0210927702809106
:10589000E1008E7F8093E1008091E2008E7F809313
:1058A000E2008091E20080618093E20042E060E0EB
:1058B00080E00E94A02A8091F00088608093F00030
:1058C0000E94AA27FF91EF91BF91AF919F918F9175
:1058D0007F916F915F914F913F912F910F900FBEEC
:1058E0000F901F9018951F920F920FB60F921124D0
:1058F0002F933F934F935F936F937F938F939F93D8
:10590000AF93BF93CF93DF93EF93FF93C091E900E1
:10591000CF708091EC00D82FD17080FDD0E810922C
:10592000E9008091F000877F8093F00078940E94D6
:10593000B72C1092E9008091F00088608093F0000D
:10594000CD2BCF70C093E900FF91EF91DF91CF9104
:10595000BF91AF919F918F917F916F915F914F9187
:105960003F912F910F900FBE0F901F9018951F938E
:10597000CF93DF93CDB7DEB7AA970FB6F894DEBF0B
:105980000FBECDBFECE7F2E088E08E0F9091F10002
:1059900091938E13FBCF0E9408288091E80083FF2B
:1059A00028C180917C0290917D02492F50E04A30BD
:1059B000510508F01EC1FA01ED54FF4F0C944C2E16
:1059C000803821F0823809F014C108C08091780233
:1059D00090917902992389F082600FC080918002B2
:1059E0008F70873008F005C18093E9008091EB004B
:1059F00085FB882780F91092E9009091E800977F55
:105A00009093E8008093F1001092F100D0C0282F0D
:105A10002D7F09F0EEC0882319F0823061F0E9C0D3
:105A200080917E02813009F0E4C0933009F080E07B
:105A3000809379022EC080917E0281112AC08091CC
:105A400080028F702FEF280F263008F0D2C080938D
:105A5000E9002091EB0020FF1CC0933021F48091DD
:105A6000EB00806214C09091EB0090619093EB008A
:105A700021E030E0A90102C0440F551F8A95E2F7EA
:105A80004093EA001092EA008091EB0088608093D6
:105A9000EB001092E9008091E800877F8093E80096
:105AA0000E94D52AA6C08111A4C010917E021F7742
:105AB0008091E3008078812B8093E3008091E8005F
:105AC000877F8093E8000E94D52A8091E80080FFBC
:105AD000FCCF8091E30080688093E300111102C045
