:100000000C94BA050C94F2050C94F2050C94F205CC
:100010000C94F2050C94F2050C94F2050C94F20584
:100020000C94F2050C94F2050C9466250C943A2677
:100030000C94B91F0C94F2050C94F2050C94F20583
:100040000C94F2050C94F2050C94F2050C94F20554
:100050000C94F2050C9440200C94F2050C94F205DB
:100060000C94F2050C94F2050C94F2050C94F20534
:100070000C94F2050C94F2050C94F2050C94F20524
:100080000C94F2050C94F2050C94F2050C94F20514
:100090000C94D5070C94F2050C94F2050C94F2051F
:1000A0000C94F2050C94F2050C94F20525303258AC
:1000B0003A20253031366225730A00722F632030D2
:1000C0003132333435363738394142434445460AB4
:1000D0000014001A0008002B271500180017001C38
:1000E00000120013002F000C00300000002A00AEA8
:1000F000001E001F002000350021002400220023E4
:1001000000260027002D0025002E0000003100826F
:10011000520000E200E300E0040000000000002CB8
:1001200000E7000000E60000002152510050004F9F
:100130000000001D001B00E1000600110019000571
:10014000003600370038001000283252000000004E
:1001500000040016000700292109000D000A000B09
:10016000000F00330034000E0000000000280000E3
:10017000000000000000000000000000000000007F
:10018000000000000000000000000000000000006F
:10019000000000000000000000000000000000005F
:1001A000000000000000000000000000000000004F
:1001B000000000000000000000000000000000AE91
:1001C0000000000000000000000100AA00AC00AB2D
:1001D000000000000000000000000000000000001F
:1001E0000000000000000000000000A90000000066
:1001F00000000000000000000000000000000000FF
:1002000000000000000000000000000000000000EE
:1002100000000000000000000000000000000000DE
:100220000000000000000000000000000000006965
:10023000003A003B003C0000003D0040003E003F13
:100240000042004300440041004500000000006AF5
:10025000000000000000000000000000000000009E
:10026000000000000000000000000000000000008E
:10027000000000000000000000000000000000007E
:10028000000000000000000000000000000000006E
:10029000000000000000000000000000000000005E
:1002A000000000000000000000000000000000004E
:1002B0000044454255473A2064697361626C656445
:1002C0002E0A0044454255473A20656E61626C65CE
:1002D000642E0A000A0025303258006C65645F7491
:1002E00061736B3A20004F6E6573686F743A2061DA
:1002F00063746976653A2025640A00290A00257529
:10030000002F002575005D2800256400200025646D
:1003100000200025640020002564007C0025303288
:1003200058006D6F7573656B6579205B62746E7CC8
:10033000782079207620685D287265702F61636C63
:10034000293A205B00313A0964656C6179282A31C9
:10035000306D73293A2025750A323A09696E746541
:100360007276616C286D73293A2025750A333A0933
:100370006D61785F73706565643A2025750A343A5B
:100380000974696D655F746F5F6D61783A202575DA
:100390000A353A09776865656C5F6D61785F7370DF
:1003A0006565643A2025750A363A09776865656C93
:1003B0005F74696D655F746F5F6D61783A20257554
:1003C0000A00703A097072696E742076616C756506
:1003D000730A643A097365742064656661756C74A8
:1003E000730A75703A092B310A646E3A092D310A85
:1003F0006C743A092B31300A72743A092D31300A83
:100400004553432F713A09717569740A0A7370650F
:100410006564203D2064656C7461202A206D6178DC
:100420005F7370656564202A202872657065617449
:10043000202F2074696D655F746F5F6D6178290A84
:1004400077686572652064656C74613A20637572C3
:10045000736F723D25642C20776865656C3D25645B
:100460000A53656520687474703A2F2F656E2E7775
:10047000696B6970656469612E6F72672F77696B4C
:10048000692F4D6F7573655F6B6579730A004D3E1B
:1004900020004D25753A25733E20003F0A003D207F
:1004A00025750A003F0A0064656661756C74730AFD
:1004B0000025750A003F0A000A092D2056616C7557
:1004C0006573202D0A00710A000A092D204D6F75F1
:1004D00073656B6579202D0A003F00433E20004C78
:1004E00025640A000A092D20537461747573202D48
:1004F0000A686F73745F6B6579626F6172645F6CB9
:1005000065647328293A20253032580A6B65796270
:100510006F6172645F70726F746F636F6C3A2025E5
:100520003032580A6B6579626F6172645F69646C1E
:10053000653A20253032580A6B65796D61705F63CA
:100540006F6E6669672E6E6B726F3A202530325877
:100550000A74696D65725F72656164333228293A85
:10056000202530386C580A002573000A092D2043D5
:100570006F6E736F6C65202D0A4553432F713A09D6
:10058000717569740A6D3A096D6F7573656B65797C
:100590000A000A092D204D61676963202D0A443A3B
:1005A000094465627567204D657373616765205402
:1005B0006F67676C650A583A094D617472697820F3
:1005C0004465627567204D6F646520546F67676C82
:1005D00065202D2053686F77206B65797072657385
:1005E00073657320696E206D61747269782067721B
:1005F00069640A4B3A094B6579626F617264204401
:100600006562756720546F67676C65202D2053689D
:100610006F77206B65797072657373207265706F88
:1006200072740A4D3A094465627567204D6F75739F
:100630006520546F67676C650A563A095665727390
:10064000696F6E0A533A095374617475730A433AB9
:1006500009416374697661746520436F6E736F6CD2
:1006600065204D6F64650A46312D4631303A095395
:10067000776974636820746F204C617965722030EB
:100680002D392028463130203D204C30290A302D8C
:10069000393A0953776974636820746F204C617923
:1006A000657220302D390A47524156453A09537731
:1006B0006974636820746F204C6179657220302002
:1006C00028616C7465726E617465290A423A094A40
:1006D000756D7020746F20426F6F746C6F6164650C
:1006E000720A4553433A094A756D7020746F20426F
:1006F0006F6F746C6F616465722028616C746572D1
:100700006E617465290A453A095072696E74204514
:100710004550524F4D2053657474696E67730A4299
:1007200041434B53504143453A09436C6561722044
:10073000454550524F4D0A4E3A094E4B524F2054A8
:100740006F67676C650A006B65796D61705F636FD9
:100750006E6669672E7261773A20253032580A2E0C
:10076000737761705F636F6E74726F6C5F636170DB
:10077000736C6F636B3A2025750A2E636170736C1E
:100780006F636B5F746F5F636F6E74726F6C3A2030
:1007900025750A2E737761705F6C63746C5F6C678C
:1007A00075693A2025750A2E737761705F726374DC
:1007B0006C5F726775693A2025750A2E73776170D0
:1007C0005F6C616C745F6C6775693A2025750A2EE1
:1007D000737761705F72616C745F726775693A20DC
:1007E00025750A2E6E6F5F6775693A2025750A2E8A
:1007F000737761705F67726176655F6573633A20D6
:1008000025750A2E737761705F6261636B736C612B
:1008100073685F6261636B73706163653A2025750D
:100820000A2E6E6B726F3A2025750A2E73776170EF
:100830005F6573636170655F636170736C6F636B39
:100840003A2025750A0064656275675F636F6E669E
:1008500069672E7261773A20253032580A2E656E0C
:1008600061626C653A2025750A2E6D617472697833
:100870003A2025750A2E6B6579626F6172643A20A1
:1008800025750A2E6D6F7573653A2025750A00650A
:1008900065636F6E6669673A0A64656661756C7454
:1008A0005F6C617965723A2025750A003F004E4BF6
:1008B000524F3A206F66660A004E4B524F3A206FF5
:1008C0006E0A000A6D6F7573653A206F66660A00DE
:1008D0000A6D6F7573653A206F6E0A000A6B657951
:1008E000626F6172643A206F66660A000A6B65790E
:1008F000626F6172643A206F6E0A000A6D617472F1
:1009000069783A206F66660A000A6D6174726978C8
:100910003A206F6E0A000A64656275673A206F6656
:10092000660A000A64656275673A206F6E0A000AFB
:100930000A4A756D70696E6720746F20626F6F74FC
:100940006C6F616465722E2E2E2000433E200043A2
:100950006C656172696E6720454550524F4D0A00C3
:100960000A002530325820006B6579626F6172642D
:100970005F7265706F72743A200064656C5F6B65BE
:10098000795F6269743A2063616E27742064656CD4
:100990003A20253032580A006164645F6B65795FE4
:1009A0006269743A2063616E2774206164643A203E
:1009B000253032580A005B735D005B575D005B5366
:1009C0005D005B525D005B445D005B435D000E03B8
:1009D00046004300360036003000430000000A03A2
:1009E0004800610073007500000004030904090257
:1009F0005B00030100A0FA090400000103010100EB
:100A000009211101000122400007058103080001AE
:100A10000904010001030000000921110100012265
:100A2000B60007058203200001090402000203004A
:100A30000000092111010001222200070583032083
:100A4000000107050303200001120100020000005D
:100A50000853480C660001010200010631FF0974C9
:100A6000A1010975150026FF00952075088102096E
:100A700076150026FF00952075089102C005010932
:100A800002A10185020901A1000509190129081522
:100A9000002501950875018102050109300931150C
:100AA00081257F95027508810609381581257F9576
:100AB0000175088106050C0A38021581257F95010C
:100AC00075088106C0C005010980A10185031901CF
:100AD0002AB700150126B700950175108100C005E1
:100AE0000C0901A101850419012AA002150126A003
:100AF00002950175108100C005010906A101850656
:100B0000050719E029E715002501950875018102FF
:100B10000507190029EF1500250195F075018102DF
:100B200005081901290595057501910295017503BF
:100B30009101C005010906A101050719E029E71582
:100B4000002501950875018102950175088101054F
:100B500007190029FF150026FF009506750881007A
:100B6000050819012905950575019102950175037F
:100B70009101C00011241FBECFEFDAE0DEBFCDBF70
:100B800004B603FE18C08091EE039091EF03A0918C
:100B9000F003B091F1038730904BA740B04B59F46C
:100BA0001092EE031092EF031092F0031092F103F3
:100BB000E0E0F8E3099512E0A0E0B1E0E0E4F2E55E
:100BC00002C005900D92A83AB107D9F723E0A8EA30
:100BD000B2E001C01D92AE3EB207E1F70E94FC15E3
:100BE0000C94A0280C940000FF93EF93E091A802CE
:100BF000F091A902309709F00995EF91FF910895BE
:100C0000FC018591803011F0EFDFFBCF0895FF27C5
:100C1000E0E230E247FF0CC0419597FF09C0EDE2EA
:100C20006095709580959095611D711D811D911D38
:100C300027FF02C0219530E350E2AA27660F771FF5
:100C4000881F991FAA1FA41710F0A41B63955A951B
:100C5000A9F7AA3008F0A95FA05DAF93F3956115DD
:100C600071058105910541F7ED3211F4EF93F3958C
:100C7000F21718F43F93F395FBCF8F91B5DFFA95F8
:100C8000E1F70895E991F9918591803021F085325D
:100C900019F0AADFF9CF089520E0E8945591553274
:100CA000C1F3503311F4689455915A3348F45053BA
:100CB00090F3220F022E220F220F200D250FF4CFCA
:100CC0000EF4219589919991533619F3533729F1EF
:100CD000533559F1BC0188279927E8945C3621F4F3
:100CE0008991999168945591543639F446EF7EF084
:100CF00077FF0DC08FEF9FEF0AC055374AE039F0FC
:100D0000583540E121F0523642E009F00895FF9352
:100D1000EF937DDFEF91FF91B7CFFF93EF93FC014E
:100D200081918030B9F360DFFBCFFF93EF9368DFF1
:100D3000F1CFDF93CF93CDB7DEB72596A3DFCF9169
:100D4000DF910895089508950E94A306089584B13F
:100D50008F6184B93E98469A3F9A8AB1806F8AB96A
:100D60005F9A479884B1806684B985B1806685B9F9
:100D7000A4EBB2E011961C921E9213961C921E9246
:100D8000129715961C921E92149717961C921E92FB
:100D9000169719961C921E921897EAEAF2E01182B1
:100DA0001082138212821582148217821682118693
:100DB0001086B093C102A093C002F093BF02E093EB
:100DC000BE020E94A7080895AF92BF92DF92EF92F1
:100DD000FF920F931F93CF93DF938091BE02909168
:100DE000BF022091C0023091C1023093BF02209314
:100DF000BE029093C1028093C002D0E0C0E001E047
:100E000010E095B1907EC3FD8AC028E08C2F8770DA
:100E1000892B822B85B9B8010C2E02C0660F771F73
:100E20000A94E2F75B01A094B09490E080E040E087
:100E30002BB12F70242B20682BB9EAE0EA95F1F74B
:100E400000C0A091BE02B091BF02A80FB91F2D91A2
:100E50003C9126233723232B09F0479AF5E3FA9593
:100E6000F1F70000D6B45F982AE02A95F1F700C0A8
:100E70002091C0023091C1027901E80EF91EF701FC
:100E8000369B4FC0A081B181AA21BB21B183A08331
:100E900056B55D19563070F0A091BE02B091BF02F8
:100EA000A80FB91F0D90BC91A02D280F391FF90173
:100EB000B183A083FAE1FA95F1F700C047985F9AF1
:100EC000EBE2F1E03197F1F700C00000405F0296DD
:100ED000403509F0ADCFA091C002B091C102E091C0
:100EE000BE02F091BF021A962D913C9182859385A6
:100EF0002817390711F00E9425202196C031D1050D
:100F000009F07FCF0E94AA0881E0DF91CF911F9165
:100F10000F91FF90EF90DF90BF90AF90089520E188
:100F200075CFA081B181A62BB72BB0CF90E0880FF1
:100F3000991F2091C0023091C102820F931FFC01C2
:100F4000808191810895EF92FF920F931F93CF9329
:100F5000DF938BEB90E00E940006D0E0C0E088E9D0
:100F6000E82E82E0F82E0CEA10E08C2F0E94960703
:100F70000E945109FF92EF929F938F93DF93CF933B
:100F80001F930F930E94990621968DB79EB70896DE
:100F90000FB6F8949EBF0FBE8DBFC530D10529F79F
:100FA000CDB7DEB7E6E00C942E281F921FB61F9235
:100FB00011248F939F93EF93FF938091B900887FC3
:100FC0008038C1F038F4882309F44BC0803679F0BA
:100FD00081E022C0883A11F0883BD1F7E091C3024A
:100FE000F0E0E553FC4F80818093BB0031C010924C
:100FF000C202EECF8091C202811122C08091BB005B
:101000008093C3028091C3028031C0F01092C3026A
:1010100080E091E09093C2029091BC008295880F8D
:10102000880F807C892B85688093BC00FF91EF91AD
:101030009F918F911F901FBE1F90189581E0E9CF5F
:10104000E091C302F0E08091BB00E553FC4F808348
:101050008091C30290E001968F7099278093C3021C
:10106000B7CF1092BC00B4CF0E94A206089583307F
:10107000C8F46530B8F44031A8F4E62FF0E095E00C
:10108000899FE00DF11D112484E0EE0FFF1F8A956A
:10109000E1F7E40FF11DEE0FFF1FEF52FF4F8591B7
:1010A0009491089580E090E008950E943708089593
:1010B00081E0089581E008950E945A0808950895F6
:1010C0000E945F080895A5E0B0E0E9E6F8E00C941E
:1010D000152849835A833091C90289819A81311137
:1010E00019C0662399F0222389F00E94650E182FFB
:1010F000682F89819A810E94420E69817A81812FAD
:101100000E94D9142596E3E00C9431280E94530ED6
:10111000182FF3CF0E94650E69817A81F1CFFC010F
:10112000262F408151816281738184810E946308EE
:10113000089581E00895CF93DF93EC0160E00E9471
:101140008F08BE010E946008DF91CF9108950E9430
:10115000340808950E94A406089508950E94110D70
:101160000E94AD082FEF84E39CE021508040904026
:10117000E1F700C0000008950E94AE080E946420BC
:1011800008950E94AE080E94882008950F931F932F
:10119000CF93DF938C0161E00E948F08EC01B801CE
:1011A0000E945C08811106C080E0DF91CF911F9101
:1011B0000F910895B801CE010E947F1D8823A1F3ED
:1011C000B801CE010E940F19882371F3B801CE0136
:1011D0000E94F11C882341F3F8018281882369F081
:1011E000C330FCE7DF0781F160F4C130ECE7DE07D4
:1011F00069F1C0F4C115DC4791F0C8010E9458089C
:10120000D4CFCB35ECE7DE0739F1CC35FCE7DF078F
:1012100001F1CA35DC4789F70E947A12EECF0E94AD
:10122000BC08C2CF90918603892F8E7F90FF81608A
:101230008093860380FF05C083EC92E00E94000645
:10124000B3CF81EB92E0FACF0E9482120E94C108D4
:10125000ABCF0E947012D1CF0E947E12CECF0E94DF
:10126000951F0E94850908950E9489090E949A1F6E
:101270000895829590E09C01220F331F220F331FA7
:101280002C7C95958795959587958373282B30E0D1
:10129000C901880F991F8A7A359527952575822B64
:1012A0000895CF93DF93D92F0E943909C82F8D2F2E
:1012B0000E9439099C2FDF91CF91089508950E94D3
:1012C0005E09089581E0089581FD02C02E9A089577
:1012D0002E980895CF93DF93D82F0E946209C82FCC
:1012E000882319F08D2F0E9464098C2FDF91CF91F4
:1012F0000895269A2E9A0895CF93C82F0E945F09C9
:101300008C2F0E946A09CF91089580E00E947C0989
:1013100008950E94CD1D0E947C090895CF930E94DC
:10132000CD1DC82F8091C4028C1789F1C093C402CF
:101330000E9425206093C5027093C6028093C70265
:101340009093C8028091860382FF1EC080FF1CC05C
:101350008BED92E00E9400068091860380FF14C00E
:101360001F92CF9386ED92E09F938F930E949906F0
:10137000809186030F900F900F900F9080FF04C014
:1013800084ED92E00E9400068C2F0E947C09CF9190
:101390000895ABE0B0E0EFECF9E00C9416284F8331
:1013A000588769877A878B8761110E94A8111E82EE
:1013B0001D8285E0FE013796DE01119601900D92A7
:1013C0008A95E1F78C819D81892B61F449815A814D
:1013D0006B817C818D819E810E94D1102B96E2E0F1
:1013E0000C94322889819A8189238F3F79F3CE0129
:1013F00001960E9499088111E9CFF0CFFC0180810C
:1014000091810E94970E0895662329F00E9480160C
:101410000E94531708950E94DA16FACFCF93C82F6F
:101420008823E1F08CEF8C0F813AD0F48C2F0E944E
:101430009D1C811113C06C2F8091000190910101BE
:101440000E94991E882329F08C2F0E9468110E9407
:10145000C9118C2F0E9460110E94C911CF9108956B
:1014600080E28C0F883048F4C77081E001C0880F9B
:10147000CA95EAF70E948B11EFCFEBE5EC0FE33052
:1014800040F4F0E0EB5BFE4F808190E00E943B1E59
:10149000E5CFE8E5EC0FE93150F4F0E0EE0FFF1F87
:1014A000ED5EFE4F808191810E94601ED7CF83E365
:1014B0008C0F833198F661E08C2F0E94040ACECF06
:1014C000882381F19CEF980F913A28F40E946811CB
:1014D0000E94C911089590E2980F983050F48770D7
:1014E00091E001C0990F8A95EAF7892F0E94911126
:1014F000EFCF9BE5980F933028F490E080E00E94B6
:101500003B1E089598E5980F993128F490E080E00B
:101510000E94601E089593E3980F933118F460E0E1
:101520000E94040A08951F93CF93DF93182FEB01B5
:101530000E940E0A209739F4812F0E94600ADF91E1
:10154000CF911F9108958FE99FE00197F1F700C0B7
:1015500000002197EFCF70E060E0893311F460E57F
:1015600070E00E94930A0895882321F00E948B1155
:101570000E94C9110895882321F00E9491110E94B0
:10158000C9110895B0E0A0E0E8ECFAE00C940F284F
:101590006C01D62FC72FFC011281F580F2949FE0D9
:1015A000F9220E948111E82E8823B9F0E12E11233F
:1015B000A1F08C2F807F803421F080E28D0F883065
:1015C000D0F08091DC0382FF16C082E00E942C12D2
:1015D0000E94811191E0E82EE926BC2EB2948FE0A2
:1015E000B822FBE0FB1508F468C0EB2DF0E0EE55E7
:1015F000F74D0C940028E12CF0CF0C2F0F70C07F1A
:1016000011F00295007F112399F0002359F080E238
:101610008D0F883010F0D11107C0802F0E948B11E0
:101620000E94C9118D2F41C0802F0E949B11F8CFBD
:101630008D2F0E94600A002309F43FC080E28D0FC5
:10164000883010F0D11104C0802F0E94911103C086
:10165000802F0E94A1110E94C9112FC00C2F0F7062
:10166000C07FC03211F00295007FDD2381F0D130C0
:1016700009F468C0112309F472C0FF2009F468C09E
:10168000F601858180FFCECF8F70858361C0809108
:10169000DC0382FD33C0112359F0002329F0802F91
:1016A0000E948B110E94C91180E00E940E0A05C0A1
:1016B00080E00E94600A0111C7CFEB2DE850FF0BBC
:1016C000349720F40E94CD1D0E947C09EE2089F001
:1016D0000E947D1180FD0DC0F60112820E947711DB
:1016E0000E94A00DC6010E94D10C0E9477110E9499
:1016F000B00DCDB7DEB7E9E00C942B28112389F0AB
:10170000F11006C00E94AB11802B0E94B40AD5CF05
:1017100021E0F212F7CF0E94AB11802B0E94B21190
:10172000CCCFF11006C00E94BF11802F0E94BB0ACF
:10173000C4CF31E0F31609F2802F0E94BB0A0E9449
:10174000BF11BBCF112331F085E08F1508F4B5CF61
:10175000802FDBCF94E09F1508F4AFCFE6CFFF20BA
:1017600021F3D93349F4FFEF27EE33E0F150204065
:101770003040E1F700C000008D2F0E94600A9DCF2D
:101780008C2F86958695837069F0813009F095CF0E
:101790008D2F9C2F9370111102C080E090E00E9469
:1017A000601E8BCF8D2F9C2F9370111102C080E093
:1017B00090E00E943B1E81CF612F8D2F0E94040A72
:1017C0007CCF8C2F8370A1F5111177CF4D2F4295CF
:1017D00046954770440F440F2D2F2F7030E0042E94
:1017E00002C0220F331F0A94E2F790E080E0D4FF9A
:1017F00009C08FE090E002C0880F991F4A95E2F778
:1018000080959095C695C695C370822B932BC23058
:1018100049F058F4C13019F00E94700D4ECF0E946B
:10182000670D4BCF0E94790D48CF0E94640D45CFC4
:101830008695112311F08C2F8170882309F43DCFF8
:101840004D2F429546954770440F440F2D2F2F7012
:1018500030E0042E02C0220F331F0A94E2F790E01A
:1018600080E0D4FF09C08FE090E002C0880F991F8C
:101870004A95E2F780959095C695C695C370822BE0
:10188000932BC23049F058F4C13019F00E94DB0D9F
:1018900014CF0E94D20D11CF0E94E40D0ECF0E94F2
:1018A000880D0BCFCF70112329F08C2F0E94A00D33
:1018B0008D2F2BCF8D2F0E94BB0A8C2F0E94B00D35
:1018C000FCCED23F51F160F4D03FB9F0D13F81F06E
:1018D000112309F449C0F110A5CE8C2F8F7121C0BE
:1018E000D33F11F1D43FA1F78091DC0382FD26C0E4
:1018F0008C2F8F71112311F314C0112349F084E050
:101900008F1508F4DACE8C2F8F710E94C20DD5CEC0
:1019100095E09F1508F4D1CEF6CF8C2F8F71111161
:10192000CDCF0E94A00DC9CE112329F08C2F8F712D
:101930000E94940DC2CE0E948F0DBFCE112349F09C
:10194000CF718C2F0E94A00D63E08C2F0E940E128D
:10195000B4CE81E00E942C12E1E0EF1508F0ADCE8C
:1019600082E00E942C12A9CEF110FBCE8C2F8F7139
:10197000A5CF0F931F93CF93DF93EC0168817981FB
:101980008A810E94A20E8C010E94ED0D0E94630DBF
:10199000B801CE010E94C20ADF91CF911F910F9131
:1019A0000895CF93DF93EC018B819C81892B29F0E3
:1019B0008881998189238F3F51F4DF91CF910895D8
:1019C000CE010E94B90CCE010E949B08F6CFCE0139
:1019D0000E94C6088111F4CF0E948111882369F307
:1019E0008A81882351F38091DC0382FFE6CF82E075
:1019F0000E942C12E2CF90E080E00E943B1E90E01B
:101A000080E00E94601E0E94A8110E94C9110E94DD
:101A1000F1170E94531708950E9470110E94FB0C49
:101A200008950E9498110E940C0D089592959F7040
:101A3000963091F058F4925F9F70923058F4803F46
:101A400019F030F4883E30F481E008959A5FF4CFC5
:101A5000843FD1F380E00895883EB0F3813FD1F711
:101A6000F3CFFC0183819481892B29F080819181BE
:101A700089238F3F11F480E00895808191810E9435
:101A8000970E0E94160D0895A5E0B0E0EAE4FDE08F
:101A90000C9416282596E2E00C943228A6E0B0E0DB
:101AA000E4E5FDE00C9416282696E2E00C9432283A
:101AB00008950E94580D08950E94590D9093F502C3
:101AC0008093F402089508950E945C0D089520917A
:101AD000F4023091F502822B932B0E945C0D089545
:101AE0002091F4023091F502822393230E945C0D31
:101AF00008952091F4023091F502822793270E94E5
:101B00005C0D08950E94580D08950E94820D08955D
:101B10000E94850D9093F3028093F202089590E065
:101B200080E00E94880D089521E030E0A90102C004
:101B3000440F551F8A95E2F7CA010E94880D089547
:101B400021E030E002C0220F331F8A95E2F7809136
:101B5000F2029091F302822B932B0E94880D08953C
:101B600021E030E002C0220F331F8A95E2F7209572
:101B700030958091F2029091F302822393230E9488
:101B8000880D089521E030E002C0220F331F8A95AE
:101B9000E2F78091F2029091F302822793270E944C
:101BA000880D08952091F2023091F302822B932B3D
:101BB0000E94880D08952091F2023091F302822351
:101BC00093230E94880D08952091F2023091F30230
:101BD000822793270E94880D08950895262F277045
:101BE00091E001C0990F2A95EAF723E07695679571
:101BF0002A95E1F7660F771F660F771FFA01E60F48
:101C0000F71F50E040E0682F70E08191DF011197ED
:101C10009B01042E02C0369527950A94E2F72170A5
:101C200021952827292328272C934F5F5F4F443085
:101C3000510559F70895A82FA77023E09695879529
:101C40002A95E1F7880F991F880F991FFB01E80F6C
:101C5000F91F50E040E080E0219130E00A2E02C000
:101C6000369527950A94E2F721703327042E01C098
:101C7000220F0A94EAF7822B4F5F5F4F44305105E1
:101C800059F70895262F953068F4803158F430E1E3
:101C9000939FB0011124680F711D4AEC52E0822F0E
:101CA0000E94EE0D0895953070F4803160F440E1AB
:101CB000949F900111246AEC72E0820F932F911D82
:101CC0000E941B0E089580E00895B0E0A0E0EBE6CE
:101CD000FEE00C940F287C010091F2021091F302B7
:101CE0008091F4029091F502082B192BCFE0D0E0FF
:101CF000CC24C394D12CBC2EC6010C2E02C0880F5C
:101D0000991F0A94E2F780239123892B49F42197A4
:101D100090F7B12C8B2DCDB7DEB7E9E00C942B28D2
:101D2000B7018C2F0E94E514019789F3F3CFCF936D
:101D3000DF93EC010E94650EBE010E94E514DF9165
:101D4000CF9108951F93CF93DF93EB019091C90238
:101D5000992339F0CB010E94970EDF91CF911F910B
:101D60000895882369F0CB010E94650E182F682F13
:101D7000CE010E94420EBE01812F0E94E514EDCFDC
:101D8000CB010E94530E182FF6CF1F93CF93DF93F2
:101D9000C091F60216E08091F7028C1304C0DF9127
:101DA000CF911F910895D0E01C9FF0011D9FF00D71
:101DB0001124E850FD4F40815181628173818481FB
:101DC00095810E944E0D2196C770E5CF4091280362
:101DD0005091290360912A0370912B0380912C0369
:101DE00090912D030E944E0D08951F93CF93DF9382
:101DF00080912D03807F09F049C080912A038823B8
:101E000009F444C08091F602C091F7026091280362
:101E100070912903A0912B03B0912C03D62FD723C7
:101E200016E0C81799F190E0109711F0DF3F19F410
:101E300001968770F6CF189F9001199F300D1124DD
:101E4000F901E850FD4F41814713F2CF408146131D
:101E5000EFCF42814111ECCF438154814A1B5B0B90
:101E60004F3A510528F780912D038F708061809340
:101E70002D03F901E350FD4F80818F7080618083D5
:101E800088E293E00E94D10C0E94C50EDF91CF91B1
:101E90001F910895A1E1B0E0E0E5FFE00C940E2869
:101EA0008C0185E0F801DE011D9601900D928A9566
:101EB000E1F7F801E28088E2C82E83E0D82E609135
:101EC0002B0370912C036115710509F44EC190919B
:101ED000280320912903892F82238F3F09F445C1CC
:101EE00040815181A380B480F0902A03F501E61B64
:101EF000F70BFF2009F4EAC080912D03382F307FC3
:101F0000EF3AF10508F0A3C031116DC0FE2C251386
:101F100016C0941314C0E11012C08F7080618093BA
:101F20002D030E94E60EC6010E94D10C80912D0364
:101F3000F80185838F2D6196EAE00C942A28A1147C
:101F4000B10429F0842F85238F3F09F027C180E059
:101F5000F82FF170DF2E80FF3CC08091F6022091B7
:101F6000F70236E0821315C04D875E878D859E850A
:101F70000E94970E292F22952F702230F0F02430E6
:101F800018F59F70F1F0F8019581907FD1F4D12C74
:101F90001EC090E0389FF001399FF00D1124E850E9
:101FA000FD4F6181651306C06081641303C06281C7
:101FB000E6120FC001968770D5CF9F7011F088236D
:101FC00031F3805E883018F3C8010E94D10CFD2CDB
:101FD000B1CFEE2009F4AECF80912D0381608093C4
:101FE0002D03F12CA7CF251306C0941304C0F801CC
:101FF000EE2009F487C0C8010E94310D882319F131
:10200000EE2009F180912D03803270F02091280399
:102010003091290338872F831986BB86AA868C873F
:10202000CE0107960E94D10C86E0F801A8E2B3E049
:1020300001900D928A95E1F70E94F50E0E94E60E3E
:10204000FF24F39477CFC8010E94D10CF9CF31114E
:1020500013C07A2DB98AA88A6E2D89890E94440DF1
:1020600088E293E00E94D10C86E0F60111928A95F5
:10207000E9F70E94E60EB5CF25130FC094130DC0EB
:10208000E1100BC0F8018583C8010E94D10C86E0E5
:10209000F60111928A95E9F74DCFC8010E94310DE2
:1020A000882389F2EE2079F280912D03803208F4A2
:1020B000BBCF20912803309129033A8329831B82C7
:1020C000BD82AC828E83CE010196ACCFEF3AF10592
:1020D00008F03EC0FE2CEE2009F4B5CF25132AC02F
:1020E000941328C080912D0380FD1BC0982F907FF2
:1020F000C1F0F8018583903F31F0982F907F905F79
:102100008F70892B8583C8010E94D10C86E0F8016D
:10211000A8E2B3E001900D928A95E1F70E94E60EE5
:1021200009CF86E0F801A8E2B3E001900D928A950C
:10213000E1F700CFC8010E94310D811175CF809168
:102140002D03816080932D03C8010E94D10CF2CE33
:102150007A2DB98AA88A6E2D89890E94440D86E05D
:10216000F60111928A95E9F7D9CFEE2009F46BCFE9
:10217000C8010E94310DF82E882309F464CF86E04F
:10218000F801A8E2B3E001900D928A95E1F788E2A8
:1021900093E00E94FE090E94F50EC0CF81E08E25DB
:1021A000D7CEACE0B0E0E7EDF0E10C9415284F831A
:1021B000588769877A878B879C87CE0107960E940C
:1021C0004A0F882369F08A859B85892B39F04F81D6
:1021D0005885842F85238F3F09F06BC016E05FC0C0
:1021E00086E0FE013796DE01119601900D928A95E8
:1021F000E1F78A859B85892B89F388859F818923CF
:102200008F3F61F32091F70230E0C901019687709A
:1022100099274091F6024817190671F40E94110D92
:102220001092F7021092F60286E0E8E2F3E0DF0196
:102230001D928A95E9F7D2CF96E0929FD001939FA5
:10224000B00D1124A850BD4FFE01319601900D92A2
:102250009A95E1F78093F7020E94C50EBFCF819F48
:10226000C001112488509D4F0E944A0F8823E9F035
:10227000E091F6021E9FF0011124E850FD4F4081CD
:10228000518162817381848195810E944E0D80917C
:10229000F60290E00196877099278093F60280916C
:1022A000F6029091F7028913DACF2C96E3E00C94B2
:1022B000312869857A858B859C850E944E0D8ECF4D
:1022C000682F80910001909101010E943B1F0895A9
:1022D000682F80910001909101010E94491F08958B
:1022E00080910001909101010E94571F08958091F3
:1022F0004E03859585958595089580914E03877049
:10230000089590914E03977081E009F480E008955C
:1023100080917103089590917103892B80937103CB
:102320000895809590917103982390937103089577
:1023300010927103089590917003892B809370031C
:102340000895809590917003982390937003089559
:1023500010927003089580914F03089508950E948C
:10236000AE1108959091DC0392FF08C090914F0345
:10237000981721F080934F030E94AF110895809128
:102380004F03882329F010924F0380E00E94AF1181
:102390000895CF93DF93E0910001F09101018091C6
:1023A00071038083E0910001F0910101808190919F
:1023B0007003892B808390914F03992381F0E091E2
:1023C0000001F09101018081892B808380910001BF
:1023D000909101010E94851E81110E94BF11C09140
:1023E0000001D091010140E250E06EE273E0CE01C5
:1023F0000E945128892B59F080E2FE01AEE2B3E041
:1024000001900D928A95E1F7CE010E94DA1DDF91CD
:10241000CF91089508950E940A1208959091DC03C7
:1024200092FF11C098E0899F90011124622B609364
:102430004E030E94A00D80914E038595859585954C
:102440000E940B1208950E94A00D089510924E0351
:1024500080E00E940B12089590914E03809589238D
:1024600080934E03282F277091F4282F082E000CFC
:10247000330B9217130659F09091DC0392FF07C0BB
:102480008595859585950E94B00D0E942612089528
:10249000CF93C82F8091DC0382FB992790F99C177A
:1024A000E9F0C0FB82F98093DC038091DB0390911B
:1024B000DC030E94A31282E00E942C12809186030A
:1024C00080FF0CC01F92CF9386EE92E09F938F9374
:1024D0000E9499060F900F900F900F90CF91089542
:1024E0008091DC0382FB882780F991E089270E9494
:1024F0004812089581E00E944812089580E00E94E9
:10250000481208956FEF7FEF90E080E00E948A28E4
:10251000089590E080E00E94662821E0873E9E4F6B
:1025200009F020E0822F089582E090E00E945E286A
:10253000089583E090E00E945E28089584E090E092
:102540000E9466280895BC0184E090E00E948A28D9
:102550000895AB01BC018FE090E00E947E280895B1
:10256000AB01BC0183E190E00E947E28089560E009
:1025700070E0CB010E94B012089560E070E0CB01E2
:102580000E94A9120E94B712089567EE7EEF90E0B4
:1025900080E00E948A2860E082E090E00E946C283F
:1025A00060E083E090E00E946C281092F5021092A7
:1025B000F40260E074E184E090E00E948A2860E028
:1025C00086E090E00E946C286FEF87E090E00E9428
:1025D0006C2840E050E0BA0188E090E00E947E283C
:1025E00060E08DE090E00E946C2840E050E0BA018D
:1025F00088E190E00E947E2860E087E190E00E9400
:102600006C2840E050E0BA018CE190E00E947E2806
:1026100070E060E080E290E00E948A2840E050E0B4
:10262000BA0188E190E00E947E280E94BD120895C0
:102630000E94C5120895682F8EE090E00E946C28D9
:1026400008950E94252060938203709383038093F2
:1026500084039093850360937E0370937F0380933C
:102660008003909381030895089508950E9435137F
:10267000089508950E94391308958DE392E20E940F
:10268000C31D0E9434130E943613089581E00895FB
:102690000E9446130895089508950E944B130E94C6
:1026A0004C1308950E94D0150E94790908950E9444
:1026B00010200E94A7060E9452130E943A13089508
:1026C000AAE0B0E0E6E6F3E10C940B280E94E406F1
:1026D00024E7822E23E0922E640110E0F601E190BF
:1026E000F1906F01812F0E9496071F5F153009F44A
:1026F00049C0E816F90691F38091860381FD0E9496
:10270000A3070E944813782E10E0812F0E9496079D
:102710007C01F401A190B1904F018A159B0561F1F4
:1027200000E0CC24C394D12CAE24BF24C5018C215D
:102730009D21892BC1F07720B1F00E831F8321E00A
:10274000C7018C219D21892B09F420E028870E9454
:1027500019208160782F9A8789874E815F816885EB
:102760008A850E94C9090F5FCC0CDD1C0031F1F68F
:10277000F4013297F182E0821F5F153031F60E943A
:10278000211322C0E816F90609F0B6CF0E941920DD
:102790008C01809172039091730308171907A1F0BF
:1027A0008FEF89838A831B820E9419208160782F92
:1027B0009D838C8349815A816B818D810E94C909D7
:1027C00010937303009372030E9413180E948E09E2
:1027D0002A96EDE00C942728CF93DF930E94EA1409
:1027E000EC01811520E59207D0F5811530E49307BF
:1027F00008F086C0803E910518F58D3C910508F0E3
:102800007DC0883A910570F4853A910508F06EC054
:102810008130910501F10097F1F00497E0F4D0E0E8
:10282000C0E019C0813C9105D0F7C85AD0E0CC0F68
:10283000DD1FC85BDE4F0990D881C02DD4640BC06A
:102840008115904208F0A8C0C11581E0D80718F49E
:10285000C83ED10520F7CE01DF91CF910895803693
:1028600022E5920710F5803432E5930708F052C054
:102870008032924508F047C0C11582E5D80708F4B8
:102880007DC02C2F2695269540E2249F900111248F
:102890008C2F8370C1E0D0E002C0CC0FDD1F8A9581
:1028A000E2F7C22BD32BDD68D6CF803A22E5920720
:1028B00060F4803832E5930708F441C0CF71D0E06E
:1028C000DC2FCC27C46FD06AC6CF803C42E594078A
:1028D00008F449C0C03E82E5D80708F0A0CFDC2F3D
:1028E000CC27CC27DF71C06FD06AB5CFC55AD0E0F6
:1028F000C658DE4FC881D0E0D064ADCFD065ABCF35
:10290000DF70D06AA8CFCF71D0E0DC2FCC27C16FA9
:10291000D06AA1CF282F26952695277080E2289F80
:10292000900111248C2F8370C1E0D0E002C0CC0F45
:10293000DD1F8A95E2F7C22BD32BDC688CCF282FC2
:1029400026952695277040E2249F900111248370DC
:10295000C1E0D0E002C0CC0FDD1F8A95E2F7C22BA8
:10296000D32BDA6878CF8F710E948C15C82FD0E0F6
:10297000DC2FCC27CC27DF71D0626DCF8C2F8F71ED
:102980000E948C1535E0D695C7953A95E1F7CF7042
:102990009C2FEC01D0695FCF8D2F8F710E948C1519
:1029A00090E0982F882788279F719C012C2BE901A4
:1029B000E3CF462F753030F4603120F4672F0E944A
:1029C0005508089590E080E008950E94D9140E946F
:1029D000EC13089582389105B9F1B0F48133910573
:1029E00009F47DC048F48932910509F46DC08A323A
:1029F000910509F47BC008958533910509F45FC002
:102A00008933910509F10895833E9105D9F138F490
:102A1000803E910529F1823E910579F10895863E27
:102A20009105D9F1873E910509F43EC0843E910598
:102A300041F52091DC0321FF24C08091DB0384FD5C
:102A400019C087EE90E008952091DB03237009F010
:102A50005AC02091DC0323FF14C089E290E008955E
:102A60002091DB0320FD38C03091DC0330FF09C02A
:102A700024FF43C090E080E008952091DB0322FD15
:102A8000F7CF08952091DB0322FD3AC03091DC039B
:102A900030FD39C024FFF5CFEDCF2091DB0323FFBC
:102AA000F0CF24FDE7CFCDCF2091DB0323FD2EC057
:102AB0003091DC0331FFEECF84EE90E00895209159
:102AC000DB0325FFDECFC9CF2091DB0325FD21C02D
:102AD0002091DC0323FFD5CF89E390E0D2CF209172
:102AE000DB0326FFCECF8AE290E008952091DB033E
:102AF00026FFC7CF81E390E0089583EE90E008952C
:102B000082EE90E0089580EE90E0089586EE90E0E9
:102B1000089585E390E008959091DB0392FF06C04D
:102B2000282F28712830F9F4877F846093FF06C02E
:102B3000282F28712831F1F4877E84612091DC03ED
:102B400020FF06C0382F38713830D9F4877F816074
:102B500021FF06C0282F28712831D1F4877E81619A
:102B600094FD877E0895282F24712430F9F68B7FF9
:102B70008860DCCF282F2471243101F78B7E886197
:102B8000DDCF382F3171313019F78E7F8860E0CF7B
:102B9000282F2171213121F78E7E8861E1CF0895A0
:102BA0000E948912811102C00E9418130E9494127F
:102BB000809386030E949E129093DC038093DB0334
:102BC0000E94CF150E94991290E00E94640D80919E
:102BD000F2029091F3020E94850D08950E94B9229D
:102BE0000E9457130E94C62208950E94CB220E9481
:102BF00060130E94E92208950E94B21F0E949F2242
:102C00000E943D130E94EE150E94F5150E944D137F
:102C1000FBCF80918D0380FF0DC06091070170E0B4
:102C2000660F771F6038710570F56115710569F1E0
:102C3000862F089581FF07C06091070184E0689F97
:102C4000B0011124EFCF6091070182FD0AC080918D
:102C50008C038823A9F02091060160910701821757
:102C600010F088E0ECCF869FC001112433E0880F7C
:102C7000991F3A95E1F7622F70E00E94EC27D2CFBE
:102C800068E070E0D5CF8FE7089581E008958091E6
:102C90008D0380FF0CC06091030170E0759567950E
:102CA000759567956115710549F1862F089581FF26
:102CB00006C06091030170E075956795F3CF609150
:102CC000030182FD0BC090918B039923A1F06091C9
:102CD000020180910301961738F0682F70E0603888
:102CE000710500F38FE70895899FC001112470E0FA
:102CF0000E94EC27F4CF61E070E0D7CF81E0089527
:102D00008D3C31F40E9409168195809391030895BA
:102D10008E3C19F40E940916F8CF8F3C31F40E94C2
:102D200009168195809390030895803D19F40E94BF
:102D30000916F8CF893D29F40E9447168093920323
:102D400008958A3D21F40E9447168195F7CF8B3D67
:102D500031F40E94471681958093930308958C3D2A
:102D600019F40E944716F8CF9FE2980F983070F43C
:102D7000815D990B21E030E001C0220F8A95EAF7CE
:102D800080918F03822B80938F0308958D3D31F4C2
:102D900080918D03816080938D0308958E3D21F491
:102DA00080918D038260F7CF8F3DB9F780918D03BD
:102DB0008460F1CF409190038D3C59F48091910350
:102DC00087FF0DC01092910341110BC010928C032C
:102DD00008C08E3C81F48091910318169CF3442323
:102DE00081F08091920390919303892B09F05AC04E
:102DF00010928B0308958F3C49F447FFF0CF109257
:102E00009003809191038111ECCFE0CF803D19F4C4
:102E10001416ACF3E4CF90919203893D29F419166E
:102E2000F4F610929203DBCF8A3D19F497FFD7CFC7
:102E3000F8CF909193038B3D29F497FFD0CF109258
:102E40009303CDCF8C3D19F41916CCF3C8CF9FE274
:102E5000980F983090F4815D990B21E030E0B90132
:102E600002C0660F771F8A95E2F7CB01809590919B
:102E70008F03892380938F03B2CF8D3D31F48091EE
:102E80008D038E7F80938D03AACF8E3D21F4809198
:102E90008D038D7FF7CF8F3D09F0A1CF80918D03FA
:102EA0008B7FF0CF08958091860383FF7EC082E2FE
:102EB00093E00E94000680918F031F928F938DE113
:102EC00093E09F938F930E9499068BE193E00E9479
:102ED000000680919003282F082E000C330B3F939F
:102EE0008F9388E193E09F938F930E94990686E1E8
:102EF00093E00E94000680919103282F082E000C79
:102F0000330B3F938F9383E193E09F938F930E94C2
:102F1000990681E193E00E94000680919203282F98
:102F2000082E000C330B3F938F938EE093E09F931A
:102F30008F930E9499068CE093E00E940006809196
:102F40009303282F082E000C330B3F938F9389E0B7
:102F500093E09F938F930E94990686E093E00E94EE
:102F6000000680918C031F928F9383E093E09F93E0
:102F70008F930E94990681E093E00E940006809161
:102F80008D031F928F938EEF92E09F938F930E94F9
:102F900099068BEF92E00E9400068DB79EB74C9683
:102FA0000FB6F8949EBF0FBE8DBF0E9419209C01E2
:102FB0009091900380919103982B21F030938A0394
:102FC000209389039091920380919303982B21F091
:102FD00030938803209387038EE893E00E942D1E90
:102FE000089586E0EEE8F3E0DF011D928A95E9F7A7
:102FF00010928C0310928B0310928D030895FC01A4
:10300000828181110EC0838181110BC08481811165
:1030100008C091E08581811101C090E0892F817005
:10302000089581E0FCCFA6E0B0E0E9E1F8E10C947E
:10303000152886E0EEE8F3E0DE01119601900D928E
:103040008A95E1F7109290031092910310929203E7
:10305000109293038B819C81892B89F08091890345
:1030600090918A030E943120AC0190918C039923A6
:10307000C9F1809108018417150608F440C08D81BC
:103080009E81892B91F080918703909188030E9403
:103090003120AC0190918B03992309F471C0809188
:1030A00004018417150608F479C0BE016F5F7F4FD5
:1030B0008EE893E00E94691F811105C08EE893E0BD
:1030C0000E94FF1781110E94531786E0FE0131967E
:1030D000AEE8B3E001900D928A95E1F72696E3E021
:1030E0000C943128209109018AE0289F9001112435
:1030F0002417350720F69F5F90938C0302C09F3FF3
:10310000D1F71B81112359F00E9409169FEF111668
:103110000CF491E0899F802D1124809390031C81F1
:10312000112359F00E9409169FEF11160CF491E03B
:10313000899F802D11248093910330919003332334
:1031400009F49DCF20919103222309F498CF45EBF8
:103150003403C0011124992359F09093900345EB57
:10316000240390011124332339F03093910387CF46
:1031700081E080939003F3CF81E0809391037FCF30
:10318000209105018AE0289F90011124241735071A
:1031900008F08BCF9F5F90938B0302C09F3FD1F7C6
:1031A0001D81112359F00E9447169FEF11160CF450
:1031B00091E0899F802D1124809392031E81112319
:1031C00059F00E9447169FEF11160CF491E0899F69
:1031D000802D11248093930330919203332309F4BB
:1031E00064CF20919303222309F45FCF45EB34038E
:1031F000C0011124992359F09093920345EB2403C5
:1032000090011124332339F0309393034ECF81E0A2
:1032100080939203F3CF81E08093930346CFCF93C3
:10322000DF93EC01FB018281882309F4D2C09E0167
:1032300030572332310508F0B2C00E949E1290939D
:10324000DC038093DB03FE01E150F047E232F1053D
:1032500020F4E255F74D0C9400288091DB03816047
:103260008093DB0393C08091DC0388608093DC0350
:103270008DC08091DB038260F3CF8091DB0384609B
:10328000EFCF8091DB038860EBCF8091DC0381601E
:10329000EDCF8091DC038260E9CF8091DB03806118
:1032A000DFCF8091DB038062DBCF8091DB03806422
:1032B000D7CF0E94110D8091DB038068D1CF809120
:1032C000DB038C60CDCF8091DC038360CFCF809116
:1032D000DB038E7FC5CF8091DC03877FC7CF8091D2
:1032E000DB038D7FBDCF8091DB038B7FB9CF8091D6
:1032F000DB03877FB5CF8091DC038E7FB7CF8091D2
:10330000DC038D7FB3CF8091DB038F7EA9CF8091CB
:10331000DB038F7DA5CF8091DB038F7BA1CF0E9444
:10332000110D8091DB038F779BCF8091DB03837F2F
:1033300097CF8091DC038C7F99CF8091DB0382FB58
:10334000992790F921E0922790FB82F990FB83F96D
:1033500087CF8091DC03982F909591708E7F892B79
:1033600090FB81F983CF9091DB03892F8F7B96FFB0
:10337000806476CF0E94110D9091DB03892F97FB1B
:1033800087F980586DCF81E00E941B138091DB0389
:103390009091DC030E94A3120E94110D80E0DF9146
:1033A000CF91089580E0F0CF9091DB03892F8F7E3D
:1033B00094FF806155CF9091DB03892F8E7F90FF22
:1033C00081604ECF9091DC03892F877F93FF8860C7
:1033D0004DCF81E0E4CF809102011F928F938091C5
:1033E00003011F928F93809106011F928F9380910A
:1033F00007011F928F93809108011F928F938091F4
:1034000009011F928F9385E493E09F938F930E940D
:1034100099068DB79EB70E960FB6F8949EBF0FBE55
:103420008DBF0895883228F58E3108F072C08B3038
:1034300041F130F4873009F4CFC084EA94E0E0C071
:10344000833109F45FC08431C1F786EC94E00E94B7
:10345000000680919803882309F4FEC01092980317
:103460001092970310929603109295031092940372
:1034700020C08F3409F4C7C0D8F5893231F38833BE
:10348000E1F689EC94E00E9400060E94EB191F927D
:1034900081E08F931F9288E08F9382EC93E09F935B
:1034A0008F930E9499060F900F900F900F900F909E
:1034B0000F9020919803222309F4C9C080919403AE
:1034C00090919503009711F48DE791E09F938F936E
:1034D0001F922F9382E994E09F938F930E94990605
:1034E0000F900F900F900F900F900F9081E0089524
:1034F000813509F49CC008F49CC0823509F09DCF49
:1035000081E082C088EB94E00E9400060E94EB19E3
:10351000D0CF8D5180939803833009F442C058F482
:103520008130C1F08230A1F11092980385EB94E0D4
:103530000E9400061BC0853009F445C0D8F18630D2
:1035400099F782E091E0909397038093960385EC3E
:1035500091E008C089E091E09093970380939603EF
:1035600081E891E090939503809394038091980370
:10357000882309F49ECF1F928F9381EB94E09F9351
:103580008F930E9499060F900F900F900F9091CFFC
:1035900088E091E090939703809396038AE891E006
:1035A000E1CF87E091E0909397038093960386E9BB
:1035B00091E0D8CF86E091E09093970380939603B3
:1035C00083EA91E0CFCF83E091E0909397038093DB
:1035D000960382EB91E0C6CF81E08093090184E1FC
:1035E000809308018AE0809307018EE180930601B1
:1035F00088E08093030188E28093020187EA94E0E7
:103600000E94000656CF8AE0E0919603F09197035E
:103610003097D1F02081082E000C990B820F911D5C
:103620008F3F910541F03CF08FEF808307C08FEF13
:10363000EBCF86EFE9CF97FFF8CF108280811F9202
:103640008F938EE994E09BCF8BE994E0D9CF8EE8FD
:1036500094E00E9400064ACF80E00895CF93C82FDF
:103660001F928F938FED94E09F938F930E94990602
:1036700081E090E002C0880F991FCA95E2F70E948E
:10368000640D0E94110D0F900F900F900F90CF912D
:103690000895B0E0A0E0EFE4FBE10C941128EBEF1B
:1036A000E80FEF3308F03EC1F0E0E053F74D0C9423
:1036B00000280E9499121F928F938FE898E09F93A1
:1036C0008F930E9499060E94941283FB992790F988
:1036D0001F929F9382FB992790F91F929F9381FBE2
:1036E000992790F91F929F93982F91701F929F9303
:1036F0001F928F9386E498E09F938F930E94990680
:103700000E949E1293FB222720F91F922F9387FB82
:10371000222720F91F922F9386FB222720F91F9240
:103720002F9385FB222720F91F922F9384FB2227BA
:1037300020F91F922F9383FB222720F91F922F93AA
:1037400082FB222720F91F922F9391FB222720F939
:103750001F922F93292F21701F922F9381FB2227D5
:1037600020F91F922F93282F21701F922F939F9340
:103770008F9387E497E09F938F930E9499068DB76C
:103780009EB78A960FB6F8949EBF0FBE8DBF81E09C
:103790001CC08FE499E00E9400060E941813F7CF26
:1037A00082E995E00E940006F2CF80918603807F37
:1037B000809386038BE695E00E9400068BE499E0F7
:1037C0000E94000681E080939903CDB7DEB7E7E061
:1037D0000C942D288FE299E00E9400060E94BC08FC
:1037E000D6CF90918603892F8E7F90FF8160809342
:1037F000860380FF03C083E299E0D4CF86E199E09D
:103800000E94000680918603817F80938603BFCF4C
:1038100090918603892F8D7F91FF8260809386032C
:1038200081FF08C089E099E00E940006809186032C
:103830008160EBCF8BEF98E0B5CF90918603892F15
:103840008B7F92FF84608093860382FF03C08CEE9F
:1038500098E0EACF8CED98E0A5CF90918603892F70
:10386000877F93FF88608093860383FF03C080ED8A
:1038700098E0DACF83EC98E095CF8AED91E09F93C2
:103880008F9388E695E09F938F930E9499060F90FF
:103890000F900F900F907BCF0E942520062FF72EC0
:1038A000E82ED92EC091DB03C7FBCC27C0F91091BD
:1038B000CA03D09112010E94CD1DDF92EF92FF92B8
:1038C0000F931F92CF931F921F931F92DF931F920C
:1038D0008F9384EE94E09F938F930E9499068DB707
:1038E0009EB70E960FB6F8949EBF0FBE8DBF4FCFFA
:1038F0000E94110D9091DB03892F97FB87F9805867
:103900008093DB0387FF03C089EB98E04BCF8EEAFF
:1039100098E048CF80E00E942E1B39CF8953FBCF1F
:103920008D51F9CF8CEA98E00E94000680E04DCFDF
:1039300080E008950E94981C0895CF93C82F80912D
:1039400099038130C1F0882339F0823009F444C0F2
:103950001092990380E00DC00E9488118232D1F745
:103960008C2F0E94981C81111BC08C2F0E94491B18
:103970008170CF9108950E948811823289F38C2F33
:103980000E949A1C81111BC0C431D9F060F4CB3065
:1039900071F0C031D1F089ED94E00E94000613C0AF
:1039A00081E090E0E5CFC93261F0C833A1F78BE642
:1039B00095E00E9400068BED94E00E94000681E0F5
:1039C000D7CF1092990380E0D3CF82E08093990300
:1039D00088E30E94121AF3CF8C2F0E94121A81E002
:1039E000C8CFCF93DF93EB0186319C4711F50E943E
:1039F00088119A81992399F08A7A91E009F490E0EC
:103A000090939A03811109C089E20E9460110E947B
:103A1000C91180E0DF91CF91089585E3F6CF8091C1
:103A20009A03811104C089E20E946811F0CF85E3F6
:103A3000FBCF81E0EFCF0F931F93CF93DF93C42F82
:103A4000D22FFC0182818823C9F040939D030E94FC
:103A5000192090939C0380939B0380E28C0F883005
:103A600040F4C77081E001C0880FCA95EAF70E9450
:103A7000B40ADF91CF911F910F91089510919D038A
:103A8000141332C080919B0390919C030E943120BB
:103A90008F3A910548F5C0E2CD0F1D17B9F080E2CD
:103AA000810F883040F4177081E001C0880F1A95AB
:103AB000EAF70E94BB0AC83048F481E09D2F977056
:103AC00001C0880F9A95EAF70E94B40A802F0E94DD
:103AD000AB0AC83070F6D77081E001C0880FDA9564
:103AE000EAF70E94BB0AC5CF80E28C0F883008F647
:103AF000C77081E001C0880FCA95EAF7F2CF0F9333
:103B0000DB0188519C4787309105A0F5FC01E15FFE
:103B1000F64D0C94002806E221EE41EE6AE17CE7C6
:103B2000CD010E941B1D80E00F91089507E225EE54
:103B300045EE6BE17CE7F4CF06E221EE40EE68E172
:103B40007CE7EECF07E225EE44EE69E17CE7E8CFC3
:103B500006E221EE42EE6CE17CE7E2CF07E225EEE1
:103B600046EE6DE17CE7DCCF08E221E045EE6EE158
:103B70007CE7D6CF12968C91882319F010929D0382
:103B8000D3CF81E0D1CF9093A9028093A80208956A
:103B90009093A3038093A2030895E091A203F09170
:103BA000A303309729F00190F081E02D0995089545
:103BB00080E00895EF92FF920F931F93CF93DF93CE
:103BC000EC01E091A203F091A303309709F440C007
:103BD00080911201882341F08091DB0387FF04C0AC
:103BE0008881898386E088830280F381E02DCE017D
:103BF00009958091860382FF2BC080FF04C088E670
:103C000099E00E94000610E000E082E6E82E89E0DC
:103C1000F82E8091860380FF0EC0FE01E00FF11F99
:103C200080811F928F93FF92EF920E9499060F90CE
:103C30000F900F900F900F5F1F4F0830110549F73D
:103C40008091860380FF04C080E699E00E94000610
:103C5000CDB7DEB7E6E00C942E28E091A203F091F8
:103C6000A303309739F022E0DC012C930480F58126
:103C7000E02D09950895A3E0B0E0E1E4FEE10C94A5
:103C800016282091A0033091A10328173907A1F02D
:103C90009093A1038093A003E091A203F091A3036A
:103CA000309751F023E029839B838A830680F78134
:103CB000E02DCE01019609952396E2E00C9432287E
:103CC000A3E0B0E0E6E6FEE10C94162820919E0306
:103CD00030919F0328173907A1F090939F03809399
:103CE0009E03E091A203F091A303309751F024E0EA
:103CF00029839B838A830680F781E02DCE0101967C
:103D000009952396E2E00C943228FC0132968091CA
:103D10001201882321F08091DB039EE187FF96E06A
:103D200080E0915008F4089521912223D1F38F5F10
:103D3000F8CF662301F1209112012223F1F02091A6
:103D4000DB0327FF1AC0462F4695469546954E3110
:103D500090F4677021E030E002C0220F331F6A95B3
:103D6000E2F7840F911DFC01828190E02823392322
:103D700081E0232B69F480E00895FC0132960896D7
:103D80002191261721F0E817F907D1F7F4CF81E048
:103D900008959C01FC0132969FEF80E04191461707
:103DA00051F09F3F19F4411101C0982F8F5F863069
:103DB000A9F79F3F09F40895290F311D97FD3A9502
:103DC000F90162830895FC01329608962191261329
:103DD00003C0DF0111971C92E817F907B9F708959E
:103DE000E62FE695E695E695EE3170F4E80FF92FAB
:103DF000F11D677021E030E001C0220F6A95EAF7FB
:103E00008281822B828308958091860380FF0CC07B
:103E10001F926F9388E999E09F938F930E94990670
:103E20000F900F900F900F900895E62FE695E6956E
:103E3000E695EE3178F4E80FF92FF11D677021E077
:103E400030E001C0220F6A95EAF72095828128238D
:103E5000228308958091860380FF0CC01F926F9388
:103E60008AE799E09F938F930E9499060F900F9095
:103E70000F900F90089520911201222339F0209184
:103E8000DB0327FF03C00E94F01E08950E94C91E95
:103E9000089520911201222339F02091DB0327FF9E
:103EA00003C00E94151F08950E94E31E0895FC019F
:103EB000329680911201882351F08091DB0387FFB5
:103EC00006C08EE1DF011D928A95E9F7089586E02C
:103ED000F9CF46E050E00E94512821E0892B09F4F7
:103EE00020E0822F089508950E94731F0895811184
:103EF00006C081E08093A4030E94741F089582E0AD
:103F0000F9CF83E08093A4030E94741F08950E9458
:103F1000771F089581E08093A4030E94741F089581
:103F20000E948A1F0895089508950E94941F08957D
:103F3000089508950E94931F0895CF930E94981F9B
:103F40000E94E4060E94991FC0E08C2F0E949607F1
:103F5000892B31F4CF5FC530C1F780E0CF91089550
:103F600081E0FCCF85B7806885BF85B7806885BF55
:103F700008951F921FB61F9211248F939F93AF93A2
:103F8000BF938091A503811113C08091DD039091AF
:103F9000DE03A091DF03B091E0034196A11DB11DA6
:103FA0008093DD039093DE03A093DF03B093E003DF
:103FB000BF91AF919F918F911F901FBE1F90189539
:103FC0008091E503843031F10E942F091092A503FE
:103FD00088E190E020E40FB6F894A8958093600003
:103FE0000FBE2093600083B7817F846083BF83B757
:103FF000816083BF7894889583B78E7F83BF0FB627
:10400000F894A89580916000886180936000109278
:1040100060000FBE08950E94110D0E94340908959A
:1040200082E084BD93E095BD9AEF97BD80936E00CA
:1040300008952FB7F8948091DD039091DE03A0914D
:10404000DF03B091E0032FBF08952FB7F89460917C
:10405000DD037091DE038091DF039091E0032FBFB9
:1040600008959C014FB7F8948091DD039091DE0391
:10407000A091DF03B091E0034FBF821B930B089523
:1040800078941F921FB61F9211248F939F93AF9322
:10409000BF938091DD039091DE03A091DF03B09187
:1040A000E0030196A11DB11D8093DD039093DE0313
:1040B000A093DF03B093E003BF91AF919F918F91E5
:1040C0001F901FBE1F90189581E08093E00080E252
:1040D0008093D8001092C9008FE19EE40197F1F718
:1040E00000C0000087E090EBDC018093EE0390932A
:1040F000EF03A093F003B093F10388E19CE00FB6C7
:10410000F894A895809360000FBE90936000FFCF55
:1041100088E19CE00FB6F894A895809360000FBEEC
:1041200090936000FFCF8091C90308959B01BA016D
:104130009091E5039430E9F48F708093E9009FEF4C
:104140008091E800915085FD06C085ED8A95F1F7D4
:1041500000009111F5CF8091E80085FF0AC050E082
:1041600040E0C9010E945A238091E8008E77809335
:10417000E800089543E050E0BC0182E00E949620F0
:10418000089546E050E0BC0182E00E949620089528
:10419000CF93DF93EC0180911201811111C048E0AF
:1041A00050E0BE0181E00E94962080E2FE01A9EA73
:1041B000B3E001900D928A95E1F7DF91CF910895D8
:1041C0008091DB0387FF05C040E282E050E0BE0142
:1041D000EACF48E081E0FACF8AEC99E00E9400063D
:1041E0008091E403811109C00E94EA240E944725BE
:1041F0008091E20084608093E200089586EC99E06B
:104200000E9400061092E403089582EC99E00E9457
:1042100000060E948A1F08958EEB99E00E94000616
:104220006091E10381E0611101C080E00E94811F83
:1042300008958AEB99E00E9400069091E50381E0E1
:10424000943009F080E06091E1030E94871F089597
:104250002091A7032F5F822F62E30E94E02799231A
:1042600019F02093A70308951092A7038091A80343
:104270008823F1F08091E5038430C1F49091E90046
:104280009F702091EC00822F817020FD80E8892BA7
:1042900093E09093E9009091EB0090FF04C090911F
:1042A000EE0097FD08C08F708093E9001092A8037C
:1042B00008951092F1009091E80095FDFACF909149
:1042C000E80090FFF0CF9091E8009E779093E8008F
:1042D000EACF42E061EC81E00E94662442E261ECB8
:1042E00082E00E94662442E261EC83E00E94662440
:1042F0009091E50381E0943009F080E06091E10362
:104300000E94771F08958091E703833009F461C00C
:1043100030F48130D1F1823009F49EC008958A30A2
:1043200009F48AC08B3009F46FC0893009F050C09D
:104330008091E603813209F04BC08091EA039091AD
:10434000EB03029708F044C08091E800877F8093D8
:10435000E8008091E80082FF37C09091F3008091DF
:10436000F200029731F48091F100813011F0863033
:1043700021F48091F1008093C9038091E8008B774C
:104380008093E8000E949A2423C08091E603813A3A
:10439000F9F48091E800877F8093E8008091EA0338
:1043A0009091EB03892B61F460E289EA93E070E07D
:1043B0000E94A9238091E8008B778093E8000895FC
:1043C00060E090E080E0F3CF8091E5038111C1CF00
:1043D00008958091E603813AD9F78091EA0390919C
:1043E000EB03892BA9F78091E800877F8093E80091
:1043F0008091E80080FFFCCF809112018093F10052
:104400008091E8008E77BCCF8091E603813201F77E
:104410008091EA039091EB03892BD1F68091E8001B
:10442000877F8093E8000E949A248091E80380931C
:1044300012010E94110D08958091E603813241F628
:104440008091E800877F8093E8000E949A24809101
:10445000E9038093CA0308958091E603813A09F045
:10446000B7CF8091E800877F8093E8008091E800D3
:1044700080FFFCCF8091CA03C1CF9FB7F894109200
:10448000A8039FBF9091E503943009F048C02091A4
:10449000E9002F703091EC00932F917030FD90E87F
:1044A000922B23E02093E9002091EB0020FF34C001
:1044B0002091EE0027FF30C02091A603222321F097
:1044C0002091E80025FF28C01092A60326E0309135
:1044D000E80035FF14C08093F1008091E80085FD6D
:1044E00027C08091E80080FFFCCF8091E8008E77A4
:1044F0008093E8009F709093E90080E008953091E8
:10450000E503343049F43091EB0035FD05C021500E
:1045100041F481E08093A6039F709093E9008FEFB0
:104520000895EFE9FFE03197F1F700C00000CFCF29
:104530008FB7F89421E02093A8038FBFDBCF84B717
:10454000877F84BF0FB6F894A8958091600088613A
:1045500080936000109260000FBE80E890E00FB67C
:10456000F89480936100909361000FBE0E94901FA9
:1045700008950E94EA240E944725E2EEF0E080813F
:104580008460808378940E94C52708958AE091E032
:104590000E94C81D08958091E503853051F486EB93
:1045A00099E00E9400068091E503853019F00E9491
:1045B0000B2008950E94E01F8091E303882399F364
:1045C0000E949D1F882379F30E9444230E94110DAD
:1045D000EACF08950E94ED220895292F3327233032
:1045E000310521F168F42130310509F443C022304E
:1045F000310509F444C090E080E030E020E026C0BE
:104600002132310551F122323105A9F763307105AC
:1046100090F7FB01EE0FFF1FE456FD4F2081318123
:1046200067567D4FFB01808190E010C09927813053
:10463000910581F0009729F00297E9F6EEECF9E098
:1046400002C0EAEEF9E0849190E09F01FA01318323
:1046500020830895EEEDF9E0F6CF6330710558F64A
:10466000660F771FFB01EE55FD4F2081318189E0F8
:1046700090E0ECCF82E190E029E43AE0E7CF8BE5EF
:1046800090E02EEE39E0E2CF80E189BD82E189BD84
:1046900009B400FEFDCF8091D8008F7D8093D800B3
:1046A0008091E00082608093E0008091E00081FDD5
:1046B000FCCF0895AF92BF92CF92DF92FF920F93FB
:1046C0001F93CF93DF936C01EB018A010E94B92401
:1046D000F82E811123C00115110539F0F8018081F0
:1046E0009181C81BD90BC80ED91EB12CA12C2097C3
:1046F000A9F08091E80085FD22C08091E8008E77C6
:104700008093E80001151105A1F0F80180819181E5
:10471000A80EB91EB182A08285E0F82E8F2DDF9100
:10472000CF911F910F91FF90DF90CF90BF90AF90EE
:1047300008950E94B9248823D1F2F82EEFCFF60114
:1047400081916F018093F1002197FFEFAF1ABF0AAB
:10475000CECFFC018091EC039091ED038617970773
:10476000A0F06115710529F49091E8009E7790936F
:10477000E80090E06115710551F4911108C0809135
:10478000E80082FF34C080E00895BC01F2CF809140
:10479000E5038823C1F18530C1F18091E80083FDF4
:1047A00030C08091E80082FDEACF8091E80080FF70
:1047B000E1CF8091F3002091F200382F611571054F
:1047C00019F02830310558F091E02830310509F012
:1047D00090E02091E8002E772093E800CBCF8191E4
:1047E0008093F100615071092F5F3F4FE7CF8091B7
:1047F000E503882341F0853041F08091E80083FF94
:10480000BECF81E0089582E0089583E00895FC0121
:104810008091EC039091ED0386179707A0F0611546
:10482000710529F48091E8008E778093E80090E08C
:104830006115710551F4911108C08091E80082FF63
:1048400035C080E00895BC01F2CF8091E503882354
:10485000C9F18530C9F18091E80083FD31C08091B4
:10486000E80082FDEACF8091E80080FFE1CF8091EF
:10487000F3002091F200382F6115710519F02830EE
:10488000310558F091E02830310509F090E0809131
:10489000E8008E778093E800CBCF84918093F1007D
:1048A0003196615071092F5F3F4FE6CF8091E5034C
:1048B000882341F0853041F08091E80083FFBDCF2F
:1048C00081E0089582E0089583E00895982F97305D
:1048D00028F08F708093E90081E008959093E900BB
:1048E000242F762F50E0981731F07091EC00209132
:1048F000ED005091F00021FD02C09F5FE8CF3091A4
:10490000EB003E7F3093EB003091ED003D7F309324
:10491000ED003091EB0031603093EB007093EC00D0
:104920002093ED005093F0002091EE0027FDE5CF9D
:1049300080E008958091E60387FF13C08091E8002E
:1049400082FF06C08091E8008B778093E80004C066
:104950008091E5038111F2CF08958091E5038823CA
:10496000D9F38091E80080FFF8CF8091E8008E773E
:10497000ECCF2091E4003091E50095E6A90120916B
:10498000EC00822F817020FF06C08091E80080FF3C
:1049900006C080E008952091E80022FD1AC08091B1
:1049A000E503882389F0853089F08091EB0085FD4F
:1049B0000FC02091E4003091E50042175307F9F24F
:1049C0009150E1F684E0089582E0089583E008952F
:1049D00081E008950E9459250E946125E0EEF0E0F3
:1049E000808181608083E8EDF0E080818F77808333
:1049F00019BCA7EDB0E08C918E7F8C9380818F7E67
:104A000080831092E40308950F931F93CF93DF9355
:104A10000E9459250E946125C8EDD0E088818F77DA
:104A2000888388818068888388818F7D888319BC8A
:104A30001092E5031092E1031092E3031092E20357
:104A400000EE10E0F80180818B7F80838881816097
:104A5000888342E060E080E00E946624E1EEF0E0BE
:104A600080818E7F8083E2EEF0E0808181608083B0
:104A7000808188608083F80180818E7F8083888137
:104A800080618883DF91CF911F910F910895E8EDA8
:104A9000F0E080818F7E8083E7EDF0E080818160AF
:104AA000808384E082BF81E08093E4030E94042538
:104AB0000895E8EDF0E080818E7F80831092E2001F
:104AC00008951092DA001092E10008951F920F925B
:104AD0000FB60F9211242F933F934F935F936F93D1
:104AE0007F938F939F93AF93BF93EF93FF938091A7
:104AF000E10082FF0BC08091E20082FF07C080913D
:104B0000E1008B7F8093E1000E9428218091DA00F0
:104B100080FF19C08091D80080FF15C08091DA0015
:104B20008E7F8093DA008091D90080FF96C080E16B
:104B300089BD82E189BD09B400FEFDCF81E080938B
:104B4000E5030E94EC208091E10080FF19C0809174
:104B5000E20080FF15C08091E2008E7F8093E2002A
:104B60008091E20080618093E2008091D8008062B1
:104B70008093D80019BC85E08093E5030E940C2146
:104B80008091E10084FF2BC08091E20084FF27C068
:104B900080E189BD82E189BD89B5982F917080FF40
:104BA000FBCF8091D8008F7D8093D8008091E10069
:104BB0008F7E8093E1008091E2008F7E8093E200FF
:104BC0008091E20081608093E2008091E10388237C
:104BD00009F449C084E08093E5030E941921809183
:104BE000E10083FF29C08091E20083FF25C080910E
:104BF000E100877F8093E10082E08093E5031092DB
:104C0000E1038091E1008E7F8093E1008091E200DA
:104C10008E7F8093E2008091E20080618093E200C9
:104C200042E060E080E00E9466248091F0008860AD
:104C30008093F0000E940521FF91EF91BF91AF9109
:104C40009F918F917F916F915F914F913F912F91A4
:104C50000F900FBE0F901F90189519BC1092E5038E
:104C60000E94FE2070CF8091E30087FD93E0909337
:104C7000E503B3CF1F920F920FB60F9211242F931B
:104C80003F934F935F936F937F938F939F93AF93D4
:104C9000BF93CF93DF93EF93FF93D091E900DF7041
:104CA0008091EC00C82FC17080FDC0E81092E9002F
:104CB0008091F000877F8093F00078940E947E2698
:104CC0001092E9008091F00088608093F000CD2B75
:104CD000CF70C093E900FF91EF91DF91CF91BF9129
:104CE000AF919F918F917F916F915F914F913F9184
:104CF0002F910F900FBE0F901F901895AAE2B0E071
:104D0000E4E8F6E20C94152886EE93E02091F10099
:104D1000FC012193CF01F3E08E3E9F07B9F70E947B
:104D200083218091E80083FF1EC18091E60390916A
:104D3000E7039A3008F017C1E92FF0E0EA5EF64D7C
:104D40000C940028803899F0823809F00CC18091C9
:104D5000EA038F70873008F006C18093E9008091E4
:104D6000EB0085FB882780F91092E90006C080914E
:104D7000E2039091E303911182609091E800977FA4
:104D80009093E8008093F1001092F1008091E80088
:104D90008E77E5C0882309F4D3C0823009F0E3C0E0
:104DA0008091E8038111D6C08091EA038F702FEFC4
:104DB000280F263008F0D7C08093E9002091EB003F
:104DC00020FFC8C0933031F48091EB008062809363
:104DD000EB00C0C09091EB0090619093EB0021E05C
:104DE00030E001C0220F8A95EAF72093EA00109282
:104DF000EA008091EB008860EACF8111B4C0109185
:104E0000E8031F778091E3008078812B8093E30093
:104E10008091E800877F8093E8000E949A24809127
:104E2000E80080FFFCCF8091E30080688093E3007E
:104E300082E0111183E08093E50395C080588230B1
:104E400008F091C08091E8039091E9038C3D23E044
:104E50009207A1F583E08A838AE289834FB7F894A9
:104E6000DE01139620E03EE051E2E32FF0E05093A4
:104E70005700E49120FF03C0E295EF703F5FEF70B1
:104E80008E2F90E0EA30C0F0C7968D939D932F5FF0
:104E9000243159F74FBF8091E800877F8093E80065
:104EA0006AE270E0CE0101960E94A9238091E80099
:104EB0008B778093E80057C0C096E7CF6091EA03F4
:104EC0007091EB03AE014F5F5F4F0E94EA22BC017D
:104ED000892B09F448C09091E800977F9093E800EF
:104EE00089819A810E940724E1CF8038E1F5809181
:104EF000E800877F8093E8008091E1038093F100D0
:104F000045CF811130C09091E803923060F58091D7
:104F1000E800877F8093E8009093E1030E949A2441
:104F20008091E103882311F084E005C08091E300C3
:104F300087FDFACF81E08093E5030E94692113C0C9
:104F40008091E803813079F481E0933009F080E0CA
:104F50008093E3031092E9008091E800877F8093BB
:104F6000E8000E949A248091E80083FF0AC08091A3
:104F7000E800877F8093E8008091EB008062809357
:104F8000EB00AA96E3E00C943128CF938091E503DF
:104F90008823A1F0C091E900CF709091EC00892F97
:104FA000817090FD80E8C82B1092E9008091E800A4
:104FB00083FD0E947E26CF70C093E900CF910895B3
:104FC000991B79E004C0991F961708F0961B881F5B
:104FD0007A95C9F78095089597FB072E16F40094EB
:104FE00007D077FD09D00E943D2807FC05D03EF48C
:104FF000909581959F4F0895709561957F4F089585
:10500000EE0FFF1F0590F491E02D09942F923F922F
:105010004F925F926F927F928F929F92AF92BF92C8
:10502000CF92DF92EF92FF920F931F93CF93DF9374
:10503000CDB7DEB7CA1BDB0B0FB6F894DEBF0FBED1
:10504000CDBF09942A88398848885F846E847D841E
:105050008C849B84AA84B984C884DF80EE80FD8020
:105060000C811B81AA81B981CE0FD11D0FB6F89496
:10507000DEBF0FBECDBFED010895AA1BBB1B51E1E2
:1050800007C0AA1FBB1FA617B70710F0A61BB70BB8
:10509000881F991F5A95A9F780959095BC01CD015D
:1050A0000895FB01DC0104C08D910190801921F469
:1050B00041505040C8F7881B990B0895F999FECFCD
:1050C00092BD81BDF89A992780B50895A8E1B0E016
:1050D00042E050E00C949228262FF999FECF92BD21
:1050E00081BDF89A019700B4021639F01FBA20BDAD
:1050F0000FB6F894FA9AF99A0FBE08950396272FDF
:105100000E946D280E946C28252F0E946D28242F54
:105110000C946D280196272F0E946D280C946C2802
:10512000DC01CB01FC01F999FECF06C0F2BDE1BD67
:10513000F89A319600B40D9241505040B8F7089556
:10514000F894FFCFFD0AFD0A2E0B2E0BC00BDC0BD3
:105150005D0B5D0BE10B520C610C610C6719DB19E7
:105160006F1939193D1973194119771983194D1997
:10517000D4195119871955198B19B31959198F1940
:10518000BA195F1995199D1945197B1949197F1984
:1051900063199919A919C319D21933196B19E2198D
:1051A000EA1BD51BF11B591B921C921CD01B921C95
:1051B000921C1D1C921C2D1C781C921C921C921C73
:1051C000921C4C1C921C921C3D1C921C081C921C94
:1051D000921C901C901C901C901C901C901C901C6D
:1051E000901C901C8A1C921CEA1BC91B921C921CCE
:1051F000921C921C921C921C921C921C921C921C3F
:105200008A1C921C921CD01B921C8E1C8E1C8E1C05
:105210008E1C8E1C8E1C8E1C8E1C8E1C8A1C9C1D33
:10522000A21D8B1D961DA81DAE1DB41DA226CA264B
:10523000B327CA26B327FD261E27B3277527812744
:105240005003280850011E0A14019320C820C120D1
:10525000BA2001E200E900EA00B500B600B700CDCF
:10526000008301CC008A01920194012102230224CF
:10527000022502260227022A02B300B4006F007042
:10528000009F01CB01818283E200E900EA00B500C2
:10529000B600B700CD008301CC008A0192019401D1
:1052A0002102230224022502260227022A02B30039
:1052B000B4006F0070009F01CB018182833F3F3FAC
:1052C000006D6B5F64656C6179006D6B5F696E7416
:1052D000657276616C006D6B5F6D61785F73706590
:1052E0006564006D6B5F74696D655F746F5F6D61A0
:1052F00078006D6B5F776865656C5F6D61785F7373
:1053000070656564006D6B5F776865656C5F746977
:105310006D655F746F5F6D6178000A092D205665B9
:105320007273696F6E202D0A5649443A20307834E2
:105330003835332822486173752229205049443A70
:1053400020307836363043282246433636304322E2
:1053500029205645523A203078303130300A4255B3
:10536000494C443A2020284A616E203130203230A6
:105370003233290A4F5054494F4E533A204C554628
:1053800041204D4F5553454B4559204558545241A6
:105390004B455920434F4E534F4C4520434F4D4DA5
:1053A000414E44204E4B524F20343039360A474349
:1053B000433A20382E332E30204156522D4C49424C
:1053C000433A20322E302E30204156525F41524314
:1053D000483A20617672350A0040B622330B7D0AC6
:0853E0005B0A000A190A320AF7
:00000001FF
