:100000000C94A6080C94ED080C94ED080C94ED08E3
:100010000C94ED080C94ED080C94ED080C94ED088C
:100020000C94ED080C94ED080C94682B0C943A2C6D
:100030000C948D1D0C94ED080C94ED080C94ED08B7
:100040000C94ED080C94ED080C94ED080C94ED085C
:100050000C94ED080C94011E0C94ED080C94ED0822
:100060000C94ED080C94ED080C94ED080C94ED083C
:100070000C94ED080C94ED080C94ED080C94ED082C
:100080000C94ED080C94ED080C94ED080C94ED081C
:100090000C94E10A0C94ED080C94ED080C94ED0816
:1000A0000C94ED080C94ED080C94ED08E80BEA0BA9
:1000B000F50BEC0BEE0BF00BF20BF40BF70BF90B53
:1000C000FB0B060CFD0BFF0B010C030C050C080CC5
:1000D000F412F4122613261364138413F414F41484
:1000E000C613F41473147314E414F414F414ED1418
:1000F0008014801480148014801480148014801460
:10010000801480148014801480148014801480144F
:1001100091149F14A614AD14B71483158315951567
:1001200095158C15951595159515831583159115B0
:10013000951595159115B823A623CA236C22A324DF
:10014000A324A323A324A324F723A3240B248324DD
:10015000A324A324A324A3243F24A324A324282446
:10016000A324E323A324A3249D249D249D249D2430
:100170009D249D249D249D249D249F24A324B82355
:100180009B23A324A324A324A324A324A324A32440
:10019000A324A324A3249F24A324A324A323A3242C
:1001A0009B249B249B249B249B249B249B249B2457
:1001B0009B249F24A72CCE2CC02DCE2CC02D1A2DD5
:1001C0003D2DC02D932DA22D253032583A202530BB
:1001D00031366225730A00722F6320303132333496
:1001E00035363738394142434445460A0014001A2F
:1001F0000008002B001500180017001C0012001347
:10020000002F000C00300000002A0001541E001FC7
:1002100000200035002100240022002300260027B2
:10022000002D0025002E00000031000254000004C3
:1002300055085501550000000000002C001855001D
:1002400000145500000354510050004F0000001DE1
:10025000001B00025506001100190005003600378A
:100260000038001000125552000000000004001673
:10027000000700290009000D000A000B000F0033E1
:100280000034000E00000000002800000000000004
:10029000000000000000000000000000000000005E
:1002A000000000000000000000000000000000004E
:1002B000000000000000000000000000000000003E
:1002C000000000000000000000000000000000002E
:1002D000000000000000000000000000000000001E
:1002E00000000000000000000000000000140D1AD3
:1002F0000D080D0000150D180D170D180D120D131A
:100300000D00000C0D000000004C0069001E0D1FC8
:100310000D200D350D210D240D220D230D260D2749
:100320000D2D0D250D2E0D0000310C6A0000000072
:10033000000000005300000000000000000000006A
:100340000000000000000000000000000000001D90
:100350000D1B0D0000060D110D190D050D000000FF
:10036000000000100D0000000000000000040D1649
:100370000D070D290D090D0D0D0A0D0B0D0F0D00AB
:100380000000000E0D00000000280D00000000001D
:10039000000000000000000000000000000000005D
:1003A000000000000000000000000000000000004D
:1003B000000000000000000000000000000000003D
:1003C000000000000000000000000000000000002D
:1003D000000000000000000000000000000000001D
:1003E000000000000000000000000000000000000D
:1003F00000080500000000180517050000000000B7
:100400000050050C054F050000000069003A003B54
:10041000003C0000003D0040003E003F0042004321
:1004200000440041004500000000006A0000000098
:100430000000000053000000000000510500000013
:10044000000000000000000000500D4F0D000000F3
:10045000000000000006050000000052050000003A
:10046000000000000000000000000000000000008C
:10047000000705000009050D050A05000000000041
:100480000000000E0500000000280500000000002C
:10049000000000000000000000000000000000005C
:1004A000000000000000000000000000000000004C
:1004B000000000000000000000000000000000003C
:1004C000000000000000000000000000000000002C
:1004D000000000000000000000000000000000001C
:1004E000000000000000000000000000000000000C
:1004F00000000000000000000000000000000000FC
:1005000000000000000000000000004700000000A4
:1005100000000000000000000000000000000000DB
:100520000000000000000000000000480000000083
:1005300000000000530000000000002C0D0000002F
:10054000000000000001008100BC00BB00000000B2
:10055000000000000000000000000000000000009B
:10056000000000000000008000000000000000000B
:10057000000000000000000000000000000000007B
:10058000000000000000000000000000000000006B
:10059000000000000000000000000000000000005B
:1005A000000000000000000000000000000000004B
:1005B000000000000000000000000000000000003B
:1005C000000000000000000000000000000000002B
:1005D000000000000000000000000000000000001B
:1005E0000000000000000000000000000044454240
:1005F00055473A20656E61626C65642E0A000A00F8
:100600002530325820006B6579626F6172645F72C9
:1006100065706F72743A20000A0025303258006B02
:100620006579626F6172645F7365745F6C65643A6B
:10063000200064656C5F6B65795F6269743A206362
:10064000616E27742064656C3A20253032580A00A8
:100650006164645F6B65795F6269743A2063616E9F
:100660002774206164643A20253032580A00290A30
:10067000002575002F002575005D280025640020E9
:1006800000256400200025640020002564007C0013
:1006900025303258006D6F7573656B6579205B622C
:1006A000746E7C782079207620685D287265702FC2
:1006B00061636C293A205B006D6B5F776865656CE0
:1006C0005F74696D655F746F5F6D6178203D202593
:1006D000640A006D6B5F776865656C5F6D61785F5C
:1006E0007370656564203D2025640A006D6B5F743E
:1006F000696D655F746F5F6D6178203D2025640AC8
:10070000006D6B5F6D61785F7370656564203D207F
:1007100025640A006D6B5F696E74657276616C208A
:100720003D2025640A006D6B5F64656C6179203D36
:100730002025640A006D6B5F776865656C5F74697E
:100740006D655F746F5F6D6178203D2025640A00E0
:100750006D6B5F776865656C5F6D61785F73706501
:100760006564203D2025640A006D6B5F74696D65CA
:100770005F746F5F6D6178203D2025640A006D6BAA
:100780005F6D61785F7370656564203D2025640A44
:10079000006D6B5F696E74657276616C203D20251B
:1007A000640A006D6B5F64656C6179203D2025648F
:1007B0000A000A00257500363A20776865656C5F87
:1007C00074696D655F746F5F6D61783A20000A002F
:1007D000257500353A20776865656C5F6D61785FD7
:1007E00073706565643A20000A00257500343A206C
:1007F00074696D655F746F5F6D61783A20000A00FF
:10080000257500333A206D61785F73706565643AD1
:1008100020000A00257500323A20696E74657276F0
:10082000616C286D73293A20000A00257500313A61
:100830002064656C6179282A31306D73293A200073
:100840000A092D2056616C756573202D0A004D3EF6
:10085000004D25643E20003F00736574206465668A
:1008600061756C740A00433E2000776865726520EC
:1008700064656C74613A20637572736F723D2564B0
:100880002C20776865656C3D25640A536565206892
:100890007474703A2F2F656E2E77696B697065647A
:1008A00069612E6F72672F77696B692F4D6F757352
:1008B000655F6B6579730A000A092D204D6F7573AA
:1008C000656B6579202D0A4553432F713A0971757F
:1008D00069740A313A0964656C6179282A31306D8E
:1008E00073290A323A09696E74657276616C286DF3
:1008F00073290A333A096D61785F73706565640A1C
:10090000343A0974696D655F746F5F6D61780A359B
:100910003A09776865656C5F6D61785F73706565CE
:10092000640A363A09776865656C5F74696D655F5E
:10093000746F5F6D61780A0A703A097072696E743B
:100940002076616C7565730A643A09736574206476
:10095000656661756C74730A75703A092B310A64A7
:100960006F776E3A092D310A706775703A092B312D
:10097000300A7067646F776E3A092D31300A0A7356
:1009800070656564203D2064656C7461202A206D6B
:1009900061785F7370656564202A202872657065D0
:1009A0006174202F2074696D655F746F5F6D61786D
:1009B000290A003F004D3E2000433E20004C2564A4
:1009C0000A0074696D65725F72656164333228294B
:1009D0003A202530346C580A006B65796D61705F80
:1009E000636F6E6669672E6E6B726F3A2025580AC8
:1009F000006B6579626F6172645F69646C653A204F
:100A000025580A006B6579626F6172645F70726F5E
:100A1000746F636F6C3A2025580A00686F73745FB7
:100A20006B6579626F6172645F6C65647328293AE3
:100A30002025580A000A092D20537461747573200B
:100A40002D0A004743433A20342E392E3220415696
:100A5000522D4C4942433A20312E382E3073766E57
:100A6000204156525F415243483A20617672350A1E
:100A7000004F5054494F4E533A204C554641204D5B
:100A80004F5553454B45592045585452414B4559B4
:100A900020434F4E534F4C4520434F4D4D414E4404
:100AA000204E4B524F20343039360A004255494CC3
:100AB000443A2022302E362E3337352D342D6734EC
:100AC000656434373422202830323A32313A3531B5
:100AD000204D61792031352032303139290A0056D4
:100AE00049443A2030784645454428514D4B292009
:100AF0005049443A20307836363043284C656F7080
:100B00006F6C642046433636304320776974682022
:100B1000514D4B29205645523A20307830313030F3
:100B20000A00444553433A204C656F706F6C642053
:100B300046433636304320776974682048617375C0
:100B400020616C7465726E617469766520636F6E86
:100B500074726F6C6C6572207573696E6720514D8D
:100B60004B0A000A092D2056657273696F6E202D9D
:100B70000A000A092D20436F6E736F6C65202D0AE1
:100B80004553432F713A09717569740A6D3A096DBD
:100B90006F7573656B65790A000A092D204D6167D1
:100BA0006963202D0A443A094465627567204D65E2
:100BB000737361676520546F67676C650A583A09FB
:100BC0004D6174726978204465627567204D6F6469
:100BD0006520546F67676C65202D2053686F772000
:100BE0006B65797072657373657320696E206D61D2
:100BF0007472697820677269640A4B3A094B6579A7
:100C0000626F61726420446562756720546F676724
:100C10006C65202D2053686F77206B657970726545
:100C20007373207265706F72740A4D3A094465627D
:100C30007567204D6F75736520546F67676C650A23
:100C4000563A0956657273696F6E0A533A095374BE
:100C5000617475730A433A09416374697661746516
:100C600020436F6E736F6C65204D6F64650A46316B
:100C70002D4631303A0953776974636820746F20C8
:100C80004C6179657220302D392028463130203D65
:100C9000204C30290A302D393A095377697463683A
:100CA00020746F204C6179657220302D390A4752CB
:100CB0004156453A0953776974636820746F204C34
:100CC0006179657220302028616C7465726E617480
:100CD00065290A423A094A756D7020746F20426F87
:100CE0006F746C6F616465720A4553433A094A75C3
:100CF0006D7020746F20426F6F746C6F61646572E9
:100D00002028616C7465726E617465290A453A0920
:100D10005072696E7420454550524F4D2053657492
:100D200074696E67730A4253504143453A09436CF4
:100D300065617220454550524F4D0A4E3A094E4B5F
:100D4000524F20546F67676C650A000A00257500D2
:100D50002E6E6B726F3A20000A002575002E737795
:100D600061705F6261636B736C6173685F62616322
:100D70006B73706163653A20000A002575002E735D
:100D80007761705F67726176655F6573633A2000B3
:100D90000A002575002E6E6F5F6775693A20000A9C
:100DA000002575002E737761705F72616C745F72DD
:100DB0006775693A20000A002575002E7377617007
:100DC0005F6C616C745F6C6775693A20000A00257E
:100DD00075002E636170736C6F636B5F746F5F631C
:100DE0006F6E74726F6C3A20000A002575002E73C6
:100DF0007761705F636F6E74726F6C5F6361707345
:100E00006C6F636B3A20000A0025303258006B6526
:100E1000796D61705F636F6E6669672E7261773A94
:100E200020000A002575002E6D6F7573653A20004D
:100E30000A002575002E6B6579626F6172643A2035
:100E4000000A002575002E6D61747269783A2000E1
:100E50000A002575002E656E61626C653A20000AF5
:100E600000253032580064656275675F636F6E6697
:100E700069672E7261773A20000A00257500646563
:100E80006661756C745F6C617965723A20003F0031
:100E90004E4B524F3A206F66660A004E4B524F3A05
:100EA000206F6E0A000A6D6F7573653A206F666673
:100EB0000A000A6D6F7573653A206F6E0A000A6B3F
:100EC0006579626F6172643A206F66660A000A6B28
:100ED0006579626F6172643A206F6E0A000A6D6113
:100EE000747269783A206F66660A000A6D617472DE
:100EF00069783A206F6E0A000A64656275673A2065
:100F00006F66660A000A64656275673A206F6E0A4A
:100F1000000A0A4A756D70696E6720746F20626FEF
:100F20006F746C6F616465722E2E2E2000433E201C
:100F300000436C656172696E6720454550524F4DA4
:100F40000A006565636F6E6669673A0A005B735DE8
:100F5000004B6579626F6172642073746172742EE4
:100F60000A005B575D005B535D005B525D005B44B4
:100F70005D005B435D0004033000000030034C0063
:100F800065006F0070006F006C0064002000460078
:100F9000430036003600300043002000770069002F
:100FA00074006800200051004D004B000000080351
:100FB00051004D004B0000000403090409025B00CE
:100FC000030100A0FA090400000103010100092146
:100FD000110100012240000705810308000A0904ED
:100FE0000100010300000009211101000122C000DD
:100FF0000705820320000A09040200020300000022
:1010000009211101000122220007058303200001AC
:10101000070503032000011201100100000008ED84
:10102000FE0C660001010203010631FF0974A101F3
:101030000975150026FF00952075088102097615AF
:101040000026FF00952075089102C005010902A144
:101050000185020901A100050919012905150025CD
:10106000019505750181029501750381010501094D
:101070003009311581257F950275088106093815DB
:1010800081257F950175088106050C0A38021581B6
:10109000257F950175088106C0C005010980A10161
:1010A00085031601002603001A81002A83007510AB
:1010B00095018100C0050C0901A1018504160100FC
:1010C000269C021A01002A9C02751095018100C01D
:1010D00005010906A1018505050719E029E71500A5
:1010E0002501950875018102050819012905950555
:1010F000750191029501750391010507190029EF0A
:101100001500250195F075018102C005010906A1B0
:1011100001050719E029E7150025019508750181EA
:1011200002950175088101050819012905950575C4
:101130000191029501750391010507190029FF1519
:101140000026FF00950675088100C00011241FBE0F
:10115000CFEFDAE0DEBFCDBF04B603FE27C080913B
:10116000840290918502A0918602B0918702873017
:10117000904BA740B04BD1F410928402109285029C
:10118000109286021092870214BE84B7877F84BFB4
:101190000FB6F894A89580916000886180936000F4
:1011A000109260000FBEE0E0F8E3099511E0A0E0C6
:1011B000B1E0E2EEFCE502C005900D92AE32B1075F
:1011C000D9F722E0AEE2B1E001C01D92A438B20727
:1011D000E1F70E9483280C946F2E0C940000FF937B
:1011E000EF93E0912E01F0912F01309709F00995CE
:1011F000EF91FF910895FC018591803011F0EFDFB0
:10120000FBCF0895FF27E0E230E247FF0CC0419595
:1012100097FF09C0EDE26095709580959095611DEE
:10122000711D811D911D27FF02C0219530E350E201
:10123000AA27660F771F881F991FAA1FA41710F0EF
:10124000A41B63955A95A9F7AA3008F0A95FA05D81
:10125000AF93F395611571058105910541F7ED3265
:1012600011F4EF93F395F21718F43F93F395FBCF36
:101270008F91B5DFFA95E1F70895E991F99185919C
:10128000803021F0853219F0AADFF9CF089520E0EF
:10129000E89455915532C1F3503311F46894559147
:1012A0005A3348F4505390F3220F022E220F220F8C
:1012B000200D250FF4CF0EF4219589919991533685
:1012C00019F3533729F1533559F1BC018827992770
:1012D000E8945C3621F4899199916894559154363B
:1012E00039F446EF7EF077FF0DC08FEF9FEF0AC015
:1012F00055374AE039F0583540E121F0523642E0A6
:1013000009F00895FF93EF937DDFEF91FF91B7CF41
:10131000FF93EF93FC0181918030B9F360DFFBCF45
:10132000FF93EF9368DFF1CFDF93CF93CDB7DEB7B5
:101330002596A3DFCF91DF9108950895089584B194
:101340008F6184B93E98469A3F9A8AB1806F8AB974
:101350005F9A479884B1806684B985B1806685B903
:10136000E0E4F1E01192119281E0E035F807D1F765
:10137000E0E3F1E01192119281E0E034F807D1F757
:1013800080E491E0909353018093520180E391E0D7
:1013900090935101809350010C948A0BAF92BF92AD
:1013A000DF92EF92FF920F931F93CF93DF93809181
:1013B000500190915101209152013091530130938D
:1013C000510120935001909353018093520100E00A
:1013D00010E0C1E0D0E085B1982F907E03FF02C0FD
:1013E00020E101C028E0802F8770892B822B85B9EE
:1013F000BE01002E02C0660F771F0A94E2F75B0160
:10140000A094B09440E050E08BB18F7080689A0156
:1014100094E0220F331F9A95E1F7822B8BB92AE0D3
:101420002A95F1F700C0CA01880F991FA0915001B9
:10143000B0915101A80FB91F2D913C91262337235C
:10144000232B09F0479AE5E3EA95F1F70000D6B4BB
:101450005F98FAE0FA95F1F700C0A0915201B091BF
:1014600053017D01E80EF91EF701369B05C020816E
:1014700031812A213B2104C020813181262B372B49
:101480003183208326B5ED2CF12C2D1518F026B5CF
:1014900030E004C026B530E021503F4F2E193F09FF
:1014A0002630310568F02091500130915101280F0C
:1014B000391FF90120813181A80FB91F2D933C9369
:1014C000FAE1FA95F1F700C047985F9A8BE291E054
:1014D0000197F1F700C000004F5F5F4F48305105A2
:1014E00009F092CFA0915201B0915301E0915001C7
:1014F000F091510150962D913C915197808991899D
:101500002817390751F00E94CB1D60935401709346
:10151000550180935601909357010F5F1F4F003183
:10152000110509F058CF0E94920B81E0DF91CF9115
:101530001F910F91FF90EF90DF90BF90AF900895B3
:101540002091520190915301E22FF92FE80FF11DE4
:10155000E80FF11D808191810895EF92FF920F9322
:101560001F93CF93DF9387ED91E00E94FB08C0E0CB
:10157000D0E083E1E82E81E0F82E08EC11E08C2F1A
:101580000E94A00A0E94F31BFF92EF929F938F93F9
:10159000DF93CF931F930F930E94940921968DB7E9
:1015A0009EB708960FB6F8949EBF0FBE8DBFC83089
:1015B000D10529F7DF91CF911F910F91FF90EF9007
:1015C00008951F920F920FB60F9211248F939F933D
:1015D000EF93FF938091B900887F803869F038F4E9
:1015E0008823C9F18036C9F51092580136C0883A6F
:1015F00009F1883BF9F031C080915801811111C087
:101600008091BB008093590180915901803120F075
:101610001092590180E001C081E091E0909358015F
:101620001DC0E0915901F0E08091BB00E15AFD4FEF
:10163000808308C0E0915901F0E0E15AFD4F8081BC
:101640008093BB008091590190E001968F7099279B
:101650008093590102C01092BC0081E09091BC00BF
:1016600095688295880F880F807C892B8093BC00B9
:10167000FF91EF919F918F910F900FBE0F901F9050
:1016800018950C949D090C949E090C94500B81FFA5
:1016900002C02E9801C02E9A0C94940B81E00895FC
:1016A00081E008951F93CF93DF9300D000D01F9265
:1016B000CDB7DEB749835A832091750189819A811C
:1016C000211112C0662349F00E94A81A182F682F12
:1016D00089819A810E944D1A03C00E947C1A182F9A
:1016E00069817A81812F04C00E94A81A69817A8158
:1016F0000F900F900F900F900F90DF91CF911F914F
:101700000C94950CFC01408151816281738184812C
:101710000C94520B0E940D1C811102C00E94871C68
:101720000C94410B0C94430B08950C94470B0895B3
:101730000E9473150E94970B2FEF84E39CE02150C9
:1017400080409040E1F700C000000C94271E0F93EA
:101750001F93CF93DF938C010E94820BEC01B801A1
:101760000E94450B882309F4D6C0B801CE010E941F
:10177000760F882309F4CFC0C531FCE5DF0708F0F8
:101780007CC0C2308CE5D80708F452C0F8018281D1
:10179000882309F454C00E940D1C811102C00E94CC
:1017A000871C0E94201C90E0909376028093750223
:1017B000FE01E350FC45E231F10530F4EA5AFF4FF7
:1017C000809175020C94132E80917502816027C060
:1017D000826025C0846023C0806121C080621FC0F8
:1017E00080641DC080681BC08460886018C08E7FC4
:1017F00016C08D7F14C08B7F12C08F7E10C08F7D6E
:101800000EC08F7B0CC08F770AC08B7F877F07C08D
:1018100087FB222720F991E0922790FB87F980939C
:101820007502809175020E94241C0E94731573C07A
:10183000C115ECE5DE0751F0C130DC4579F0C80197
:10184000DF91CF911F910F910C944E0BF801828183
:10185000882309F460C00E94980B5DC0F801828162
:10186000882309F458C080912B02816080932B0259
:101870008DEE95E00E94FB084EC0CC3D8CE5D8076C
:1018800039F4F8018281882309F445C080E00DC055
:10189000CD3DECE5DE0760F0CD3D8CE5D80791F558
:1018A000F80182818823B9F182E00E942B2933C09C
:1018B000C631DC4521F60E94281B282FF8018281C1
:1018C0004091000150910101882379F02A7A91E03A
:1018D00009F490E090935A01911102C069E201C0AD
:1018E00065E3CA010E94101D0AC080915A0181114E
:1018F00002C069E201C065E3CA010E941B1D0E948B
:10190000741B09C0CE3DDC4509F099CFF8018281F6
:1019100081110E94871C80E0DF91CF911F910F9170
:10192000089580E090E008950895E72FF0E098E0B2
:10193000899FE00DF11D112484E0EE0FFF1F8A95B1
:10194000E1F7E60FF11DEE0FFF1FE351FE4F85910A
:1019500094910895880F991FFC01E250FA4F8591E8
:1019600094910895CF93DF930E94950C0E94690E85
:10197000EC01811520E59207F0F5811530E493071D
:1019800008F024C1883E910500F5803E910508F0DD
:101990009CC1883A910570F4853A910508F09FC082
:1019A0008130910509F491C108F442C1049708F00F
:1019B0008CC13EC18F3B910508F49CC0803C9105D1
:1019C00008F436C1805C9109F4C0811540E29407A7
:1019D00058F4C11581E0D80708F077C1C03FD105A0
:1019E00008F426C1D06571C1811520E3920708F083
:1019F000E4C09F70DEC0811535E5930708F044C050
:101A0000811544E5940708F0F8C0C11582E5D807B0
:101A100008F5C11521E5D20708F0DBC08C2F8370D3
:101A200021E030E002C0220F331F8A95E2F73C68C4
:101A3000CE0174E0969587957A95E1F78370382BFF
:101A4000CF70C695C69580E2C89FE0011124C22BD5
:101A5000D32B3BC12C2F26952695CE018370992739
:101A6000C115D34508F0BAC040E2249F900111246B
:101A7000C1E0D0E002C0CC0FDD1F8A95E2F72C2B2D
:101A80003D2BE901DC6821C1811549E59407A0F4EB
:101A9000C11588E5D80708F0B5C0C11526E5D207FD
:101AA00008F0C6C08C2F0E94E60E8F71C82FD0E0C0
:101AB000DC2FCC27D06209C181153AE5930708F4E1
:101AC000A6C090568115904208F0B2C08D2F8F713C
:101AD0000E94E60EDD27D0628F71D82BF6C0853AC2
:101AE000910509F4A8C0863A910509F0A7C0C2E89B
:101AF000D0E4EBC0883A910509F4A3C0893A910576
:101B000009F4A2C08A3A910509F4A1C08B3A910563
:101B100009F4A0C08C3A910509F49FC08B3B910554
:101B200009F49EC08C3B910509F49DC08D3A910546
:101B300009F49CC0803B910509F49BC08E3A910545
:101B400009F49AC08F3A910509F499C0813B910537
:101B500009F498C0823B910509F497C0833B910535
:101B600009F496C0843B910509F495C0853B910525
:101B700009F494C0863B910509F493C0873B910515
:101B800009F492C0883B910509F491C0893B910505
:101B900009F490C08D3B910509F48FC08E3B9105EF
:101BA00009F48EC08A3B910509F48DC0C0E0D4E4ED
:101BB0008CC00E94AA0CEC0188C09927D3FF03C0F7
:101BC000EC01D86C82C0EC01D06C7FC0DF70D06AB1
:101BD0007CC0DC2FCC27C16FD06A77C040E2249F45
:101BE00090011124C1E0D0E002C0CC0FDD1F8A9526
:101BF000E2F7C22BD32BDA6868C0D82FCC27C46F8A
:101C0000D06A63C0DC2FCC27C06FD06A5EC08F70F3
:101C10000E94E60E94E0D695C7959A95E1F7CF70AD
:101C2000D0E0DC2FCC27D06A8F70806EC82B4DC0DF
:101C3000C0E0D0E04AC0C1E8D0E447C0C3E8D0E487
:101C400044C0C2EED4E441C0C9EED4E43EC0CAEE02
:101C5000D4E43BC0C5EBD4E438C0C6EBD4E435C013
:101C6000C3EBD4E432C0C4EBD4E42FC0C7EBD4E45C
:101C70002CC0CCECD4E429C0CDECD4E426C0C3E81D
:101C8000D5E423C0CAE8D5E420C0C2E9D5E41DC02C
:101C9000C4E9D5E41AC0C1E2D6E417C0C3E2D6E471
:101CA00014C0C4E2D6E411C0C5E2D6E40EC0C6E258
:101CB000D6E40BC0C7E2D6E408C0CFE6D4E405C042
:101CC000C0E7D4E402C0CAE2D6E4CE01DF91CF91EE
:101CD00008958238910549F1B0F48133910509F4F2
:101CE00058C048F48932910509F44EC08A329105F2
:101CF00009F454C008958533910509F440C089332F
:101D0000910599F00895833E910529F138F4803EBC
:101D1000910591F0823E9105A1F00895863E9105CE
:101D2000F9F0873E910531F108952091750220FD6B
:101D30003AC021FD38C008958091750280FD35C0FC
:101D400032C08091750282FF32C08091750284FD9D
:101D500030C083EE39C08091750282FD28C0F5CF76
:101D60008091750283FF27C08091750284FD21C098
:101D700087EE2AC08091750283FD1DC0F5CF80914A
:101D8000750285FD1AC01BC08091750285FD17C0C4
:101D900014C08091750286FD14C015C08091750233
:101DA00086FD11C00EC080EE0FC089E30DC082EE2B
:101DB0000BC080E009C086EE07C089E205C085E35C
:101DC00003C08AE201C081E390E00895909175021A
:101DD00092FF0DC0282F2871283019F4877F846066
:101DE00006C0282F2471243011F48B7F886093FF64
:101DF0000DC0282F2871283119F4877E846106C010
:101E0000282F2471243111F48B7E886194FD877E04
:101E100008950F931F93CF93DF93C62FD42F022FD4
:101E2000FC0182818823C9F060935D010E94BF1D7F
:101E300090935C0180935B0180E28C0F883008F006
:101E400050C0C77081E001C0880FCA95EAF7DF91E2
:101E5000CF911F910F910C94B01210915D01161348
:101E600030C080915B0190915C010E94D71D8F3A38
:101E7000910538F5C0E2CD0F1D17B9F080E2810F52
:101E8000883040F4177081E001C0880F1A95EAF796
:101E90000E94B712C83048F481E09D2F977001C0AE
:101EA000880F9A95EAF70E94B012802F0E94A8121C
:101EB000C830B8F4D77081E001C0880FDA95EAF72E
:101EC0000AC080E28C0F883060F4C77081E001C0E6
:101ED000880FCA95EAF7DF91CF911F910F910C946B
:101EE000B712DF91CF911F910F9108959C01CB0103
:101EF000203F4CE53407F9F078F4283DFCE53F0736
:101F0000B9F0293D4CE5340711F1273D3C4531F549
:101F100026E241EE61EE1EC0223FFCE53F0799F04C
:101F200070F0233F3C45D1F427E245EE66EE12C047
:101F300027E245EE0EC026E241EE60EE0BC027E23E
:101F400045EE64EE07C026E241EE62EE03C028E2F1
:101F500041E065EE0E94090F80E00895FC01828156
:101F6000882319F010925D01089581E008959093FF
:101F70006301809362010895E0916201F091630131
:101F8000309721F00190F081E02D099480E00895D0
:101F9000EF92FF921F93CF93DF93FC01A091620118
:101FA000B0916301109709F442C080911201882317
:101FB00041F08091750287FF04C08081818385E0B4
:101FC0008083EF011296ED91FC911397CE01099554
:101FD00080912B0282FF2BC080FF04C086E096E038
:101FE0000E94FB0818E080E0E82E86E0F82E809141
:101FF0002B0280FF0BC088811F928F93FF92EF927C
:102000000E9494090F900F900F900F9011502196FD
:102010001111EDCF80912B0280FF09C08EEF95E06A
:10202000DF91CF911F91FF90EF900C94FB08DF910F
:10203000CF911F91FF90EF900895E0916201F09190
:102040006301309739F022E0DC012C930480F581A4
:10205000E02D09940895209160013091610182176B
:10206000930771F09093610180936001E0916201A8
:10207000F0916301309721F00680F781E02D0994FB
:10208000089520915E0130915F018217930771F0EE
:1020900090935F0180935E01E0916201F091630192
:1020A000309721F00084F185E02D0994089585B7DB
:1020B000806885BF85B7806885BF089508950895B5
:1020C0000C945F1008950C9462100E9457100E94A7
:1020D0005E100C94601081E008950E94B61D0E946D
:1020E0009F090E944B1E0C946310CF93C82F8091C0
:1020F0002B0282FF1EC080FF04C08FE196E00E9489
:10210000FB0880912B0280FF0CC01F92CF938AE1C5
:1021100096E09F938F930E9494090F900F900F90D9
:102120000F9080912B0280FF04C088E196E00E940E
:10213000FB088C2FCF910C94950B4F925F927F925E
:102140008F929F92AF92BF92CF92DF92EF92FF92C7
:102150000F931F93CF93DF93CDB7DEB72A970FB6B8
:10216000F894DEBF0FBECDBF0E94CE090E946B1057
:10217000811111C08FEF89838A831B820E94BF1D4A
:102180008160782F9D838C8349815A816B818D81F9
:102190000E945B1157C095E6C92E91E0D92E00E050
:1021A00010E0AA24A394B12C702E802F0E94A00AC4
:1021B0004C01F601419051906F0148265926411477
:1021C000510431F40F5F1F4F0830110569F7D2CF6A
:1021D00080912B0281FD0E94AD0A20E030E0750164
:1021E000022E02C0EE0CFF1C0A94E2F7C701842104
:1021F0009521892B09F12E837F828E209F2091E0EB
:10220000892809F490E098870E94BF1D8160782F8B
:102210009A8789874E815F8168858A850E945B11D4
:10222000000F111FF801EB59FE4F80819181E826C4
:10223000F926F182E08206C02F5F3F4F2031310541
:1022400071F6C0CF0E946020109164010E94BC0F03
:102250001817D9F00E94BC0F809364012A960FB61C
:10226000F894DEBF0FBECDBFDF91CF911F910F91CC
:10227000FF90EF90DF90CF90BF90AF909F908F90A6
:102280007F905F904F900C9475102A960FB6F8943B
:10229000DEBF0FBECDBFDF91CF911F910F91FF9099
:1022A000EF90DF90CF90BF90AF909F908F907F90F6
:1022B0005F904F900895CF93DF93CDB7DEB72B9704
:1022C0000FB6F894DEBF0FBECDBF4F835887698726
:1022D0007A878B87DE01119686E0FD0111928A953F
:1022E000E9F785E0FE01379601900D928A95E1F7B6
:1022F00049815A816B817C818D819E810E941D184C
:102300002B960FB6F894DEBF0FBECDBFDF91CF91F5
:102310000895FC01808191810E94E91A0895CF936C
:10232000DF931F92CDB7DEB7882309F4D9C0682F99
:102330008CEF860F813A70F4862F69830E94BA244D
:1023400069818111CDC080910001909101010E94AD
:10235000101D0CC080E2860F883068F4677081E041
:1023600001C0880F6A95EAF70E942B1B0F90DF913E
:10237000CF910C94741B8BE5860F833088F4653AFB
:1023800029F0663A31F083E890E005C081E890E0FA
:1023900002C082E890E00F90DF91CF910C942B1057
:1023A00088E5860F873108F091C0683A09F445C086
:1023B000693A09F445C06A3A09F445C06B3A09F430
:1023C00045C06C3A09F445C06B3B09F445C06C3B11
:1023D00009F445C06D3A09F445C0603B09F445C0B5
:1023E0006E3A09F445C06F3A09F445C0613B09F4FF
:1023F00045C0623B09F445C0633B09F445C0643BFA
:1024000009F445C0653B09F445C0663B09F445C085
:10241000673B09F445C0683B09F445C0693B09F4D2
:1024200045C06D3B09F445C06E3B09F445C06A3BAD
:1024300009F445C080E090E044C082EE90E041C0E5
:1024400089EE90E03EC08AEE90E03BC085EB90E0E4
:1024500038C086EB90E035C083EB90E032C084EB6F
:1024600090E02FC087EB90E02CC08CEC90E029C06E
:102470008DEC90E026C083E891E023C08AE891E0EB
:1024800020C082E991E01DC084E991E01AC081E298
:1024900092E017C083E292E014C084E292E011C09F
:1024A00085E292E00EC086E292E00BC087E292E005
:1024B00008C08FE690E005C080E790E002C08AE2A5
:1024C00092E00F90DF91CF910C944110603F40F06B
:1024D000862F0E94E61E0F90DF91CF910C94D31FA0
:1024E0000F90DF91CF910895882389F19CEF980F89
:1024F000913A40F4682F80910001909101010E946F
:102500001B1D0DC090E2980F983058F4877091E031
:1025100001C0990F8A95EAF7892F0E94311B0C940C
:10252000741B9BE5980F933020F480E090E00C94AE
:102530002B1098E5980F973120F480E090E00C94F0
:102540004110803F20F00E944E1F0C94D31F08952D
:10255000CF93C82F0E948F118C2FCF910C9474129F
:10256000882321F00E942B1B0C94741B0895882350
:1025700021F00E94311B0C94741B08954F925F92BE
:102580006F927F92BF92CF92DF92EF92FF920F9362
:102590001F93CF93DF937C01D62FC72FFC010581BA
:1025A00002950F70128111110E94481B0E94211B7D
:1025B000882379F0112369F080E28D0F883048F08C
:1025C00082E00E94BF1B0E94211B91E0B82EB92619
:1025D00001C0B12CCC2EC2948FE0C822D12CF601C0
:1025E000E859FF4F0C94132E8C2F807FCF708823D7
:1025F00011F0C295C07F112399F0CC2309F4CFC10B
:1026000080E28D0F883010F0D11104C08C2F0E9411
:102610002B1B03C08C2F0E943B1B0E94741BBFC14D
:102620008D2F0E947412CC2309F4DEC180E28D0F3D
:10263000883010F0D11104C08C2F0E94311B03C0D0
:102640008C2F0E94411B0E94741BCEC18C2F807F57
:10265000CF70803211F0C295C07FDD2319F0D130E8
:10266000C9F022C0112371F0002341F0013031F490
:102670000E945B1B8C2B0E94611BB6C10E945B1BDE
:102680008C2B46C1002319F0013009F4ADC10E9422
:102690006A1B18C0112321F0063008F0A5C10EC036
:1026A000053008F0A1C10EC0112351F0002331F014
:1026B000F701858180FF73C18F7085838C2F28C1BE
:1026C00001117EC18C2F2AC18C2F8695869583702F
:1026D00090E0009719F0019761F086C1112321F075
:1026E0008D2F9C2F937002C080E090E00E942B10F1
:1026F0008BC1112321F08D2F9C2F937002C080E09D
:1027000090E00E94411080C11123F9F0D53F51F0B3
:10271000D63F71F0D43FA9F480916F02909170027E
:1027200081600BC080916F0290917002826005C041
:1027300080916F02909170028460909370028093F8
:102740006F028D2F0E94E61E1EC0D53F51F0D63F6E
:1027500071F0D43FA9F480916F02909170028E7F46
:102760000BC080916F02909170028D7F05C08091A7
:102770006F02909170028B7F9093700280936F0232
:102780008D2F0E944E1F0E94D31F3EC18C2F83703D
:1027900009F050C0111134C18D2F82958695877034
:1027A000880F880F9D2F9F70492E512C612C712C02
:1027B000082E04C0440C551C661C771C0A94D2F7E2
:1027C000D4FF14C00FE010E020E030E0B901A80110
:1027D00004C0440F551F661F771F8A95D2F7CB019F
:1027E000BA01609570958095909503C060E070E0A7
:1027F000CB01C695C695C370D0E0C230D10561F05B
:10280000C330D10581F0642975298629972921973C
:1028100071F00E946219F4C06429752986299729EC
:102820000E947419EDC00E946219C301B2010E9496
:102830005019E6C0112319F08C2F817001C08695C4
:10284000882309F4DDC08D2F829586958770880FC7
:10285000880F9D2F9F70492E512C612C712C082EB2
:1028600004C0440C551C661C771C0A94D2F7D4FF94
:1028700014C00FE010E020E030E0B901A80104C06E
:10288000440F551F661F771F8A95D2F7CB01BA01F7
:10289000609570958095909503C060E070E0CB01E5
:1028A000C695C695C3704C2F50E04230510569F073
:1028B0004330510589F064297529862997294130CB
:1028C000510571F00E94281A9BC064297529862938
:1028D00097290E943A1A94C00E94281AC301B20193
:1028E0000E94161A8DC08D2F90E0FC01E05EF10968
:1028F000E531F10508F04FC0E858FF4F0C94132E56
:10290000DF708C2F8F71112331F00E94AF198D2F42
:102910000E94B01269C00E94D0198D2F0E94B71278
:1029200063C0112341F0053008F05EC08C2F8F7119
:102930000E94F51959C0063008F056C0F7CF112390
:1029400039F08C2F8F710E94AF194EC01123C9F33B
:102950008C2F8F710E94D01947C0112329F08C2F22
:102960008F710E949A1940C00E9495193DC0112391
:1029700049F0CF718C2F0E94AF1963E08C2F0E9419
:10298000AA1B32C081E00E94BF1B023068F182E0C6
:102990000E94BF1B29C0112331F0002391F28D2F1B
:1029A0000E948F1121C0002399F2D93349F45FEFBF
:1029B00067EE73E0515060407040E1F700C00000E6
:1029C0008D2F0E94741210C04C2F4F706D2FC701B5
:1029D0000E94910C0E94C11817C04C2F4F706D2F90
:1029E000C7010E94940C10C088E0C816D10441F0C1
:1029F0005CF0EAE0CE1AD108F2E0CF16D10420F460
:102A00000E94BC0F0E94950BBB20F1F00E941D1B81
:102A100080FD1AC0F70112820E94171B0E94AF1995
:102A2000C7010E9432150E94171BDF91CF911F91A1
:102A30000F91FF90EF90DF90CF90BF907F906F90BD
:102A40005F904F900C94D019DF91CF911F910F910F
:102A5000FF90EF90DF90CF90BF907F906F905F904E
:102A60004F9008950F931F93CF93DF93EC018881CC
:102A700099812B813C81232BB9F09F3F11F48F3F2B
:102A800099F0CE010E94A70B882371F068817981AB
:102A90008A810E94F41A8C010E944C1A0E944D19DE
:102AA000B801CE010E94BE12DF91CF911F910F910C
:102AB00008950E94481B0E94581B0E94741B0E948C
:102AC000FB200E94D31F80E090E00E942B1080E04A
:102AD00090E00C94411080910001909101010E94BE
:102AE000261D0C9459150E94381B0C946B15E92F68
:102AF000E295EF70F0E03297EE30F105B0F4E35775
:102B0000FF4F0C94132E803F91F018F4803E68F430
:102B10000EC0843F51F40BC0803E48F0813F29F441
:102B200006C093FB882780F9089580E0089581E02E
:102B300008950E94E91A0E9477150895CF93DF93B4
:102B400000D000D01F92CDB7DEB70F900F900F903E
:102B50000F900F90DF91CF910895CF93DF9300D026
:102B600000D000D0CDB7DEB726960FB6F894DEBF02
:102B70000FBECDBFDF91CF9108951F93CF93DF9309
:102B8000C091760116E080917701C81799F0D0E0E6
:102B90001C9FF0011D9FF00D1124E858FE4F40814D
:102BA000518162817381848195810E94AD15219646
:102BB000C770E9CFDF91CF911F9108954091A8018F
:102BC0005091A9016091AA017091AB018091AC0173
:102BD0009091AD010C94AD158091AD0182958F70EF
:102BE00009F054C08091AA01882309F44FC0809154
:102BF0007601A09177016091A8017091A90140919F
:102C0000AB015091AC01B6E08A1709F43FC090E0E7
:102C100041155105C1F17F3F11F46F3FA1F1B89FFC
:102C2000F001B99FF00D1124E858FE4F2181721375
:102C30002AC02081621327C02281211124C0238150
:102C400034812417350710F421503109241B350B2A
:102C50002F3A3105C0F42091AD012F7020612093EF
:102C6000AD0126E0289FF001299FF00D1124E358C3
:102C7000FE4F80818F708061808388EA91E00E949E
:102C800032150C94BD1501968770BECF0895CF9272
:102C9000DF92EF92FF920F931F93CF93DF93CDB705
:102CA000DEB762970FB6F894DEBF0FBECDBF8C01C2
:102CB00085E0F801DE011D9601900D928A95E1F7FD
:102CC000D8014C9111965C91119712966C911297C4
:102CD0001396CD90DC9014973091A8017091A901C2
:102CE0008091AB019091AC01009709F46BC17F3FDB
:102CF00019F43F3F09F466C1E090AA01EE2009F4FF
:102D0000C0C02091AD01C816D90628F0F601E81B15
:102D1000F90BCF0104C0809590958C0D9D1DFF246B
:102D2000F3948F3A910578F0F12C207F09F0C6C01A
:102D30007C2DD98AC88A89890E949E1588EA91E0EB
:102D40000E943215B1C0822F807F09F046C07513F2
:102D500014C0341312C0611110C02F702061209371
:102D6000AD010E94DE1588EA91E00E943215809143
:102D7000AD01D80115968C932EC0CD2819F15F3F77
:102D800011F44F3FF9F0F62E61111CC080917601CD
:102D90002091770136E0821709F45AC090E0389FFD
:102DA000F001399FF00D1124E858FE4F718157133F
:102DB00006C07081471303C07281711103C0019670
:102DC0008770E9CFF62E662309F427C18091AD0103
:102DD00081608093AD01F12C20C1751308C03413BC
:102DE00006C0611104C08091AD01D801C3C04D87F8
:102DF0005E878D859E856A8B0E9499156A898823D6
:102E0000E1F16623D1F12091AD01822F82958F707F
:102E100090E0029774F08091A8019091A9019887A1
:102E20008F831986DB86CA862C87CE0107960E947F
:102E3000321586E0F801A8EAB1E001900D928A957A
:102E4000E1F70E94EC150E94DE15FF24F394E5C023
:102E50004D875E878D859E850E94E91A292F2295D0
:102E60002F7030E0223031050CF0CBC09F7009F09C
:102E7000C5C0805E883008F4D0C0C8010E943215F9
:102E8000E4CFC816D90608F453C0F601E81BF90BC5
:102E9000CF018F3A910508F450C0F12C7C2DD98ACE
:102EA000C88A89890E949E15E8EAF1E086E0DF0180
:102EB0001D928A95E9F70E94DE15AFC0751314C004
:102EC000341312C0611110C08091AD01F8018583E7
:102ED000C8010E94321586E0E8EAF1E0DF011D92A8
:102EE0008A95E9F7FE2C99C04D875E878D859E8572
:102EF0006A8B0E9499156A89882309F4BECF6623DC
:102F000009F4BBCF2091AD01822F82958F7090E0A4
:102F100002970CF48ECF8091A8019091A9019A8319
:102F200089831B82DD82CC822E83CE0101967FCFE6
:102F3000809590958C0D9D1DACCFF62E662309F4DF
:102F40009CCF75132EC034132CC02091AD0120FDF1
:102F50001FC0822F82958F70D9F0D80115962C93BF
:102F600015978F3049F08F5F982F9295907F822F21
:102F70008F70892B15968C93C8010E94321586E0BC
:102F8000F801A8EAB1E001900D928A95E1F793CF9C
:102F900086E0F801A8EAB1E001900D928A95E1F788
:102FA0003CC04D875E878D859E850E949915811155
:102FB00040CF8091AD0181608093AD01C8010E9436
:102FC00032152BC0662309F458CF4D875E878D8557
:102FD0009E850E949915F82E882309F44ECF86E02D
:102FE000F801A8EAB1E001900D928A95E1F788EA2C
:102FF00091E00E9489110E94EC155DCF811139CFBB
:103000000CC0243031050CF038CF9F7009F431CF5B
:10301000F8019581907F09F02CCF8F2D62960FB625
:10302000F894DEBF0FBECDBFDF91CF911F910F91FE
:10303000FF90EF90DF90CF9008951F93CF93DF9391
:10304000CDB7DEB72C970FB6F894DEBF0FBECDBF5D
:103050004F83588769877A878B879C87CE0107962D
:103060000E944716882369F08F8198852A853B85C1
:10307000232BF1F19F3F09F063C08F3F09F060C03F
:1030800037C086E0FE013796DE01119601900D9261
:103090008A95E1F76F817885EA85FB85309741F164
:1030A0007F3F11F46F3F21F12091770130E0C9019A
:1030B0000196877099274091760150E08417950713
:1030C00009F447C069837A83FD83EC8396E0929F7D
:1030D000D001939FB00D1124A858BE4FFE01319628
:1030E00001900D929A95E1F7809377010E94BD15AA
:1030F00016E080917601909177018917C1F1189FB0
:10310000C001112488589E4F0E944716882379F1E8
:10311000E09176011E9FF0011124E858FE4F408196
:10312000518162817381848195810E94AD15809166
:10313000760190E001968770992780937601D9CF28
:103140004F81588569857A858B859C850E94AD1550
:10315000CFCF0E9473151092770110927601E8EAA2
:10316000F1E086E0DF011D928A95E9F7C1CF2C9648
:103170000FB6F894DEBF0FBECDBFDF91CF911F9188
:103180000895EF92FF920F931F93CF93DF938C01DB
:10319000892B09F46CC0F12CEE24E394E80121960C
:1031A000F8018491843740F4843008F051C08130B4
:1031B00081F0823019F15BC0853709F444C0A8F171
:1031C0009CE7980F903708F052C08F770E947412D6
:1031D00041C00E5F1F4FFE01C49180E28C0F88300A
:1031E00048F4C7708E2D01C0880FCA95EAF70E9477
:1031F0004B1B14C08C2F0E948F112DC00E5F1F4FD0
:10320000FE01C49180E28C0F883058F4C7708E2D77
:1032100001C0880FCA95EAF70E94511B0E94741BD7
:103220001AC08C2F0E94741216C00E5F1F4FFE0131
:10323000C491CC2381F08FE99FE00197F1F700C0A2
:103240000000C150F6CF0E5F1F4FFE01F49003C087
:103250000E948F118E018F2D882309F49FCFEFE9F3
:10326000FFE03197F1F700C000008150F5CFDF910A
:10327000CF911F910F91FF90EF90089508950C94B6
:103280003E190E943F1960930202709303028093DB
:103290000402909305020C94591508950C94411959
:1032A0000F931F93009102021091030220910402D8
:1032B00030910502602B712B822B932B1F910F9164
:1032C0000C9441190F931F93009102021091030275
:1032D00020910402309105026023712382239323FD
:1032E0001F910F910C9441190F931F9300910202AB
:1032F000109103022091040230910502602771278A
:10330000822793271F910F910C94411908950C94D3
:1033100086190E9487196093FE017093FF018093C4
:103320000002909301020C94591560E070E0CB010B
:103330000C9489190F931F9341E050E060E070E016
:103340008A019B0104C0000F111F221F331F8A95A1
:10335000D2F7C901B8011F910F910C9489190F93ED
:103360001F9341E050E060E070E004C0440F551F3F
:10337000661F771F8A95D2F78091FE019091FF0119
:10338000A0910002B09101028A019B01082B192B28
:103390002A2B3B2BC901B8011F910F910C9489195D
:1033A0000F931F9341E050E060E070E004C0440FD1
:1033B000551F661F771F8A95D2F7409550956095E7
:1033C00070958091FE019091FF01A0910002B09153
:1033D00001028A019B01082319232A233B23C901E7
:1033E000B8011F910F910C9489190F931F9341E01D
:1033F00050E060E070E004C0440F551F661F771F67
:103400008A95D2F78091FE019091FF01A091000270
:10341000B09101028A019B01082719272A273B271F
:10342000C901B8011F910F910C9489190F931F9333
:103430000091FE011091FF012091000230910102E4
:10344000602B712B822B932B1F910F910C94891958
:103450000F931F930091FE011091FF012091000234
:103460003091010260237123822393231F910F91D6
:103470000C9489190F931F930091FE011091FF0185
:103480002091000230910102602771278227932743
:103490001F910F910C948919089520E1929F800D3E
:1034A0001124A82FA695A695A695877051E001C076
:1034B000550F8A95EAF785E0A89FD001112420E0F6
:1034C00030E070E0F901EA0FFB1FE255FE4F40814A
:1034D000CB01022E02C0969587950A94E2F781707F
:1034E0009927819584278523842780832F5F3F4FE9
:1034F0002530310539F7089520E1929F800D112480
:10350000682F669566956695982F977085E0689FF9
:10351000B001112440E050E080E0FA01E60FF71F0F
:10352000E255FE4F208130E0092E02C036952795E6
:103530000A94E2F721703327042E01C0220F0A9467
:10354000EAF7822B4F5F5F4F4530510531F7089501
:10355000BF92CF92DF92EF92FF920F931F93CF9380
:10356000DF938C01C0900202D0900302E09004022D
:10357000F09005028091FE019091FF01A091000260
:10358000B0910102C82AD92AEA2AFB2ACFE1D0E069
:10359000D701C6010C2E04C0B695A79597958795BF
:1035A0000A94D2F780FF07C0BC2EB8018C2F0E946E
:1035B000B20C019719F4219758F7B12C8B2DDF919C
:1035C000CF911F910F91FF90EF90DF90CF90BF9020
:1035D0000895CF93DF93EC010E94A81ABE010E94C8
:1035E000B20CDF91CF9108951F93CF93DF93EB013E
:1035F00090917501992321F0CB010E94E91A13C023
:10360000882349F0CB010E94A81A182F682FCE01F9
:103610000E944D1A04C0CB010E947C1A182FBE01D3
:10362000812F0E94B20CDF91CF911F91089580915C
:103630000602859585958595089580910602877087
:10364000089590910602977081E009F480E0089552
:1036500080912A02089590912A02892B80932A0250
:103660000895809590912A02892380932A020895D3
:1036700010922A02089590912902892B80932902A1
:1036800008958095909129028923809329020895B5
:1036900010922902089590912802892B8093280284
:1036A0000895809590912802892380932802089597
:1036B00010922802089580910702089508950C94AD
:1036C0005E1B90910702981721F0809307020C94DB
:1036D0005F1B089580910702882329F0109207024A
:1036E00080E00C945F1B0895E0910001F0910101CE
:1036F00080912A028083E0910001F0910101908184
:1037000080912902892B8083E0910001F0910101D1
:10371000908180912802892B8083809107028823E1
:1037200081F0E0910001F09101019081892B80836B
:1037300080910001909101010E94891C81110E94D9
:103740006A1B80910001909101010C94C80F0895AB
:103750000C94A71B98E0899F90011124262B20939D
:1037600006020E94AF198091060285958595859580
:103770000C94A81B1092060280E00C94A81B2091C8
:1037800006028095822380930602982F977079F421
:1037900030E0482F082E000C550B2417350739F060
:1037A0008595859585950E94D0190C94BA1B08952E
:1037B00090932F0180932E0108958295982F9C7CE1
:1037C000392F36953695282F237344E0249FC00166
:1037D0001124932F982B292F2A7A2695892F8575C6
:1037E000880F822B08951F93CF93DF931F92CDB73D
:1037F000DEB799830E94DD1B182F9981892F0E94C3
:10380000DD1B212F30E0322F2227A901482BCA01CE
:103810000F90DF91CF911F91089580E090E00E947A
:10382000352E21E08D3E9E4F09F020E0822F089535
:1038300082E090E00C942D2E83E090E00C942D2EED
:1038400084E090E00C942D2E682F84E090E00C949E
:103850003B2EAB01BC018FE090E00C944D2EAB01F0
:10386000BC0183E190E00C944D2E60E070E0CB0150
:103870000C942F1C60E070E0CB010E94291C0C947A
:10388000351C6DEE7EEF80E090E00E94592E60E0E6
:1038900082E090E00E943B2E60E083E090E00E9496
:1038A0003B2E109202021092030210920402109218
:1038B000050260E084E090E00E943B2E60E085E03D
:1038C00090E00E943B2E60E086E090E00E943B2E5C
:1038D0006FEF87E090E00E943B2E40E050E0BA019D
:1038E00088E090E00E944D2E60E08DE090E00E9424
:1038F0003B2E40E050E0BA0188E190E00E944D2E5E
:1039000060E087E190E00E943B2E0C943A1C0C94FE
:10391000411CFC01329680911201882331F0809184
:10392000750287FF02C09EE101C096E080E09150E1
:1039300028F021912223D9F38F5FF9CF08959C01BC
:10394000FC0132969FEF80E04191461789F09F3F3E
:1039500019F4411101C0982F8F5F8630A9F79F3F5E
:1039600039F0F901E90FF11D97FDFA956283089589
:103970000895FC01329608962081261301C010821A
:103980003196E817F907C1F70895262F2695269551
:1039900026952E3170F4FC01E20FF11D677021E0D5
:1039A00030E001C0220F6A95EAF78281282B22833A
:1039B000089580912B0280FF0CC01F926F9380E5C9
:1039C00096E09F938F930E9494090F900F900F9011
:1039D0000F900895262F2695269526952E3178F45A
:1039E000FC01E20FF11D677021E030E001C0220F01
:1039F0006A95EAF720958281282322830895809191
:103A00002B0280FF0CC01F926F9382E396E09F937E
:103A10008F930E9494090F900F900F900F9008952C
:103A200020911201222329F02091750227FD0C9488
:103A3000C51C0C949F1C20911201222329F0209177
:103A4000750227FD0C94EA1C0C94B91C20911201FC
:103A5000FC013296222331F08091750287FF02C06B
:103A60008EE101C086E0DF011D928A95E9F7089595
:103A700008950C94381D0E94391D80917B0284307A
:103A800049F110922C0220E488E190E00FB6F894FE
:103A9000A895809360000FBE2093600080E00E9494
:103AA000950B0E94391D83B7817F846083BF83B7E4
:103AB000816083BF7894889583B78E7F83BF0FB66C
:103AC000F894A895809160008861809360001092BE
:103AD00060000FBE089508950895CF930E946B1D56
:103AE0000E94CE090E946C1DC0E08C2F0E94A00A8B
:103AF000892B29F4CF5FC830C1F780E001C081E095
:103B0000CF91089508950C94821D0E9473150E9410
:103B1000BC0F0E94950B0C94831D1F920F920FB641
:103B20000F9211248F939F93AF93BF9380912C0298
:103B3000811113C08091710290917202A091730261
:103B4000B09174024196A11DB11D809371029093B2
:103B50007202A0937302B0937402BF91AF919F91D0
:103B60008F910F900FBE0F901F90189582E084BD2B
:103B700093E095BD9AEF97BD80936E0008952FB79F
:103B8000F8948091710290917202A0917302B091A9
:103B900074022FBF08952FB7F8946091710270914D
:103BA000720280917302909174022FBF0895CF9298
:103BB000DF92EF92FF920F931F932FB7F8944091EB
:103BC00071025091720260917302709174022FBF62
:103BD0006A017B01EE24FF248C0120E030E0C01656
:103BE000D106E206F30610F4415051099A01281B50
:103BF000390BC9011F910F91FF90EF90DF90CF908B
:103C0000089578941F920F920FB60F9211248F93FC
:103C10009F93AF93BF938091710290917202A09194
:103C20007302B09174020196A11DB11D80937102BF
:103C300090937202A0937302B0937402BF91AF91FC
:103C40009F918F910F900FBE0F901F90189581E05C
:103C50008093E00080E28093D8001092C9008FE149
:103C60009EE40197F1F700C0000087E090EBDC01D3
:103C70008093840290938502A0938602B09387027A
:103C80009CE088E10FB6F894A895809360000FBE81
:103C900090936000FFCF0E940D1C811102C00E9412
:103CA000871C0E94181C80932B020E94201C90E00D
:103CB00090937602809375020E941C1C682F70E01E
:103CC00080E090E00C944E198091300280FF0BC090
:103CD0006091050185E0689FB00111247595679595
:103CE000759567952BC081FF09C06091050185E03E
:103CF000689FB00111247595679520C082FF07C0A9
:103D00006091050185E0689FB001112417C0909172
:103D10002F029923D1F060910401961788F7209122
:103D2000050185E0289F90011124929FA001939F97
:103D3000500D112470E0CA010E94FF2D60387105FA
:103D400040F46115710539F002C065E070E0862F1E
:103D500008958FE7089581E008958091300280FFF3
:103D600008C06091030170E075956795759567953A
:103D700021C081FF06C06091030170E075956795D1
:103D800019C082FF04C06091030170E010C09091DF
:103D90002F029923C1F0609102019617A0F780913C
:103DA0000301899FC001112470E00E94FF2D60383B
:103DB000710528F46115710521F0862F08958FE7AC
:103DC000089581E0089561E070E0F4CF803F21F430
:103DD0000E94641E819504C0813F29F40E94641EE4
:103DE000809334020895823F21F40E94641E8195DD
:103DF00004C0833F29F40E94641E80933302089517
:103E0000893F19F40E94AD1E05C08A3F31F40E941B
:103E1000AD1E81958093350208958B3F21F40E9459
:103E2000AD1E819504C08C3F29F40E94AD1E809385
:103E300036020895843F21F480913202816017C0D8
:103E4000853F21F480913202826011C0863F21F4C7
:103E50008091320284600BC0873F21F4809132024E
:103E6000886005C0883F31F4809132028061809380
:103E7000320208958D3F21F48091300281600BC0A1
:103E80008E3F21F480913002826005C08F3F29F47B
:103E9000809130028460809330020895803F39F42D
:103EA0008091340287FF6CC01092340269C0813F58
:103EB00029F4809134021816BCF362C09091330249
:103EC000823F29F497FF5CC01092330259C0833FB0
:103ED00019F41916CCF354C0893F41F4809135028E
:103EE00018160CF04DC0109235024AC08A3F29F4D2
:103EF0008091350287FF44C0F6CF8B3F39F4809123
:103F0000360287FF3DC0109236023AC08C3F29F43A
:103F1000809136021816BCF333C0843F21F480919F
:103F200032028E7F17C0853F21F4809132028D7F4F
:103F300011C0863F21F4809132028B7F0BC0873FF6
:103F400021F480913202877F05C0883F31F480914F
:103F500032028F7E8093320213C08D3F21F4809114
:103F600030028E7F0BC08E3F21F4809130028D7F16
:103F700005C08F3F29F4809130028B7F80933002FF
:103F80008091330281110EC08091340281110AC0E8
:103F900080913502811106C080913602811102C0E4
:103FA00010922F02089580912B0283FF7EC085E935
:103FB00096E00E94FB08809132021F928F9380E965
:103FC00096E09F938F930E9494098EE896E00E945A
:103FD000FB0880913302282F082E000C330B3F93EF
:103FE0008F938BE896E09F938F930E94940989E8C2
:103FF00096E00E94FB0880913402282F082E000CC6
:10400000330B3F938F9386E896E09F938F930E94A4
:10401000940984E896E00E94FB0880913502282FDD
:10402000082E000C330B3F938F9381E896E09F930B
:104030008F930E9494098FE796E00E94FB0880917D
:104040003602282F082E000C330B3F938F938CE7FA
:1040500096E09F938F930E94940989E796E00E94CF
:10406000FB0880912F021F928F9386E796E09F9323
:104070008F930E94940984E796E00E94FB08809148
:1040800030021F928F9381E796E09F938F930E9457
:1040900094098EE696E00E94FB088DB79EB74C9679
:1040A0000FB6F8949EBF0FBE8DBF81E392E00E94D1
:1040B0001D100E94BF1D90932E0280932D02089523
:1040C0001F93CF93DF9380912D0290912E020E9437
:1040D000D71DAC0190912F02992321F02091060168
:1040E00030E006C0209107018AE0289F900111244A
:1040F0004217530708F47BC080913302C091340209
:10410000D091350210913602811107C0C1116BC0E8
:10411000D11169C0111167C06AC09F3F19F09F5F3C
:1041200090932F02181624F40E94641E8093330289
:104130008091330287FF05C00E94641E81958093A1
:1041400033021C1624F40E94641E80933402809172
:10415000340287FF05C00E94641E8195809334025B
:10416000309133023323E1F0209134022223C1F055
:1041700045EB3403C0011124892F990F990B009747
:1041800009F481E08093330235EB2303C00111244D
:10419000892F990F990B009709F481E080933402DD
:1041A0001D1624F40E94AD1E8093350280913502C5
:1041B00087FF05C00E94AD1E8195809335021116C0
:1041C00024F40E94AD1E809336028091360287FF50
:1041D00005C00E94AD1E819580933602DF91CF917C
:1041E0001F910C94D31F9F3F09F099CFA1CFDF916E
:1041F000CF911F910895E1E3F2E086E0DF011D9287
:104200008A95E9F710922F0210923002089588EBF8
:1042100098E00E94FB081F9281E08F931F9285E037
:104220008F938AE698E09F938F930E9494090F9052
:104230000F900F900F900F900F9008958330E9F139
:1042400028F4813061F0823009F10895853009F455
:1042500062C008F449C0863009F474C008958091A2
:104260000701262F30E0280F311D2F3F310524F4A0
:10427000680F6093070103C08FEF8093070180915F
:1042800007011F928F9383EA97E072C08091060125
:10429000262F30E0280F311D2F3F310524F4680F01
:1042A0006093060103C08FEF8093060180910601A1
:1042B0001F928F9381E997E05BC080910501262FC3
:1042C00030E0280F311D2F3F310524F4680F609333
:1042D000050103C08FEF80930501809105011F92B6
:1042E0008F938EE797E044C080910401262F30E041
:1042F000280F311D2F3F310524F4680F609304010E
:1043000003C08FEF80930401809104011F928F936B
:1043100089E697E02DC080910301262F30E0280F19
:10432000311D2F3F310524F4680F6093030103C052
:104330008FEF80930301809103011F928F9380E59B
:1043400097E016C080910201262F30E0280F311D22
:104350002F3F310524F4680F6093020103C08FEFF3
:1043600080930201809102011F928F9385E397E071
:104370009F938F930E9494090F900F900F900F902E
:104380000895833081F128F4813059F08230D1F0E2
:104390000895853009F449C0B8F1863009F456C053
:1043A000089580910701681720F4861B8093070108
:1043B00002C010920701809107011F928F9386E23D
:1043C00097E054C080910601681720F4861B809303
:1043D000060102C010920601809106011F928F9380
:1043E00084E197E043C080910501681720F4861BA3
:1043F0008093050102C010920501809105011F9272
:104400008F9381E097E032C080910401681720F417
:10441000861B8093040102C0109204018091040164
:104420001F928F938CEE96E021C080910301681754
:1044300020F4861B8093030102C010920301809137
:1044400003011F928F9383ED96E010C080910201CB
:10445000681720F4861B8093020102C010920201AB
:10446000809102011F928F9388EB96E09F938F9328
:104470000E9494090F900F900F900F900895CF9382
:10448000C82F1F928F938DEB99E09F938F930E947B
:10449000940981E090E0A0E0B0E0BC01CD0104C04F
:1044A000660F771F881F991FCA95D2F70E944E1971
:1044B0000F900F900F900F90CF910C947315CF9396
:1044C000482F50E0FA013597EF33F10508F03BC271
:1044D000E556FF4F0C94132E82E49FE00E94FB08E8
:1044E0008EE79EE00E94FB080E941C1C1F928F9387
:1044F0008BE79EE09F938F930E94940989E79EE04B
:104500000E94FB080E94181CC82F86E69EE00E94AD
:10451000FB081F92CF9381E69EE09F938F930E94AA
:1045200094098FE59EE00E94FB0885E59EE00E94CD
:10453000FB088C2F81701F928F9382E59EE09F93E2
:104540008F930E94940980E59EE00E94FB0886E418
:104550009EE00E94FB08C1FB882780F91F928F9381
:1045600083E49EE09F938F930E94940981E49EE0F0
:104570000E94FB0885E39EE00E94FB08C2FB88279F
:1045800080F91F928F9382E39EE09F938F930E9406
:10459000940980E39EE00E94FB0887E29EE00E946F
:1045A000FB08C3FBCC27C0F91F92CF9384E29EE0A7
:1045B0009F938F930E94940982E29EE00E94FB08E1
:1045C0000E94201CC82F8EE09EE00E94FB081F92D4
:1045D000CF9389E09EE09F938F930E94940987E098
:1045E0009EE00E94FB088EEE9DE00E94FB088C2F4F
:1045F00081701F928F938BEE9DE09F938F930E940B
:1046000094098DB79EB780960FB6F8949EBF0FBEE3
:104610008DBF89EE9DE00E94FB0882ED9DE00E9427
:10462000FB08C1FB882780F91F928F938FEC9DE0D8
:104630009F938F930E9494098DEC9DE00E94FB084C
:104640008BEB9DE00E94FB08C2FB882780F91F923C
:104650008F9388EB9DE09F938F930E94940986EB44
:104660009DE00E94FB0884EA9DE00E94FB08C3FBDA
:10467000882780F91F928F9381EA9DE09F938F9303
:104680000E9494098FE99DE00E94FB0885E99DE066
:104690000E94FB08C4FB882780F91F928F9382E950
:1046A0009DE09F938F930E94940980E99DE00E9472
:1046B000FB088EE79DE00E94FB08C5FB882780F978
:1046C0001F928F938BE79DE09F938F930E94940995
:1046D00089E79DE00E94FB088DE59DE00E94FB08B4
:1046E000C6FB882780F91F928F938AE59DE09F93F0
:1046F0008F930E94940988E59DE00E94FB0880E565
:104700009DE00E94FB08C7FBCC27C0F91F92CF9306
:104710008DE49DE09F938F930E9494098BE49DE02C
:104720000E94FB088DB79EB74C960FB6F8949EBFBB
:104730000FBE8DBF06C081E39FE00E94FB080E9470
:10474000871CC1E005C189E99BE07FC080912B02F5
:10475000817F8E7F80932B0282E79BE00E94FB0883
:104760008DE29FE00E94FB0881E080933802E9CF50
:104770000E94731581E19FE00E94FB089FEF23EDEB
:1047800080E3915020408040E1F700C000000E948B
:10479000271ED7CF80912B02C82FC095C170C0FBB8
:1047A00080F980932B02CC2319F085E09FE0BDC0F7
:1047B00088EF9EE00E94FB0880912B02897F877F13
:1047C00080932B02BECF90912B0291FBCC27C0F996
:1047D00081E0C827892FC0FB81F980932B02CC236D
:1047E00019F08BEE9EE027C08DED9EE02EC09091DB
:1047F0002B0292FBCC27C0F981E0C827892FC0FB90
:1048000082F980932B02CC2319F08EEC9EE013C02A
:104810008EEB9EE01AC090912B0293FBCC27C0F93F
:1048200081E0C827892FC0FB83F980932B02CC231A
:1048300051F082EB9EE00E94FB0880912B02816088
:1048400080932B0285C085EA9EE00E94FB0879CF09
:1048500083E69BE00E94FB0882E29BE00E94FB084B
:104860008FED9AE00E94FB088CEA9AE00E94FB0818
:1048700081E79AE00E94FB0883E49AE0E6CF85E3B3
:104880009AE00E94FB080E94BC0F1F928F938BE15D
:104890009AE09F938F930E949409809112011F9236
:1048A0008F9384E09AE09F938F930E949409809164
:1048B0005D021F928F9381EF99E09F938F930E94E7
:1048C00094098091750287FB882780F91F928F9346
:1048D00089ED99E09F938F930E9494090E94CB1DCC
:1048E0009F938F937F936F9382EC99E09F938F9325
:1048F0000E9494098DB79EB746960FB6F8949EBF56
:104900000FBE8DBF1ECF0E9473159091750297FB4D
:10491000CC27C0F981E0C827892FC0FB87F9809395
:104920007502CC2329F08BE99EE00E94FB0810C0A1
:1049300080E99EE08ACF895303C08D5101C080E099
:104940000E943F22FECE8EE89EE00E94FB08C0E05F
:104950008C2FCF91089580E0089580E008958E51C6
:104960008A3030F4E82FF0E0EC5EFE4F808108954D
:1049700080E00895CF93C82F80913802813059F09C
:1049800020F0823009F445C039C10E94281B8232D0
:1049900009F036C104C00E94281B823261F48C2FBA
:1049A0000E94AB24811104C08C2F0E945F222FC073
:1049B00081E090E02CC08C2F0E94AD24811126C094
:1049C000C431E1F070F4CB3081F0C031D1F40E94F9
:1049D000072185EB99E00E94FB0882E08093380272
:1049E00015C0C93259F0C83361F482E79BE00E94D8
:1049F000FB0889EB99E00E94FB0808C0109238027E
:104A000001C183EB99E00E94FB08FCC081E081704A
:104A1000FBC0C43228F5CE3108F0C1C0CB30A1F1C3
:104A2000D0F4C73009F0D0C08EE18093070182E353
:104A3000809306018AE08093050184E1809304015C
:104A400088E08093030188E28093020189E598E081
:104A50000E94FB08BCC0C33149F1C431C1F0B4C0ED
:104A6000CB3409F4A6C028F4C93289F0C83361F008
:104A7000ABC0C13509F49BC0C23509F496C0CE3431
:104A800009F0A2C06AE09BC00E940721A0C08091EB
:104A90003702882319F01092370299C086E698E011
:104AA0000E94FB0881E080933802AEC080E498E069
:104AB0000E94FB088EE298E00E94FB0880910701AB
:104AC0001F928F938BE298E09F938F930E9494099B
:104AD00089E298E00E94FB0887E198E00E94FB08C9
:104AE000809106011F928F9384E198E09F938F93AA
:104AF0000E94940982E198E00E94FB0883E098E01C
:104B00000E94FB08809105011F928F9380E098E03E
:104B10009F938F930E9494098EEF97E00E94FB0869
:104B20008DEE97E00E94FB08809104011F928F9305
:104B30008AEE97E09F938F930E94940988EE97E006
:104B40000E94FB0883ED97E00E94FB08809103011F
:104B50001F928F9380ED97E09F938F930E9494090B
:104B60008EEC97E00E94FB0887EB97E00E94FB0821
:104B7000809102011F928F9384EB97E09F938F9314
:104B80000E94940982EB97E00E94FB088DB79EB7C4
:104B900048960FB6F8949EBF0FBE8DBF18C08C2FDD
:104BA0000E94AF248093370212C061E003C061E02D
:104BB00006C06AE0809137020E941E2108C08091E1
:104BC00037020E94C12103C087E598E013C080919D
:104BD0003702882369F01F928F9381E598E09F93B5
:104BE0008F930E9494090F900F900F900F9004C024
:104BF0008EE498E00E94FB0881E006C01092380223
:104C000080E002C080E003CFCF91089580915C02E4
:104C100008959FB7F89410923B029FBF90917B023A
:104C2000943009F057C09091E9009F703091EC00EA
:104C3000232F217030FD20E8922B23E02093E90000
:104C40002091EB0020FF43C02091EE0027FF3FC0E2
:104C500020913902222321F02091E80025FF37C05E
:104C60001092390226E03091E80035FD15C03091F0
:104C70007B02343061F53091EB0035FD28C02150C6
:104C800021F481E08093390222C0EFE9FFE03197FF
:104C9000F1F700C00000E7CF8093F1008091E800B9
:104CA00085FD0AC08091E80080FFFCCF8091E8007C
:104CB0008E778093E80006C08FB7F89421E02093A8
:104CC0003B028FBF9F709093E90080E008959F7032
:104CD0009093E9008FEF08950F931F93CF93DF9385
:104CE00000D01F92CDB7DEB78C010E943B298230E5
:104CF00011F0843021F584E089831B830A8382E0EC
:104D00008093E9008FEF9091E800815095FD06C0F7
:104D100095ED9A95F1F700008111F5CF8091E800AB
:104D200085FF0DC040E050E063E070E0CE010196E9
:104D30000E9458298091E8008E778093E8000F90B8
:104D40000F900F90DF91CF911F910F910895CF9306
:104D5000DF9300D01F92CDB7DEB720917B022430C5
:104D600031F523E02983805891099B838A8382E06F
:104D70008093E9008FEF9091E800815095FD06C087
:104D800095ED9A95F1F700008111F5CF8091E8003B
:104D900085FF0DC040E050E063E070E0CE01019679
:104DA0000E9458298091E8008E778093E8000F9048
:104DB0000F900F90DF91CF910895CF93DF93EC0187
:104DC0000E943B29823011F08430F9F482E0809314
:104DD000E9009FEF8091E800915085FD06C085EDC8
:104DE0008A95F1F700009111F5CF8091E80085FFD9
:104DF0000CC040E050E066E070E0CE010E9458290F
:104E00008091E8008E778093E800DF91CF9108953C
:104E1000CF93DF93EC010E943B29823011F0843064
:104E2000D9F580911201882339F08091750287FFAE
:104E300003C060E282E002C068E081E08093E900A4
:104E40008FEF9091E800815095FD06C095ED9A9501
:104E5000F1F700008111F5CF8091E80085FF1CC0BB
:104E600080911201811105C040E050E068E070E0DF
:104E700003C070E040E050E0CE010E9458298091CC
:104E8000E8008E778093E80080E2FE01ACE3B2E0B8
:104E900001900D928A95E1F7DF91CF91089582E715
:104EA0009FE00E94FB0880917A02811109C00E9454
:104EB000ED2A0E944A2B8091E20084608093E200F8
:104EC00008958EE69FE00E94FB0810927A020895F2
:104ED0008AE69FE00C94FB0886E69FE00C94FB08B2
:104EE00082E69FE00E94FB080C94851D20913A0207
:104EF0002F5F822F62E30E94F32D992319F02093F4
:104F00003A02089510923A0280913B02882371F18F
:104F100080917B02843041F58091E9008F7020916F
:104F2000EC00922F917020FD90E8892B93E09093F4
:104F3000E9009091EB0090FF14C09091EE0097FF74
:104F400010C09091E80095FF03C01092F100F9CFD6
:104F50009091E80090FF05C09091E8009E779093B3
:104F6000E8008F708093E90010923B02089542E0C0
:104F700061EC81E00E94672A42E261EC82E00E94DB
:104F8000672A42E261EC83E00C94672A80917D02FB
:104F9000833009F460C030F4813071F0823009F45C
:104FA00099C008958A3009F485C08B3009F46BC02C
:104FB000893009F0A7C020C080917C02813A09F0B5
:104FC000A1C08091E800877F8093E80080918002F3
:104FD00090918102892B21F460E28CE392E003C07E
:104FE00060E080E090E070E00E94A3298091E800FA
:104FF0008B778093E800089580917C02813209F0DC
:1050000081C08091800290918102029708F07AC05D
:105010008091E800877F8093E8008091E80082FD1E
:1050200005C080917B028111F8CF6CC02091F30004
:105030008091F20090E0922B029729F48091F10088
:105040008B7F813021F48091F10080935C0280910C
:10505000E8008B7753C080917C02813A09F052C0FE
:105060008091800290918102892B09F04BC0809140
:10507000E800877F8093E8008091E80080FFFCCF04
:105080008091120136C080917C028132D9F58091E5
:10509000800290918102892BA9F58091E800877F99
:1050A0008093E8000E949C2A80917E0280931201E6
:1050B0000C94731580917C02813221F58091E80077
:1050C000877F8093E8000E949C2A80917F028093D2
:1050D0005D02089580917C02813AA1F48091E800FC
:1050E000877F8093E8008091E80080FFFCCF80916B
:1050F0005D028093F1008091E8008E778093E80054
:105100000C949C2A089584B7877F84BF0FB6F894C7
:10511000A895809160008861809360001092600083
:105120000FBE80E880936100109261000E946510BC
:105130000E94ED2A0E944A2B8091E20084608093B5
:10514000E20089E096E20E94D81B78940E94D82D54
:105150000E946D1088E091E00E94B70F81E59FE00A
:105160000E94FB0880917B02853089F48DE49FE0EA
:105170000E94FB080E943B1D80917902882391F3D5
:105180000E946D1D882371F30E944229EBCF0E947B
:105190009D10E8CF0C94CC28292F332723303105DC
:1051A000C9F064F42130310581F02230310509F075
:1051B00049C08BE590E02CEB3FE048C0213231053F
:1051C00021F12232310571F13DC082E190E027E109
:1051D00030E13CC099278130910571F02CF4892B86
:1051E00089F5E8EBFFE00DC08230910541F00397AF
:1051F00049F5E6E7FFE005C0EEEAFFE002C0ECE7B4
:10520000FFE0849190E09F0121C063307105D0F4EC
:10521000660F771FFB01E95DFE4F2081318189E038
:1052200090E014C06330710568F4FB01EE0FFF1FBE
:10523000EF5DFE4F20813181FB01E25EFE4F8081F8
:1052400090E004C080E090E020E030E0FA0131839B
:10525000208308950895CF93C82F0E942A29C093D0
:105260005E02CF91089580917B02843011F081E03D
:10527000089582E0089580915E02811102C00C942D
:105280003329089580E189BD82E189BD09B400FE1A
:10529000FDCF8091D8008F7D8093D8008091E00071
:1052A00082608093E0008091E00081FDFCCF089552
:1052B000CF92DF92EF92FF920F931F93CF93DF93E2
:1052C000EC018B016A010E94BB2A811133C0C11419
:1052D000D10439F0F60180819181081B190BC80FA8
:1052E000D91FE12CF12C0115110519F18091E8006D
:1052F00085FD16C08091E8008E778093E800C11488
:10530000D10449F0F60180819181E80EF91EF18205
:10531000E08285E00FC00E94BB2A882321F30AC0E7
:1053200089918093F10001501109FFEFEF1AFF0AF4
:10533000DACF80E0DF91CF911F910F91FF90EF9036
:10534000DF90CF900895209182023091830226173A
:10535000370748F06115710539F42091E8002E7780
:105360002093E80001C0B90140E061157105A9F181
:1053700020917B02222309F443C0253009F442C066
:105380002091E80023FD40C02091E80022FD32C0BA
:105390002091E80020FFE9CF4091F3002091F20036
:1053A00030E0342BFC01CF016115710559F0283034
:1053B000310540F481918093F100615071092F5FB4
:1053C0003F4FF1CF41E02830310509F040E0209116
:1053D000E8002E772093E800C8CF4111C9CF0AC05A
:1053E00080917B02882361F0853061F08091E80034
:1053F00083FD0AC08091E80082FFF2CF80E008952B
:1054000082E0089583E0089581E00895209182026A
:10541000309183022617370748F06115710539F47A
:105420002091E8002E772093E80001C0B901FC012B
:1054300020E06115710591F180917B02882309F4C8
:1054400040C0853009F43FC08091E80083FD3DC035
:105450008091E80082FD2FC08091E80080FFE9CFB5
:105460002091F3008091F20090E0922B611571057C
:1054700059F08830910540F424912093F100319641
:10548000615071090196F2CF21E0089709F020E000
:105490008091E8008E778093E800CBCF2111CCCFAC
:1054A0000AC080917B02882361F0853061F0809191
:1054B000E80083FD0AC08091E80082FFF2CF80E01F
:1054C000089582E0089583E0089581E00895982F7B
:1054D000973058F59093E900981739F07091EC00E7
:1054E0002091ED005091F00003C0242F762F50E062
:1054F00021FF19C03091EB003E7F3093EB003091DB
:10550000ED003D7F3093ED003091EB003160309342
:10551000EB007093EC002093ED005093F00020918D
:10552000EE0027FF07C09F5FD3CF8F708093E90005
:1055300081E0089580E0089580917C0287FF11C08A
:105540008091E80082FD05C080917B028111F8CF37
:1055500011C08091E8008B770BC080917B0288237B
:1055600049F08091E80080FFF8CF8091E8008E77C5
:105570008093E80008952091E4003091E50095E6DD
:105580004091EC00842F817040FF22C08091E800A0
:1055900080FD1CC080917B02882391F0853091F0C2
:1055A0008091EB0085FD10C04091E4005091E50032
:1055B0004217530729F39A01915011F784E0089597
:1055C00082E0089583E0089581E0089580E00895E1
:1055D0004091E80042FFDECF08950E945B2B0E94BD
:1055E000632BE0EEF0E0808181608083E8EDF0E005
:1055F00080818F77808319BCA7EDB0E08C918E7F7E
:105600008C9380818F7E808310927A0208950F930D
:105610001F93CF93DF930E945B2B0E94632BC8EDF7
:10562000D0E088818F7788838881806888838881AB
:105630008F7D888319BC10927B02109277021092A2
:1056400079021092780200EE10E0F80180818B7FE1
:10565000808388818160888342E060E080E00E94EE
:10566000672AE1EEF0E080818E7F8083E2EEF0E059
:10567000808181608083808188608083F80180815F
:105680008E7F8083888180618883DF91CF911F9195
:105690000F910895E8EDF0E080818F7E8083E7ED43
:1056A000F0E080818160808384E082BF81E080932C
:1056B0007A020C94072BE8EDF0E080818E7F8083E6
:1056C0001092E20008951092DA001092E10008951D
:1056D0001F920F920FB60F9211242F933F934F9367
:1056E0005F936F937F938F939F93AF93BF93EF934A
:1056F000FF938091E10082FF0BC08091E20082FF66
:1057000007C08091E1008B7F8093E1000E947627A3
:105710008091DA0080FF1FC08091D80080FF1BC0FD
:105720008091DA008E7F8093DA008091D90080FF2B
:105730000DC080E189BD82E189BD09B400FEFDCFC5
:1057400081E080937B020E944F2705C019BC109214
:105750007B020E9461278091E10080FF19C0809147
:10576000E20080FF15C08091E2008E7F8093E2000E
:105770008091E20080618093E2008091D800806295
:105780008093D80019BC85E080937B020E946C272F
:105790008091E10084FF30C08091E20084FF2CC042
:1057A00080E189BD82E189BD09B400FEFDCF809111
:1057B000D8008F7D8093D8008091E1008F7E809308
:1057C000E1008091E2008F7E8093E2008091E20010
:1057D00081608093E20080917702882311F084E059
:1057E00007C08091E30087FD02C081E001C083E033
:1057F00080937B020E9470278091E10083FF29C083
:105800008091E20083FF25C08091E100877F809333
:10581000E10082E080937B02109277028091E100A8
:105820008E7F8093E1008091E2008E7F8093E20082
:105830008091E20080618093E20042E060E080E0DD
:105840000E94672A8091F00088608093F0000E9497
:105850006827FF91EF91BF91AF919F918F917F91B9
:105860006F915F914F913F912F910F900FBE0F90CD
:105870001F9018951F920F920FB60F9211242F931D
:105880003F934F935F936F937F938F939F93AF93C8
:10589000BF93CF93DF93EF93FF93C091E900CF7055
:1058A0008091EC00D82FD17080FDD0E81092E900F3
:1058B0008091F000877F8093F00078940E947E2C86
:1058C0001092E9008091F00088608093F000CD2B69
:1058D000CF70C093E900FF91EF91DF91CF91BF911D
:1058E000AF919F918F917F916F915F914F913F9178
:1058F0002F910F900FBE0F901F9018951F93CF936D
:10590000DF93CDB7DEB7AA970FB6F894DEBF0FBE10
:10591000CDBFECE7F2E088E08E0F9091F10091931B
:105920008E13FBCF0E94C6278091E80083FF28C119
:1059300080917C0290917D02492F50E04A305105C0
:1059400008F01EC1FA01E652FF4F0C94132E803866
:1059500021F0823809F014C108C08091780290913A
:105960007902992389F082600FC0809180028F7044
:10597000873008F005C18093E9008091EB0085FB3A
:10598000882780F91092E9009091E800977F909322
:10599000E8008093F1001092F100D0C0282F2D7FF5
:1059A00009F0EEC0882319F0823061F0E9C08091DF
:1059B0007E02813009F0E4C0933009F080E08093EA
:1059C00079022EC080917E0281112AC080918002CE
:1059D0008F702FEF280F263008F0D2C08093E90097
:1059E0002091EB0020FF1CC0933021F48091EB004C
:1059F000806214C09091EB0090619093EB0021E0E5
:105A000030E0A90102C0440F551F8A95E2F7409388
:105A1000EA001092EA008091EB0088608093EB002E
:105A20001092E9008091E800877F8093E8000E944F
:105A30009C2AA6C08111A4C010917E021F7780917C
:105A4000E3008078812B8093E3008091E800877FDA
:105A50008093E8000E949C2A8091E80080FFFCCFA0
:105A60008091E30080688093E300111102C082E01E
:105A700001C083E080937B0283C08058823008F0AD
:105A80007FC080917E0290917F028C3D53E095070C
:105A900079F583E08A838AE289834FB7F894DE013F
:105AA000139620E03EE051E2E32FF0E050935700E0
:105AB000E49120FF03C0E295EF703F5FEF708E2FFF
:105AC00090E0EA3010F0C79601C0C0968D939D9388
:105AD0002F5F243149F74FBF8091E800877F809383
